:2000000030140020DDED0100798002007980020079800200798002007980020079800200CF
:1C002000798002007980020079800200798002007980020079800200B36F0200BE
:20003C0038B53C4C207840B940F244720FF62C11394816F08DFE01202070002137480170A0
:20005C00012237490A700223364A5370032353720524042393760925334BDC7106249C728A
:20007C000724947708249474304C25720A25CD710B251D730C2525700D241C700E245C7039
:20009C000F230B71102111702949C0F8621031BD2DE9F0412749284A3F2000F057FCD1F8C6
:2000BC0018E0D1F81C80136054609560D6601761C2F814C0C2F818E000F042FCEDD1086861
:2000DC004B688C68CD680E694F698969106053609460D560166157619161BDE8F0812DE96E
:2000FC00F0410FF25C01154A402000F02FFCD1F818E0D1F81C80136054609560D66017618B
:20011C00C2F814C0C2F818E000F01AFCEDD1BDE8F08100007C31012024400021260400210B
:20013C00DA0300219003002101040021B4030021AD450021B4F202000080002100C00021B6
:20015C005B61F835F97546A257A3401F0713F134304000400140034007400F404F40CF4044
:20017C00CF41CF43CF47CF4FCF3FCF2FCF1FCF0F304000400140034007400F404F40CF40CD
:20019C00CF7FCF6FCF5FCF4FCF3FCF2FCF1FCF0F50C00091007070C000910070823121007D
:2001BC00319110B10070018101B100A18231329110B101911110418141223B40F10600706A
:2001DC0050C05091007070C05091007082312100819160B10070251050C00091F4C380C0ED
:2001FC002014036F31104104A082F0225840512622C082312100319110B163393110410419
:20021C0082C082312100319110B163393110A2C082312100319110B15010153105145592ED
:20023C0000702B64B2C2311031066131C1022E6412C13110213971065131E1022E64007084
:20025C002864B18281318139E2C02E642B6411C122C12E6470C48B6811C1C2C02E64A46438
:20027C00B76400704064B1828131813982C14664436411C1A2C0466470C49D6831C362C1D2
:20029C004664A464B764007050B054B0007140804022B1440022A44060B08180111EA4444B
:2002BC00007054A064B0F0800022A44000704012B09032B0A382533953397164F0C2BF6865
:2002DC008080F1C1100451C1101CCB402B6421C2C2C02E64CF60436441C462C146649080B5
:2002FC005039D34400CED3688012B09032B000702B6401C2C2C02E64A08080314039DF681E
:20031C0001C1C2C02E6401C122C12E64A3827164C012B09032B00070436401C462C146641D
:20033C00A08080314039F36801C362C1466401C1A2C04664A3827164C012B09032B000703F
:20035C002B6472C281C02E6422C111C12E6402C011C12E6462C031C32E6462C311C12E644D
:20037C0002C311C12E64A38253397164E2C333641122164142C281C82E6452C211C12E6495
:20039C0072C2E1CE2E6402C281C82E6402C201C82E6470C12A6900702B6442C201C82E64EC
:2003BC0052C211C02E6472C2E1C02E6402C001C12E6462C001C32E6422C101C12E6462C359
:2003DC0001C12E6402C301C12E64A382716400708180111E564150B054B0007140804022CC
:2003FC00574154A064B0F18001224B45007000224B4160B04861067305720B720E7250B059
:20041C000071818060B050A09280D0EE41935293FA6741227F458080F1C11004301601111F
:20043C000114016CA061A061A061A061A061A061A361A761AD61B161A061D362D662F0C0CE
:20045C0002043231412A1214321601112114016CBF61A161BF61A561AF61A961A061A06126
:20047C00F462B361F462A561B561A961A061A061C561A161C561A561AF61A961A061A06108
:20049C00B861D665B8618064B86180644865D864B86192644865EC64B8610065B861006501
:2004BC00D6652C65B861FE66B8610065FE66B161B0B0BB61B1B00673057230B05F611078EE
:2004DC0051C43278537824C5CA61207851C442785378C4C4A491609271928292939215C070
:2004FC004592F0C3B092F0C0A090B861E3B0CF6654A0F0805022E04540800022C346D86134
:20051C00E3A000C8B091A98150B0918041229E466282F11212042F101F312F146682D62202
:20053C00F34580C0F46180C120140D6F6D39DE10F4C34E0482C082312E006D39A2C0823166
:20055C002D006A828A39FA067082803180390BC00B18BC10AC18538239149B146082F00620
:20057C00011010311014A18110140C1480824039F006021011C0013010C001180218823148
:20059C002100C126E191C0CEFA67C6225A4603B013B063B053B041800122C34604821492A9
:2005BC002582B51C394E9518B591F08010222B429C623D9110B13E9110B1E08000224346F6
:2005DC00E6224342E0B09518B5915F92A981F914F0805022D64110229C46D962CF66A98120
:2005FC0055825914F0C0007163B0536AC6222B42E0A0726280828039F006021011C001303C
:20061C0010C00118021882312100C126D19187824739873903B013B063B053B0007163B045
:20063C0002B012B041800122C346F48114922582B51C804E9518B591F080102272429C6295
:20065C000482149224824518751C8A4EF080102272429C623D9110B1E08000229246E622A1
:20067C009242E0B0B5915F92A981F914F0805022D64110229C46D962B0CEFA6763B0808250
:20069C00F006021011C0013010C00118021882312100C126E19113B003B063B053B064B064
:2006BC0054B0007141800122C34663B064B0F0805022D6414022B1460182119221829118D1
:2006DC00B19131B0B162E3A0E0A05182B2818231823DA0EE41935293FA6703A000706282AE
:2006FC004239F2064B60A2804B64B86150B00071B861908241800122C3460482149225827A
:20071C009518B591F18011229C46DA6A41800122C346048214922582C51C4E4A9518B591D4
:20073C00F0801022E6429C626078E091D0C25092C4C47078E1C232C103CBCA61E2A0E3B004
:20075C0054A0F0805022084740800022EF470063E3A040A07D826082F1C0100409106A82CF
:20077C004A391A046082803910040E10AB10BC10C2104B6490CEFA6713B003B0A16753B0A7
:20079C0050B054B064B013B081678A67007141800122EF47F08010223647F022DC4764B096
:2007BC003122264363B0A7675A67266364B0BF818F318F3D80DE4F93FA6700714180012220
:2007DC00EF4764B0F08050224F4363B06182C1224A47A7676182D1223D475A673D63B181DA
:2007FC00C2818131813D8231823D70EE41935293FA67FE62008210922382D318674FF30B78
:20081C001316E31C804B139233823B146C63E31C804B139233823B18AB1C7C4F9B1C7E4BC8
:20083C00BC1C8043B2106082D0227943F080102280474B6481678063AB1070639B107063C0
:20085C0000708082F1C0100463B00071846BBC10E0B0007002821292228251821218A1811B
:20087C00121891828131813D121C984BE2B032B0F1C721149C4F12C8B291C29131B0E1B070
:20089C000070081206C000C8B091C091007051820082109220821018A18110180614E1809C
:2008BC0092828231823D201CBB4BE2B02122BF4732B060CEFA672122BF43E2A032B081825C
:2008DC004139F0C00104011ECD43181610C01030081CDB476010103C0610F1C76114D14FFB
:2008FC0016C8B691C1818131813D161CD84BC69131B006C00812007003A063B064B0EFB0BF
:20091C002C65007140800022EF4764B00065EFA0007140800022EF4764B003B02663E3A03D
:20093C005182B2818231823D50EE41935293FA6703A00070309320830022FB4710B30070BB
:20095C00C2F81C8020312032401E70470B684C688D68CE680F69D1F814C07047614100218C
:20097C00D9410021554200210B4400215B440021914000219D400021B5400021DF440021EE
:20099C00D94000210B410021F940002151460021654600217F4600214541002101470021C0
:2009BC00FFB581B003480A9D0047F8B58446024813460047437F00004551000070B51D46BC
:2009DC00004C2047812202007046800A054A8D2804D01047034AE4320120049002490020B1
:2009FC0008701047696F0000F801002103490888034A7146904200D0891C0847A6010021DC
:200A1C0004140000F3B583B000480047170B020005480268520803D3044BDA600022026020
:200A3C007046001D0047000064470021400300210B487022016891434022114301600948C6
:200A5C000047094801780C4608229143017000F003F80548047010BD10B5044800470000D7
:200A7C00183004400F710000B30000210356000010B5014800470000DF090000034804494C
:200A9C00C068C005C00F88470249084740030021D1870000CD530000F8B514461A46069B31
:200ABC00009313462246FFF77BFF009000282DD12E494868002829D009884900091B4143D6
:200ADC002B48C0684408640022791820801AC6B2012080040818C70C65793146254800F080
:200AFC00D3FA244801228319691E8A40002018218E1B07E041000919C98879438918E9406E
:200B1C001954401C8642F5DC1B4880470098F8BD10B5FFF74AFF044614490020174A48600C
:200B3C0010680088000B03281DD060071BD41068C07B002801D0022815D11320C0010C4A1A
:200B5C000880D068C02804D0D82804D0FF38393809D10B4800E00B4848600B48D0601821BD
:200B7C00044800F091FA204610BD00005C47002128000021000000214D7600000801002144
:200B9C00913B060029FD0300FD9000000188BB4A8918032906D8BA487C210185B9494162AE
:200BBC0001207047B8490847B84830B4014640310A7C022A16D10268D2794A7502689368E3
:200BDC00024680329360487D02280BD0002809D0C41E062C09D8AA49800040184038806B1E
:200BFC0018189060AA4830BC00470320C002C8800220087230BC0320704770B5A3480446AB
:200C1C004034A57D012D12D0017D4906CA0F80210A54217C00290AD1603040788008C00735
:200C3C0002D0E07C000702D50120A07500E00020A07398488047A57570BD70B5934C964873
:200C5C00254650358047022809D14034E188934A914204D1E97C890601D4911DE18070BD56
:200C7C0070B58A490A8908465030D2B2282A07D10A68D2684261937AD27A12029A1802835E
:200C9C000378874A002B10D08379012B0DD1037C5B09DB0709D0097D824DC1746C7F202088
:200CBC002043687790476C7770BDFF21C174904770BD10B57C48754C804702280ED1214615
:200CDC004031CA88754B9A4208D1CA7C5209D20704D0227D920601D49A1DCA8010BD70B573
:200CFC006A4872494030C07C4009C00707D06D4D6F482C8B2043288388472C8370BD884728
:200D1C0070BD70B5614C6B49264640363579A8004018406B80470A2D214610D054310A787D
:200D3C009309DB0704D0B2730A7803231A430A702189CAB22B2A01D32839218170BD53319E
:200D5C00EDE752494031087125281AD008DC0A2811D00B2811D0182811D01E2806D114E0AA
:200D7C002A2810D03C2806D03D2810D0514980004018406B7047504870475048704750489C
:200D9C00704750487047504870475048704750487047F8B507463D4C4E20005D8509EE0773
:200DBC00FB25002E17D0267D3407240F052C03D00124204202D012E00224FAE7C00905D0DD
:200DDC00700603D54868800F012808D05B085B005208520003E0002801D02B402A40062B1D
:200DFC0003D01020022B10D010E002232A403846FFF7E4FD002807DAC200B91A2039497E35
:200E1C001422114200D10020F8BD024303433846FFF7D4FDF8BD70B5FFF7F4FD05002BD1F5
:200E3C0017491A480968403082892A4B9A4223D1CC690121090700228C420CD226494B793B
:200E5C005B0706D5C868254A4000401C1060CC6012E0828110E0828175202149C0008847EC
:200E7C000646204600F0B6F8002801D00325ED021B49B0B212398847284670BDD5E7FFFFC1
:200E9C0008010021190602002506020060010021A5450200FD2C0200493B02000414000087
:200EBC00FD380200A8000021FB2402004F1D020020200000C04F0200CB430021A7430021FC
:200EDC007B4300212943002103430021C342002171420021FFFF00004003002164470021FB
:200EFC00E5400000F8B5204D20482C88C06A204E01070120090F40020227220B082920D0E9
:200F1C000DDC01290FD0042914D11A49D20712D0224682432A80012088472C800DE00C29FE
:200F3C0001D00D2906D17069B84370610120124980020860F8BD01208847706938437061E2
:200F5C00F8BD610AC907FBD0D107F9D00B4CA0470B490122486A9203104348620949486323
:200F7C000020A047F8BD0000680000210060044000110440057D000080E100E0B745000058
:200F9C00C00200210040044010B5034CFFF770FD20680028FAD110BD001104400B490A78E4
:200FBC00FF2A04D10A4AD27A1207120F0A70084940318875704705490978FF2905D0000978
:200FDC00000108430249403188757047A502002100620840F1B5264E00207479F768F060F1
:200FFC00244825460088C00502D50420044374711D22214B002100989847002809D1F168EC
:20101C00031F002904D000990968CAB22B2A03D01846F7607571F8BD8905890F022902D173
:20103C00FB210C40747104210C400D40AC42F2D0124A09039160F8BD70B504460088152897
:20105C0003D00F492046884770BD75200D49C000884705466068FFF7BDFF002801D0872404
:20107C0000E00124074928461C318847204670BD4003002184020021994A0000001104409F
:20109C000F270000C745000003B40148019001BDDD8900000000000000000000000000003D
:2010BC002DE9F8436A4C6B496B4E20700020086009216A4801700D21418040F221118180E7
:2010DC00674868490860377867480770FF2F7178417008BFFF29B2788270F378C370357938
:2010FC0005717679467114D1FF2A08BFFF2B10D1FF2D08BFFF2E0CD15C490A7802704A7880
:20111C0042708A788270CA78C2700A7902714979417157490278574D574E584F0A704278F1
:20113C004A7082788A70C278CA7002790A7140794871FF2028706870A870E8702871687198
:20115C0000204F490880F06B4E4940780870F06B01784D480170F06B4C49807808704C4942
:20117C00F06B90F83C0008704A49F06B90F83D000870F06B4069017947484A1E0270F06B4F
:20119C004649C0783870F06B8069086008B926F0C5FDF06B4249C069086008B926F0BEFD76
:2011BC001CF022FEF06B3F49006A086008B926F0B5FDF06BDFF8F080406AC8F8000008B9DC
:2011DC0026F0ACFDF06B3949806A086008B926F0A5FD0AF0ABF907280BD112F0C7FB207887
:2011FC004FF4804110F0A8FDBDE8F243002026F095BD2F4801688847D8F800100A68814600
:20121C009047D8F8002052F8041F00208847F068284A0188387801431180484626490A6848
:20123C0090470C21254824F05BF9284623F068FC24F06EF92248002101604FF6FF718180B7
:20125C004FF400512078BDE8F44310F075BD00BF7731012090300120D04F0050B42F01205C
:20127C00B63F005094300120AC2F0120E8120050BC2F01209C2F0120B0FA02007D3101206F
:20129C00443101207A31012076310120793101208C3101208D3101207E31012088300120D7
:2012BC00983001209C30012084300120A0300120EC76002046310120F0760020302F012056
:2012DC00D02F01202DE9F04F85B0804611F8010BDFF8E427009008F1FD00009B182B08F12E
:2012FC00E70B08F1660508F20D1A08F5B07608F1860908F59C7408F5C67700F2CB83DFE862
:20131C0013F019006C0082018900C903C903F300A30308011D01F70004014901C903C903E7
:20133C00A001C90386016B01AF03FB02FB025302C9039F0211F8010B89F80000022208F110
:20135C00880027F043FF0146022208F18A0027F03DFF0146022208F18C0027F037FF0146CB
:20137C00022208F18E0027F031FF99F80010B9F80220490089F800105200B9F80410A9F859
:20139C0002204900A9F804100222B9F808100901A9F80810014608F1840027F017FFE98BFC
:2013BC00B8F80800091A89B247F6FF72914228DAB9F80600B9F80410B9F80820401C49007E
:2013DC004843904201D33B201EE1012028770020A8F81E00012020706BE3052208F1610048
:2013FC0027F0F4FE0146022208F1920027F0EEFEB9F80C10B8F80800091A89B247F6FF723E
:20141C00914280F24882012189F80A100020A8F81E006FE29BF81600C2070BD49BF80D00C4
:20143C001A2101288BF80E1002D1FF220D213CE00D21FFE100202870082201208BF81100A8
:20145C0008F1A80708F1B00027F0C0FE0146022208F1B80027F0BAFE01460822384627F059
:20147C00B5FE04460821384626F051FF08F19C0704222146384627F0A9FE0421384626F028
:20149C0046FF08F1A00028F08BF908F1980027F0A9FEDFF82806018841F0800101809BF813
:2014BC000D00012807D1FF220421404605B0BDE8F04F19F0EFBA6C7C0F2C18BF142C03D0DE
:2014DC000E2C18BF0C2C0DD12F7C40461DF0ACFD042140461BF094F8012F12BF2146AC7616
:2014FC00FD21A7E10421A5E101208BF80F00E0E200202870A8718BF800000B2101208BF8E6
:20151C000D0000208BF8010094E101208BF81000CFE2002302F10904CF5CE45C2743CF5409
:20153C00541CE45C2740C7545B1C082BF2DBA879002847D040461BF099F8B0E2002302F1BC
:20155C000904CD5CE45C2543CD54541CE45C2540C5545B1C082BF2DB02208BF815009BF87E
:20157C001700010703D440F64800B081F08150788106CDD530891B2804BF71891B2907D173
:20159C00B089B0F5A47F04BFF189B1F5A47FBFD014214FE19AF80000012811D011F8012B63
:2015BC008AF8032008F58970022227F00FFE0146022208F58A7027F009FE01208AF8000009
:2015DC00A879002800F09D819AF8021000292BD140461AF0ADF862E29BF81600DFF8E054A2
:2015FC00C10609D412218AF80C1040461DF02AFF002819D1287855E240461EF09DFF00285D
:20161C0012D128784EE208788AF80B007CE10878307048787070287C01280CD1697C0F39FA
:20163C00012902D9C91F02D043E2607341E2387B40F001002CE205B0BDE8F04F002026F0F3
:20165C006DBB9BF81600DFF87874820709D40F218AF80C1040461DF0F5FE0028E6D1387891
:20167C0020E208784A7800EB02202082CA78887800EB022060824A79087900EB0220A082B7
:20169C00CA79887900EB0220E082087A20768A7A487A00EB022060830A7BC87A00EB0220D9
:2016BC00A0838A7B487B00EB0220E0830A7CC87B00EB022020848A7C487C00EB022060847E
:2016DC000A7DC87C00EB0220A084487D897D00EB0120E08408F5AA700490608B0390207EF0
:2016FC000290B8F808000190E08A0090A38A628A218A404619F00CFAA8B19BF81600410756
:20171C0009D40F218AF80C1040461DF09BFE002847D13878C6E1404605B0BDE8F04F1E22E0
:20173C000F2122F043BB608AA9F80400A08AA9F80600E08AA9F80800022089F80000002017
:20175C00A9F80200B8F83400C01DE883B8F83210B9F80400884202BFB9F80600B8F83410C1
:20177C00884202BFB9F80800B8F83610884219D0287C012804BF697C0F2905D0687D18B130
:20179C000F21A976FE2155E0FC2140461AF038FFE08A0090A38A628A218A98F8060010F052
:2017BC00EDFC86E1102145E09BF8170010F0090F03D116218AF80C106EE148780A7800F07B
:2017DC00070002400A7008787A7B0240FA7210D0501E02420BD0510704D5B87B10B1042150
:2017FC00F97204E00220024219D14008FBD1F87A08B9B97AF972F87A042803D140461CF045
:20181C00A0FCB083F87A26F019FB3871B28BB97B012320F015F8318B814202D208E0F87241
:20183C00E5E7B28BB97B3879012320F009F8014679801721404605B0BDE8F04F1AF0E0BE2A
:20185C0048780A78824207D100F00700104008702ED0431E18420FD01E221821404622F026
:20187C00A5FA98F80610002300221E2015F04AF8387B40F040000BE1F87247F6FF72887816
:20189C00C97800EB012038813989B8F80800091A89B2914201DB282134E00120B871F87A86
:2018BC00042803D140461CF04CFCB083F87A0AE0687C162806D1BA7A98F806101346002057
:2018DC0015F020F8B87A3871B28BB97B387901231FF0B6FF318B814206D3B28BB97B387970
:2018FC0001231FF0ADFF0146387B798040F04000387301212170DCE0142B04BFA879002825
:20191C0006D13D218AF80B1001208AF80A00D0E008784A7800EB02207082CA78887800EB0E
:20193C000220F0824A79087900EB022030828879C97900EB0120B08208F5B07108F5B07038
:20195C008A8AC089B97A904288BF1046042905D140F691229042B8BF4FF42960F28BF0837B
:20197C009042B87A14BF01250025042803D140461CF0E7FB08E008F5B07008F5B071808989
:20199C00CA8A904288BF1046B28BB08308F5B071904208F5B0704A8A008918BF01259042BF
:2019BC0088BF1046328B3083904218BF0125B28BB97BB87A01231FF043FF318B814206D3BF
:2019DC00B28BB97BB87A01231FF03AFF0146798008F5B07008F5B0724189108A728B81423C
:2019FC0088BF01467183914298F8063014BF0120002005438A4233490A6802EB4311728B5C
:201A1C008041121DC00F0A7610B1404623F04BFA009814280ED145B1F08B0090738BB28BDD
:201A3C00318B98F8060012F055FB1521404617F0ADFC34E01DB1387840F008003870397857
:201A5C0041F02001397034E008780E280ED00F2809D0122804D014280CD0162812D028E069
:201A7C000020207225E00120207322E003208BF815001EE0387840F00200387040F010005A
:201A9C00387016E0387B40F00200387340F0100038730EE08AF80C3040461DF0D3FC40B90A
:201ABC00074800784FF4804105B0BDE8F04F10F043B905B0BDE8F08F942D01204831012055
:201ADC00773101206C3001202DE9F84F012023F031F8012819D1DFF8AC663078002110F0E5
:201AFC0025FC5FEA000904BF002026F017F9002089F8080009F1040016F0B4FF07F082FA7B
:201B1C00050003D1812028F023FD37E30120687105F59774DFF870064178491C4170A879A1
:201B3C00DFF8681689F80A0030780870402011F047FB2860D9F854104A78D9F85000D1066F
:201B5C001ED5816C0A681179032904D00CBF0120002026F0E3F8D9F85000816C90F86C008E
:201B7C000A6802F1080A01281CBF002026F0D6F8D9F850102A68486F00F5B060D06041E0FA
:201B9C00C16E0A681179032904D00CBF0120002026F0C4F8D9F85000C16E90F898000A683E
:201BBC0002F1080A01281CBF002026F0B7F8D9F85010DFF8DC25D1F8A0002968DFF8D43538
:201BDC00C8609AF82660032E19D8DFE806F002050C0F00F5B06001E000F53470C860108869
:201BFC00E087108808E000F5355001E000F6B870C8601888E0871888A5F8740102E000F5B1
:201C1C00B060C86006222868DFF88C65C168DFF88C8501F59071C1600AF102019AF8000037
:201C3C00C0F38010207005F5947027F0FFFA04220AF10E0105F1240027F0F8FA3068AF7994
:201C5C0000F10C0304220AF10E0103EB471027F0EDFA3068AB7900EB431003220AF11201C8
:201C7C00103027F0E3FA05F12C079AF81500B87002220AF1160105F1300027F0D7FA0222B4
:201C9C000AF1180105F1320027F0D0FA02220AF11A0105F1340027F0C9FA388968840222FC
:201CBC000AF11C0105F1360027F0C0FAB87879894000B8700901B88879814000B88089B262
:201CDC00F8884000F88003046A8C521CDB0B5A438A4201D280B230B998F80000802110F0D7
:201CFC002BF83B2154E105F12E01284626F096F80520A881284626F051FD05220AF11E017C
:201D1C0005F1610027F092FA9AF823004009387025F084FB6882B9F82A10401AA08105F12D
:201D3C0061019AF82300DFF8784400F01F00F8734FF01C0A284620F0CDFCD9F854104A78C0
:201D5C00D9F85000D1064CBF816CC16E41F62102086800210171A97920681AFB01F14252A6
:201D7C000022A9791AFB01F101444A80A9791AFB01F108444260D9F85410DFF828044A78DC
:201D9C00D1060DD5DFF820148A7851060AD5DFF81C140A8841F20A439A4208BFDFF8100484
:201DBC00C5F89C01D5F89C11284688472168AB7901F10E021AFB03F3D054A97920681AFB59
:201DDC0001F108440021C173DFF8E803017889B1B88878B900217973012028816881284640
:201DFC00D5F89C1188472168AB7901F10E021AFB03F3D054A87921681AFB00F001F10E02EF
:201E1C00125C7A73D9F854104A78D1061FD505F5CB7B9BF8000008B925F080FFA9792068B7
:201E3C001AFB01F108449BF800104A1E0274A97920681AFB01F10844002141742068AA7934
:201E5C0000F112011AFB02F2002088522CE0D9F85010236891F8402018440274A979206832
:201E7C001AFB01F10844D9F8501091F841204274D9F850002168AB79403001F112021AFBC9
:201E9C0003F34188D15205F5CB710078012200F0030082400A70D9F8502092F840008008B1
:201EBC0014BF0120022008712168A8793368DFF808B301F114021AFB00F103EB40105050B4
:201EDC00A97920681AFB01F10844BC498161DBF814000078D6F800C095F806E0C107DBF807
:201EFC00141009784CBF102000208A07DBF8142012784CBF202100215307DBF814301B7833
:201F1C004CBF402200221B074CBF80230023084310430CEB4E1C184340F00F008CF80800FE
:201F3C000B223068A97900EB411042723168A87901EB40110422A2488A720178012906D131
:201F5C003268A87902EB40110122CA7207E0DBF824003168AA79407801EB4211C8723068AA
:201F7C00A97900EB41101F2202763168A87901EB401100224A76A87910F0C0FCAA793168BC
:201F9C0052018850AA7931685201885820B90721284625F017FDF1E08A48AA79016801EB58
:201FBC00021028F07BF8874BA87931681A6801EB401102EB00104860A979306800EB411280
:201FDC005168F963AA79520181587964042198F800000FF0B1FED9F8540041782268C8060B
:201FFC0048BF02200AD4A8791AFB00F01044007C00F00300022814BF04200620B988DFF876
:20201C00B4C143189CF8000010B109B9F8881B18688A95F806C058434FF4C871B0FBF1F022
:20203C00401C1AFB0CFCAB6168616244D5F800C0DCF80CE040F6C41101FB03E31B1AA3F589
:20205C00A8639360AA7920681AFB02F283189A682B689A6000F10C03AA791AFB02F20C3020
:20207C009B5C03F0EF038354A87922681AFB00F002F10C030C321B5C03F07F031354A8792D
:20209C0022681AFB00F002F10C030C321B5C03F0F00343F002031354AA7920681AFB02F2A5
:2020BC001044427B02F0F00242F001024273AA7920681AFB02F2024490682A681061306898
:2020DC00AA7997F802C000F1140368694000520111FB0C0000F5F660985095F89601042869
:2020FC000DD13068AA7900F114034FEA421C143053F80C20AB795B0102F56162C2503068ED
:20211C00AA7900EB4210C37C03F0F00343F00403C374DBF830003268AB79006802EB431242
:20213C00FB8843436427B3FBF7F35943A1F59661D161A879316801EB4010C17E01F0F001E5
:20215C0041F00401C176A97920681AFB01FA2968504448600E2128461AF052FA1A490720F2
:20217C000870484627F09CF9AA79002148461CF0F9FA28681549416115498161BDE8F14F0B
:20219C0004F01CBF8A310120A42F01208B3101204A3101204C3101206C30012077310120E7
:2021BC007030012091FC0100942D012052310120EDEF0100D82F0120B0FA0200802D0120AF
:2021DC007B3101207830012075310120F52B0200020480802DE9F843040014D1002025F0EF
:2021FC009DFD10E020461DF02DF9012808D063E08A0740F1578101F0FD0101700020B07121
:20221C0020461CF011FF04F16605687D002853D0697CDFF8CC94022904F1EC0704F59E7852
:20223C0004F5B07604F5C67035D0042947D005295DD0062900F08B800729D3D0092900F071
:20225C00EF800B2900F0C3800C2900F00B810D2900F0D3800E2900F0ED800F2900F02B81FA
:20227C00102900F04581112900F05F81122900F01181142900F08A81162900F05D81172907
:20229C0000F07881FC2917D0FD2900F09881FE2900F0A481A2E7297C012909D199F80300FC
:2022BC00002813D01621204625F08CFB012004E020461BF017FF28740020BDE8F283297CB7
:2022DC00012940F0A78199F80200002800F0EA800021A971FF22FC21204618F0DBFBA07975
:2022FC0004F1B80204F1B00111F080FA8BE7297C012910D199F8020020B184F8941000202C
:20231C0038607860B87A01286AD1FF220621204618F0C0FB77E704F1E7063078012808D140
:20233C00204621F09BFB0128C6D10020B8720120C1E770780028BFD004F1C70204F1A001AE
:20235C0004F1D7001FF0ECFF012030705BE7297C012940F0668199F80200002840D0618CFA
:20237C00E18320461CF060FE0120287020461FF0FBF90120A871397A787C012900F01000E0
:20239C000FD148B1002088F80500D8F8001098F8060049081AF078FAA079002118F0C0FA64
:2023BC000FE048B1D8F80020DFF8380304F5A1735208214627F096FEA0790122002117F03A
:2023DC0001FD002038723873F872B8721BE7287C012806D1F97A012904BFFF22FC2196D030
:2023FC0060E020461AF098FD01289DD10020F87284F894000120287405E7297C012940F0A3
:20241C00148199F80200002809D0002184F894100120287020461FF0A7F90120A87188E0C6
:20243C00297C012940F0058199F80200D0B3618CE183E5E6287C012840F0FF80387C02286F
:20245C0004F1FD0204D1A179002017F0FBFCD7E6032840F0FB80A1791A2017F0F3FC002062
:20247C003874CDE6287C012804F20D1140F0F9800B78012B04F5897240F0F9804878012822
:20249C0007D15388009300201388CA78A17918F085FAB5E6297C012940F0F88099F8020097
:2024BC000028F6D1298B481E288380B200287FF403AF2221F7E6287C012840F0EB8098F8B5
:2024DC000910012902D130780F281BE098F80800012826D1002188F80810288D0009009031
:2024FC001A20AA8CEB8CA179520812F039F987E6287C012840F0D28098F80910012910D1C1
:20251C00307810281CBF002025F008FC002088F80900288D00090090AA8CEB8CA179707805
:20253C00E2E7287F0028E2D1BCE7297C012940F0B98099F80300F5E7297C012940F0B680B4
:20255C00017B4A061DD4CA0709D501F0FE0101730023A1797078002214F0D4F950E68A07B0
:20257C0040F1A98001F0FD0101730023A17900221A20F1E7297C012940F0AA80027B510614
:20259C0090D5017B01F0BF01017339E6297C012940F0A08001788A067FF52AAE01F0DF01B5
:2025BC000A0701700AD501F0F7010170F08B0090738BB28B318BA07911F08CFD1EE6A97E74
:2025DC00FF22204618F066FA14E7FF22204618F061FAACE6002025F0A1FB6DE6A97E0C29F9
:2025FC0018BF0E29F1D00F2902D01429EDD0F1E7FF22FC21204618F04DFAB8F812000090CF
:20261C00B8F81030B8F80E20B8F80C10A0790FF0B5FD51E6204615F0A6FA2874E88A28833F
:20263C004AE620461DF032F9F7E7204620F054FAF3E720461AF01AF8EFE720461AF04CF828
:20265C002874E88A28830120387435E6288B401E288380B20028F8D1A179222017F0F2FB8E
:20267C0027E701208870204619F062F8D5E7288B401E288380B20028E7D15088009022201A
:20269C001388CA78A17918F089F912E720461DF02BFFC2E7204613F0FDFEBEE7204613F0EC
:2026BC004BFFBAE720461BF06FFBB6E71621204613F00CFAB1E7288B401E288380B2002847
:2026DC00C3D1A17900230022222014F01BF9F0E61721ECE71421204616F058FE9DE700BF76
:2026FC00802D0120C1B701002DE9F84FDFF87044A178FF2904BF002025F010FBA07827F01C
:20271C0045F8044604F1680504F5C9762968086804F1900708B100200EE0A97B002904BF18
:20273C00A87E002809D13978002901BF30780028217F012901D1608CE0832189E08B411892
:20275C00491C6181204625F05FF901281EBFDFF814040178012904D120890022401CE2834A
:20277C0060814FF6FF78A87E01280DD1AA8B6189208924F0B1F938B1218960894A1C93B2C6
:20279C0098422CD0A88B20E0387801280DD17A886189208924F0A0F938B1218960894A1C39
:2027BC0093B298421BD078880FE03078012816D172886189208924F08FF980B1218960895F
:2027DC004A1C93B298420AD0708892B2904206D04044608180B227F0ABFD4044E0833078B5
:2027FC0001280DD120897188401C80B2814207D172793271002030701346A17914F082F8AC
:20281C0004F59A71087920B120890021401CE183608104F12E07A87E01283ED12289A88B75
:20283C00521C92B2904238D1608104F18601204625F0F4FAA88C6189608400202077E0830D
:20285C00E0894118A181A88B218927F071FD8046B988288C6A8C01FB0808E88C8A4204BF56
:20287C003989884202BFA98CFB88994207D000090090AB8CA1795208002011F071FFA87F89
:20289C003870688CB880A88CF880E88C3881204625F084FF0220A87601E0B7F80480E28BB0
:2028BC00DFF8C492501C00FB08F040F6C41808FB00F100912368D3F80CC06144DFF8ACC2CD
:2028DC00D960DCF800E0AA499EF800A00B884FEA9A1ABAF1030F15D199F80FC05FEACC7EB0
:2028FC0048BF00230ED45B1C1FFA83FCBCF1010F11BFB4F812C004F59A7CBCF806C00CF20F
:20291C00DC5C01E0B4F812C00CFB00FC4FF4C87EBCFBFEFC0CF1010CC4F814C00B80A061A1
:20293C0084F820204FF01C0BDFF848A2A379DAF8000000F108021BFB03F3D158226811617E
:20295C0000F10801A379D26860691BFB03F3121ACA50DAF80000A37900F108021BFB03F3FB
:20297C00D1582268916000F10C02A1791BFB01F10C30525C02F0F00242F002024254DAF80A
:20299C000000A279811C1BFB02F200208852307908B925F0C3F9DAF80000A27900F1100135
:2029BC0030791BFB02F240088854A079DAF800101BFB00F00844002141743079042814D147
:2029DC00A079DAF800101BFB00F001F11002337A125C103142EA83020A54A179DAF800007F
:2029FC001BFB01F1084420214174DAF80000A27900F112011BFB02F2002088525E49A079BC
:202A1C000A6802F114034FEA401C143253F80C00A379D4F814C05B0100EB4C00D050A87E57
:202A3C0002280CD10A68A57902F114036D0114325859A3793D785B0118FB0500D05099F87E
:202A5C000F00C20758D5DAF80000A57900F108031BFB05F508305A59A3791BFB03F3A2F5AF
:202A7C00A862C250DAF80000A57900F108031BFB05F55A5923689A600098121A1A6108683B
:202A9C00A57900F114036D0114305A59A3795B0102F5F662C250307904280BD10868A57977
:202ABC0000F114036D0114305A59A3795B0102F56162C2500868A37900F114025B01D05832
:202ADC00C4F834012D4A0B68106BA679006803F11C05BB8808FB03F37601181AA0F51670E8
:202AFC00A851274B1D78012D21D10868A17900EB41100122C27221E030790A68A579042817
:202B1C000CBF4FF4AA504FF4E66002F114036D015A59101ABA8808FB02F2A2F51672904289
:202B3C00D0D30821204624F04DFF012015E0506A0968A279407801EB4211C872A179DAF86E
:202B5C000000104A1BFB01FB21685844486007201070204620F05DFA0020BDE8F28F00BFA7
:202B7C00A42F012085310120802D01209430012054310120703001206C300120B0FA0200EB
:202B9C007B310120753101202DE9F84F040004BF002025F0C3F804F1500941F62300D9F8F8
:202BBC00006030800020708026F0F2FF00F57A60B0608220307302207073B0682061207E72
:202BDC00B0730020F073D9F80400017D022904BF002025F0A3F8D9F80400007D012802D1D4
:202BFC000020002104E083280CBF0620022020213074717404F1240BD9F80400DFF8BC83FD
:202C1C004178480615D5D8F83C00416908689BF80510401C01EB4101405A7082607DC1061F
:202C3C0004D5E07F40F04000E07702E040F04000607506F15805002028714FF01E0A9BF84B
:202C5C001A00800000F00400287104F13000B066607DC10646D506F130003062D9F80400A9
:202C7C0041788A060BD5617D01F0FE016175407810F0030F03D1E07F00F0FE00E077607D4C
:202C9C0022F02AF90246A275521C307CC0F38001002392B200F003001FF0FEFAA0831E2371
:202CBC00A08BE27D00F5967100F59B7012FB01F290FBF3F30A320AFB13006283C0B208B19D
:202CDC00C0F11E008018A183608380B2B168A63001EB800131660220E871E07F40F0080033
:202CFC00E07713E000273762607D40F001006075D9F804104A78510744BF40F002006075C2
:202D1C00607D22F0E9F8A0753766EF71A07D217D60F3050106F1880021750170617D41708C
:202D3C00032181709BF81A10890001F0040141F0030181709BF81B20D20002F00802114310
:202D5C0081700021C170C6F89010BBF81C00C0F30B00ABF81C00D9F80410CA7D40EA0230E2
:202D7C00ABF81C000022617D01F0FE0120460FF0C9FF40F61200B0830020F083D8F8340049
:202D9C00018889007162D8F83400008800B1072006F128073870607DC1064CBF002002200F
:202DBC007870E07D788041F62400388100207881618BB06800EB8100B0630021822038759A
:202DDC000220787594F8210000F03F00B875F975D9F80400807D012818BF022803D100F091
:202DFC007F00401E04E083280CBF06200220202179763876D8F83C00416908689BF805108C
:202E1C00401C01EB4101405A78830020F066D9F80400417811F0030F24D023F0E3F8F06628
:202E3C00D8F818000078C107D8F8181009784CBF102000208A07D8F8182012784CBF20210B
:202E5C0000215307D8F818301B784CBF402200221B074CBF8023002308431043184340F085
:202E7C000F00287600206876D9F80400807C00F0030068769BF81A10890001F00401084362
:202E9C0068769BF81B10C90001F0080141F01001084368764A49087838B1697E41F04001F7
:202EBC006976287E00F0FE002876E07F22F014F884F8200020460FF08BFFE07FC1063BD5A7
:202EDC00D9F8040094F820204178521C88074EBFD21E9BF81F001218387EC0F38001002399
:202EFC00D2B200F003001FF0D7F9ABF80000BBF8000000F59671C1F11E0291FBFAF10AFBC0
:202F1C00012A8BF804A0D9F804104A7891074CBF00214FF49B710818ABF80000ABF8020021
:202F3C00BBF800109BF80420B06B5118A63100EB81007067022001E000207067E87604F110
:202F5C003000C6F8800006F18400D9F804104A78510706D504F138010160687E40F02000CD
:202F7C0006E018490A6851680160687E00F0DF006876A17F94F8200060F30501A17740F65C
:202F9C000B00B8840020F884D8F83800018889007165D8F83800008800B107202870022020
:202FBC00687094F845006880D9F804004178880744BF012068800020BDE8F28FB0FA020049
:202FDC00D82F0120C8300120BFB501465148806804686FF00E020846801A07D0083803D0AB
:202FFC00001F18BF4CA003D155A000E063A0E16C25F009FF2078A0B1401E0CD0401E04D068
:20301C00401E14D16AA56CA713E06068694625F0D3FE6BA50AE06068694625F0C0FE6AA58C
:20303C0004E06068694625F06CFE68A5876807B967A76AA000212A4625F0E5FE636873A05F
:20305C0029463A4625F0DFFEA26877A0294625F0DAFEE2687AA0294625F0D5FE2169226B24
:20307C007DA025F0D0FE6169626B82A025F0CBFEA169A26B86A025F0C6FEE169E26B8BA0C5
:20309C0025F0C1FE216A226C8FA025F0BCFE616A626C94A025F0B7FEA16AA26C99A025F02B
:2030BC00B2FEE16AE26C9FA025F0ADFE216DA5A025F0A9FECB4CD4F8041DA6A025F0A3FE1D
:2030DC0094F8281DA7A025F09EFE94F8291DA9A025F099FEB4F82A1DAAA025F094FED4F894
:2030FC002C1DACA025F08FFED4F8301DADA025F08AFED4F8341DAFA025F085FED4F8381D55
:20311C00B0A025F080FED4F83C1DB2A025F07BFE0090BFBD30730020426F677573204578FF
:20313C0063657074696F6E2072657475726E2076616C75653A20253038782E0A00C046C027
:20315C00457863657074696F6E206F6363757272656420696E206261636B67726F756E64F6
:20317C0020746872656164206174205043203D203078253038782E0A00C046C04578636546
:20319C007074696F6E206F6363757272656420696E204953522074687265616420617420C0
:2031BC005043203D203078253038782E0A00C0464D61696E00C046C06D61696E282900C0F7
:2031DC005461736B00C046C0537769004877690028756E6E616D65642900C046436F726557
:2031FC002025643A20457863657074696F6E206F6363757272656420696E2054687265617F
:20321C0064547970655F25732E0A00C02573206E616D653A2025732C2068616E646C653A60
:20323C0020307825782E0A00257320737461636B20626173653A20307825782E0A00C0466F
:20325C00257320737461636B2073697A653A20307825782E0A00C0465230203D2030782500
:20327C003038782020523820203D203078253038780A00C05231203D2030782530387820A7
:20329C0020523920203D203078253038780A00C05232203D203078253038782020523130B2
:2032BC00203D203078253038780A00C05233203D203078253038782020523131203D2030AE
:2032DC0078253038780A00C05234203D203078253038782020523132203D20307825303834
:2032FC00780A00C05235203D20307825303878202053502852313329203D20307825303823
:20331C00780A00C05236203D2030782530387820204C522852313429203D20307825303805
:20333C00780A00C05237203D20307825303878202050432852313529203D203078253038EE
:20335C00780A00C0505352203D203078253038780A00C04649435352203D203078253038FD
:20337C00780A00C04D4D465352203D203078253032780A0042465352203D20307825303263
:20339C00780A00C055465352203D203078253034780A00C048465352203D203078253038BA
:2033BC00780A00C044465352203D203078253038780A00C04D4D4152203D203078253038AD
:2033DC00780A00C042464152203D203078253038780A00C041465352203D203078253038A2
:2033FC00780A00C000E000E02DE9F04F0546C24CA97860690027ADF11C0D0A290FDC0A29D8
:20341C0000F0B580002900F0B281491F00F0A481491E00F07381C81E00F05481D2E10B39B5
:20343C0000F08F80C91E00F08280491E0DD0481E40F0C881227825F041F9002800F059819A
:20345C00104604210EF078FC53E12E4628B143681BB1A88839460A4698476078002863D05A
:20347C00B0881FF0F9FA051C00F0AC81B07A400811D36B797BB1012B0DD0F068800A0AD28B
:20349C0003F001033A460097A81D1946134610F04BFC002843D1207A022802D1B07A000938
:2034BC003DD3B6F804806D790C2026F081FB06F10809061C00F01D81A6F80880B5723B4684
:2034DC003360B9F1000FF77209D04846082125F0ABF9706020B9304626F07AFB09E173606B
:2034FC00A069002808BFA66102D00368ABB90660304626F0B2FF4A462946404609F07EFC75
:20351C006069002800F0F5804368002B00F0F180394640460A469847EBE01846E5E7B088A1
:20353C00032124F0D6FE4DE1B08805211CE0002800F0DF804368002B00F0DB806A7802213E
:20355C00BEE026F0CDFA002800F0D380606948B104683CB12869009069892A7B6B7BE81CAC
:20357C00A047C6E06889012124F0B3FEC1E0B8466F78002F40F09980A9794908C0F0958094
:20359C0002A84146082226F0EBFFA8881FF064FA071C09D1227825F091F8002866D010462E
:2035BC0004210EF0C9FB61E06869002854D0064641460622113025F07DFBC24630B3304680
:2035DC004146062225F076FBE0B9307C06F11109D346464600F001000590761CF6B289F85E
:2035FC000060CDF800B0059948465246534610F09BFB10B9002EF0D104E01EB1BAF1010FC1
:20361C0002D006E04FF0010A46466E61BAF1010F22D0686950B30646307C062206F1110187
:20363C0000F001008DF80E0002A825F0FFFD787906F11108012805D107F10C00B91D06222D
:20365C0025F0F4FDB81D4146062225F0EFFD307C40F00200787109E07879B91D062200F034
:20367C0001008DF80E0002A825F0E0FDA9799DF80F20C1F3800010438DF80F00080905D314
:20369C009DF80F0040F008008DF80F0002A8294605F0CCFB5FEA000803D1A8881DF08CFFDC
:2036BC0002E0A88821F0F4F8606910B3436803B3A8886A78012198476069424603214368BF
:2036DC00A88828E73B460093E978281D0DF1110201F0010110F028FB58B99DF811100620C1
:2036FC0005F10C0211FB00F025300421C0B223F07FFA012766E0C046B06C0020A88821F045
:20371C00C7F826F017FF00285CD1E07A012814D0207B01280DD02D4C3D4614F8010F012804
:20373C0003D128460CF0FAFC27706D1C0A2DF4DB0CE019F04BF9277308E025F090FE394636
:20375C0004F120000A22E17226F00AFF502023F03BFA1DF08BF935E0687898BBE8786A89B6
:20377C002B7B291D00F001000DF092FE2AE0687840BB26F023FE054626F024FE044626F0C4
:20379C0015FC8DF8100010212A46022023F030FA03201021224623F02BFA0420012104AA7F
:2037BC0023F026FA9DF81000012803D09DF81000032807D1012021F073FD0246062001461A
:2037DC0023F016FA384607B0BDE8F08FCF6C00202DE9F04F0646A24CDFF88C82B0782278C0
:2037FC000FF2882AADF13C0D002873D0DFF874B2401F0CD0401E00F00C81401E00F00581C1
:20381C00083800F0FD80801E00F0F68025E11020594616F057FB71780027B94600910122EB
:20383C00019096A3029740F2366103975046CDF8109013F0F1F97078554600283BD170890E
:20385C001AF096FDDFF830A30127301D062113230097524614F05AFCCDF800A0CA462846C7
:20387C00CDF804A040F24361CDF808A090A3CDF80CA03A46CDF810A013F0CEF9F089009014
:20389C00708A40F24561019093A3CDF808A03A46CDF80CA02846CDF810A013F0BDF9B74D75
:2038BC002868012807D1B649728910203B4616F009FB484628601020594616F003FB08288D
:2038DC0080F0CB804B46009322784146102016F0F9FAC2E07078002840F0BF80357AF77963
:2038FC00B27A8DF83250B0798DF83170F37A8DF8362000258DF8300008218DF83730777A02
:20391C008DF83450A9468DF835700CAA8DF8339048460CF0E9FD0127B01D06211323DFF8D2
:20393C00649200974A4614F0F1FBCDF800905046A946CDF8049040F2FE51CDF808906FA33B
:20395C00CDF80C903A46CDF8109013F065F98E49B1E82C1005A8A0E82C100EC980E80E003A
:20397C00102005AB89498A4A009416F0ABFAC0B200283FD1DFF81CB2102158461EF0C8F87A
:20399C000090CDF804904FF4C2613A46CDF8089065A3CDF80C905046CDF8109013F03CF943
:2039BC0010250095DFF8F0A1CDF804B022784B462846514616F086FAC0B2D8B912200090C5
:2039DC00764B01932278514628463B4616F07AFAC0B278B9724922782846922316F072FA4F
:2039FC004B46009322784146284616F06BFAC0B2002832D025F08BFD30461EF0B5FA2CE015
:203A1C006849102016F05EFA27E030460BF02EFC23E0002000900446019440F26161012200
:203A3C0002944BA303945046049413F0F5F85946102016F047FA00902046019440F262619B
:203A5C0002900122039048A30490504613F0E4F8B0881EF0E1FE11F08DFF0FB0BDE8F08F79
:203A7C00CC2E0120494902001D54010070726F6A6563745F7A65726F2E6300C04C696E6B14
:203A9C002065737461626C697368206576656E742C20737461747573203078253032782E04
:203ABC00204E756D20436F6E6E733A20256400C0436F6E6E65637465642E20506565722049
:203ADC00616464726573733A201B5B33326D25731B5B306D00C046C0636F6E6E20696E74B8
:203AFC00657276616C3A2025642C20636F6E6E2074696D656F75743A2025640047415020B1
:203B1C00697320737461727465642E204F757220616464726573733A201B5B33326D2573D2
:203B3C001B5B306D00C046C04E616D6520696E2061647665727444617461206172726179B9
:203B5C003A201B5B33336D25731B5B306D00C04644657669636520446973636F6E6E6563EF
:203B7C007465642100C046C04E756D20436F6E6E733A20256400C046582D0120F875002098
:203B9C0059BB0100442D01208CEB0200A19A0000836E02002477002069EC00001277002002
:203BBC00C50302007529020000202DE9F04F0146ADF1140D21F0BCFE914F0FF24828386050
:203BDC0040F2A521002000908346CDF804B00122CDF808B08EA3CDF80CB04046CDF810B082
:203BFC0013F01AF813F0BAFD0CF0E6FD0FF084FA01F02CFFC74EDFF820A3C94D0124D94659
:203C1C0006E0286886F800B007215A461FF0F2FA7B48006859464FF07E424FF0FF330DF0EA
:203C3C00FBF9071CF4D0F80E5CD358460090019040F2B7210290224603907BA304904046CA
:203C5C0012F0EAFFB949BA480B78006863BB0846B54B0470B349B74A9888694B08601868D5
:203C7C0014704FF0006118F029F92868062122461FF0C0FAA94800680D215A461FF0BAFA08
:203C9C00A84800680090584601904FF431710290224603906BA30490404612F0BDFFA448AD
:203CBC0000681CF0D9FD1DE081F800B01AF054FF286806215A461FF09DFA984800680D21A8
:203CDC0022461FF097FA9748006800905846019040F2CF2102902246039062A304904046EC
:203CFC0012F09AFFB80E42D3584600904FF4357101902246029063A303904046CDF810900C
:203D1C0012F08AFF3378DAF800000BBB8048864B80F800B09888CAF80000286834700721BA
:203D3C0022461FF067FADAF8000000904FF43771CDF80490584602902246039058A304902F
:203D5C00404612F069FF7A4800681CF085FD0EE000905846019040F2E3210290224603902F
:203D7C0057A30490404612F057FF69480470780F03D302F0F3F870490860380F01D302F02E
:203D9C002BFAB80F27D358460090019040F2F52102902246039052A30490404612F03CFF41
:203DBC0066486849006826F0AFFA654908705946009158460190224602904FA3039040F22B
:203DDC00FF210490404612F027FF544800680E215A461FF00FFA3808FFF41AAF4B480146A4
:203DFC00594B5A4F0068401C086041001868891EC91926F048FA00283FF403AFFEE7C04694
:203E1C00BC720020617564696F746573742E63004750494F20696E697469616C697A6564F0
:203E3C0020746F203000C04653505F425554544F4E305F4445424F554E4345445F455654C9
:203E5C0000C046C07374617274696E6720706C61796261636B20617420736563746F723ACE
:203E7C00256400C073746F7070656420706C61796261636B20617420736563746F723A2573
:203E9C006400C04653505F425554544F4E315F4445424F554E4345445F45565400C046C091
:203EBC007374617274696E67207265636F726420617420736563746F723A256400C046C0AD
:203EDC0073746F7070696E67207265636F726420617420736563746F723A256400C046C085
:203EFC005374617274696E6720535049207472616E7366657200C046456E64205350492080
:203F1C007472616E7366657200C046C0C0720020EA720020CE720020F07200202C3101202C
:203F3C0014310120F472002018300120CF7200200C310120E87200202031012018310120FB
:203F5C0096310120EC2C012004310120804100202DE9F84F0E46700688B029D5DFF8342362
:203F7C00107800210EF0E2F9040021D0CA4908688047054626F0A4F8012804D025F010FE47
:203F9C006168884203D140F201401EF085FD00202072201D14F066FDC0490A682846904785
:203FBC00204625F07DFAFF22432120461AF0DAFBF0070BD525F0F4FD28B100218160B84871
:203FDC00006800B1804786F0010060E1B00710D5002006900021049000230290009005914B
:203FFC000393019101223C2002F02AFA86F002004DE170074FF01E08AA4F40F1A7800020F5
:20401C0007908346A848007800210EF08FF9A74904468878FF2804BF002023F07FFEA07A27
:20403C0025F0B4FB0546606D807A95F82E91022818BF032805F5947A07D138680D3025F044
:20405C00DDF810B9386800F1070B5146484625F048FAA0B3606D807C3B68002818BF0128A0
:20407C0004D1194650461EF097FD04E052464946184617F09BF8FF2843D018FB00F83868D0
:20409C00404406225146C01D25F0D0F8386810F80810404400F1010AC01D079041F0020917
:2040BC00606DC17A01F0010185F82E110622606D00F10C0105F5947025F0B8F821E05146DF
:2040DC00484625F003FAE0B138685246494617F06DF8FF2815D018FB00F8386840440D30E8
:2040FC0025F08CF858B9386840440D3025F086F8002801BF38684044407F012801D149F007
:20411C00020905F12C004B46017806914189090905916A8C079904920122C08802914008D1
:20413C000390CDF804B0CDF800A00020A97902F087F9D5F89C015E498842A8790CBF002156
:20415C00012115F013F886F00400A0E0300610D500200690002104900023029000900591B6
:20417C000393019101223B2002F06AF986F080008DE0F00445D54F4804683868C11D0D30F9
:20419C001CF0A4FD2CE0207A012828D1616D4878410724D504F13E000178022918BF0329E5
:2041BC001DD14178386804F1380216F0FFFFFF2815D018FB00F5386828440D3025F01EF8E1
:2041DC0068B938682844C11D0D301CF07FFD38682844C11D062204F1380025F027F82468F4
:2041FC00002CD0D134484268344800784FF480511DF092FB10B18E2016F054FB86F4805000
:20421C0045E0B00505D525F04DFE2D4901200860FEE7710504D50BF01EFC86F4806036E0B6
:20423C00700405D5812016F03DFB86F480402EE0B0042BD5234C206810B1002023F06EFDE3
:20425C004FF0FF30206000201F4C16F037FF216851F8202F684690471C48016B426B0091D9
:20427C000192C06A24681A491A4A02910392ADF810006B462568184A18491948A847194982
:20429C00086006F0C3F886F4005000E0002009B0BDE8F08F8A310120EC760020F07600205E
:2042BC0080300120C43001208B310120A42F0120EDEF0100B0300120D82F0120773101205C
:2042DC007C05204390300120883001200C7100208D9B02009D9B0200D429012074770020FA
:2042FC00802201208C300120C8480278112A00D070472DE9F84FC64B187800210EF016F88B
:20431C0004000AD1002023F009FD002023F006FDBDE8F24FFF2026F01BB904F14C0999F869
:20433C00000008B90121E172401C89F80000C2B2E17DD9F804608A4220D2B07B401CB073DF
:20435C00D9F808104A7A520802F0010282F001021018B073A18BB06800EB8100B060607DE8
:20437C00C1060AD5628B99F80010A08B00FB1121B068A63100EB8100306644E104F128075B
:20439C0006F1900806F173054FF0000A4FD1A17F6975E07FA875D9F808205278930710D5DE
:2043BC00E27FD30604D5C91E697500F0EF00A875C6F874A085F800A00022A97D01F0FE01E6
:2043DC001CE1900608D4F88B00B1F87E2876F88B00B1386AC8F80000D9F808004178C80713
:2043FC000DD5F88B00281CBF386A002807D0C8F80000B97EF88B814238BF08462876E07F19
:20441C00C1060BD5B06B397800EB8100B063A18CA63100EB81007067022002E0C6F874A071
:20443C00002028700022E17F01F0FC01E6E0D9F808205278D30717D5A87D697D00F0F700F7
:20445C00891E01F03F0182075CBF891D40F00200420644BF491E00F0BF00A8756975C8F8D0
:20447C0000A085F818A0CEE0401AC0B20090900740F180800098012806F1400B44D1B06B46
:20449C00A18C00EB8100B063A07F00F03F00A0776875801EE17FA975687501F0F701A97512
:2044BC00D9F8082053785A0704D5801F687501F0FD01A9750023697DFA7E9BF8000001F054
:2044DC003F018A18521CC0F3800192B200F003001DF0E2FE00F59B70A0841E21A08C90FBFE
:2044FC00F1F18AB2A97D01F0FE0120460EF00AFC85F800A0F88B00B1F87E2876F88B00B169
:20451C00386AC8F800007EE00228B06BA18C00EB8100B06326D1E07FC10706D5687D811F50
:20453C006975A87D00F0FE00A8750023697DFA7E9BF8000001F03F018A18521CC0F38001C8
:20455C0092B200F003001DF0A7FE00F59B70A0840022A97D01F0FE0120460EF0D3FB787FD1
:20457C00ABF81A007A7F0098521C101AC0B2012814DD0BE0B06BA18C00EB8100B0637A7F02
:20459C000098E17F101ACA06C0B207D5A28CB16BA63201EB820171670221297098B3D8F87F
:2045BC00003097F81BC0E27FA17F6344C8F8003052084FEA4208D9F808205278530748BF2C
:2045DC0028F00208920748BF28F00808012807D1387F2876C6F874A028F0100885F800A060
:2045FC0001F0C006404620F077FC00F03F003043687585F81680002208F0FC012046BDE82B
:20461C00F84F0EF07FBBBDE8F18F00BF753101208A3101202DE9F84306460D467078010798
:20463C001DD4D6F80310BA4821F07F41203981423FBFD6F8061021F07F412039814228BFE7
:20465C00112033D2B01DF11C88425FD3B07A002818BF012803D0022818BF032856D1B07C8E
:20467C00002818BF012803D0022818BF03284DD1307D012818BF022803D0832818BF032882
:20469C0044D1707A10F0070070723FD0307801210DF04CFE04000AD100201DF0DBFD0446C8
:2046BC0025F002FD844214BF07200D202DE104F15402002016606072207A012808BF0C2066
:2046DC00F4D00021E17500200121737A01FA00F73B4208D0E37D5B1CE375DBB2012B04BF62
:2046FC0000F125032376401C0328EEDB7078C10618D5317D012909D1102810D012280CD020
:20471C00132804D0152804D01D2804D09FE0002006E0042004E0012002E0022000E003208F
:20473C00A0735EE0FF20A073307D02281EBF717801F003000328E9D00B07E7D408B1880651
:20475C00E4D4480707D516F10C00DFD0F07A002818BF01287BD100206075E077707810F086
:20477C00030F27D1207D00F03F0020757078810605D45168002904BF9068002801D018219B
:20479C006175707881060DD4307D832818BF032804D1182060750120E07703E0607D40F033
:2047BC00010060757078410717D5E07F40F00200E07712E0217DC0074CBF0120022001F06D
:2047DC003F0141EA80111820607521750920E0777078410744BF0B21E177207D00F0C0009A
:2047FC00A07796F913007F2806BF4A48007817F0D1FE04F12907387045B14749C86B426967
:20481C003978106801EB4101405C2870B07ADFF80C81DFF80C91434D002818BF012809D15D
:20483C007875B07AC10758BFC8460622414604F1300032E028680D3024F0E0FCB8B1B07A22
:20485C00C10754BF4946414624F040FE08B912205BE0B07AC10754BF49464146062204F193
:20487C00300024F0E3FCB07A00F0010007E02868C11D062204F1300024F0D8FC0320787544
:20489C002968B07A00F001000870B07AC107286858BFC84606224146401C24F0C7FC707867
:2048BC0041072FD5B07A022818BF032821D1F17A286806F10C0201F0010116F077FC804616
:2048DC00B8F1FF0F15D01E2010FB08F8286840440D3024F093FC60B928684044C11D0D309B
:2048FC001CF0F4F90120B875062228684044C11D04E0F07AB875062206F10C0104F1380067
:20491C0024F094FC012060720020BDE8F28300BFE0FFFF0078310120B0FA02009C2F0120AB
:20493C00AC2F0120C43001202DE9F04F09AFADF13C0D08900A92388809911E46ADF81800A7
:20495C00101C08BF002000F07081017800274FF0010B401C4FF0FF39B846DA460A905CE194
:20497C00252940F051810178401C0A902D2918BFADF8068004D10178ADF806B0401C0A9065
:20499C0030291CBFC446424604D10178DC46401C62460A902A29CDF800804D4618D130687B
:2049BC00CDF808900A9BCDF810C0C01C20F00300001D306050F8044C1978002C009403F1CB
:2049DC0001000A9019D5ADF806A06442009414E044460AE00A9B600000EBC4004018A0F1A8
:2049FC00300419780094581C0A90302901DB3A29F0DBCDF80890CDF810C02E2929D1017815
:204A1C00401C2A290A9011D13168CDF80880C91C21F00301091D316051F8045C002D48BFDB
:204A3C00454601782B46401C0A9011E0434645460AE0680000EBC5004018A0F130050A9828
:204A5C0001782B46401C0A90302901DB3A29F0DB02930AB1224604926C2904D04C2918BFF4
:204A7C00ADF8048004D10178ADF804A0401C0A900BA8CDF80C800FAB0790642905937AD0A0
:204A9C00692978D0BDF818C0752966D0782962D06F295ED0702947D0632937D073291BD05C
:204ABC000A98401E0A900998012813D962490C68B5F1FF3F03D0A84288BF6D1C00D8099D7C
:204ADC00029508A80AA932466B46A047C0190746039865E0454617E03068C01C20F00300A1
:204AFC00001D306050F8040CBCF1010F014608B94FA00146079124F085FE0390B5F1FF3FF4
:204B1C004FD0A8424DD9039528464AE03068C01C20F00300001D306010F8040C8DF82C001D
:204B3C005D46039558463CE0082035680490E81C20F00300001D306050F8041C0822102382
:204B5C000FA817F009FB401E079040210170079823E0082302E0102300E00A233068C01C4D
:204B7C0020F00300001D306050F8041CAA42BCBF2A1C04920DE03068C01C20F00300001D1D
:204B9C00306050F8041CAA42BCBF2A1C04926FF009030FA817F0E0FA07900599081A0390D1
:204BBC00009CBDF80650211A241A00915DB906E008A8202109AA21F049FD7F1C009C641E78
:204BDC000094F5D50398401EB0F1FF3F03900FD1BDF8060001281CD10098401E009018D4CD
:204BFC0008A8202109AA21F031FD00987F1CF4E70798017809AA08A821F028FD0798401CFC
:204C1C00079003987F1CDEE708A809AA21F01EFD7F1C0A980178401C0A9000297FF4A0AEC1
:204C3C00089808B14146017038460FB0BDE8F08F286E756C6C2900C0B4F102002DE9F84FD6
:204C5C00B74E0F460546F80B80F02F81A849B24CDFF8B4820878B90F80F0D380B90880F038
:204C7C00C780DFF89092DFF890A2DFF8A8B2F90A80F09B80B90B80F08980790B53D2380CE6
:204C9C0042D23809C0F02D8121F0A4F8002836D055464C46032128682170783025F016FC29
:204CBC0010F056FB0220002122F03EFA02201FF083FC11200FF096F89048007818B92868DB
:204CDC00403025F01DFC8E48007810B90E200FF089F8607B20B10020607305201FF06CFC1A
:204CFC0040460022874BB0F91C102270B0F91E006360814214BF0220072016F031FC27F004
:204D1C00080719F063FBECE040461030016839B1C86840880028FBD0C86840880128F7D049
:204D3C0027F40047EDE728B104201FF045FC7049002008701FF08EFC40B1A8696FF4807194
:204D5C0000224FF0007306462846B0476F487049002225F0C9FB2268484602215C460170F9
:204D7C002668106B804755466C492B680A689A4214BF0122002226B1801B01EB8201000B12
:204D9C008860002027F480572060BAE732684AB1906838B11069B2F9341092682023144667
:204DBC000022A04727F400579BE025F097FB0090404600680646A8B15546286810B1783083
:204DDC0025F084FB20683169006B296080475C464946544A2060091D53480A604FF4006128
:204DFC0025F096FB009825F04DFB27F4806778E009F072FB40460830006808B927F0020735
:204E1C006FE04A4A116841F08001116028B104201FF0D2FB36490020087025F05FFB8146D1
:204E3C00606D0068014604208847D8B1287CC8B13F480668B6B12068006B8047801BE9683F
:204E5C00E860E868000BE860E868884203D240184008E860E86840F6C41181422CBFB0F5C6
:204E7C00967FE960484625F00DFB1FF0F3FB88B1A8696FF4807100224FF0007304462846E6
:204E9C00A04740460068002808BF47F0020701D019F09CFA686900214FF0806304460A46D4
:204EBC002846A04727F000571BE025F017FB36689EB1B16A890810D2B56AB16AA943B1623D
:204EDC0025F0E0FAB06850B14DB13069B6F93410B46800232A46A04701E025F0D3FA27F4B0
:204EFC0080471FB11048394625F012FBBDE8F88F192D0120D02D0120082D0120182D012099
:204F1C0016EF020089F30000542A0120342B0120793F0100102D01208C010010982801203E
:204F3C006C2A01205DD50000FC270120CC2108400C2D01202DE9F847A84CA94DDFF8A4825D
:204F5C00A94FAA4985B02278002A4FF4A05600F0FA80072A14D0092A18BF0A2A00F0F680F5
:204F7C000B2A18BF0C2A00F013810D2A00F0D180112A5AD19E4A107800210DF0D7F90028EB
:204F9C0077D0C5F80080426D5378016D994CDFF86882DB065DD50B4641F2044EB3F802C08D
:204FBC00F4451FBFB3F81A90F145B3F832A0F24506D041F20A4EF4451CBFF145F24502D1CA
:204FDC00A7F800E04DE04FF0000E40F601044FF4806A4FF0180C0CFB0EFC03F1020939F8B0
:204FFC000C90A7F8009019F47F4FF2D0B9F1020F40F2EF80B9EB0A0918D0B9EB0A0412D09E
:20501C004FF4406AB4EB0A0401D0A41E012C40F2C980241FFBD040F2FA37E41BE8D0641EF5
:20503C0000F0D180E11E00F0C48086E0B3F800C0A44540F0B7800EF1010EBEF1020FC8DD4C
:20505C004FE0981C20F80C6010E00168002008710CE0488E388041F20441401A01D0801F1F
:20507C0001D12C603DE041F206403880C5F8008037E062488078FF2865D0C5F80080604A2F
:20509C0012681C2111FB00F1931C5B5A3B8013F47F4FF4D04FF400641B1B5A4812D00A3BE2
:2050BC00012B14D940F6F6341B1B032B84BF5B1F012B0ED940F2FF341B1B0AD05B1E012B0D
:2050DC0005D908E0921C41F20143535201E0921C5652286005E0002022F020FE852025F076
:2050FC0037FA4948007801210CF026FE2BE0092A53D146490A68508900284ED04449087889
:20511C0019F0BAFB0021002022F048FE0020207019E048883880022805D9801B03D040F243
:20513C000442801A39D1887B801CC2B2B52AA8BF662088730020488005E0002022F0EEFDA5
:20515C00842025F005FA06B0BDE8F0874888388010F47F4FFAD0B0F5A05FC8D041F604020C
:20517C0090421AD12B4A92E8680002A82A4A80E868002A4D2A482E6800680023CDE900232E
:20519C0056F85C7F274B02AAB84727490880DAE74888388010F47F4FFAD0002022F0BEFDE3
:2051BC008520CEE7807B012818BF042800D03E805CE7807B01287FF444AF9A1C41F20241CB
:2051DC0022F80C1052E75078C2064CBF886CC86E3BE7002022F0A2FD8320B2E77531012089
:2051FC008030012095A4020052310120A42B01208A310120E51A000009720000A42F0120A9
:20521C00703001201D55000077310120AC30012078310120A4FB02000200008088300120B3
:20523C008C300120BDE1010042310120F0B5954C95492046ADF16C0D1AF086FE934D0021D2
:20525C00284621F045F8924805600125914800959249019090484FF47A7200231AF09CF96E
:20527C008F48904912F008F98F4972A6086060B900200090019040F2EB3102900322039015
:20529C0070A30490304611F0C7FC8848884912F0F3F88849086060B900200090019040F2BE
:2052BC00F3310290032203906FA30490304611F0B3FC81488149002215230090102014F0E7
:2052DC0001FE7F4910200022022314F0FBFD2E468DF8646000258DF8656019A88DF8665050
:2052FC00784F8DF867604FF48062009033463946102014F0E7FD0DF1650040F20242009051
:20531C0033463946102014F0DDFD0DF1660040F20342009033463946102014F0D3FD0DF106
:20533C00670040F20642009033463946102014F0C9FD654910204FF0FF3214F0C3FD634930
:20535C0010204FF0FF3214F0BDFD21F06FFE207813F040F820780DF009FC207810F008FA4E
:20537C005B480FF00DFB5B480EF080FC5A480FF087F805A82946282215F04AFC57490FA822
:20539C00282211F0E5FC2846314605AA06F034FC304605AA014606F02FFC2846314605AAEA
:2053BC0001F0CCFB304605AA014601F0C7FB284628210FAA01F0E2FC3046142105AA01F070
:2053DC00DDFC4749474A102014F07CFD2178502021F07AF944490246102014F073FD21786B
:2053FC00502021F071F941490246102014F06AFD3F491020FB2240F6480314F063FD3D49F9
:20541C00102014F05FFD4FF6FD701CF021F82178502021F059F90095034604223649019584
:20543C00102014F04FFD354800681FF0DFF81BB0F0BDC04670726F6A6563745F7A65726F71
:20545C002E6300C04572726F7220696E697469616C697A696E6720626F617264204C45448D
:20547C002070696E7300C0464572726F7220696E697469616C697A696E672053504920705F
:20549C00696E7300C02E0120C42E0120E82E0120C82E0120D7760020B029012055840200F4
:2054BC00182F01200C78002014310120482F0120307800202C3101203076002029D70100B9
:2054DC00E1480200857E00003575020059750200A878002098780020A078002030E6020046
:2054FC00E184020090780020ED9F02004DA002007F8B0200E576010041970000F8750020B7
:20551C00A4488078FF2800D170472DE9F84F24F03DF9054605F217100178012908BF4178A9
:20553C0000F0A78005F17400817B022903D105F174020020907305F59274E18911B1207B7D
:20555C000CF0FAFB6889DFF850C2DFF85092288105F58D779CF80A009CF807209CF80C10FB
:20557C009CF80B609CF80D80B7F800E083185B1833449844BB885B1CBB80C6447B88A7F85E
:20559C0000E01B187B804FF01C0E2368EBB1D9F8006095F806B006F10E0A1EFB0BFB0E366B
:2055BC001AF80BA033F81AB0C34423F81AB095F806A01EFB0AFA16F80A6003EB4603B3F887
:2055DC004AA00AEB0006A3F84A60002A04BF9CF80B20002A05D1002904BF9CF80D10002913
:2055FC0026D02989E88941180026A9812E74287F012804BF698CE9839CF8010068B1012167
:20561C0005F1740229779078002804BF917B002903D1107F08B9698CE983207D002832D0EE
:20563C00022804BF9CF80B00002827D1002129E0E98340B1002028740126287F012806D191
:20565C00698CE98303E0F888401C0226F880A8892989814206D08842CED2081A41F2AB0286
:20567C009042C9DA287C08B1052901D0082100E03E212846BDE8F44F22F0A4B99CF8090073
:20569C0008B10221217546489CF80F100068CA070CD52A68DCF81010D160143001F590712F
:2056BC00D1600022A9794901425013E0A97900F11402490150582061AA79D9F8000000F109
:2056DC0008011EFB02FE51F80E002968C8600020E8832877334948690078810703D59CF8B9
:2056FC000E00802800D1812005F1740A8AF800002846FCF76FFD012849D00121284615F0CC
:20571C0019FD284621F021FCFCF7EEFF01283ED001F054FCDFF89090B9F80410D9F80000D6
:20573C0010B1AA79914203D04FF6FD7081422ED11E48007B24F044FA040028D02670A87969
:20575C00608095F83900207195F8960160719AF90000A071A4F808807888608124F020FA2A
:20577C00050004D1FF2020734FF0FF3008E02878207324F00DFA0146A86824F02BFE8008C1
:20579C0020612046D9F80010BDE8F44F0847BDE8F18F00BFA42F0120802D01207030012087
:2057BC006C300120B0FA0200D02F0120847700202DE9F04F8946804609AF99F800003E793F
:2057DC001C4600254FF0FF0AADF11C0D02283F88059206D1D9F80400008842F6021181424D
:2057FC006CD048461AF0E8FA58A3069008B3401E0ED028460090019040F24A21029003226C
:20581C0003904BA3049046A011F006FA0A2083E05FA00090CDF8048040F2452102940122BA
:20583C0003973FA0049611F0F7F9DFF818B214200FE059A00090CDF8048040F23621029493
:20585C000122039736A0049611F0E6F9DFF8F8B12820B84214DD3E19B0420BDBD9F80C0060
:20587C0005992246C01911F073FADDF818A0ABF8006013E0284640F2552149A30D2504E024
:20589C0028464FF414714FA3072500900190029003900322049022A011F0BEF9BAF1FF0F66
:2058BC000AD06748006838B106682EB10699059BE4194046A2B2B04728462DE0FE2E0CBF26
:2058DC0049A650A648461AF077FA009040F21521CDF80480012202964DA3039510A00495F1
:2058FC0011F09AF9009703200190059A23464946404619F051FD0646514807685EB957B1C6
:20591C00786840B148461AF057FA2246059B7C6801464046A047F0B207B0BDE8F08FC0468E
:20593C00646174615F736572766963652E6300C041747472696275746520776173206E6FF4
:20595C007420666F756E642E00C046C05772697465417474724342203A20257320636F6EEA
:20597C006E48616E646C6528256429206C656E28256429206F666673657428256429206D30
:20599C006574686F64283078253032782900C04653747265616D00C0537472696E6700C076
:2059BC00496E76616C69642076616C7565206C656E677468207761732072656365697665B7
:2059DC00642E00C0416E20696E76616C6964206F66667365742077617320726571756573DC
:2059FC007465642E00C046C02D20726573746F72696E6720626F6E64656420737461746563
:205A1C0000C046C02D204F54412077726974650057726974654174747243422028434343EC
:205A3C0044293A20706172616D3A20256420636F6E6E48616E646C653A20256420257300DA
:205A5C00007800200A780020067800202DE9F043ADF1140D1CF0AAFA9549002001F8010B97
:205A7C00401CB0F5806FF9DB92490860002001461DF092FC904E0FF22818002830607ED0DC
:205A9C0024F02EFCDFF834920028C9F8000072D1002000900746019740F25F2101220297E0
:205ABC0042A303974046049711F0B6F8306824F00DFC834C2060306824F00DFC814923686D
:205ADC00814A824D824C0860990A41431160226800F2FF11B1FBF0F32B6072B1384600906B
:205AFC00019040F26A2102900322039033A30490404611F091F82B6822683068754E314689
:205B1C0024F0F3FB49460028086030D12068009028684FF41D710190012202972EA3039716
:205B3C004046049711F078F86B4831680160736843602A682168694B891845881E68216048
:205B5C00012D06EB020119600DD101460888012809D1888838B10090C888012228A340F2DD
:205B7C007921019012E040F27B212EA30BE040F26E2136A307E040F25B213EA302E040F23E
:205B9C00552144A30027009701970322029703974046049711F040F805B0BDE8F083C046B1
:205BBC00617564696F746573742E6300534420696E697469616C697A65642100736453745A
:205BDC0061727452656164536563746F72206E6F74207A65726F00C052656164206865619B
:205BFC0064657220617272617920736563746F723A25642073697A653A20256400C046C018
:205C1C00417A616E207479706520666F756E642073746172743A25642073697A653A256411
:205C3C0000C046C0496E76616C69642072656164696E672066726F6D206865616465722044
:205C5C00696E205344206361726400C04572726F722072656164696E672066726F6D2068C0
:205C7C00656164657220696E205344206361726400C046C04572726F7220696E6974696131
:205C9C006C697A696E6720746865205344206361726400C04572726F722073746172746908
:205CBC006E6720746865205344206361726400C0800C012010310120E4720020203101206A
:205CDC0034310120243101200831012028310120F47200208069002018300120F07200205E
:205CFC002DE93043054628790FF25819ADF1140D18B1401E00F09380A1E0954C00212822EB
:205D1C00204614F085FF6A88272AA8BF2722691D204611F01DF856A0009040F6DE110122B6
:205D3C004CA357A0019000200294804603904846CDF8108010F070FF217852295FD05029B3
:205D5C004DD0542932D055292DD0824C2068562914D0572973D1002871D0122000904546DD
:205D7C00019540F605210122029547A303954846049510F051FF13F0C5FA60E000285ED00A
:205D9C0040460090019040F6FD1102900122039048A30490484610F03FFF20684CA10522CD
:205DBC0024F0B7FA4BE023F023FF48E060780090A0780190E07840F6EC11012202904046A3
:205DDC00039045A30490484610F026FF6A886248611C521E10F0BCFF0FF0CCFD2FE0404644
:205DFC000090019040F6E71102900122039042A30490484610F010FF23F05AFC1FE04046EC
:205E1C000090019040F6E2110290012203903DA30490484610F000FF23F054FC0FE06879A0
:205E3C000090A8790190E879002440F611210122029038A303944846049410F0EDFE05B02A
:205E5C00BDE8308370726F6A6563745F7A65726F2E6300C056616C7565204368616E676504
:205E7C00206D73673A2025732025733A2025730044617461205365727669636500C046C0D2
:205E9C00537472696E6700C05472616E7366657272696E67205541525420417468616E2032
:205EBC00646174612073697A653A2025642E2E2E00C046C05472616E7366657272696E6729
:205EDC00205541525420646174612E2E2E00C04648656C6C6F00C0465365742054696D652B
:205EFC0020746F2E2E2E253032643A253032643A2530326400C046C0506C61796261636BD7
:205F1C002E2E2E005265636F7264696E672E2E2E00C046C056616C7565204368616E67658B
:205F3C00206D73673A204461746120536572766963652053747265616D3A20253032783AFA
:205F5C00253032783A253032782E2E2E00C046C0C4740020F0750020B07800202DE9F04F23
:205F7C008E498D4D08682A68ADF1140D002800F0B5808B4B1B6842F2FF741C19B4FBF3F37C
:205F9C00884C002A236000F0A5808B468F49DFF818820978012906D002291CBF41460868B7
:205FBC0008D1824900E0824924F0A4F94146086023682A6800287BD10092002601934FA00A
:205FDC0040F255110296012203964FA3049610F023FEDFF8E0A121682868DFF8DC919AF8C5
:205FFC0000704018012F28604ED148460478002C4AD17248724F0670386818F0ADFD714C95
:20601C0028680127314627804FF4007267806E4DA780401EE080284614F0FAFD21682846F2
:20603C00016063684360DBF8000032463B46294624F060F9C8F8000078B9A0880090E088BC
:20605C00354640F2671101903A46029536A303952AA0049510F0E0FD0EE030460090019021
:20607C0040F26B1102900322039036A3049023A010F0D2FD1EF096FE5548006807213246C6
:20609C001DF0B8F8504607787FB93046009001904FF4BA7102900122039032A3049017A06D
:2060BC0010F0BAFD0121484601704A4806700EE000200090019040F24F11029003220390D9
:2060DC0020A304900DA010F0A7FD1EF06BFED8F8000010E040F2431125A302E04FF49C7145
:2060FC0029A3002000900190029003900322049002A010F091FD05B0BDE8F08F61756469ED
:20611C006F746573742E630057726F746520617272617920736563746F723A2564207369E4
:20613C007A653A20256400C0417A616E20747970652077726F74653A25642073697A653A2C
:20615C00256400C04572726F722077726974696E6720746F207468652053442063617264D7
:20617C0000C046C0777269746520646F6E65210073645374617274577269746553656374AC
:20619C006F72206973203000736448616E646C65206973203000C046F0720020E472002049
:2061BC002431012028310120203101208041002080190020EA720020EB720020CE7200206E
:2061DC000C3101201830012080690020E972002014310120D07200202DE9F04F8D4D2F68CA
:2061FC000FF28819ADF11C0D002F00F0B0808A4C2768002F00F0A88089498848894EDFF8CF
:20621C002C82DFF82CB2DFF82CA209780068012947D0022940F0A78042F2FF714118B1FB05
:20623C00F0F7002F376000F09E8024F057F97E4F059000214FF42052384614F0E9FC2868F4
:20625C0022683368394624F050F845462860059824F018F92D68002D01DD3988F1B12068C2
:20627C000090306800254FF48D7101900122029541A303954846049510F0CEFC5F4653467E
:20629C00216830683D604018198820608142DCBF40F2231140A341DD022043E04FF48A7163
:2062BC0044E042F2FF714118B1FBF0F7002F376059D024F013F9614F059000214FF42052E4
:2062DC00384614F0A5FC286822683368394624F00CF845462860059824F0D4F82D68002DE1
:2062FC0001DD388808B32068009030680025F82101900122029520A303954846049510F06E
:20631C008BFC5F465346216830683D60401819882060814205DC40F201112EA32C46012217
:20633C0007E00120444908701DE0F221002403221FA300950194029403944846049410F09C
:20635C006BFC1EF057FA0EE0E02128A301E0D9212CA30020009001900290039003220490D8
:20637C00484610F059FC07B0BDE8F08F617564696F746573742E63005265616420617272FF
:20639C00617920736563746F723A25642073697A653A20256400C046446F6E6520726561F2
:2063BC0064696E672066726F6D205344210A00C04572726F722072656164696E67206672AD
:2063DC006F6D2074686520534420636172643A20256400C0446F6E652072656164696E67D0
:2063FC002066726F6D2053442100C0467364537461727452656164536563746F7220697302
:20641C00203000C0736448616E646C65206973203000C046E4720020F47200202431012069
:20643C00E8720020283101208019002020310120C47200201E300120D07200208041002019
:20645C002DE9F84F924CE579AC0605D5914F3D787C78EE0702D4A50740F117818DF80300AA
:20647C008DF800308A46DFF830B29DF800009BF80010109D0F9EDDF83890DDF8348000F01A
:20649C00010000298DF802208DF8010062D0222020F0FAFF040069D0912121703E2060705E
:2064BC009DF8030040B90021E17006220A9904F1080022F0BBFE07E03120E0700622002159
:2064DC0004F1080024F04CF87878810722D50A21A1700B9830B10146062204F1150022F091
:2064FC00A5FE05E00622002104F1150024F038F80C9830B10146062204F11B0022F096FEB7
:20651C0005E00622002104F11B0024F029F89DF800000FE00120A0700622002104F11500E4
:20653C0024F01EF80622002104F11B0024F018F89DF80100E071A4F804A021469DF8020073
:20655C00A071A4F80E80A4F81090668225759BF8000096E0A0074CBF4FF01F0B4FF0130BA5
:20657C000BF10B00C0B220F08FFF040000F08D8001202070FF20607004F108006060042066
:20659C00616808703E2061684870606880F802B0797860688A0747BF0A22C2700121C170CC
:2065BC0061689DF8030008714FEA1A21606880F805A06068817160689DF80210C171797840
:2065DC0060688A074CBF9DF800109DF80110017263680A9830B10146062203F1090022F0B1
:2065FC0025FE05E00622002103F1090023F0B8FF79780F208A0720D563680B9830B101462B
:20661C00062203F10F0022F011FE05E00622002103F10F0023F0A4FF63680C9830B1014694
:20663C00062203F1150022F001FE05E00622002103F1150023F094FF1B20616801F80080A2
:20665C00401C6168C2B24FEA18238B54401C6168C2B2401C01F80290C2B261684FEA192300
:20667C008B54401C6168C2B2401C8E54C2B26168360A8E54401C6168C0B20D54214607483B
:20669C000078BDE8F44F21F039BCBDE8F18F00BF842F01208C2F012068310120693101206F
:2066BC002DE9F24F054684B02868D0F80490D9F8080021F0E3FB002805F59A7B40F00B8141
:2066DC0028680169049823F085FE05F1820680463078002805F12E0440F6C41A00F0898029
:2066FC0070882989401E80B223F022FE3178074602290CBFBBF83000A0887843009028683F
:20671C00016900980AFB0011049821F0B7FB002869D07F1C03973078009902280CBFBBF867
:20673C003000A0884018009000270398029000980AFB00F001902868016901984118049803
:20675C0021F09CFB88B101983789A8EB00080AFB07F1B8FBF1F001FB1088B8F1000F18BF94
:20677C00401C039947434018029029890298411869810098F18840183F183078012849D157
:20679C0005F18601284621F049FB70896989688400202877E883E8894118A9813289A188C4
:2067BC00B0898A4204BF2189884202BF7189E388994207D0000900907389A9795208002078
:2067DC000DF0CEFFA088ABF83000307920703089A0807089E080B0892081284621F0DEFF37
:2067FC000220307016E0307801281CBF002021F095FAA0880AFB00F0B8FBF0F700FB178808
:20681C00B8F1000F288918BF7F1C38186881BFB2A0884743286801690AFB0711C9F8081035
:20683C00286833490278802A10D1D9F80820C260086BA3880068D9F8142043436420B3FB4D
:20685C00F0F30AFB03F3A3F5966353612A681078402837D1AF614FF4C872688A4743B7FBB4
:20687C00F2F2521C6A616869D9F80820121AC9F80820D9F81400DBF800206B6902EB430222
:20689C0042611C483278022A0CD10268AB7902F114065F011432F359AE79277876011AFB43
:2068BC00073393510A6B0068A97900EB4113A188106841436422B1FBF2F10AFB01F0A0F59B
:2068DC009660D8612968D9F808008860E07AA07228461CF09EFB6989A88923F029FDE989CE
:2068FC00814238BF0120ABF82E0005B0BDE8F08FB0FA02006C3001202DE9FC4704003BD026
:20691C00DFF8089299F80000092818BF0A2804D00B281CBF0C280D2801D12120F3E0A078D6
