:20000000003B01201DEE0000A1C10310A1C10310A1C10310A1C10310A1C10310A1C10310BB
:1C002000A1C10310A1C10310A1C10310A1C10310A1C10310A1C1031079C10310B9
:200040008D492DE9F04F022001F11C02ADF14C0D0023401E42F80C3F1F469760F8D1894652
:200060003D4609F14000062701467F1E21F80C5BFBD10821824C814F824B0180241D09F116
:200080001C0624F0030287609C46991AC9F820101746C9F818203846C9F81C20934200F220
:2000A000E683A20800F1E803ACEB8202E8249210C9F8103000EB820242F8045C21F0030169
:2000C0003C60EC39C0F8E810284656F0D7F8C9F814006D4930686E4FC9F810000A6807F111
:2000E0000C0002604968416068498346082212F0C3F828B9D64801685A461160406850600E
:20010000D448D64FD64EC0F8B470D64BC0F8B860D54AC0F8BC30D049C0F8C020D34FD44EF5
:20012000C0F8B0102B46C0F8C47000F1B00AC0F8C8602A46C0F8D030D0F8B010C0F8D42003
:200140002F46C0F8CC7009B13846884756F0D4F8DFF8208339463C2208F118000CF062FF58
:2001600010260820ADF808000227ADF80A70D9F82410039602A8884700280CBF049F2F1C34
:2001800008200126ADF80800D9F82410ADF80A6002A888473E499DF80C00049E0A46087044
:2001A00056606FB1D02139707D70B8702E46FD7033463D713946BE600220FB6010F0EEFAB0
:2001C000C7491820012256F00FF8584612F0AAFF182056F0EBFA2E490F46487078682946E8
:2001E000C8F80800204612F0C9FCE720294612F0C5FC0BF0F9FB08F1540039468860B94C29
:20020000C4F824A0D8F80860A6602946F52012F0B5FCF820294612F0B1FCB34E0E270D2050
:20022000707006F10C01B77006F118000BF070FCB060707812F038FE00280CBF08272F1CA0
:20024000B07812F031FE08B947F01007A749B06813F060F8A649C82206F1240057F08EFC0E
:20026000A4487060102F6AD1606A002867D0C268002A64D00EE0C04638310020416905006B
:20028000E04B0020003B0120C87F0500FC4601007C35002007278DF820700120ADF822002C
:2002A00008AEADF8245096E8030090470220666A8DF8207008ABADF82200F268ADF8245023
:2002C00093E8030090472E468DF820700320ADF82200606AC268ADF8246008AB93E8030008
:2002E0009047761C642EF4DB666A8DF82070042008ABADF82200F268ADF8245093E80300C0
:2003000090472E468DF820700520ADF82200606AC268ADF8246008AB93E803009047761CDA
:20032000642EF4DB8DF82070676A062008AEADF82200FA68ADF8245096E8030090479CA0C4
:2003400012F08EFEDFF878A20AF114000AF108010BF0DEFBCAF80400284657F0B1FB4FF0D1
:20036000070B2F461190AAF1020606F8025F02207070384657F0AAFB0146119ADAF804001F
:20038000C9B210F065FA7F1C022FEEDB8D490AF120004FF4FA7257F0F1FB5520512112F032
:2003A000E1FBE020294612F0E9FB4F20032112F0E5FB5720052112F0E1FB4E20042112F087
:2003C000DDFB5920032112F0D9FBC64904F12C00642257F0D3FBC449E0604FF47A7204F196
:2003E000E00057F0CBFBC4492062642204F1500057F0C4FB2061012108F1040057F09AFB34
:20040000BE4EB8F804004108C0F0878098F80170606A002F7BD1294600280E913ED0076922
:20042000002F3BD08DF828B00EAB00930620ADF82A000AAAADF82C5092E8030004232A46FB
:20044000B847C8B90E9819300E90606A28E0C046F01200502019002015610000210501006F
:2004600029E900007DF000004DE40000C1C80000710101000C30002028468DF828B006277C
:20048000636A0F900AAAADF82A705F69ADF82C5092E803000FAB0422B847606A29460E91E0
:2004A00050B3076947B38DF830B002AB00930120ADF832000CAAADF8345092E803000E23A5
:2004C0002A46B847C0B90E980BF0B2FD0FF0F0FBC1B202A80DF0ACFA012088F8000016E0A3
:2004E00001240000A42D00200C3200207D0C0100252C0100152D01000E9888F800500BF0F8
:2005000097FD012012F05AFC012012F08BFDA448012157F004FB40468088810807D306F0E8
:20052000EBFB9F48022157F0FAFA40468088C10852D3C44832220C3830F80C1F4FF6FF7366
:200540008B420BD041894B0808D301F44073B3F5407F03D14FF6FF4319404181521EEBD14A
:200560004FF440704FF4807111F0B0FA70BBB54F32200C3F37F80C2F4FF6FF71914223D0F8
:2005800079894B0820D311F4407F1DD102208DF81000ADF8082002A808F028FBB0B97889AE
:2005A0004FF6FF5140F480707881084078810DE0544920436F6C6C6563746F7200C046C031
:2005C000A032002089790500401ED3D17448042157F0A5FA40468088000925D370480821E9
:2005E00057F09DFA0A208DF80800B8F85000014657F0C2FA8DF80900084657F0BAFA8DF8C0
:200600000A0002A80EF0D2FAA44857F0DFFA012802D1A24857F0E8FA206942F2107157F0BC
:20062000DDFA9E4857F0DEFA7188480805D39C48012157F074FA30464188880805D398487B
:20064000022157F06CFA30464188F07FCA10520875D3B768401E69D0401E65D0401E3ED0EB
:20066000401E66D18C4902A80E220AF00FFF384630BB2846B06087498DF8155005ABE122DA
:20068000182055F0B1FD502002A912F043FD814903AB1820E22255F0A7FD0DF10A015320B9
:2006A00012F038FDF06818B1016809B102A88847B07F022814BF0320042012F07FFB38E03F
:2006C000076850B1082107900523ADF8181006A8D9F82410ADF81A3088473846C8E7327EA7
:2006E000708B06E0412A0100092A0100401C80B270833B460BE0C046ED290100A429002082
:20070000997C8A4202D1D989884203D01B68002BF6D129468142E9D0B18B532012F022FAF9
:2007200028460DF031F804E0284600E001200DF0FBFD5B48082157F0F2F930464188C808D0
:200740000AD34120294612F001FA062012F036FB5348042157F0E3F9A08840083AD3A0781E
:2007600000090DD30DF018FD4FF6FF71ADF80800814205D002208DF8100002A810F02AFAFF
:20078000A078400921D3207860B90120207039A012F066FC4120012112F0D8F905200AE000
:2007A00010300020257037A012F05AFC4120294612F0CCF9062012F001FB3A4857F006FA91
:2007C000012802D1374857F00FFA3748A570012157F0A5F9B8F8040000287FF412AE08207C
:2007E0000A27ADF808004FF0FF33ADF80A70D9F82410039302A8884700287FF402AE082004
:20080000ADF80800D9F82410ADF80AB002A88847049F00289DF80E209DF80C0010977FF405
:20082000F0AD22490978914211D12049497881420AD01E4989684B6C4BB129463A469847DA
:2008400005E0C046442A0020384601F025FC109800283FF4D6AD0820ADF808000323039774
:20086000D9F82410ADF80A3002A88847C9E542F8045B13E45065726D69744A6F696E2D4F60
:200880004E2000C05065726D69744A6F696E2D4F464600C0F9FC0000D0400100F42D00201A
:2008A000A6290020602E0020A82D00207C3500202DE9F04FBB49BA4C16460122ADF14C0D00
:2008C0000A70B94D109300220F9620692A704FF0E04202251A400E9205EA06050D9504BF2A
:2008E000291C002940F0B583B04933460A78DFF8C082DFF8C092B04E4FF4803707EA0301FF
:20090000109B00271F4008BF002935D10F9A00254FF4003115EA030701EA020108BF002987
:200920000ED11F464FF480013D4001EA020108BF002900F08283002101710DF007FF7CE36A
:2009400029460171EB2012F0DAF84F464046294601703878862802D108460FF013F970687A
:200960008047E1690A682B4613710968E161B168884712F073F860E3002101710F46012AA1
:200980008E490B9702D00F78002F68D1812227780A708B4DA770FF232B700022A28189499E
:2009A000007A45461346801E1FFA80F808882B704045C0F23183E16904F1180004220831DE
:2009C00056F0FCFE0420A8F10303A0811FFA83F8A17EB64B607EE27EAB46C1F3011A00EB56
:2009E0000120608193F880132271002908BFBAF1020F00F01183BAF1020F00F30D8369B1BB
:200A000010F0070F00F0088341B14D462978862904D100F00701022940F0FE82011301F0C3
:200A20000201022969DA637800F007004D46022857D1D6F80490002B53D1E16909A80122BF
:200A40000C3156F0BBFE0520A081C84780460A962B789648B6684768862B3DD10FB912F0C8
:200A60004FFD9DF9240012F08EFD9DF9243078770020B8774046FB77B0470A98668927799B
:200A8000406880478146287806F0100886281ED1904E06F11E010888401C0880872028702E
:200AA00012F080FC0A99896848468847082011F0BFFBF079B84208D1B8F1000F03D10020FC
:200AC0000CF030FA0AE01B20FAE7E920F8E70A9989684846884701E04046B04711F0BEFFF5
:200AE0009DE228780022862808BF01220A9632B100200FF047F8A77800E00A9663788FB182
:200B000083B9012F00F083826089022F03D110F0070F40F07C82032F05D100F00701032916
:200B200001D074E2608902094FEAE00109D310F4405F00F06C825D4A92F82474002F00F03B
:200B40006682021302F00202022A02DA820A80F05E82BE4A1278C2F381059611012D00F02C
:200B60005682012E00F05382B74ABAF1020F08D0935D525DD218D7B256B3C20928D3BF1E56
:200B80000BE0B318AA181B791279D218D7B2C2091AD255EA06031BD0BF1CFFB218E0C046D7
:200BA0006849002084360020E8350020AC230020DD4B0020DF4B002038310020DB4B0020FD
:200BC00065360020AE35002055EA060308BF0227C0F300203A1A60719045C0F21882A8EB73
:200BE00007024908024490B2208124BF25210B910B990818743080B211F08CFC94F801807D
:200C00006061002800F00382002174220CF00AFA0020E0706089B8F1000F0B9004BF00F060
:200C200020008BF800009BF8003094F805804FF00009002B3FD0B8F1000F3CD10B9800F063
:200C40000700032806D0012835D1184890F86E04002830D0934803781BB112F011F9FE2887
:200C600026D01248B0F85C004A46810809D30F4991F88A30E3B94B681BB15B7E33F07F03F7
:200C800016D1AAB98008CA460CD387498B6888783BB11846804794F80390618994F80580A5
:200CA0000B9128B9BAF1000F05D001E02C2000200420E0708146616901F17400486023891C
:200CC0000C9388650B8120890B9AA1F85C00100911D301E0D0340020C8F1030082B2A1F82E
:200CE0005C20886DCB4956F069FD6169B1F85C20886D80188865554B0B9888811878C54B6E
:200D0000C0F301121878B8F1000F00F0780040EA020049EA000008744FF0FF038B730CBF78
:200D20002079002081F8306081F83A5081F84900A089002FA0EB080085B2A58100F05F8114
:200D4000E169E78068463A464919083156F036FD3E48BB467F19BDB2A58166690078C0F3F2
:200D600001111191317C6F46C0F38103C0F38109002B01F0400A47D0C0F30110002302285B
:200D800001D1C8090BD29DF801109DF8000000EB0120A6F844000DF10207A6F84200DFF8EC
:200DA0001483B6F84400B8F84210814203D04FF6FF71814223D1B9F1030F11D07978387868
:200DC00000EB012081B27186B8F84020BF1C01208A4213D04FF6FF728A4218BF181C0DE0A8
:200DE000BA4800683946323056F02EFFB748006808F13701323056F00FFF08370346002B34
:200E000000F000816669A07EDDF82C80831108F0070824D01198022803D0307CC00903D373
:200E200009E05AEA090206D179783878BF1C00EB0120A6F84200032B0AD07878397801EBA6
:200E4000002131850BE0C046F4460100824900209E4800683946283056F0F6FE6669B8F1CD
:200E6000030F07D0B8F1010F38D1994890F86E04002833D09648D0F880704FF00008F7B13C
:200E80007B7E33F07F0316D096F8300002280DD0032810D107F1700006F1280156F0BCFE75
:200EA00048B11BE0C0350020B0350020B7F87000318D884212D057F80C7C002FE0D1B8F13B
:200EC000000F0BD1834F4046E07078783B46C0F30111187800F0780008433074B089000920
:200EE000C0F08D80B06D69465A4656F067FC6169886D58448865E769B1F85C0001225844C4
:200F0000A1F85C000DF125007919083156F056FC6E1CB5B2A58161699DF82500896D08704D
:200F200060699DF825709DF82530816D491C8165B0F85C10491CA0F85C1007F0070180F8A7
:200F40002410C3F3C10780F8257090F82460002E58D059483F180C9B3E78361DE6809E4282
:200F600050DCE169324605A84919083156F026FC38789DF817209DF814109DF8163040196A
:200F80003D78001D01EB026180B201EB0341A0819DF81530606901EB032181616DB14B4867
:200FA00000686D1E06A92A461C3056F007FC397860696944C97D80F82610806D05A932465C
:200FC00056F0FCFB61690C9D886D80198865B1F85C2006EB06474FF0FF33C5EA0240A0FA87
:200FE00047F01FFAA0F213FA80F0A1F85C2082B22281B1F85C000A818018A1F85C0000F099
:201000006DF80CE012F0D4F90DF0A0FB07E011F0F5FF04E08149002011F0F0FF0A96DDF809
:201020002880D8F804008047E1690A68002313710968E161D8F8081088470F9A109F202107
:2010400000201140384008BF002916D011F0B2FC13E01A4B1A4A93F90010491E197092F94F
:201060000010491E117093F9007017B9154900220A80002101710DF069FB114991F90000CA
:2010800058B10E98002804BF0D9800280BD091F90000002807DC12F033FA0B480021017065
:2010A000084601F059FE0C49002013B00870BDE8F08FC046A8300020B0370100EA350020A1
:2010C000E9350020D22F0020E63500207C4900202C20002082490020843600202DE9F04F0B
:2010E000C34D68692C89E969AE89806DADF1340D22468919083156F061FB6969886D001940
:201100008865E9693619B6B201220BA88919083156F054FBB74CE969761CB6B20122601CA5
:201120008919083156F04AFBE969761CB6B2042204A8AE818919083156F040FB9DF81310E8
:201140009DF8100000EB01606B699DF81210361D00EB01409DF81110AE8100EB012004900F
:2011600011F024FFD863049811F008FCA3F84000EA2011F0C4FCA049022008709F480078E7
:20118000A94638B1207810B96078FF2802D0042089F80300D9F8144099F80300217C0843FC
:2011A00020749DF92C0012F0EEF984F8460004F17407A765666821899DF92C00DFF8F8B2F7
:2011C00084F84800B4F85C004FF0000A401A801901466060A08984F847A0820A18D20209F3
:2011E00055D310F0070F07D000F00700032812BF081C6068401C46E06168C87800F0070277
:20120000401000F0380000EB42004018001D3AE00CB912F075F9A089800A2ED36168487828
:20122000C7112AD12589616650464B780A7803F07F035B0003EBE2137E2B0DD07F2B09D0CF
:2012400002F07F0280188918801C891C80B28542EBDC08E0514600E00121801C84F86010D8
:2012600080B2854201DA504605E06168091861602189091A2181A4F86800606E10B1B4F8C6
:201280006800B8B160686061A08900091AD294F86000002800F0208120460EF03FF8D9F8C5
:2012A0001440E06C002800F01781B4F85000002840F0128112F06AF85046C9F814000DF02B
:2012C00045FA86E150465646059094F82470069005A906AA07AB0796204602F03BFA002889
:2012E00040F0ED80059B656960682689291A701A86B20BB912F004F9B4F85C000090019576
:2013000002960698001D03900598A169A36D3A4615300AF091FC002840F0D180584694F811
:2013200060502689C15D701A208115B120460DF0F5FFA58905F00705032D02D16068007876
:20134000E07394F80F80732009A910F019FD83200DF12D0102F002FFDFF87CC251460AE06C
:20136000C278012A03D1002F08BFDC2028D0001D491C0990C9B29DF82D00884240F39E80D7
:2013800009988278032D07D00378AB420DD09CF800600EB1022D08D0032DE8D10378032B1A
:2013A000E5D103465B784345E1D1BB10B3EBA20F05DA02F0030207F003039A42D0DD504615
:2013C00080460598E77B90F814E0514601E0491CC9B28E456EDD06694B00032D06EB030276
:2013E0000ED1F35C032BF2D15278BA42EFD110E06849002064360020DB4B0020C035002072
:201400001278AA4205D09CF80020002ADFD0022DDDD10698077C002F08BFB8F1DC0F4DD04F
:20142000A069B0F1FF3F43D0712008A910F0A8FC6A48078947B3089D51468446059A954213
:201440001CD19CF80AE0BEF1000F08BF50460CD00698C2687346504696888E4205D05B1ED7
:2014600002F1080200F10100F6D186451ED0069AD268A36952F830209A4217D87F1E05F11F
:201480002C0501F10101D9D1C2000698A169C368491CD150C0681058B0F1FF3F02D1079881
:2014A0000121C17084F801A0504609E0DB2007E0DB2004E0DC2002E0B4370100DD206070E5
:2014C000D9F814406070A0696778606527B1F22011F015FBD9F81440414D95F8800330B1CB
:2014E000D5F8C81319B120468847D9F81440A1890A9411F0070039D0401E51D0801E4BD10E
:20150000C1F30130022803D16068007807282BD02089002840D0204641684A1C42600F78FF
:20152000A446C7739CF8246076B9002F34D00A2F32DA01895E46F01DC05D884208D0082F97
:201540002AD1082904D027E0C07B28B30A2823DA20460189491E0181C17B0B3101700A99DA
:20156000C87B401CC8731DE032201AE095F8F9030F280BD011F038FD40B90A9881890913B6
:2015800001F00201022901DA2969884795F82F040A9C2074152004E00AA80EF0F9FE13E043
:2015A000162020700A9905F1840056F051F80D4C6068804795F88C10491C85F88C10A16821
:2015C0008847202011F01EFE5046C9F8140011F045FA0DB0BDE8F08FAC230020A03500206F
:2015E0002C200020383100202DE9FE4FCE4C0746B4F85C000021820804D2B7F89E20D2085C
:2016000028BFE82110F0600F04D1B7F89E00800828BFE821CB483B8900F10E0212889A4283
:20162000B8BFE82197F89C0030B997F89800002808BFF52100F0B881002940F0B581D7F863
:20164000AC1094F8800311B9012803D028E0002800F0A98197F89800002818BF032806D187
:20166000D7F8AC0040F00A000146C7F8AC0011F0FF0F08D02A20D7F8AC6087F83C0006F046
:20168000FF013964314611F47F0F07D00420D7F8AC6087F82C0006F47F00386394F88003FF
:2016A000002540B397F898606068042166B925223A75C08AC00934BF94F8110494F83A0418
:2016C00087F86A00801C08E015223A75C08AC00934BF94F8110494F83A0487F86A0087F8DE
:2016E0006B100A2207F1700087F8695007F1900156F064F801E001203875AB46B7F89E008B
:20170000C7F858B097F8A060C7F850B097F8A130F88297F82C10FE767A683B770F293A6233
:2017200000F0BB80B7F8A81007F12C0A284601B90120002F06BFE8210191CDF804B0BAF1ED
:20174000000F00F0A7800199002940F0A58060B17868401E7860F82101707868401E786084
:201760002E4606703889801C3881AAF108054FF00208D94615F8080F00F00F010F2900F00D
:201780008680012822D004287BD194F88003002877D0D4F8981368688847061C5DD038890C
:2017A000B7F84C108019801C814256DB7868D4F89CC369683A465B46801BE04700284CD0F2
:2017C00078683989801B8919786059E00AEB090604235846F61C16F8011FFF2941D021298D
:2017E0003DD13989B7F84C200B318A4235DB7968B4F82824491E796012120A707968491EE7
:20180000796094F828240A707968491E796081F800B094F82A147A68117094F8262479686F
:201820001201491E796042F00F020A7094F818C494F8F9237968491E796042EA0C120A70A3
:201840007968491E796021220A707968C01D80B2491E796005220A7001E01A259FE05B1EC1
:20186000B9D17968C0F30122491E796042F088020A707968491E7960087039890918891C90
:201880003981B8F1010809F108097FF473AF7868B86501E0E8200190019D002D7FD197F81B
:2018A0003C00FF2802D1B86D00285ED017F13C0614BFD9464FF0E809002F53D0B9F1000F00
:2018C00052D17868401E78603F210170BD6D002D0CBF802159467868DFF8D8A0083E401EC9
:2018E0007860022501703889A7F85450801C388116F8080FFF2832D02A282ED1706860B395
:20190000D4F898138847804678689AF80020A0EB08007860716849B9D4F89CC33A465B4697
:20192000E04768B110E0C0462C200020D4F89CC3786871688DF800206B463A46E04718B953
:20194000EB252CE0A03500203889B7F854304044388103EB0800A7F854006D1EC8D1786858
:20196000386501E04FF0E8094D46C5B997F89C10B7F89A3007F19002384600F01FF8051CC4
:201980000DD10D483989C089884203DB384607F09FFE04E0E520787038460AF071FA291C56
:2019A00002D1BDE8FE8F182138460AF0FBF8BDE8FE8FC046BE350020A03500202DE9F04FE9
:2019C0000646ADF1240D884692F80890307D04933528039205D0114606F170000A2255F0C2
:2019E000EDFEDFF8A8C238F07F0706BF604600884FF6FF700590F08A800934BF0020082093
:201A00003076F08AC00834BF102080207076F08A400903D260460E30007800E00020B0761B
:201A2000F08A41082CBF20240024000928BF44F010047568307D4FF0000B08F07F086D1E7A
:201A400002280DDB0D2808DA0C2804BF44F408544FF0020B44F0030403E044F0010400E04F
:201A6000044396F88C0008B144F00804E110220900D320B1AA4F97F8243413B908B1DF20E8
:201A800042E149086ED306F12401DFF898A296F88D50069100EB0A011AF805300A799918F1
:201AA0003389491DCAB299189F4B1A8807908A42C0F22C8100284CD0049A039906F1840090
:201AC00007F06CFE0699002808603FD0806AB0F1FF3F39D070680023401E8DB196F88E10D2
:201AE000524600F80119515D491EC9B241B18A1992F88320491EC9B2002900F80129F6D1F6
:201B0000069970660968896AB162090E00F8011996F82A1000F8011996F82910079A00F876
:201B2000011996F8281005F0030500F8011902F0070141EAC501017071683589091ACAB224
:201B40007060A918318105E0DB2700E0F3277770DDE00023F08A7370C00828BF44F0100446
:201B600075686D1E336DABB9B36D9BB997F83D14012903D13089B0F5EE7F06DA200904D2FD
:201B800002290BD144F4005401E044F480544FF0010B03E044F408544FF0020BB87801285E
:201BA0000CD097F8800348B196F86B00042805D124F480544FF0020B44F4005444EA883495
:201BC000B8F1020FA4B20AD0B8F1030F10D1ED1F07F58661284656F037F86D1E08E0B7F88B
:201BE0001604001205F8010997F8160405F80109BBF1020F0CD0B8F1000F15D0B9F1000F13
:201C00000CD004990598814208D144F040040BE0B9F1000F08D1B8F1000F05D005990812D8
:201C200005F8010905F8011944EA8924B9F1020FA4B209D0B9F1030F0ED10399ED1F284610
:201C400056F002F86D1E07E003980188091205F80119007805F80109B9F1000F05D00498D3
:201C6000011205F8011905F80109307D80B9306D28B997F80004411C87F800140DE097F8D0
:201C80002504411C87F8251407E0C0463E24002097F80E04411C87F80E1405F801092012BF
:201CA00005F801092C7070683389401BC1B2756058183081200926D3B06D00B1306297F818
:201CC000800310B1307D0D281DD1746A14F1150001D111F015FCA16A481CA0623289306A4E
:201CE000B162471B0092D21B019090B20290706A96F88C202B46153007F0E4FE00281CBFE5
:201D00007070071C07D10020707005E0E5277770F32010F0F4FEF8B209B0BDE8F08FC0467E
:201D20002C200020B0370100AE3500202DE9F04FB84C0546A07AADF1340DC00055F0AAFD03
:201D4000DFF8D492089009F10400006880470B900AA9822002F002FABDF82800002834D199
:201D60004FF000084FF6FF76ADF8288024E0ADF81460BDF82800ADF81660FF210822ADF811
:201D8000100006A855F036FDA77A57B143461946089AC8007F1E01F1010113501044868044
:201DA000F6D18DF82480D42004A901F079FABDF82800401CADF82800A088BDF82810884249
:201DC000D5DC82200AA901F06BFAB04FDFF8C0B2002026464FF6FF79A2463988ADF82800A0
:201DE00006E0AA4FBDF828003988401CADF82800BDF828008142DCBF8748816840F33C815A
:201E00009BF800004FF00008012744460EE08249B08889687F1CBFB2A9E0BAF80600641C87
:201E2000A4B23BE09BF80000641CA4B2A04208DC002FD6D1B8F1000F2ED1687F0028D0D0C6
:201E40002AE0BDF828008DF802406946ADF80000D02002F083F90028E4D19DF80C30012B48
:201E600008D19DF80B0028B90DF1030010F046FF0028B6D1697B00290CBF0522092247465C
:201E80009942CFD10DF1030005F10E0155F05AFC0028C7D04FF00108F0880024A0425DDD67
:201EA000BDF82800ADF802406946ADF80000D12002F054F90028B0D1BDF804008145ACD036
:201EC000ADF8100004A9D42002F048F9002858D106A8291D082255F035FC00289DD028884F
:201EE0006F88ADF81400B8F1000FADF8167023D0287B96F80AC08DF824005FEA0C0008BF9C
:201F000000200FD00899024600208B88994509D0BDF828709F4205D0521E01F1080100F190
:201F20000100F2D184452CDD0899AA69C000BDF828700A5040188780D42004A901F0B0F956
:201F4000B8F1000F0AD0287F9DF80610884205D08DF806006946D12001F0A2F9F088A042ED
:201F60007FF43FAF2C49B08889680027BA46B84240F38080ADF81070D42004A902F0EEF870
:201F800018B125498968192477E006AB184610F0B5FE38B9291D1846082255F0D3FB0028C9
:201FA0003FF435AF28886C88ADF814002B7BADF8164096F80AC08DF824305FEA0C0208BFBD
:201FC00050460ED0089950468B88994509D0BDF828409C4205D0521E01F1080100F101005F
:201FE000F2D1844503DC0C4989681A2445E0089A291DB8F1000F0CBF5346AB69C000135092
:202000001218BDF828009080082206A855F0D6FB544605E0A035002038310020641CA4B2E8
:20202000F088A04220DDBDF82800ADF802406946ADF80000D12002F091F8E82803D0BDF82D
:2020400004008145EAD1BDF810008DF807A02B7FADF8040004A98DF80630D42001F020F951
:20206000D120694601F01CF90A488168B088A0427FF7D0AEB842B8D000240B9888470898B9
:2020800055F01CFC20460DB0BDE8F08FA8350020AB35002038310020B0B50446BA480768F6
:2020A000ADF1480D002F00F0A8812078401E112800F2A381DFE810F06A01520138012301BE
:2020C0001B010401F100E300C300B2008D005D0053004200A1012A001C001200F86B002892
:2020E00000F08B81684621460AF000F9F96B82E1386C002800F081816846002101220AF06B
:2021000091FF60788DF80000396C74E1F86A002800F07381684600210E220AF083FFA11C32
:20212000684610F097FDA57BA1890022ADF80A1005B101228DF80C20F96A5DE1B86B0028BC
:2021400000F05B816846002102220AF06BFFA5788DF8015060788DF80000B96B4BE1786BD9
:20216000002800F04A81684621460AF0BFF8796B41E1386B08B36846002114220AF052FF02
:20218000A5788DF80150A3680193A289ADF80820A17B8DF80A1060788DF80000E57B8DF8B8
:2021A0000B50237C8DF80C3094F911208DF80D2061690491396B684688476068002800F094
:2021C0001C810146F2200870002048700EF0E6FA13E1B86A002800F0108168460021242207
:2021E0000AF020FF6078A11C8DF800000DF1020010F030FD04F10C0103A810F02BFD257E07
:20220000E08A04F119018DF818500B22ADF816000DF1190009F03AF9B96AECE0786A002834
:2022200000F0EB806846002102220AF0FBFEA5788DF8015060788DF80000796ADBE0386ACD
:20224000002800F0DA806846002112220AF0EAFE658862796078ADF8025023798DF805204A
:20226000E11D8DF80000A5798DF804300B220DF107008DF8065009F009F9396ABBE0F8695D
:20228000002800F0BA806846002101220AF0CAFE60788DF80000F969ADE0B86910B12046A4
:2022A0000DF090F8A07820B9A069002800F0A58003E0A069002800F0A08010F07BF89CE04F
:2022C0007869002800F099806846002113220AF0A9FE6D46A01C0168406829600B22686049
:2022E00004F10A0102A809F0D1F8796983E03869002800F08280204608F0C6FA7DE0F86897
:2023000000287AD0684600210E220AF08BFE6078A11C8DF800000DF1020010F09BFCA089EF
:20232000ADF80C00F96866E0B868002865D06846002114220AF076FEA01C01686D462960F4
:2023400040686860A07A0B2204F10B018DF808000DF1090009F09AF8B9684CE07868002851
:202360004BD06846002110220AF05CFE60786588211D8DF800000B22ADF8025001A809F09F
:2023800085F8796837E0C046843500203868A0B36846002119220AF045FEA01C01686D46D7
:2023A000296040686860A07A410824BF01218DF80810810824BF01218DF80910C10824BF47
:2023C00001218DF80A10010924BF01218DF80B10C10924BF01218DF80C1030F07F001CBFA3
:2023E00001208DF80D000B220DF10E0004F10B0109F04CF839686846884712B0B0BD7047AF
:202400002DE9F04FD04D07466868ADF1140D80470024DFF8E4820390002F88F8034000F0D1
:20242000CD800FF095FB08F53B7021464022834655F0E0F9B14D05F1080001882C2707FB8E
:2024400001F080B255F026FAC8F8100300284FD0E97A28894843410001EBC00188B255F0CE
:2024600019FA0028C8F8140342D0E98828894843800080B255F00EFA0028C8F8180337D082
:202480002889800080B255F005FAC8F81C0378B3288980B12246D8F8101389180C75D8F85C
:2024A000101389180C71D8F81013401E114402F12C028C81EFD1A988880000EB011080B260
:2024C00055F0E8F9C8F8200390B14FF6FF7AA14625E0AB7AD8F820734846860006EB001665
:2024E000D80055F0D7F9F119F319C860DF680FB911F006F8AF7A77B12146D8F8200380195F
:20250000C368CA00D450C0687F1E01F101011044A0F804A0F1D109F101001FFA80F9A888DA
:202520004845D6DC0BF10700FF21082255F062F9FF210BF11000082288F8FB1255F05AF9F4
:20254000032688F80C632F89A8F80EA3C7B14FF0010C04232246D8F81C03910001F800C0CE
:20256000D8F81C0340184370D8F81C0340188670D8F81C037F1E02F101020844C370EAD168
:20258000012104230BF134000522022700F8041F437082707F1EC170F8D1A8888BF83C60CC
:2025A00048B12246D8F82013401E114402F11402A1F802A0F6D1022088F8F0020BF082FEEA
:2025C00098F92E0410F08CFD0EF0C8FB10F0E4F90FF0D0FF0FF0D2FA494E072556F8040B58
:2025E00000B180476D1EF9D110F07CFB454605F15400016809B10DF0CBFE4248006885F86A
:202600005E40C0B112E0304654F0ECFF029002A80DF0BEFE1FE0304654F0E4FF019001A849
:202620000DF0B6FE12E068460DF0B2FE54F0D8FE00280090F7D134480078012802D02046AD
:2026400000F08AFB314805F180060470D5F880000028E0D1361DD5F884000028D3D1C5F849
:202660008040C5F884402B4FC5F8907185F88A40294EC5F89461294BC5F8983185F88B402F
:20268000274AC5F89C21AC702148C5F89800294AC5F8C8202349C5F8A01185F88C402649CB
:2026A000C5F8CC10204FC5F8A471244FC5F8D0701E4EC5F8A861224EC5F8AC411C4BC5F860
:2026C000D4602149C5F8B0311E4B0398C5F8D8308968C5F8B441884705F21541522002F0D2
:2026E0007DF995F82F040CF0C5FD0BF0EBFD204605B0BDE8F08FC0462C200020A03500205D
:202700003C210020D04B002084360020DA4B00208335010097D0000007350100E91E01007D
:20272000E9150000159100003525010025120100215D00001BC50000D59D0000E1DB0000D6
:20274000F1B6000061E20000383100202DE9F04F09AFADF13C0D08900A92388809911E4620
:20276000ADF81800101C08BF002000F07081017800274FF0010B401C4FF0FF39B846DA46CC
:202780000A905CE1252940F051810178401C0A902D2918BFADF8068004D10178ADF806B0A2
:2027A000401C0A9030291CBFC446424604D10178DC46401C62460A902A29CDF800804D4624
:2027C00018D13068CDF808900A9BCDF810C0C01C20F00300001D306050F8044C1978002CF0
:2027E000009403F101000A9019D5ADF806A06442009414E044460AE00A9B600000EBC40027
:202800004018A0F1300419780094581C0A90302901DB3A29F0DBCDF80890CDF810C02E29BC
:2028200029D10178401C2A290A9011D13168CDF80880C91C21F00301091D316051F8045CBA
:20284000002D48BF454601782B46401C0A9011E0434645460AE0680000EBC5004018A0F1E9
:2028600030050A9801782B46401C0A90302901DB3A29F0DB02930AB1224604926C2904D087
:202880004C2918BFADF8048004D10178ADF804A0401C0A900BA8CDF80C800FAB0790642954
:2028A00005937AD0692978D0BDF818C0752966D0782962D06F295ED0702947D0632937D01F
:2028C00073291BD00A98401E0A900998012813D962490C68B5F1FF3F03D0A84288BF6D1C91
:2028E00000D8099D029508A80AA932466B46A047C0190746039865E0454617E03068C01C54
:2029000020F00300001D306050F8040CBCF1010F014608B94FA00146079110F079FB039005
:20292000B5F1FF3F4FD0A8424DD9039528464AE03068C01C20F00300001D306010F8040C08
:202940008DF82C005D46039558463CE0082035680490E81C20F00300001D306050F8041C4C
:20296000082210230FA80BF02BF8401E079040210170079823E0082302E0102300E00A236F
:202980003068C01C20F00300001D306050F8041CAA42BCBF2A1C04920DE03068C01C20F0E7
:2029A0000300001D306050F8041CAA42BCBF2A1C04926FF009030FA80BF002F80790059970
:2029C000081A0390009CBDF80650211A241A00915DB906E008A8202109AA0FF0A7F97F1CB7
:2029E000009C641E0094F5D50398401EB0F1FF3F03900FD1BDF8060001281CD10098401E49
:202A0000009018D408A8202109AA0FF08FF900987F1CF4E70798017809AA08A80FF086F908
:202A20000798401C079003987F1CDEE708A809AA0FF07CF97F1C0A980178401C0A9000295D
:202A40007FF4A0AE089808B14146017038460FB0BDE8F08F286E756C6C2900C0AC47010043
:202A60002DE9F84FB74E0F460546F80B80F02F81A849B24CDFF8B4820878B90F80F0D3802A
:202A8000B90880F0C780DFF89092DFF890A2DFF8A8B2F90A80F09B80B90B80F08980790B3C
:202AA00053D2380C42D23809C0F02D810EF0A0FF002836D055464C46032128682170783015
:202AC00010F03FFD07F0DAFD022000210FF07AFB02200EF0BDFA112006F02CFF90480078BC
:202AE00018B92868403010F03EFD8E48007810B90E2006F01FFF607B20B1002060730520AD
:202B00000EF0A6FA40460022874BB0F91C102270B0F91E006360814214BF022007200AF0D3
:202B200011FD27F008070BF05BFFECE040461030016839B1C86840880028FBD0C868408844
:202B40000128F7D027F40047EDE728B104200EF07FFA7049002008700EF0AEFA40B1A869E2
:202B60006FF4807100224FF0007306462846B0476F487049002210F0EEFC226848460221C5
:202B80005C4601702668106B804755466C492B680A689A4214BF0122002226B1801B01EBAB
:202BA0008201000B8860002027F480572060BAE732684AB1906838B11069B2F93410926894
:202BC000202314460022A04727F400579BE010F0BCFC0090404600680646A8B1554628685C
:202BE00010B1783010F0ADFC20683169006B296080475C464946544A2060091D53480A606C
:202C00004FF4006110F0B7FC009810F0CDFD27F4806778E004F00EFE40460830006808B9BA
:202C200027F002076FE04A4A116841F08001116028B104200EF00CFA36490020087010F0DD
:202C400084FC8146606D0068014604208847D8B1287CC8B13F480668B6B12068006B804702
:202C6000801BE968E860E868000BE860E868884203D240184008E860E86840F6C411814288
:202C80002CBFB0F5967FE960484610F08DFD0EF013FA88B1A8696FF4807100224FF00073B1
:202CA00004462846A04740460068002808BF47F0020701D00BF094FE686900214FF08063E6
:202CC00004460A462846A04727F000571BE010F03CFC36689EB1B16A890810D2B56AB16AAF
:202CE000A943B16210F060FDB06850B14DB13069B6F93410B46800232A46A04701E010F05E
:202D000053FD27F480471FB11048394610F033FCBDE8F88F094B00205C4B0020F84A0020E2
:202D2000084B0020BE460100817E0000B0490020304A002011A00000004B00208C010010B0
:202D400010490020C8490020D16B000074480020CC210840FC4A00202DE9F04FAE4C05467C
:202D60006068ADF11C0D80479F4FDFF88C92012D069000F0D4800FF09DFF002800F0CA8015
:202D800093480078A0B99348007888B9A348007870B99148007858B99048007840B99048E4
:202DA000007828B98F480078002808BF012000D000203D46A969002801F13C0100F0AA8065
:202DC0008A4E0868347880477168DFF828A2A500401AB0FBF5F7F168B0684FF000084246E8
:202DE0000D461646AF42B24101DA884207D80246434631469742994142DA114600E04346E5
:202E00000A46D21B73EB0803104619462246E3170FF08CFF272507464FF47A7200238846B2
:202E2000ADF80A500820ADF8080038460AF090FD7949496A039002A88847049833464FF0E4
:202E4000000100F6FC02BF1A78EB0308784271EB080112DA66480268414638460AF078FD9F
:202E6000884607464FF00001784271EB080104DA38460DF015FB002000E001205446207024
:202E800054462078002845D10027384654F0B4FC00B101274FF0000AA346381C38D14D462E
:202EA0002878002834D150488069544C436C6068022102AA98479DF8080048B34A48504E37
:202EC000826996F900106068574611F1020F18BF01274FF0010837B1926B96F9001090474E
:202EE000414882696068474F97F9001011F1020F06D0926B97F9001090473B4882696068CD
:202F00006FF0010139703170D16985F8008088478BF800A0404906988968884755E00120A0
:202F200054F06AFC21460698896888474D46DFF8E4902878012836D10FF00CFB60BB2046ED
:202F400040688047002402268246DFF8BC80B869A8F80240416E2E7002A888470294B8695B
:202F60008DF80C60254AD0F850C03346101D8DE81800264B0068414602AAE0472649896853
:202F8000002819D4224A464692F900007E60401C10705046884706E02878012803D10020D7
:202FA00028700FF093FE0FF0D5FA70B92878022804D14846007808B110F0A2FA48460078F2
:202FC000012802D028780228FCD007B0BDE8F08FDB4B0020DD4B0020DC4B0020E635002075
:202FE000E7350020E8350020A830002034350020AC330020DE4B0020853600205034002010
:20300000E4350020E5350020702F0020EDFA0000E93500208436002038310020DF4B0020AC
:203020002DE9FE4F0546287D012807D195F917000DF078FEB0F1FF3F00F016819548EF7B77
:20304000017895481FB990F88B208A4208DB012F03D190F88A208A4202DBF120BDE8FE8F3E
:2030600080462E6A95F83500B5F8289095F83470AC8B4FF0000A5FEA060B029017D098F8B7
:203080008033002B2FD0D8F8981300292BD006F0FF008847D8F8981306B20BF47F00884770
:2030A000361830B2001D00B2C83086B200E0C8260CB1241DA4B298F82404012809D147B10C
:2030C000764802993F1897F804A0405C8019401D86B209EB040080195044801C80B254F00C
:2030E000FFFA071C02D11A20BDE8FE8F09EB0A0033193881002C03EB070078600EBF00208C
:20310000B819801C00217822C7F8A40007F10C0054F070FB09EB0600FF2110220019A7F86D
:203120004C0007F13C0054F065FB07F12C000F21102254F05FFB00243C707C707868696AD8
:203140002A8D54F03BFB07F1840005F12C010B2254F034FB07F1900029460FF0C3FC688959
:20316000A7F89A00287B87F89C00687B05F10E0687F89D00326869460A60706848609DF887
:2031800000102046012908BF01209DF80110012908BF40F004009DF80210012908BF40F014
:2031A00008009DF80310012908BF40F010009DF80410012908BF40F020009DF80510012970
:2031C00008BF40F040009DF80610012908BF40F080009DF80710012908BF40F48070A7F80C
:2031E0009E00A87D87F8A000E87D87F8A10095F8380087F86C00AA8BA7F8A82022B1D7F87A
:20320000A400A96954F0DAFAA87F87F8AA00286AC7F8AC00B7F8A800C0B1D7F8A400A8B1FF
:203220007868401E7860F82101707868401E78600470B7F8A810B7F8A8607868401A786034
:2032400038898019801C38817868B865B7F89E00410A16D395F83710042905DD00F0040169
:2032600000F00100084302D0E820BDE8FE8F08F19006304609F024FC95F8371030460FF09F
:20328000D9F998F80000394654F020F92046BDE8FE8FC046A03500202C200020B037010009
:2032A0002DE9F0410D46904CDFF848C2DFF84082A188D128074613DCDFF83CE2D12800F0E2
:2032C000A280713800F0E280401E00F0DB80401E00F0D280113810D04C3800F0AF8007E0D5
:2032E000D2387AD0401E61D0401E34D0401E2CD038460FF0FEFEFF2802D1F420BDE8F08192
:203300007A4C04EBC004217909B9E08860B1E088884208BFFB2000F0E5802A78914200F38E
:2033200095809042C0F29280744E706880472378628807464046A0F138015818294654F03C
:203340003DFAB16838468847CBE0297802297DDA40466C1C6EE02888814277DD6746AA8800
:20336000D7F820338100860001EB001106EB0016D7F820035A52E988D7F82033801908222C
:20338000418005F108019819001D54F017FAD7F82003A27A29698019C068D20054F00EFACB
:2033A000297DD7F82003801901749AE02E882189304681424ADD6746D7F810032C24A91C89
:2033C000102204FB0600153054F0F8F96969D7F8100304FB0600816283E029882289A878C1
:2033E0008A4233DD022831DADCF810332C22471C00EB410602FB01331F75DCF81C130222D6
:2034000001EB460035E02A882089698890421DDDE3888B421ADD704600682C2404FB0200AF
:203420008489A142A4BF4C1C8481DCF8180302FB03112C1D00EB810004221BE0298822899A
:20344000A8788A4202DDE27A824202DCE820BDE8F081DCF810432C23471C01FB020603FBAA
:2034600001442771DCF814130A22700000EBC6004018EC1C254631E0002D32D0404608226C
:203480002C46F7E76DB37046103026E025BB27893FB3E588E47A00231A46DCF8100302FB0C
:2034A00004F6710001EBC601DCF814638919C150DCF8181302FB05F601EB8601DCF81C6333
:2034C0007F1E184403F12C03816006EB820102F101020161E1D104E070460422294654F0FE
:2034E0006DF90020BDE8F081A035002070380100502300202C2000203C230020383100208B
:2035000030B50546EC6B00215022ADF1540D684609F088FD14F8010B8DF8000021680DF142
:20352000010001606168083441602078617854F01CFBA41CADF80A0041080FD320786178AC
:2035400054F013FBA41CADF80C002078617854F00CFBADF80E00BDF80A00A41C810808D356
:203560002078617854F001FBADF81000BDF80A00A41CC1080FD32078617854F0F6FAA41C56
:20358000ADF812002078617854F0EFFAADF81400BDF80A00A41C0109C0F0AA802078617849
:2035A00054F0E3FAA41CADF816002078617854F0DCFAA31CADF818001878597854F0D5FAF4
:2035C0009A1CADF81A001078517854F0CEFA931CADF81C001878597854F0C7FA9A1CADF8E8
:2035E0001E001078517854F0C0FA941CADF820002078617854F0B9FAA41CADF82200617821
:20360000207854F0B2FAA31CADF824001878597854F0ABFA9A1CADF826001078517854F03A
:20362000A4FA931CADF828001878597854F09DFA9A1CADF82A001078517854F096FA931CDB
:20364000ADF82C001878597854F08FFA9A1CADF82E001078517854F088FA931CADF8300047
:203660001878597854F081FA9C1CADF832002078617854F07AFAA41CADF834006178207868
:2036800054F073FAA31CADF836001878597854F06CFA9A1CADF838001078517854F065FA4D
:2036A000931CADF83A001878597854F05EFA9A1CADF83C001078517854F057FA931CADF8AE
:2036C0003E001878597854F050FA9A1CADF840001078517854F049FA931CADF84200187824
:2036E000597854F042FAADF84400BDF80A009C1C40090ED320786178A278E37854F025FAA6
:20370000241D12906178A2782078E37854F01DFA13900E490E4C086B401C08632078002837
:203720000CBF01210021012054F078F9298804A010220CF099FA28460BF068F815B030BD14
:2037400053656E736F7220307800C0460C300020A23200202DE9F043044694F830900F469D
:20376000984615468B20ADF1340D0DF10A0100F0F5FC8A20694600F0F1FC94F8250000288D
:203780003FD1B9F1000F19D1BDF80A104FF6FE70884205DCBDF80A10884230D1694615E00B
:2037A000B4F844009DF80A608DF80E0000128DF80F00BDF80A008DF810601CE0B9F1020F76
:2037C0000AD0B9F1030F1AD104F128010DF10E0054F03AFA092612E0207CC00934BFB4F8A1
:2037E0004200B4F844008DF80E0000128DF80F00208D8DF81000001205268DF81100002029
:2038000016E002280CBF05260926012818BF04F11C0106D189200DF11A0100F09FFC0DF12F
:203820001A0132460DF10E0053F0C8FF94F826000DEB060148733A460DF10E00314609F077
:203840000BFE002840F09380B9F1000F19D1BDF80A104FF6FE70884205DCBDF80A1088428B
:2038600030D1694615E0B4F844009DF80A608DF8220000128DF82300BDF80A008DF824608B
:203880001CE0B9F1020F0AD0B9F1030F1AD104F128010DF1220054F0D7F9082012E0207CE8
:2038A000C00934BFB4F84200B4F844008DF8220000128DF82300208D8DF8240000128DF820
:2038C000250004203E68814603A9822000F046FCBDF80C10B0898142D8BFBDF80C00002865
:2038E00045D007460024722029460EF049FAB068BDF80C100019C8F800000088814232DDE4
:203900002B68810001EB0011581828600146D8F800008278012A22D0C07840BBB9F1040F80
:2039200007D0091D0DF1220054F076F9012818D019E008884B888DF82A0004220DF1220154
:203940008DF82C3000128DF82B0018128DF82D000DF12A0053F0F6FE012802D003E0C07873
:2039600028B9002004E07F1E04F10404BBD1F3200DB0BDE8F08370477A4A2DE9F84F8146B5
:20398000844C5068800806D2106804F15001000C40F0F0000870D2F808B0DFF8CC81744F74
:2039A000641E5E46B00E11D2700E0FD3802084F820004FF6D801A4F861103D462074A5F1CC
:2039C00070000068C0F3046008F078FB674D55F8180CBA46C0F3400018B96649002008606D
:2039E00001E046F040666449F00EB70E80F001004FF0805300F00100086087F0010000F056
:203A000001008860D3F8F06103F5F87072680090594648469047DFF86491DAF80070584B22
:203A200039F83B2C07F0FF06101280F0C000B04211D002F0FF021968B04234BF01214FF013
:203A4000FF3140180102864281F4404142EA010129F83B1CEFD13809C7F30331C7F3844604
:203A60006FF4017200F0F000014304F80810F90CA65401F0F00040F47040A4F86300DAF8A3
:203A8000046028681F4620F0100828F4F070286057F8080C5FEA9B6002D25FEA5B6017D239
:203AA00055F8180C800834BF300AF00800F0F80040F47840A4F86100207800F07F00207080
:203AC000207840F080002070C6F3044008F0F6FA46F3050321783A6841F30500984211D0B9
:203AE0009842B4BF01224FF0FF3201F04001801800F03F020A4322702178834241F08001FC
:203B00002170E7D138683868C5F800801D4957F8080CDAF814004026C0F3053089F8A30FAF
:203B200043F61803E675009A0B8010688168584688471549154A0AE0105C9378141D8342CF
:203B400099BF204410F8010C20444078086008684B689842FCD10228EED10D49012008607E
:203B6000BDE8F88FAC4F0050FEFDFFFF28000940F813005094042A43000220436BA00C4048
:203B8000342009406AB00C4000600C40EC46010094046042066208402DE9FE4F0E468046DC
:203BA0003068D8F80440D8F808B0E8B1B7680FB97568CDB194F894100020012908BF012094
:203BC000384202D17168084205D0012080F00100C0B2012808D10FF0B8FCD4F8881031B1A1
:203BE0000FF0E2FD032030740020BDE8FE8F0125357400210291C4F88860C4F88C10C4F893
:203C000090100FF0D1FD94F8AC0038B194F895206549D4F8A40011430DF014F877680FF07C
:203C200094FC814694F8E00070B917F0704F06D12FB104200DF008FD06200DF005FD0220AE
:203C40000DF002FD84F8E05048460FF0ADFDDBF80010486840F002004860207800287CD10B
:203C60003068DBF81C10814277D9B7685D46002F14BFB84604F1AE0877682FB9E88904F100
:203C8000AE07A4F8AE003068616909292CBF022101215FEA0009019132D0DFF810A160692A
:203CA000092811D3DAF800004268398828689047DAF80000C16828680A4669469047BDF835
:203CC0000000A8F8000010E0DAF800004268397828689047DAF80000C16828680A46694636
:203CE00090479DF8000088F80000B3680BB10198804473680BB101983F18B9F10109CED1CA
:203D00002A68DBF80010D0684009FCD2486820F00200486077680FF018FC054694F8E000CC
:203D200078B117F0704F06D12FB106200DF090F904200DF08DF902200DF08AF9029884F8D2
:203D4000E00028460FF030FDD4F8881002980874C4F888000120029022E02046594603F07E
:203D600037FBDBF80010486940F00100486120780028EFD1616804F16C0528460FF0A7F9E7
:203D80000028E7D0D4F88800017C012904BF03210174404604F04EFD029928460FF097F990
:203DA0000298BDE8FE8FC04600000680C40100102DE9F04FDFF8C88198F8F903ADF11C0D0E
:203DC000049098F81804059098F8EF03069098F824044FF0000B01280AD198F8E0713FB11F
:203DE000664898F8E1113F18445C3D79641D01E05D465C4698F88A60082EA8BF072698F86B
:203E0000F873F000C1B278180019A13084B26019801C80B253F064FCDFF868A1DAF80490F4
:203E2000071C08BF5C4600F0A3805946902253F0E1FC3819786098F8F8233D81D8F8F41309
:203E40007868841A801A53F0B9FC3C62C8473546D946641ED8F88060039016E0707EC00999
:203E600011D371684878C0F3810003280BD1E41F491D204653F0E8FE6D1EEDB2641E09F1EC
:203E800010005FFA80F956F80C6C002D18BF002EE4D1DAF8081003988847DAF804008047A2
:203EA000D8F880600EB37168491C0A78C2F38102022A16D1727ED20906D2317E890910D3BF
:203EC0004FF0010B6DB910E0497904F80119716849796D1E09F10103EDB25FFA83F904F815
:203EE000011956F80C6C002EDDD1DAF80810884704F801990020069E049D04F80109059BAC
:203F000098F8ED2398F8021041EA420146EA8101090141F00F0104F8011945EA031121700A
:203F200079683E89091BCAB2B11839817C6004463C65F882BC650B22387508F5EC718DF89B
:203F4000080007F1840053F039FCBBF1000F03D0F88A40F00800F8820EF088FE6A46234606
:203F600001463846FDF72AFD18B1384653F032FC2746384607B0BDE8F08FC046B0370100F5
:203F80002C200020383100202DE9FE43DFF8C081704D0E46B00958D3444604F184074DE091
:203FA0000178D0290EDBD02909D181783970C17879700179B97085687D60C168B96053F01D
:203FC00009FC48E004F15805286009F03FFE28460CF0DEF93FE0884794F88C10491E84F86A
:203FE0008C10A9688847009801788DF80410A0654378CBB1DC2B0DD0DD2B0BD0E42B09D0B0
:20400000F32B07D0DE2B05D0DF2B03D0E82B18BFDB2B0BD105F07EF89DF80400162805D10C
:2040200068460CF0B5F901E009F010FE9DF80400162803D004F158000CF0AAF9384653F0E9
:20404000D1FA002869680090C5D1F00BA9464446C00305D0404F53F0C3F9002800909FD1B4
:20406000700905D32E208DF8040001A809F0EEFD700805D325208DF8040001A809F0E6FDE8
:20408000B00805D326208DF8040001A809F0DEFDF00805D327208DF8040001A809F0D6FD2F
:2040A000300905D329208DF8040001A809F0CEFDF00908D300208DF805002D278DF80470E5
:2040C00001A809F0C3FD300A08D300208DF8050030278DF8047001A809F0B8FD700A08D3C3
:2040E00000208DF8050035278DF8047001A809F0ADFDF00A08D300208DF8050023278DF827
:20410000047001A809F0A2FDB00A08D300208DF8050036278DF8047001A809F097FD606D52
:20412000D9F8041080B18847616D00270091D9F8081067658847009804F15806306009F01C
:2041400085FD30460CF024F90020BDE8FE83C0462C20002038310020B03500202DE9F041C1
:20416000694CA288054671380E46022840F2C880133828D0674F4C3800F0A680401E00F093
:204180008C80401E71D0401E5AD0401E2DD0DFF88081401E1AD028460EF0ABFF0546FF2DE4
:2041A00011D05D4C60688047584A0746E800115C801842884346C918304653F0FFFAA1681B
:2041C000384688470EE0F420BDE8F0813278022A80F296804146701C383101EB820104220B
:2041E00053F0ECFA0020BDE8F08131888A4240F38780D7F82023D7F8203388008D0000EB6D
:20420000011005EB0115105AD7F82023B0805819408851190822091DF08006F1080053F036
:20422000CDFAD7F82013A27A30694919C968D20053F0C4FAD7F820034019007C3075D1E776
:2042400035882089A8425BDDD7F810132C24B01C102204FB0511153153F0B0FAD7F810036C
:2042600004FB0500806A7061BCE730882189814246DDD7F81023B5782C2101FB0020007D7F
:20428000A8423DDD3A463388B178D2F81C2301EB430102EB4101022230E0308821898142F5
:2042A0002EDDD7F8102375882C2101FB00208089A84225DDE288394633887488D1F8181302
:2042C000301D03FB024288E730882189814217DDD7F81023B5782C2101FB00200079A842CC
:2042E0000EDDE17A3A463388B478D2F8142303FB0143590001EBC30189180A22F01C6FE796
:20430000E820BDE8F081C046A035002070380100182300202C200020383100202DE9F04F36
:204320008246ADF11C0D02F0FBF95C4800780BF01FFB5B4D0024012806D90C3804D0401E8D
:204340000ED0401E09D006E00EF024FC022804BF01210C1C06D0296806E005211F2401E076
:2043600003210724284601604E4AD068C0F38150012804D112680120120E904004430EF0FD
:2043800001FFDFF828B1DFF82081FF2240185B46401E471CC8F800007F1E03F8012BFBD1CA
:2043A000DAF80020002702F0FF03FE2B1CD0D4463B46012602F0FF05FF2D0ED0A84205D357
:2043C000A94203D806FA05F52C4201D0022062E002F0FF022F430BF802305CF8042F5B1CE2
:2043E00002F0FF05FE2DE7D1092005F0CFFB3048C0F800A0374801210DF010FB364D0026DA
:204400004FF00109B04609FA06F0044214D1074207BF06F0FF0141F4C0411BF806005AF893
:204420002010244804F052FCF0B24FF0FF310EF027FAC5F8008001E0042028601A480068DA
:20444000761C2D1D8642DED904A80EF083FE1A4C20781B4A05901948102104AB0CF060F948
:2044600068460EF0AFFE6068174902901548CDF80C806A460CF064FA144951F80D0C20F49E
:20448000F85040F4005041F80D0C114AC1F8FF9F4046C2F8009007B0BDE8F08FD94B00205D
:2044A000E0350020A84F0050DC350020F04900203C470020007FC7670C470100684A002080
:2044C0009D280100DC4800203D0201000D3009402C000940844A0020C04600202DE9F04F2E
:2044E000604DA869416EADF11C0D02A88847DFF878B1DFF878A19BF9000038B1514691F981
:204500000000002818BF002040F0A980DFF87891D9F80400804705900026029631468DF858
:204520000C10534CA66604F16008A8F8026094F86C00012761F3030084F86C003A460692DE
:2045400094F87B0094F86C3067F3000062F3C71384F87B0094F87B2067F3410284F87B20D1
:2045600094F87B0061F3820084F87B0094F87B0061F3C30084F87B0094F87B0061F30410E3
:2045800084F87B0094F87B0084F86C3004F17C0140F0600084F87B00F4200BF0ADFBA86944
:2045A000344A076D354B344831468DE803001068414602AAB847334A931CD9F808101F78C8
:2045C00028800028894604D5059888473146069144E0514691F90000294B401C087093F9D0
:2045E0000000002F00F1010018709BF90000C5F8048000F101008BF8000014BF8021311C07
:20460000A88E4FF67F730340194304F178030843A88618781646082267F3C71006F5866776
:2046200039461870B6F81204B6F81634A5F8420005F13700A5F8403053F0C0F8B6F81204DF
:204640000822B6F81654A4F892003946A4F8905004F1880053F0B2F80598C847069807B084
:20466000BDE8F08FA8300020EB350020EA350020702F002054340020200043008B35010014
:20468000E93500202C200020383100202DE9FC41DFF888810026054688F82D63687D062820
:2046A00003DBE82088F82D03687DA97D0E2905DD032803D0E82088F82D03687D032806D1A3
:2046C000B8F85C0040083CBFE82088F82D0395F8280010B1E82088F82D0308F54B77294677
:2046E00038460CF0D6FE291D112207F12C0053F065F895F8280008F54B74002804BF88F853
:204700007463A87D04D095F8290088F87403688DA8F86A03687E88F86C03A87E88F86D032F
:20472000E87E822788F86E03287F98F82F6488F86F0398F83E3488F87073394F88F871637C
:2047400098F83F24C8F85073042688F8546305F11D0188F8723304F1490088F873230B22C8
:2047600053F02CF898F82D03002850D1687800284DD1287E98F82E738DF8000017B1EA2075
:2047800088F82D0305F11701E72000F027F998F8740328B1287E022808BF01208DF8000027
:2047A00098F83F049DF80010884203D0E820694600F014F91B4C98F82E33277867B9B8F869
:2047C000120419490880D3B1032B14D0052B05D0012B03D0022B01D00EF092FE0220207001
:2047E00006F0D2FF4FF6FF70A8F81204104F38800E49088005E006F0C7FF032000E00120CD
:2048000020702720287030460DF0F4FE01E02A202870284609F01AFABDE8FC812C200020F8
:20482000053201006849002052340020EA3000200230002066492DE9F0470F78002F40F05B
:20484000B3805B4C634E5B4A88460121012860707568176888F800102AD9DFF85C91DFF8B5
:204860005CA1801E4AD0401E45D0401E35D0401E66D0401E2FD195F86D00608195F86E00E5
:20488000002806BFE170081CE070534F51460A7839784E4611FB02F148438100316396F839
:2048A000341021F00F0141F0030186F8341047E00021EF8A6171F90934BF96F8111496F8D3
:2048C0003A14A17088B996F8EF0370B10229C4BF0220A07009E00EF013FE95F869006071F8
:2048E00095F86A00A0700027A77104F023FE756835BBBDE8F0870CF04BFD20E09AF800009E
:204900008500F86B8047DAF804103C22401AB0FBF5F0B0FBF2F15143401AC0F178001FFAFC
:2049200080FAF86B804705FB0A014846016390F8341021F00F0141F0020180F8341075681C
:204940001F48007868B9002D2ED06968087800F0200020718878E0710878800901D20EF00F
:2049600021FD6078032803D0022818BF06281DD1144D68688047617802290CD012490F786C
:2049800017B912490F7837B1022188F80010A9688847BDE8F087832188F80010A9688847BA
:2049A0000DF044F9BDE8F0870EF0AAFDBDE8F087D0340020C0300020702F00203435002064
:2049C000D84B002038310020DB4B0020DD4B0020DF4B00202C200020BD3500202DE9F84364
:2049E000614E80460F46B8F1450F08D106F511743422204652F0E2FEC6F8F443B0E00DF037
:204A000086FEFF2808BFF42000F0AB80B8F1E80F00F0A680B8F1E70F00F0A280534C04EB00
:204A20008004A07808B9E17869B3E178814208BFFB2000F09680B8F1580F1AD0B8F1600F8E
:204A400010D0B8F1E00F05D03A78904218DC914216DB18E097F900000CF064F9B0F1FF3F0D
:204A60000ED010E038880A280ADBB0F5804F07DA09E038888F2803DB47F60251814202DCCD
:204A8000E820BDE8F8833C4D686880478146207862783946301800F57B7052F08FFEA9680E
:204AA00048468847324A17794046503851D0801E37D0401E4AD08D3843D0401E28D0401EB5
:204AC00022D0801F38D00D384AD10E208DF8000096F86D0410B11B218DF8001096F92E24B8
:204AE000244C9DF90010914204D0E0206946FFF775FF2078214914310968096A09B188472C
:204B0000207800282CD019E00DF038F837B327E096F82F040AF0AEFB012821D01A20BDE865
:204B2000F88396F8150418B902200BF09FFF17E002200EF057FB13E003F01CFC0AF092F8DC
:204B40000EE096F92E040EF0CBFA09E00DF012FD01E00DF021FF1079012801D007F0AAFDCF
:204B60000020BDE8F883C0462C2000209C3A0100BC3500209924002038310020A83000203D
:204B800001282DE9F84F40F0B58064489038D0F88C10012940F0AB8081460220C9F88C0097
:204BA0000DF052F901200CF011F95FEA000805D00120C9F88C000DF05BF99DE00EF0D7FC53
:204BC000009011200EF0B2FB00280CBF0025012510200EF0ABFB08B145F002050F200EF035
:204BE000A5FB08B145F00405454CA06A0068014601208847012818BF002703D100200AF0CF
:204C000077FD01270EF08CFBDFF8F8A040080AD20026206A80680146504688478346BBF127
:204C2000040FF6D000E00126304600214FF0FF3202F076FD012E0ED0BBF1010F05D1206AFF
:204C40004068012102465046904735496C39086840F00300086020684069014628468847F2
:204C60000B200EF063FB284E30B12068C06A3146091D0246088890470A200EF057FB28B105
:204C80002068C06A31460246088890471F4903200126C9F88C001E4B0E6000221A60206842
:204CA000406B0146284688470128F8D1194C206804200CF08BF80546174806602068012F7B
:204CC00002D130460AF014FD0EF00CFB08200CF07DF807460098C9F88C600EF061FD0DF0F7
:204CE000C7F857EA050018BF4FF0FF3804E06FF0040801E06FF001084046BDE8F88FC04612
:204D0000B8010010004003405242010028200860800104432C2009400C400940382F002089
:204D2000902208402DE9F04F624E0546B07AADF15C0DC00052F0AEFD0C9001208DF84800C1
:204D4000E87D092205F118018DF849000DF14A0052F034FD584C6068804715900DF146010E
:204D60008120FFF7FBF9A87DA346A8B3012004278DF803004FF0000A8DF80470AC8A8DF86E
:204D800002A06946ADF80040D220FEF789FAB1464FF6FF78544616941AE0C00052464718CB
:204DA0000A50A98AD420B98008A9FEF779FA02E04046ADF804008DF807A0A88A8DF806A086
:204DC0006946ADF80000D120FEF76AFA641CA4B2B9F80600A0422FDCA88A00279DF8492064
:204DE000ADF838000DF14A018DF83A700DF13B0052F0E4FC01200EA98DF84400D020FEF77D
:204E00004FFA071C0FD1A88A29461022ADF808000DF10A0052F0D2FC286902A90790D320E8
:204E2000FEF73EFA07460C9852F048FDDBF8081015988847F8B239E0A88AADF802406946DB
:204E4000ADF80000D120FFF789F90028B0D1BDF804008045ACD0ADF8200008A9D420FFF741
:204E60007DF9002818BF0C9819D199F80A70002F04BF0C9950460ED00C993A4650460B460D
:204E80009E88B04507D0B44205D0521E03F1080300F10100F4D187427FF47FAF084652F035
:204EA0000DFDDBF8081015988847192017B0BDE8F08FC046A0350020383100202DE9F84388
:204EC000DFF880815B4F5C4CD8F89400002870D0401E0BD05A49401E62D0401E1AD0401ECA
:204EE00055D0401E18D0401E35D031E050480124006888F89240406802217022042305468D
:204F0000009138460021A84720200CF045FC2046BDE8F883022100E003214FF08056D6F865
:204F2000A40188F8921040680024702204232146054600943846A847D6F8A401C068702245
:204F40002146134605463846A84701200446DCE70320BDE8F88300252560656020688008E9
:204F6000FCD260688008FCD2374834490127001D05600E200F6004F0DDFC02200CF068F8B7
:204F8000C8F8945088F893500220BDE8F8830520C8F8940000270F6008688008FCD243E0D0
:204FA0000320C8F8940000270F6008688008FCD23AE0264D01260F20266042F62A213C3DB9
:204FC000C5F80B004FF08059C5F80F10D9F8A40140684FF4C072072302218446384600915C
:204FE0000021E047D9F8A401C06800214FF4C072072384463846E047266020688008FCD337
:2050000098F89100C5F81B6018B9032100200E4602E0002020630321C8F8946045F8011C17
:20502000606060688008FCD20020BDE8F883C046A401001000A00C4054600C4004800C40DB
:2050400058600C40A82E002038500C403D400C402DE9FE4F1C469246894680460EF075FA1A
:205060005B4D019028680CAF404508BF68686FF00101009128B19C300EF064F8002840F047
:2050800095800DF07BF8061C00F09B8008F178000EF057FAC6F80C90DFF838B19AF80430BE
:2050A000BBF91C00C6F81080401C86F836306FF31F30ABF81C00B460BBF81C00464BB08678
:2050C00097E8060000242027346303EA0100F46206F1180307EA020186F8374006F12007EC
:2050E00083E803002146084687E80300DAF8007007B1376399F80C0000F00F00022804BFFE
:20510000D9F80800F062DAF808702FB196F8370040F0200086F8370048460DF0D6FC00888B
:205120006FF30900B0F5305F1CBF0222101C06D196F83710082041F0100186F8371006F1D3
:20514000180191E80C002746104306F1180247EA030182E80300A86A5F46804507D195F85D
:205160002C00410824BF00F0FE0085F82C0030460AF06EFA10F1020F10D010F1030F0DD086
:2051800096F8370040F0800086F83700B6F93400009088F8C0400DF0D7FE12E0B7F91C0062
:2051A00000F6FF706FF31F30B88302E06FF00200009095F82C0040F0040085F82C00C5F878
:2051C000288001980EF0F0FA0098BDE8FE8FC04610490020B0490020FFEFFF9F2DE9F0476B
:2051E0005A4C064694F86901002800F0A880B4F81204B6F84210884240F0A18006F128008B
:205200000CF09AFE002800F09A80002594F8150484F8695110B102200DF0ECF994F80F0266
:2052200010B101200DF0E6F9307C400905D310200DF0E0F980200DF0E5FF20200BF016FC0F
:2052400004F5087007F03CFC72685178107804F5047800EB0120C0F30321C0F3003784F8C5
:205260006511C0F3031384F8183400F00F0184F8667194F83B0484F86A110F2804D088423D
:2052800002DDD77807B9014684F8F91394F8F97384F840520F2F09D194F8670102284ED1F6
:2052A0000BF024FD05F09AFBBDE8F08728480078012802D00120FDF74FFD264D68688047DE
:2052C00081460DF085FB0BF00DFC82461D4850F82700206360630AF0FBFAA16A50460CF018
:2052E00023F809F04BFEA9684846884794F86701022810D1404607F0E3FB94F8F90304EB12
:205300004001B1F82C214FF4707707FA00F14046891A0CF09FFF3189022008F0A9FA04F507
:20532000A675284607F0CCFB0748C4F85401D4F8601128460CF08EFF10200DF063FFBDE85E
:20534000F087C0463038010051EB00002C20002084360020383100202DE9F0410546880F33
:20536000C0F0A08000200AF023F94F480DF012FF4E4A40F60A01118000205080137B60F347
:20538000030313735060537B4FF0010868F303035373AC6860802388A3F60207A7B141F2C8
:2053A0001E03FF1A10D0637E60F3820363766F7C37B9238B23F47C7343F43473238313E03B
:2053C000238B60F30913F9E7637C60F3820363746F7C2FB9238A23F47C7343F4347302E0FC
:2053E000238A60F3091323828E4668742646AEF1070101F1010C00E03E46776837B13B883C
:205400009E4503D0994218BF9C45F5D17260737B274F60F3030373733F6837B1FB681B8873
:2054200099421AD06146994217D02F8DBFB1E86205F12801488095F8343060F3030385F81A
:20544000343095F8353068F3030385F835305160517B60F30301517301E0164908600DF076
:205460004BFD154D1549687B696070B914480068006801464046884701280CD0707B68F33C
:20548000030070730F49696005E00BF069F80028FBD00BF085F820460DF07CFE01464046AF
:2054A0000CF090FEBDE8F08101010E040C4B0020B0490020FC4A00205C4B0020612A0000F0
:2054C000E00100103DEA0000F8B55A4C064694F88003002798B1D4F8B82382B1D4F8D80315
:2054E00068B142F21A0069469047D4F8D803804728B19DF8000010B1E12E08BF01270DF027
:20550000D1FFC07B02280CBF052501256068002800F08880002E6DD01B2E06D1017D05291C
:2055200003D094F86E34002B64D0E92E27D037BBE12E15D10DF09AFC88B16068C18AC90866
:205540000ED294F82014817694F80E144A1C84F80E24406881702846FFF76CF9F8BD606813
:205560001C2E48D1616A002949D088472E49002009786060012955D0FDF7EEFBF8BDF12022
:205580000DF0BDFA61688F7E4FB90DF06FFC20B16068C18AC9082ED2D3E760682BE048681F
:2055A0000088000905D394F8807317B10BF0D6FE6168C88AC00811D3087E00F07F00087632
:2055C000087D032803D1487E40F004004876F0200DF095FAE168606888470FE0887E401EC0
:2055E000887612490127F0200F700DF088FA10480078B1E70026467006F042FC6068C08A92
:20560000000A0AD394F8800318B994F82F0409F031FE94F92E040DF063FD002060601020B0
:205620000DF0F0FDF8BDC04684360020D84B0020D13400202C2000202DE9FE4F884606469A
:20564000564CF1892589C81D87B2A078EA19B2F5005F0BDD00F0CCFF874204DD607900B962
:205660000520BDE8FE8FF1892589A0788346C81D42F2010287B2E819824240F38980F288FA
:20568000337A10128DF8012063F39F00B3888DF800000E469A1003F003008DF80220C1F391
:2056A000851201F03F0342EA8012A9198DF8032098001FFA81F9F21D8DF804001FFA82FAA0
:2056C000BAF10D0F25DB4046314600220DF010FE0246052168460DF00BFE9DF80410334695
:2056E000962600F03F0742468DF8066041EAA0118DF80410B80040F0020029468DF80500ED
:2057000058460AF065FB57464D4607236A46607130E004F12C004146324605F0B7FE9DF847
:2057200004300099301900F12C084046037100220160731D04F12C0099B20DF0D9FD9DF84D
:205740000410962300F03F0641EAA0118DF80630B0008DF8041040F002006E4641468DF875
:2057600005003268B0790A60B28888713B468A8004F12C02584629460AF02AFB607121896F
:20578000C919218130B148460BF016FF607901E005206071C0B2BDE8FE8FC0462033002039
:2057A0002DE9F04F044608469A46ADF1240D214605908E680692129B04914C687568079356
:2057C0005044854238BF6FF00304C0F093804B4D28684FF0FF310DF07AFC4948328C079F4F
:2057E00048496368026083460B60780819D23846800813D3F768002F3AD03569002D37D0F6
:2058000000970195012002900599069A0498534607F0BAFC5FEA000813D114E04FF0000818
:2058200011E0A0683AEA00070AEA00021CBFB1680A4405990140049805F08CFD5FEA0008C2
:2058400001D0044652E034680598DDF818905746241805E0BBF8001004980DF014FCA9442E
:20586000AFB90798C00840D3F16809B1306910B94FF0FF343AE00091019000270297069AC3
:2058800005990498534607F07FFC80462DE004980AF006F938BB04980BF0AAFC18BB04F064
:2058A000FF05C5F58075BD4288BF3D1C210C8DF80D1002208DF80F40230A8DF80C00BBF860
:2058C000001004988DF80E300DF0D4FB03A8042109F05EFF7F1B641928B94846294609F079
:2058E00057FF0028B6D04FF0FF384446034800680DF039FE204609B0BDE8F08F904B00207F
:205900008C4B0020884B0020B0B5456884685148297BADF1180D01291AD001462F7E227EF7
:20592000637E4D4837F0010741EA020240EA030001904A48009218BF011CA27E11430291B6
:2059400095F895200323FF2A13D0014610460DE0A17E627E237E41F00041024343F000437C
:20596000029195F8950000933D490192014304230391FE2105F198004DF82310694606F0FD
:20598000C7F8C5F8A400002808BF00205FD0287B344951F8200001282BD02068B0F1804F04
:2059A00014BF22220A22217ED5F8A4000BF0F4FF2068B0F1804F14BF21220922617ED5F8C1
:2059C000A4000BF0E9FF2068B0F1804F14BF24220C22A17ED5F8A4000BF0DEFF95F8951067
:2059E000FF2933D02068B0F1804F14BF23220B2228E02068B0F1804F14BF21220922217E5F
:205A0000D5F8A4000BF0C8FF2068B0F1804F14BF22220A22617ED5F8A4000BF0BDFF206889
:205A2000B0F1804F14BF24220C22A17ED5F8A4000BF0B2FF2068B0F1804F14BF23220B2236
:205A400095F89510D5F8A4000BF0A6FF012006B0B0BDC046000480A0004000800004C0A071
:205A6000002000803C4701002DE9FF4104466668A7680D460DF069FD3178012903D10DF02B
:205A800093FE00208DE0012131700DF08DFE287870706878B07068687060A868B060E8680D
:205AA000F06028693061287D3075687D7075A87DB075A869B061287F3077687F4FF0000878
:205AC0007077A87FC6F82080C6F83080B077454675627563B562B56386F82C5086F82D5067
:205AE000786804F053F8204604F04EFB204604F011F978B92C480068C06801463868884795
:205B0000786803F017FF0DF020FD35700DF04CFE2C4645E068460DF01DFB3A7B06F17C0014
:205B2000B9680192214A00946B460AF0F9FD68460DF048FB396902911D49009406F1980065
:205B40006A460AF0FDFEB07830B906F1CC0029460BF064FF17483061707830B906F1E8005F
:205B600029460BF05BFF1448F06068460DF04AFC01958DF8005006F58270104902940A2251
:205B80006B4609F09DFCB969FA6906F13C000DF095FA0B4A06F16800042123460CF07CF9CB
:205BA00020460090BDE8FF81D00100107D5E0000B9B20000B5340100AD340100590001007D
:205BC00035320100F8B507465448524C001DC26A0168B7F5C067C2F30722A766C1F3844140
:205BE000E266C0692167C0F38120C4F8800000F08D8094F8886046B9C4F88470206FA06766
:205C0000E66E6667D4F88050E567D4F88400E26E002854BF02256FF0010504F17803196823
:205C200000EB40004019451000EB957001EBA0011960A16F6267002916DD1E292FDDE06FFE
:205C400028B93429B4BF15391E21A1671CE02A29BABFA06F0B381E20A067606F3E28D4BFD7
:205C6000401C3F20606718E0E06F03280ED011F10A0FA6BFA06F0B300120A067606F002869
:205C8000CCBF401E00206067032007E011F1140FA6BFA06F15300120A0670020E0674FF07E
:205CA0008057D7F8A401B4F874101B4D40684FF47F4208230646009128463021B047D7F8C8
:205CC000A40101214FF40032112340680091064604212846B047D7F8A401B4F878104068F5
:205CE0004FF4F80212230646009104212846B047D7F8A401B4F87C1040684FF440620A2365
:205D00000446009120212846A047F8BD002084F88800F8BDA82E002000A00C4000A00C40B6
:205D20002DE9F04F4B4CDFF83C81606894F88013ADF1140D00284AD0474D484FDFF820A138
:205D4000012911D0686880473F7847B95246A96817782FB9832342461370884762E0A968F7
:205D600002234246137069E00BF012FB3E4EB069DFF8F8B0016CDBF8040088470490686807
:205D80008047A1463F780390002F4ED15046007800284AD1D9F8CC1300208847F42002A90E
:205DA00009F0AAFF9DF90810DFF8CCA0049A584691421CDC5446641EA779C7B9A9680398E1
:205DC0008847D9F8CC736078A579042801D00DF097FB042041466D1C0870E8B2A0710FB14B
:205DE0000320B8470320608108F080FC27E0B7698322414640687B6C0A706A4600219847FD
:205E0000B6F90200BDF90010884214BF002001200BF070FAA968039888475446E41D144955
:205E2000207808700BF002FF09E0022041460870A96803988847D9F8CC13042088470D48D9
:205E40000078012802D00020FCF786FF05B0BDE8F08FC0462C20002038310020DB4B00201D
:205E6000DD4B0020DF4B0020A830002050340020BF35002084360020D13400202DE9F04794
:205E80008046D8F808603068076CD8F8045047646A6CA96B286C17F4F06FA0EB020937D1A4
:205EA000F8091FD2780979D3B9B196F82100464A145C601E814294BF0C1C641E40462146DF
:205EC0000AF0A0FFA86B001BA863A86B002865D105F1980001210DF04EFB404649460BF079
:205EE00071FA5BE00029F8D040460AF08BFF014695F82D00A96318B9A86B00284ED101E0E8
:205F00000020A86305F1980001210DF034FB45E0F80A21D24FF0000A544603E0A86B401E29
:205F2000A863A96B91B1404601210AF06BFF3068446814F00F04C0F804A0EFD0296BAB6BD4
:205F4000686B491E2963401E6863EBB905F1980001210DF010FB13E0306844680022202954
:205F600004F00F044260CCBF4FF0200A8A46404651460AF047FFCAF120008145C8BF814668
:205F8000494640460BF01EFAEC77404607F0BCFD706A18B10246214640469047B80910D3ED
:205FA000AF6A77B1404639460AF064FFA862AD6A3DB996F820000549095C4046C91909F065
:205FC00007FEBDE8F087C0466447010070470100F8B54B4C4D4D002859D194F8F9136068A6
:205FE0000F2957D067680F20398984F86501012007F03EFC94F8EF0378B194F8150460B1F1
:206000004048D4F85C2194F8F013C4F8D80204F53470891820310CF01DF994F81804D4F875
:2060200060110F2807D03848C4F8540104F5A6700CF010F901E00BF0A7FF606840680078D2
:20604000400958D3686880470646D4F88000074670B10022387E800905D23A4657F80C7CA0
:20606000002FF7D104E004F18000394651F09CFAA96830468847002F3DD0787E394640F043
:206080001000787604F1800051F06CFB33E0606894F8F9130F292ED104F53A71076D0A78A1
:2060A0004FB1082094F83F7484F8EA02974202D0E820FEF793FC94F8150410B102200DF055
:2060C00091F81348001D00688047D4F880706FB1397E01F0FD013976890903D3797E41F0CF
:2060E0001001797657F80C7C002FF1D1A968884708200DF087F8201D0AF04AF9F8BDC0461F
:206100002C2000200D350100CDEE00003831002038310020F0B54C4C07462079ADF11C0D19
:20612000032840F08D8000256846182225710823657129460DF04EF9684629460BF0A4FBE9
:206140006061FF26A6700BF011FC3946284609F087FE04F1200120610DF068F90121257024
:20616000A06A6170B0F5005F05D1606A2769800B18BF002F02D12171084663E0A078A94286
:206180001CDAFF2809D0FF2E04D030460AF012FF6071A07809F0E4F90EE02078FF2E08D03D
:2061A000A670304609F0DCF92081304600F020FA47E009F0FFFF0420208142E06903384675
:2061C00006AA04230DF037F99DF81820A52A08D19DF81910FF2904DA9DF81B30A078962BC9
:2061E0000BD0E778242A02D0B72A1BD11EE0A0782E4607BB9DF819101CE0E278FF2817D00A
:20620000914203DAFE2A18BF01290BD1914203DD012A08BFFE2905D00AF0CCFE9DF81910A6
:20622000607105E028460AF0C5FE6071A07802E0A5702846E170276961786D1CEDB29EE7C8
:206240006071607907B0F0BD203300202DE9F04F05468846ADF1140D1C46D5F808B00E9902
:206260000092DBF80400019108EB0401884238BF6FF003047BD3404E30684FF0FF310CF025
:2062800026FF3E48019F01684FF0000978081CD23846CDF80C90800827D334B33046DBF803
:2062A00000200099066823464244491E521E11F8010F12F8015F054085421CBF6FF006041E
:2062C000301C52D15B1EF2D10FE034EA010701EA040202D02A480068121801EA08012846D5
:2062E00008F008FC002803903CD1DBF8005009F0FFFD27464544DDF800A0029002E0BF1B09
:20630000B244AD1997B1082F8CBF08263E1C0DF01CF904902946324650460CF04FFA814640
:2063200004980DF041FAB9F1000FE8D002980BF07BFEB9F1000F12D10198C00812D38CB1EB
:20634000DBF8000000994044491E401E10F8012F11F8013F9A4202D1641EF7D102E04FF0ED
:20636000FF3003900448039C00680DF0FCF8204605B0BDE8F08FC0467C4B0020844B0020FC
:20638000804B00202DE9F04F444F824607F118000068416EADF1140D02A88847444D6E689C
:2063A000002E72D03B490120424C08702178012902D0FCF7D1FC6E68348995F82F0476683C
:2063C0000CF028F907F01CFE334DDFF8EC9005F1280809F1040088F80F400068AE6300242C
:2063E0006C85804783462E48DFF8B8C0BE6900683AF0010A27D105F140014C8005F1280278
:206400006A6495F84D2095F8573022F00F0242F0020285F84D2095F84C206C8564F3030217
:2064200085F84C2023F00F0242F0040285F8572049F64043EB6595F8343064F3030385F846
:206440003430454602E028356C8029468DF80C40029408238DE81800346D02AA6346A047B7
:2064600011494E460880B168002808D40F4A92F900007D60401C10705846884707E05846FA
:2064800088471A2006F04EFD01E00DF039F805B0BDE8F08FE7350020702F0020A8300020D7
:2064A00054340020216E0000A8340020E93500202C2000208436002038310020F0B5494D61
:2064C000014695F80F020027ADF1140D002855D195F8EE03002851D0087ACF68C0F3021658
:2064E00000F0070100E0BF1C0846411EC9B248B17A783878B5F8164400EB0220A042F2D16D
:2065000002270FE005F57B74443400E008373046411ECEB2A0B32046394651F07DFB002875
:20652000F4D0032795F80F0240F0040085F80F0202A80BF015FD01200CF05CF805F5017179
:206540008720FDF70BFE05F503718520FDF706FE05F20D218620FDF701FE05F20E21882000
:20656000FDF7FCFD0120009005F501760196B5F81234394602AA052006F058F8002F2FD1BD
:2065800095F8F9030F282BD095F81814814227D095F8150420BB95F85E0008BB12480078CC
:2065A000012802D00120FCF7D7FB104C6068804795F86711022911D195F86411FF290DD0F6
:2065C000696859B9D5F8801041B9A168884705F5A67006F075FA08F0BBFA01E0A1688847CE
:2065E00005B0F0BD2C20002084360020383100202DE9F04F494F814600207871397878780C
:20660000ADF1340D494518BF081C0C900AF0D2FC00212422787148460CF0ECF83C89042601
:2066200020E04FEA49312A2CDABFA4F10A0085B22025386904AA641B2B46A4B209190CF0EA
:20664000FAFE0DEB050010300178962905D06D1E401EADB2002DF7D14BE06419641C00E0B3
:20666000641BA4B20B2C46DBB6F5005F43DA7879002845D1E41F48466A46A4B2214602F0A7
:20668000C1FFBDF80E50E81D2B1D1FFA80FAA34206D89DF80A00962808BF4FF0000801D048
:2066A0004FF001089DF80B0041081FD280081DD3B8F1010F1DD09DF80920601B1FFA80FBCD
:2066C000294658460BF0F3FA68B90C9859463246534607F08BFE5644B6B2B6F5005FC4BF41
:2066E0000520787102E0641EA4B202E0B8F1000FB6D00B2C95DA0C9809F05CFD787910B164
:206700004FF0FF3007E03E8148460AF053FCC6F50056787130B20DB0BDE8F08F203300205E
:2067200041482DE9F043006842F21072ADF1140DB0FBF2F1514340F2AB22401A82426ED825
:20674000424C94F89A00002867D14FF00108374E84F89A80307B84F899007768C4F8C47033
:2067600001A80CF04FFE4FF000094D4604F10C00CDF8089001AB8DF804502D4903952A46EB
:2067800008F09EFE2B4A04F1300032212B4609F0C7FF294F294A04F14C002C212B463D60C1
:2067A00009F0BEFF2648274D0078767B6868C0F381501EB1032803D184F8918003281FD00F
:2067C00002281DD0012822D14FF08057D7F8A4011D4C406803214FF040521C2306460091DA
:2067E00049462046B047D7F8A401406849464FF4007209230646CDF800802046B04706E04D
:20680000386840F04000386002200AF01DFF2868C00802D248460AF017FF002000E0FEE7E9
:2068200005B0BDE8F083C0461C1400508C460100E7B90000D91F010090220840D1D40000FA
:20684000D94B0020B04F005000A00C40A82E00202DE9F04790460F460CF077FE814641468C
:206860004248DFF80C8102788324381C0CD0401E72D0401E6AD0DFF8FCA0401E1CD0401E86
:2068800014D0401E0DD00AE0404600F110021768002F08BF802462D00069808E5EE003243F
:2068A0005DE0504682680A60C06803E0504602680A604068486052E00D68C82200212846CC
:2068C00006F0B0FB02275046D44629462B4610305CF8042B5A60027A1A7445689D6050F8E5
:2068E0000C2B1E467F1E06F114032A44F260EFD14046076987B1026913690769CB62BA8ED8
:206900000A85026992F83630066981F83830F36A05690B632A6B4A63076807B303220A2A40
:206920001DDA3B69900000EB021040184360BB8E038097F836300374FB6A83603B6BC360EB
