:20000000003B0120F9E40000A1C10310A1C10310A1C10310A1C10310A1C10310A1C10310E9
:1C002000A1C10310A1C10310A1C10310A1C10310A1C10310A1C1031079C10310B9
:200040002DE9F04FBB49BA4C16460122ADF14C0D0A70B94D109300220F9620692A704FF07F
:20006000E04202251A400E9205EA06050D9504BF291C002940F0B583B04933460A78DFF83D
:20008000C082DFF8C092B04E4FF4803707EA0301109B00271F4008BF002935D10F9A002513
:2000A0004FF4003115EA030701EA020108BF00290ED11F464FF480013D4001EA020108BFAB
:2000C000002900F08283002101710DF00BFF7CE329460171EB2011F0EAFF4F4640462946A9
:2000E00001703878862802D108460FF03BF870688047E1690A682B4613710968E161B168C2
:20010000884711F083FF60E3002101710F46012A8E490B9702D00F78002F68D181222778BB
:200120000A708B4DA770FF232B700022A2818949007A45461346801E1FFA80F808882B70CA
:200140004045C0F23183E16904F118000422083157F01AFB0420A8F10303A0811FFA83F82A
:20016000A17EB64B607EE27EAB46C1F3011A00EB0120608193F83C132271002908BFBAF16C
:20018000020F00F01183BAF1020F00F30D8369B110F0070F00F0088341B14D46297886290B
:2001A00004D100F00701022940F0FE82011301F00201022969DA637800F007004D46022892
:2001C00057D1D6F80490002B53D1E16909A801220C3157F0D9FA0520A081C84780460A9616
:2001E0002B789648B6684768862B3DD10FB912F08EFC9DF9240012F0CCFC9DF92430787741
:200200000020B8774046FB77B0470A9866892779406880478146287806F0100886281ED1EE
:20022000904E06F11E010888401C08808720287012F0BEFB0A99896848468847082011F042
:200240000BFBF079B84208D1B8F1000F03D100200CF00AFB0AE01B20FAE7E920F8E70A991E
:2002600089684846884701E04046B04711F0CEFE9DE228780022862808BF01220A9632B1A9
:2002800000200EF06FFFA77800E00A9663788FB183B9012F00F083826089022F03D110F0C9
:2002A000070F40F07C82032F05D100F00701032901D074E2608902094FEAE00109D310F4B9
:2002C000405F00F06C825D4A92F8E073002F00F06682021302F00202022A02DA820A80F007
:2002E0005E82BE4A1278C2F381059611012D00F05682012E00F05382B74ABAF1020F08D02B
:20030000935D525DD218D7B256B3C20928D3BF1E0BE0B318AA181B791279D218D7B2C2094A
:200320001AD255EA06031BD0BF1CFFB218E0C04600470020F23300207833002064230020F6
:200340007549002077490020D42E002073490020FD3300204633002055EA060308BF0227C0
:20036000C0F300203A1A60719045C0F21882A8EB07024908024490B2208124BF25210B9189
:200380000B990818743080B211F0B8FB94F801806061002800F00382002174220CF0E4FA13
:2003A0000020E0706089B8F1000F0B9004BF00F020008BF800009BF8003094F805804FF028
:2003C0000009002B3FD0B8F1000F3CD10B9800F00700032806D0012835D1184890F82A0435
:2003E000002830D0934803781BB112F043F8FE2826D01248B0F854004A46810809D30F49B7
:2004000091F88230E3B94B681BB15B7E33F07F0316D1AAB98008CA460CD387498B68887884
:200420003BB11846804794F80390618994F805800B9128B9BAF1000F05D001E0282000203C
:200440000420E0708146616901F17400486023890C9388650B8120890B9AA1F85C00100969
:2004600011D301E068320020C8F1030082B2A1F85C20886DCB4957F087F96169B1F85C2039
:20048000886D80188865554B0B9888811878C54BC0F301121878B8F1000F00F0780040EA56
:2004A000020049EA000008744FF0FF038B730CBF2079002081F8306081F83A5081F84900FA
:2004C000A089002FA0EB080085B2A58100F05F81E169E78068463A464919083157F054F9F6
:2004E0003E48BB467F19BDB2A58166690078C0F301111191317C6F46C0F38103C0F38109C4
:20050000002B01F0400A47D0C0F301100023022801D1C8090BD29DF801109DF8000000EBA7
:200520000120A6F844000DF10207A6F84200DFF81483B6F84400B8F84210814203D04FF694
:20054000FF71814223D1B9F1030F11D07978387800EB012081B27186B8F84020BF1C0120F4
:200560008A4213D04FF6FF728A4218BF181C0DE0BA4800683946323057F070FBB7480068EE
:2005800008F13701323057F051FB08370346002B00F000816669A07EDDF82C80831108F017
:2005A000070824D01198022803D0307CC00903D309E05AEA090206D179783878BF1C00EBD1
:2005C0000120A6F84200032B0AD07878397801EB002131850BE0C046D43C01001A4700202B
:2005E0009E4800683946283057F038FB6669B8F1030F07D0B8F1010F38D1994890F82A04A2
:20060000002833D09648876F4FF00008FFB17B7E33F07F0317D096F8300002280ED003286E
:2006200011D107F1700006F1280157F0FFFA50B11CE0C046F733002048330020B7F8700009
:20064000318D884212D057F80C7C002FDFD1B8F1000F0BD1834F4046E07078783B46C0F31A
:200660000111187800F0780008433074B0890009C0F08D80B06D69465A4657F085F8616988
:20068000886D58448865E769B1F85C0001225844A1F85C000DF125007919083157F074F832
:2006A0006E1CB5B2A58161699DF82500896D087060699DF825709DF82530816D491C81651B
:2006C000B0F85C10491CA0F85C1007F0070180F82410C3F3C10780F8257090F82460002E2D
:2006E00058D059483F180C9B3E78361DE6809E4250DCE169324605A84919083157F044F82B
:2007000038789DF817209DF814109DF8163040193D78001D01EB026180B201EB0341A081CC
:200720009DF81530606901EB032181616DB14B4800686D1E06A92A461C3057F025F8397800
:2007400060696944C97D80F82610806D05A9324657F01AF861690C9D886D80198865B1F82C
:200760005C2006EB06474FF0FF33C5EA0240A0FA47F01FFAA0F213FA80F0A1F85C2082B21B
:200780002281B1F85C000A818018A1F85C0000F06DF80CE012F012F90DF0A4FB07E011F0C7
:2007A00027FF04E01947002011F022FF0A96DDF82880D8F804008047E1690A680023137172
:2007C0000968E161D8F8081088470F9A109F202100201140384008BF002916D011F0DEFB7D
:2007E00013E01A4B1A4A93F90010491E197092F90010491E117093F9007017B915490022E2
:200800000A80002101710DF06DFB114991F9000058B10E98002804BF0D9800280BD091F9A6
:200820000000002807DC12F072F90B4800210170084602F081FA0C49002013B00870BDE84B
:20084000F08FC046442E0020BC2D01007A330020793300200A2E0020763300201447002062
:20086000282000201A470020F23300202DE9F04FC34D68692C89E969AE89806DADF1340D0A
:2008800022468919083156F07FFF6969886D00198865E9693619B6B201220BA889190831CA
:2008A00056F072FFB74CE969761CB6B20122601C8919083156F068FFE969761CB6B2042299
:2008C00004A8AE818919083156F05EFF9DF813109DF8100000EB01606B699DF81210361D38
:2008E00000EB01409DF81110AE8100EB0120049011F060FED863049811F026FBA3F8400014
:20090000EA2011F0D4FBA049022008709F480078A94638B1207810B96078FF2802D00420ED
:2009200089F80300D9F8144099F80300217C084320749DF92C0012F02CF984F8460004F15E
:200940007407A765666821899DF92C00DFF8F8B284F84800B4F85C004FF0000A401A80194D
:2009600001466060A08984F847A0820A18D2020955D310F0070F07D000F00700032812BF5B
:20098000081C6068401C46E06168C87800F00702401000F0380000EB42004018001D3AE0B3
:2009A0000CB912F0B4F8A089800A2ED361684878C7112AD12589616650464B780A7803F071
:2009C0007F035B0003EBE2137E2B0DD07F2B09D002F07F0280188918801C891C80B2854268
:2009E000EBDC08E0514600E00121801C84F8601080B2854201DA504605E06168091861602D
:200A00002189091A2181A4F86800606E10B1B4F86800B8B160686061A08900091AD294F824
:200A20006000002800F0208120460DF0B9FFD9F81440E06C002800F01781B4F8500000283D
:200A400040F0128111F0A8FF5046C9F814000DF049FA86E150465646059094F8247006909C
:200A600005A906AA07AB0796204602F093FF002840F0ED80059B656960682689291A701A68
:200A800086B20BB912F043F8B4F85C000090019502960698001D03900598A169A36D3A46D2
:200AA00015300AF079FE002840F0D180584694F860502689C15D701A208115B120460DF0DC
:200AC0006FFFA58905F00705032D02D160680078E07394F80F80732009A910F08FFC832055
:200AE0000DF12D0103F06EFBDFF87CC251460AE0C278012A03D1002F08BFDC2028D0001D98
:200B0000491C0990C9B29DF82D00884240F39E8009988278032D07D00378AB420DD09CF804
:200B200000600EB1022D08D0032DE8D10378032BE5D103465B784345E1D1BB10B3EBA20FD7
:200B400005DA02F0030207F003039A42D0DD504680460598E77B90F814E0514601E0491C85
:200B6000C9B28E456EDD06694B00032D06EB03020ED1F35C032BF2D15278BA42EFD110E067
:200B800000470020FC33002073490020F73300201278AA4205D09CF80020002ADFD0022D72
:200BA000DDD10698077C002F08BFB8F1DC0F4DD0A069B0F1FF3F43D0712008A910F01EFC68
:200BC0006A48078947B3089D51468446059A95421CD19CF80AE0BEF1000F08BF50460CD0FB
:200BE0000698C2687346504696888E4205D05B1E02F1080200F10100F6D186451ED0069A93
:200C0000D268A36952F830209A4217D87F1E05F12C0501F10101D9D1C2000698A169C36832
:200C2000491CD150C0681058B0F1FF3F02D107980121C17084F801A0504609E0DB2007E07C
:200C4000DB2004E0DC2002E0C02D0100DD206070D9F814406070A0696778606527B1F22090
:200C600011F025FAD9F81440414D95F83C0330B1D5F8841319B120468847D9F81440A18942
:200C80000A9411F0070039D0401E51D0801E4BD1C1F30130022803D16068007807282BD01F
:200CA0002089002840D0204641684A1C42600F78A446C7739CF8246076B9002F34D00A2FDE
:200CC00032DA01895E46F01DC05D884208D0082F2AD1082904D027E0C07B28B30A2823DA8B
:200CE00020460189491E0181C17B0B3101700A99C87B401CC8731DE032201AE095F8B50327
:200D00000F280BD011F06AFC40B90A988189091301F00201022901DA2969884795F8EB03C3
:200D20000A9C2074152004E00AA80EF085FE13E0162020700A9905F17C0056F06FFC0D4C55
:200D40006068804795F88410491C85F88410A1688847202011F04EFD5046C9F8140011F09D
:200D600055F90DB0BDE8F08F642300203833002028200020D42E00202DE9F04FD14C0220F4
:200D8000002504F11C01ADF1440D41F80C5F401E8D60FAD104F14000A846062701467F1E3F
:200DA00021F80C8BFBD14FF00809C84EC649C84AA0F80090361D816004F11C07964626F0CA
:200DC0000301531A23628C46A1610846E161824200F21282B00823F00303AEEB8000E82677
:200DE000801001EB800040F8048CEC3BCCF800602846C1F8E830E831216155F03FFA6061CB
:200E0000B4493868DFF8FCA220610A680AF10C06326049687160B04930464A4610F040FD70
:200E2000B34628B9AD490A683046026049684160AB48AC4FC0F8AC70AB4EC0F8B060AB4BCD
:200E4000C0F8B430C0F8CC50A94AC0F8D050A94FC0F8C850A84EC0F8B820A84BC0F8BC7032
:200E6000D0F8AC10C0F8C060C0F8C43009B12846884755F041FAA24E404641460C220B902D
:200E800006F128000BF070FD4FF4FA670222F7624FF4FA73ADF82090708DADF82220616AF6
:200EA00033631027099740F01900708508A8884700280CBF0A9F47460120ADF82090616A9E
:200EC000ADF8220008A888479DF82400544620700A99616077B1D021397087F80180B8709B
:200EE00087F8038087F804803946BD600220FD600FF00AF8C5491820012255F075F9E220B3
:200F0000594611F00FFC182055F052FC60706068B346CBF8080008F0BFFDC54F0BF18400B7
:200F2000A060DBF80850BA4C41466762F520A56011F0FCF8F820414611F0F8F8B54D0D2062
:200F40000E26687005F10C01AE7005F118000AF08FFBA860687811F0A1FA00B1C146A87876
:200F600011F09CFA08B949F01009AB49A86811F0D7FCAA49C82205F1240056F009FEA848BB
:200F8000B9F1100F68604CD110F0DEF8606A002847D0C268002A44D007268DF81060022018
:200FA000ADF8120004AFADF8148097E80300904745468DF810600320ADF81200606AC268E7
:200FC000ADF8145004AF97E8030090476D1CB5F5FA7FF3DB676A8DF81060042004ADADF842
:200FE0001200FA68ADF8148095E80300904704AD8DF810600520676AADF81200FA68ADF893
:20100000148095E80300904704AD8DF810600620676AADF81200FA68ADF8148095E8030076
:201020009047804E06F1140006F108010AF020FB7060404656F02AFD4FF007094546B71E79
:20104000824607F8028F02207870284656F024FD014670685246C9B20EF0B0FF6D1C022DC2
:20106000EFDB714906F120004FF4FA7256F090FD606A00286AD00769DFF8B0A16FB10094DB
:2010800051460EA80A68898802600EAE818096E8030001234246B847606A002856D0C268F3
:2010A00052B151460EA80B68898803600EAF818097E803009047606A002847D00769002F3A
:2010C00044D021E0D42E00204569050078490020003B0120C87F0500DC3C0100F012005032
:2010E00020190020796000000DFC000061E0000001E7000045DC00007DC3000009F700002B
:20110000682B0020143300208DF808900620ADF80A000DAEADF80C8002AD009695E8030012
:2011200042460223ADF83420B847666ABDF834007769A08057B1BDF8340002AE401CADF8AF
:20114000340096E8030002220DABB8472CA011F077FAE820414610F0E9FFE720414610F0BC
:20116000E5FF606A30B3076927B38DF818900420ADF81A000BAEADF81C8006AD009695E8C4
:20118000030042460423B847002804BF0B98193011D040468DF818900427666A0C9006ADE9
:2011A000ADF81A707469ADF81C8095E803000CAB3A46A04740460B900AF058FCE02041464E
:2011C00010F0B4FF4F20032110F0B0FF5720052110F0ACFF4E20042110F0A8FF59200321FB
:2011E00010F0A4FF10F078FE0BF10200012156F0AFFC00F009FAFCE740F8048BE7E5C04656
:2012000054492053656E736F7200C046E9230000642A0020A82F002035030100D5210100B0
:20122000F522010038300020557905005C3D0100CC1900202DE9FE4FCE4C0746B4F85400D2
:201240000021820804D2B7F89E20D20828BFE82110F0600F04D1B7F89E00800828BFE821CD
:20126000CB483B8900F10E0212889A42B8BFE82197F89C0030B997F89800002808BFF52160
:2012800000F0B881002940F0B581D7F8AC1094F83C0311B9012803D028E0002800F0A98130
:2012A00097F89800002818BF032806D1D7F8AC0040F00A000146C7F8AC0011F0FF0F08D0B8
:2012C0002A20D7F8AC6087F83C0006F0FF013964314611F47F0F07D00420D7F8AC6087F83C
:2012E0002C0006F47F00386394F83C03002548B397F89860606804216EB92520387560686E
:20130000C08AC00934BF94F8CD0394F8F60387F86A00801C08E015223A75C08AC00934BF8D
:2013200094F8CD0394F8F60387F86A0087F86B100A2207F1700087F8695007F1900156F04E
:2013400023FA01E001203875AB46B7F89E00C7F858B097F8A060C7F850B097F8A130F88294
:2013600097F82C10FE767A683B770F293A6200F0BB80B7F8A81007F12C0A284601B90120BD
:20138000002F06BFE8210191CDF804B0BAF1000F00F0A7800199002940F0A58060B178686B
:2013A000401E7860F82101707868401E78602E4606703889801C3881AAF108054FF0020866
:2013C000D94615F8080F00F00F010F2900F08680012822D004287BD194F83C03002877D0CF
:2013E000D4F8541368688847061C5DD03889B7F84C108019801C814256DB7868D4F858C310
:2014000069683A465B46801BE04700284CD078683989801B8919786059E00AEB09060423B9
:201420005846F61C16F8011FFF2941D021293DD13989B7F84C200B318A4235DB7968B4F8BB
:20144000E423491E796012120A707968491E796094F8E4230A707968491E796081F800B02F
:2014600094F8E6137A68117094F8E22379681201491E796042F00F020A7094F8D4C394F853
:20148000B5237968491E796042EA0C120A707968491E796021220A707968C01D80B2491E5A
:2014A000796005220A7001E01A259EE05B1EB9D17968C0F30122491E796042F088020A70E4
:2014C0007968491E7960087039890918891C3981B8F1010809F108097FF473AF7868B865E2
:2014E00001E0E8200190019D002D7ED197F83C00FF2802D1B86D00285DD017F13C0614BFFC
:20150000D9464FF0E809002F52D0B9F1000F51D17868401E78603F210170BD6D002D0CBF47
:20152000802159467868DFF8D8A0083E401E7860022501703889A7F85450801C388116F8C1
:20154000080FFF2831D02A282DD1706858B3D4F854138847804678689AF80020A0EB08002C
:201560007860716841B9D4F858C33A465B46E04760B10FE028200020D4F858C37868716889
:201580008DF800206B463A46E04718B9EB252CE0383300203889B7F854304044388103EBB7
:2015A0000800A7F854006D1EC9D17868386501E04FF0E8094D46C5B997F89C10B7F89A30B8
:2015C00007F19002384600F0EDF9051C0DD10D483989C089884203DB384607F0FFFF04E0CF
:2015E000E520787038460AF03DFD291C02D1BDE8FE8F182138460AF085F8BDE8FE8FC0469C
:20160000F5330020383300202DE9F041CD4CCE4DDFF838836088ADF1400D4108C0F083801B
:2016200006A802A90CF0CEFB01286DD1404624300068D8B10769CFB1072009AB8DF83000DA
:20164000022600930022ADF832600CAEADF8342096E803000C23B84740B9BDF8240060855D
:201660000A9FE7620B98206310F0E6FE0226BDF80A10BDF8080084F8246003AAA1830CF0ED
:20168000C1FC011C02D0BBA011F038FA30460CF0B3F8BDF818009DF81470A5F8400007A980
:2016A00085F8427005F1500056F069FABDF81A0005F1460603A9A5F84E00304656F05FFA4F
:2016C000BDF80A00B5F84010A5F84400502010F021FDB5F84E10532010F01CFD4A20314667
:2016E00011F020F895F84210E12010F01FFDB5F844104B2010F00EFD05F10A00102156F0E7
:2017000027FA0120207008E010F068F9E06001200CF072F8002010F005FEA01C012156F0A0
:2017200001FA2046408880080FD3E06A0FF010F9974800680068804700B2A082E08201F027
:201740009FFDA01C022156F0EDF96F89780805D305F10A00012156F0E5F96F89B80805D3BC
:2017600005F10A00022156F0DDF96F89780917D38849182042220FAB54F036FD95F85A0042
:2017800005F10A06032818BF042802D1286E0FF0C5F80EF03BFB3046102156F0C3F96F891B
:2017A000B80907D30BF0FAFA05F10A00202156F0B9F96F89F80907D308F090FE05F10A000D
:2017C000402156F0AFF96F89780A13D395F85D0010F0A8FD95F85D0005F10A06032803D1DC
:2017E0005220012110F08AFC30464FF4807156F099F96F89380950D395F85C0005F10A0602
:2018000000283ED0401E36D0401E02D0401E30D03EE095F85810472010F088FC95F85910AC
:20182000542010F083FCB5F844104B2010F072FCB5F84010502010F06DFC002701238DF835
:20184000097095F842008DF80A7002AA8DF80B3051498DF80800182054F0C6FC95F85A0089
:20186000012815D1E87898B13046202156F070F90EE003200AE05220012110F03FFC02205E
:2018800004E05220012110F039FC01200CF048F93046082156F046F96F89454617B1A868BE
:2018A00011F088FAE988687849081CD3A97802094FF0000601D301290ED040090ED3012973
:2018C0000CD030A010F0BCFEA01C012156F040F9A86811F06FFA01E00DF0DAFC6E70A81D74
:2018E000012156F01FF9608800283FD10A2008252A4CADF80A004FF0FF37ADF80850616A8F
:20190000039702A88847002830D10720ADF80850616AADF80A0002A88847049E0E9628BB4B
:201920001F499DF80E200878904214D19DF80C004A7882420CD089684B6C63B100213246ED
:20194000984708E0682B0020FC2C0020642A0020304600F095FB0E9840B1ADF8085003206A
:20196000ADF80A00616A039602A8884710B0BDE8F081C04641757468204572726F723A20E9
:20198000307800C05374617274696E672E2E2E00EC010010D9F20000932A0100D42E002061
:2019A000143300202DE9F04F0646ADF1240D884692F80890307D04933528039205D01146FE
:2019C00006F170000A2255F0DFFEDFF8A8C238F07F0706BF604600884FF6FF700590F08AAD
:2019E000800934BF002008203076F08AC00834BF102080207076F08A400903D260460E3016
:201A0000007800E00020B076F08A41082CBF20240024000928BF44F010047568307D4FF011
:201A2000000B08F07F086D1E02280DDB0D2808DA0C2804BF44F408544FF0020B44F0030456
:201A400003E044F0010400E0044396F88C0008B144F00804E110220900D320B1AA4F97F8E8
:201A6000E03313B908B1DF2042E149086ED306F12401DFF898A296F88D50069100EB0A01F5
:201A80001AF805300A7999183389491DCAB299189F4B1A8807908A42C0F22C8100284CD0EA
:201AA000049A039906F1840007F0FEFD0699002808603FD0806AB0F1FF3F39D07068002374
:201AC000401E8DB196F88E10524600F80119515D491EC9B241B18A1992F88320491EC9B260
:201AE000002900F80129F6D1069970660968896AB162090E00F8011996F82A1000F80119E5
:201B000096F82910079A00F8011996F8281005F0030500F8011902F0070141EAC50101701A
:201B200071683589091ACAB27060A918318105E0DB2700E0F3277770DDE00023F08A737027
:201B4000C00828BF44F0100475686D1E336DABB9B36D9BB997F8F913012903D13089B0F5B7
:201B6000EE7F06DA200904D202290BD144F4005401E044F480544FF0010B03E044F40854D7
:201B80004FF0020BB87801280CD097F83C0348B196F86B00042805D124F480544FF0020BCA
:201BA00044F4005444EA8834B8F1020FA4B20AD0B8F1030F10D1ED1F07F57B71284656F081
:201BC0004DF86D1E08E0B7F8D203001205F8010997F8D20305F80109BBF1020F0CD0B8F103
:201BE000000F15D0B9F1000F0CD004990598814208D144F040040BE0B9F1000F08D1B8F1E8
:201C0000000F05D00599081205F8010905F8011944EA8924B9F1020FA4B209D0B9F1030F89
:201C20000ED10399ED1F284656F018F86D1E07E003980188091205F80119007805F8010912
:201C4000B9F1000F05D00498011205F8011905F80109307D80B9306D28B997F8BC03411C1A
:201C600087F8BC130DE097F8E103411C87F8E11307E0C046F623002097F8CA03411C87F888
:201C8000CA1305F80109201205F801092C7070683389401BC1B2756058183081200926D311
:201CA000B06D00B1306297F83C0310B1307D0D281DD1746A14F1150001D110F028FFA16A69
:201CC000481CA0623289306AB162471B0092D21B019090B20290706A96F88C202B46153026
:201CE00007F076FE00281CBF7070071C07D10020707005E0E5277770F32010F0D8F9F8B235
:201D000009B0BDE8F08FC04628200020BC2D0100463300202DE9F04FB84C0546A07AADF199
:201D2000340DC00055F09CFDDFF8D492089009F10400006880470B900AA9822002F042FAA4
:201D4000BDF82800002834D14FF000084FF6FF76ADF8288024E0ADF81460BDF82800ADF88C
:201D60001660FF210822ADF8100006A855F028FDA77A57B143461946089AC8007F1E01F1CC
:201D80000101135010448680F6D18DF82480D42004A901F0A9FBBDF82800401CADF8280058
:201DA000A088BDF828108842D5DC82200AA901F09BFBB04FDFF8C0B2002026464FF6FF7926
:201DC000A2463988ADF8280006E0AA4FBDF828003988401CADF82800BDF828008142DCBFAC
:201DE0008748816840F33C819BF800004FF00008012744460EE08249B08889687F1CBFB2C1
:201E0000A9E0BAF80600641CA4B23BE09BF80000641CA4B2A04208DC002FD6D1B8F1000FD3
:201E20002ED1687F0028D0D02AE0BDF828008DF802406946ADF80000D02002F0C3F900282C
:201E4000E4D19DF80C30012B08D19DF80B0028B90DF1030010F042FA0028B6D1697B00297D
:201E60000CBF0522092247469942CFD10DF1030005F10E0155F04CFC0028C7D04FF00108A3
:201E8000F0880024A0425DDDBDF82800ADF802406946ADF80000D12002F094F90028B0D159
:201EA000BDF804008145ACD0ADF8100004A9D42002F088F9002858D106A8291D082255F0AA
:201EC00027FC00289DD028886F88ADF81400B8F1000FADF8167023D0287B96F80AC08DF894
:201EE00024005FEA0C0008BF00200FD00899024600208B88994509D0BDF828709F4205D0CD
:201F0000521E01F1080100F10100F2D184452CDD0899AA69C000BDF828700A504018878055
:201F2000D42004A901F0E0FAB8F1000F0AD0287F9DF80610884205D08DF806006946D12087
:201F400001F0D2FAF088A0427FF43FAF2C49B08889680027BA46B84240F38080ADF81070F2
:201F6000D42004A902F02EF918B125498968192477E006AB184610F0B1F938B9291D18469D
:201F8000082255F0C5FB00283FF435AF28886C88ADF814002B7BADF8164096F80AC08DF8F8
:201FA00024305FEA0C0208BF50460ED0089950468B88994509D0BDF828409C4205D0521EFA
:201FC00001F1080100F10100F2D1844503DC0C4989681A2445E0089A291DB8F1000F0CBF95
:201FE0005346AB69C00013501218BDF828009080082206A855F0C8FB544605E03833002010
:20200000D42E0020641CA4B2F088A04220DDBDF82800ADF802406946ADF80000D12002F076
:20202000D1F8E82803D0BDF804008145EAD1BDF810008DF807A02B7FADF8040004A98DF844
:202040000630D42001F050FAD120694601F04CFA0A488168B088A0427FF7D0AEB842B8D079
:2020600000240B988847089855F00EFC20460DB0BDE8F08F4033002043330020D42E002049
:20208000B0B50446BA480768ADF1480D002F00F0A8812078401E112800F2A381DFE810F0D9
:2020A0006A015201380123011B010401F100E300C300B2008D005D0053004200A1012A0050
:2020C0001C001200F86B002800F08B816846214609F02AFEF96B82E1386C002800F0818190
:2020E0006846002101220AF03FFC60788DF80000396C74E1F86A002800F073816846002125
:202100000E220AF031FCA11C684610F06FF8A57BA1890022ADF80A1005B101228DF80C20E1
:20212000F96A5DE1B86B002800F05B816846002102220AF019FCA5788DF8015060788DF895
:202140000000B96B4BE1786B002800F04A816846214609F0E9FD796B41E1386B08B3684663
:20216000002114220AF000FCA5788DF80150A3680193A289ADF80820A17B8DF80A106078F5
:202180008DF80000E57B8DF80B50237C8DF80C3094F911208DF80D2061690491396B6846F9
:2021A00088476068002800F01C810146F2200870002048700DF0A8FE13E1B86A002800F059
:2021C00010816846002124220AF0CEFB6078A11C8DF800000DF1020010F008F804F10C017A
:2021E00003A810F003F8257EE08A04F119018DF818500B22ADF816000DF1190008F0D6FF64
:20220000B96AECE0786A002800F0EB806846002102220AF0A9FBA5788DF8015060788DF889
:202220000000796ADBE0386A002800F0DA806846002112220AF098FB658862796078ADF817
:20224000025023798DF80520E11D8DF80000A5798DF804300B220DF107008DF8065008F087
:20226000A5FF396ABBE0F869002800F0BA806846002101220AF078FB60788DF80000F969AB
:20228000ADE0B86910B120460CF0DEFBA07820B9A069002800F0A58003E0A069002800F059
:2022A000A0800FF08BFB9CE07869002800F099806846002113220AF057FB6D46A01C0168C3
:2022C000406829600B22686004F10A0102A808F06DFF796983E03869002800F08280204664
:2022E00008F002FA7DE0F86800287AD0684600210E220AF039FB6078A11C8DF800000DF176
:2023000002000FF073FFA089ADF80C00F96866E0B868002865D06846002114220AF024FB2E
:20232000A01C01686D46296040686860A07A0B2204F10B018DF808000DF1090008F036FFC3
:20234000B9684CE0786800284BD06846002110220AF00AFB60786588211D8DF800000B2258
:20236000ADF8025001A808F021FF796837E0C0461C3300203868A0B36846002119220AF041
:20238000F3FAA01C01686D46296040686860A07A410824BF01218DF80810810824BF0121EC
:2023A0008DF80910C10824BF01218DF80A10010924BF01218DF80B10C10924BF01218DF80F
:2023C0000C1030F07F001CBF01208DF80D000B220DF10E0004F10B0108F0E8FE396868464D
:2023E000884712B0B0BD70472DE9F04FCE4D07466868ADF1140D80470024DFF8DC82039029
:20240000002F88F8034000F0CD800EF0DFFE08F52A7021464022834655F0D2F9AF4D05F187
:20242000080001882C2707FB01F080B255F018FAC8F8CC0200284FD0E97A28894843410087
:2024400001EBC00188B255F00BFA0028C8F8D00242D0E98828894843800080B255F000FAE1
:202460000028C8F8D40237D02889800080B255F0F7F9C8F8D80278B3288980B12246D8F820
:20248000CC1289180C75D8F8CC1289180C71D8F8CC12401E114402F12C028C81EFD1A988F0
:2024A000880000EB011080B255F0DAF9C8F8DC0290B14FF6FF7AA14625E0AB7AD8F8DC7282
:2024C0004846860006EB0016D80055F0C9F9F119F319C860DF680FB910F019FBAF7A77B150
:2024E0002146D8F8DC028019C368CA00D450C0687F1E01F101011044A0F804A0F1D109F110
:2025000001001FFA80F9A8884845D6DC0BF10700FF21082255F054F9FF210BF11000082284
:2025200088F8B71255F04CF9032688F8C8622F89A8F8CAA2C7B14FF0010C04232246D8F80E
:20254000D802910001F800C0D8F8D80240184370D8F8D80240188670D8F8D8027F1E02F170
:2025600001020844C370EAD1012104230BF134000522022700F8041F437082707F1EC170C7
:20258000F8D1A8888BF83C6048B12246D8F8DC12401E114402F11402A1F802A0F6D1022024
:2025A00088F8AC020BF08AFA98F9EA0310F088F80DF068FF0FF0E4FC0FF0D0FA0EF01CFE4C
:2025C000474E072556F8040B00B180476D1EF9D10FF078FE454605F14C00016809B10DF0AE
:2025E0002BFA4048006885F85640C0B112E0304654F0DEFF029002A80DF01EFA1EE03046F4
:2026000054F0D6FF019001A80DF016FA12E068460DF012FA54F0CAFE00280090F7D13248AB
:202620000078012802D0204600F086FB2F4805F178060470A86F0028E1D1361DE86F00282E
:20264000D5D1AC67EC672B4FC5F8887185F88240294EC5F88C61294BC5F8903185F88340AC
:20266000274AC5F89421AC702148C5F89000294AC5F8C0202349C5F8981185F88440264913
:20268000C5F8C410204FC5F89C71244FC5F8C8701E4EC5F8A061224EC5F8A4411C4BC5F8A8
:2026A000CC602149C5F8A8311E4B0398C5F8D0308968C5F8AC41884705F2D131522002F066
:2026C0009FFA95F8EB030CF017F90BF0F7F9204605B0BDE8F08FC0462820002038330020B7
:2026E0003021002068490020F2330020724900208B2B0100DBC90000152B01006515010061
:2027000035120000F19000001D1B0100210A0100C95D0000CBBE0000A59D0000DDD30000EB
:20272000E1B2000059DA0000D42E00202DE9F04F09AFADF13C0D08900A92388809911E46CB
:20274000ADF81800101C08BF002000F07081017800274FF0010B401C4FF0FF39B846DA46EC
:202760000A905CE1252940F051810178401C0A902D2918BFADF8068004D10178ADF806B0C2
:20278000401C0A9030291CBFC446424604D10178DC46401C62460A902A29CDF800804D4644
:2027A00018D13068CDF808900A9BCDF810C0C01C20F00300001D306050F8044C1978002C10
:2027C000009403F101000A9019D5ADF806A06442009414E044460AE00A9B600000EBC40047
:2027E0004018A0F1300419780094581C0A90302901DB3A29F0DBCDF80890CDF810C02E29DD
:2028000029D10178401C2A290A9011D13168CDF80880C91C21F00301091D316051F8045CDA
:20282000002D48BF454601782B46401C0A9011E0434645460AE0680000EBC5004018A0F109
:2028400030050A9801782B46401C0A90302901DB3A29F0DB02930AB1224604926C2904D0A7
:202860004C2918BFADF8048004D10178ADF804A0401C0A900BA8CDF80C800FAB0790642974
:2028800005937AD0692978D0BDF818C0752966D0782962D06F295ED0702947D0632937D03F
:2028A00073291BD00A98401E0A900998012813D962490C68B5F1FF3F03D0A84288BF6D1CB1
:2028C00000D8099D029508A80AA932466B46A047C0190746039865E0454617E03068C01C74
:2028E00020F00300001D306050F8040CBCF1010F014608B94FA0014607910FF083FE03901A
:20290000B5F1FF3F4FD0A8424DD9039528464AE03068C01C20F00300001D306010F8040C28
:202920008DF82C005D46039558463CE0082035680490E81C20F00300001D306050F8041C6C
:20294000082210230FA80AF06FFC401E079040210170079823E0082302E0102300E00A2348
:202960003068C01C20F00300001D306050F8041CAA42BCBF2A1C04920DE03068C01C20F007
:202980000300001D306050F8041CAA42BCBF2A1C04926FF009030FA80AF046FC0790059949
:2029A000081A0390009CBDF80650211A241A00915DB906E008A8202109AA0EF0F5FC7F1C87
:2029C000009C641E0094F5D50398401EB0F1FF3F03900FD1BDF8060001281CD10098401E69
:2029E000009018D408A8202109AA0EF0DDFC00987F1CF4E70798017809AA08A80EF0D4FC89
:202A00000798401C079003987F1CDEE708A809AA0EF0CAFC7F1C0A980178401C0A9000292D
:202A20007FF4A0AE089808B14146017038460FB0BDE8F08F286E756C6C2900C0943D010085
:202A40002DE9F84FB74E0F460546F80B80F02F81A849B24CDFF8B4820878B90F80F0D3804A
:202A6000B90880F0C780DFF89092DFF890A2DFF8A8B2F90A80F09B80B90B80F08980790B5C
:202A800053D2380C42D23809C0F02D810EF01AFB002836D055464C460321286821707830BF
:202AA00010F051F807F0C2FC022000210EF08CFE02200DF07DFE112006F0C2FE904800787C
:202AC00018B92868403010F050F88E48007810B90E2006F0B5FE607B20B10020607305202B
:202AE0000DF066FE40460022874BB0F91C102270B0F91E006360814214BF022007200AF031
:202B0000FFF927F008070BF007FBECE040461030016839B1C86840880028FBD0C8684088D2
:202B20000128F7D027F40047EDE728B104200DF03FFE7049002008700DF06EFE40B1A8697C
:202B40006FF4807100224FF0007306462846B0476F487049002210F000F8226848460221D7
:202B60005C4601702668106B804755466C492B680A689A4214BF0122002226B1801B01EBCB
:202B80008201000B8860002027F480572060BAE732684AB1906838B11069B2F934109268B4
:202BA000202314460022A04727F400579BE00FF0CEFF0090404600680646A8B15546286868
:202BC00010B178300FF0BFFF20683169006B296080475C464946544A2060091D53480A6078
:202BE0004FF400610FF0C9FF009810F0DFF827F4806778E004F072FE40460830006808B956
:202C000027F002076FE04A4A116841F08001116028B104200DF0CCFD3649002008700FF03C
:202C200096FF8146606D0068014604208847D8B1287CC8B13F480668B6B12068006B80470D
:202C4000801BE968E860E868000BE860E868884203D240184008E860E86840F6C4118142A8
:202C60002CBFB0F5967FE960484610F09FF80DF0D3FD88B1A8696FF4807100224FF0007302
:202C800004462846A04740460068002808BF47F0020701D00BF040FA686900214FF080635E
:202CA00004460A462846A04727F000571BE00FF04EFF36689EB1B16A890810D2B56AB16ABB
:202CC000A943B16210F072F8B06850B14DB13069B6F93410B46800232A46A04701E010F071
:202CE00065F827F480471FB1104839460FF045FFBDE8F88FA1480020F44800209048002022
:202D0000A04800209E3C01003180000048470020C8470020E19F0000984800208C01001024
:202D2000A846002060470020A16D00000C460020CC210840944800202DE9F04FAE4C054673
:202D40006068ADF11C0D80479F4FDFF88C92012D069000F0D4800FF09DFA002800F0CA803A
:202D600093480078A0B99348007888B9A348007870B99148007858B99048007840B9904804
:202D8000007828B98F480078002808BF012000D000203D46A969002801F13C0100F0AA8085
:202DA0008A4E0868347880477168DFF828A2A500401AB0FBF5F7F168B0684FF00008424608
:202DC0000D461646AF42B24101DA884207D80246434631469742994142DA114600E0434605
:202DE0000A46D21B73EB0803104619462246E3170FF08CFA272507464FF47A7200238846D8
:202E0000ADF80A500820ADF8080038460AF0D4F97949496A039002A88847049833464FF0C4
:202E2000000100F6FC02BF1A78EB0308784271EB080112DA66480268414638460AF0BCF97F
:202E4000884607464FF00001784271EB080104DA38460CF09BFE002000E0012054462070BC
:202E600054462078002845D10027384654F0AAFC00B101274FF0000AA346381C38D14D4658
:202E80002878002834D150488069544C436C6068022102AA98479DF8080048B34A48504E57
:202EA000826996F900106068574611F1020F18BF01274FF0010837B1926B96F9001090476E
:202EC000414882696068474F97F9001011F1020F06D0926B97F9001090473B4882696068ED
:202EE0006FF0010139703170D16985F8008088478BF800A0404906988968884755E00120C1
:202F000054F060FC21460698896888474D46DFF8E4902878012836D10EF010FE60BB204611
:202F200040688047002402268246DFF8BC80B869A8F80240416E2E7002A888470294B8697B
:202F40008DF80C60254AD0F850C03346101D8DE81800264B0068414602AAE0472649896873
:202F6000002819D4224A464692F900007E60401C10705046884706E02878012803D10020F7
:202F800028700FF093F90EF0D9FD70B92878022804D14846007808B10FF0B9FD48460078F8
:202FA000012802D028780228FCD007B0BDE8F08F7349002075490020744900207633002045
:202FC0007733002078330020442E0020CC3200204431002076490020F3330020E8310020B9
:202FE0007433002075330020A82D0020CDF0000079330020F2330020D42E0020774900207D
:203000002DE9FE4F0546287D012807D195F917000DF01CFAB0F1FF3F00F016819548EF7BF7
:20302000017895481FB990F883208A4208DB012F03D190F882208A4202DBF120BDE8FE8F6E
:2030400080462E6A95F83500B5F8289095F83470AC8B4FF0000A5FEA060B029017D098F8D7
:203060003C33002B2FD0D8F8541300292BD006F0FF008847D8F8541306B20BF47F0088475C
:20308000361830B2001D00B2C83086B200E0C8260CB1241DA4B298F8E003012809D147B171
:2030A000764802993F1897F804A0405C8019401D86B209EB040080195044801C80B254F02C
:2030C000F5FA071C02D11A20BDE8FE8F09EB0A0033193881002C03EB070078600EBF0020B6
:2030E000B819801C00217822C7F8A40007F10C0054F066FB09EB0600FF2110220019A7F898
:203100004C0007F13C0054F05BFB07F12C000F21102254F055FB00243C707C707868696A0C
:203120002A8D54F031FB07F1840005F12C010B2254F02AFB07F1900029460EF0ABFF6889A3
:20314000A7F89A00287B87F89C00687B05F10E0687F89D00326869460A60706848609DF8A7
:2031600000102046012908BF01209DF80110012908BF40F004009DF80210012908BF40F034
:2031800008009DF80310012908BF40F010009DF80410012908BF40F020009DF80510012990
:2031A00008BF40F040009DF80610012908BF40F080009DF80710012908BF40F48070A7F82C
:2031C0009E00A87D87F8A000E87D87F8A10095F8380087F86C00AA8BA7F8A82022B1D7F89A
:2031E000A400A96954F0D0FAA87F87F8AA00286AC7F8AC00B7F8A800C0B1D7F8A400A8B12A
:203200007868401E7860F82101707868401E78600470B7F8A810B7F8A8607868401A786054
:2032200038898019801C38817868B865B7F89E00410A16D395F83710042905DD00F0040189
:2032400000F00100084302D0E820BDE8FE8F08F18806304609F052F995F8371030460EF09D
:20326000CDFC98F80000394654F016F92046BDE8FE8FC0463833002028200020BC2D0100A8
:20328000F0B500215022ADF15C0D02A809F06CFBF22016A90FF03EFA8F4DBDF8580016A935
:2032A000A5F87000F3200FF035FABDF858000DF10901A5F87200E2200FF01CFA688DADF8EB
:2032C0001200410806D305F11401096805A80160BDF81200810805D3291D098806A8018002
:2032E000BDF81200C10807D305F1180109680DF11A000160BDF81200010908D30DF11E00A3
:2033000005F15401302207F051FFBDF81200400903D3286B1590EF6A14977048007800284F
:203320000CBF01210021012054F05EFBBDF8120041082CBF0F240B24810824BFA41CA4B2E2
:20334000C10824BF241DA4B2010924BF3034A4B2400924BF0834A4B220460EF03BF8071C0B
:2033600000F0B78005260DF1090100F8016B0A68026049684160BDF81210083054F0F3FB28
:20338000BDF81210844648080BD3BDF81410604654F0E9FBBDF8161054F0E5FBBDF81210E1
:2033A0008446880807D3BDF81810604654F0DBFBBDF812108446C8080BD3BDF81A10604668
:2033C00054F0D1FBBDF81C1054F0CDFB8446BDF81210434A9388080961D3BDF81E106046D9
:2033E00054F0C1FBBDF8201054F0BDFBBDF8221054F0B9FBBDF8241054F0B5FBBDF8261045
:2034000054F0B1FBBDF8281054F0ADFBBDF82A1054F0A9FBBDF82C1054F0A5FBBDF82E1044
:2034200054F0A1FBBDF8301054F09DFBBDF8321054F099FBBDF8341054F095FBBDF8361044
:2034400054F091FBBDF8381054F08DFBBDF83A1054F089FBBDF83C1054F085FB194654F0A4
:2034600082FB117854F07FFBBDF8421054F07BFBBDF8441054F077FBBDF8461054F073FB4B
:20348000BDF8481054F06FFBBDF84A1054F06BFBBDF84C1054F067FBBDF81210844648090F
:2034A00006D31499604654F020FB159954F01DFB05F11C01224630463B4603F04DF80820A5
:2034C000ADF80260074D01972968ADF800006846884717B0F0BDC046682B00203A3000208F
:2034E000642A0020F82E00202DE9F0410D46904CDFF848C2DFF84082A188D128074613DC8A
:20350000DFF83CE2D12800F0A280713800F0E280401E00F0DB80401E00F0D280113810D03E
:203520004C3800F0AF8007E0D2387AD0401E61D0401E34D0401E2CD038460FF0CAF8FF28FC
:2035400002D1F420BDE8F0817A4C04EBC004217909B9E08860B1E088884208BFFB2000F01C
:20356000E5802A78914200F395809042C0F29280744E706880472378628807464046A0F189
:2035800038015818294654F0FFF8B16838468847CBE0297802297DDA40466C1C6EE0288898
:2035A000814277DD6746AA88D7F8DC328100860001EB001106EB0016D7F8DC025A52E98863
:2035C000D7F8DC3280190822418005F108019819001D54F0D9F8D7F8DC02A27A29698019B4
:2035E000C068D20054F0D0F8297DD7F8DC02801901749AE02E882189304681424ADD67467D
:20360000D7F8CC022C24A91C102204FB0600153054F0BAF86969D7F8CC0204FB060081622F
:2036200083E029882289A8788A4233DD022831DADCF8CC322C22471C00EB410602FB0133B4
:203640001F75DCF8D812022201EB460035E02A882089698890421DDDE3888B421ADD7046B0
:2036600000682C2404FB02008489A142A4BF4C1C8481DCF8D40202FB03112C1D00EB810061
:2036800004221BE029882289A8788A4202DDE27A824202DCE820BDE8F081DCF8CC422C2395
:2036A000471C01FB020603FB01442771DCF8D0120A22700000EBC6004018EC1C254631E0E9
:2036C000002D32D0404608222C46F7E76DB37046103026E025BB27893FB3E588E47A00232F
:2036E0001A46DCF8CC0202FB04F6710001EBC601DCF8D0628919C150DCF8D41202FB05F642
:2037000001EB8601DCF8D8627F1E184403F12C03816006EB820102F101020161E1D104E0C9
:2037200070460422294654F02FF80020BDE8F081383300207C2E01000823002028200020B4
:20374000F4220020D42E00202DE9F043071CADF1240D00F01381F86B002800F00F81B7F898
:203760004020002A00F00A81007817F130014FF0000603D097F83810052902D0002E00F086
:20378000FD80DFF80482401E69D0801E55D07F4CC01E3DD0001F40F0F1807A4DA878002870
:2037A00000F0EC8068463146042209F0DDF8B7F840002A78032840F0E180F86B401C54F044
:2037C000D8F9434603F17C073988012A01F10101398009D0D988421A022A05DBB3F87E10A4
:2037E0008918491EA3F87E10D880E7782E70400808D2012F00F0C2800121E170304654F092
:20380000F3F8BBE0002F00F0B980E6703146F5E7012A40F0B3800725E0788DF81C500028F6
:203820000CBF0121311C3046E17054F0DDF8E07802228DF81D0028460CE0012A40F09E807D
:203840004346B3F85C000122401CA3F85C0004208DF81C00394607AB02F07EFE8EE06846E2
:2038600031460C2209F080F8B7F840000B285ED1FC6B14F8010BC14689F82800204654F008
:2038800078F9A41C0346204654F057F90546201D54F053F98046387A4C4689F824000228C3
:2038A00006D0396804F11C0001607A68426001E03888A08303F00100190928BF40F00800A2
:2038C000590928BF40F010006085834218BF0226B5F57A7FADF8020016D32D48A84213D33E
:2038E000E5620EF09FFD81460EF09CFD00EB09290EF098FD00EB0920B0FBF5F16943401A2E
:203900000A300DF025F800E00226E06AB8F57A7F019008D342F21070404504D3C4F8308073
:203920000EF08AFD00E00226206B029001E04446012602258DF8016068468DF800500BF0C0
:20394000C7FD03AE0DF10D009DF80110357054F00AF9BDF8021054F006F9019954F0C5F8B0
:20396000029954F0C2F839460D222846334602F0F3FDB4F86200401CA4F8620009B0BDE871
:20398000F083C046FC2C0020682B0020642A0020407E05002DE9F043044694F830900F460E
:2039A000984615468B20ADF1340D0DF10A0100F009FC8A20694600F005FC94F82500002823
:2039C0003FD1B9F1000F19D1BDF80A104FF6FE70884205DCBDF80A10884230D1694615E0C9
:2039E000B4F844009DF80A608DF80E0000128DF80F00BDF80A008DF810601CE0B9F1020F34
:203A00000AD0B9F1030F1AD104F128010DF10E0054F024F9092612E0207CC00934BFB4F875
:203A20004200B4F844008DF80E0000128DF80F00208D8DF81000001205268DF811000020E6
:203A400016E002280CBF05260926012818BF04F11C0106D189200DF11A0100F0B3FB0DF1DA
:203A60001A0132460DF10E0053F08EFE94F826000DEB060148733A460DF10E00314609F070
:203A8000C9F9002840F09380B9F1000F19D1BDF80A104FF6FE70884205DCBDF80A10884290
:203AA00030D1694615E0B4F844009DF80A608DF8220000128DF82300BDF80A008DF8246049
:203AC0001CE0B9F1020F0AD0B9F1030F1AD104F128010DF1220054F0C1F8082012E0207CBD
:203AE000C00934BFB4F84200B4F844008DF8220000128DF82300208D8DF8240000128DF8DE
:203B0000250004203E68814603A9822000F05AFBBDF80C10B0898142D8BFBDF80C0000280F
:203B200045D007460024722029460DF067FCB068BDF80C100019C8F800000088814232DD82
:203B40002B68810001EB0011581828600146D8F800008278012A22D0C07840BBB9F1040F3E
:203B600007D0091D0DF1220054F060F8012818D019E008884B888DF82A0004220DF1220129
:203B80008DF82C3000128DF82B0018128DF82D000DF12A0053F0BCFD012802D003E0C0786C
:203BA00028B9002004E07F1E04F10404BBD1F3200DB0BDE8F08370477A4A2DE9F84F814673
:203BC000844C5068800806D2106804F15001000C40F0F0000870D2F808B0DFF8CC81744F32
:203BE000641E5E46B00E11D2700E0FD3802084F820004FF6D801A4F861103D462074A5F18A
:203C000070000068C0F3046007F076FF674D55F8180CBA46C0F3400018B966490020086029
:203C200001E046F040666449F00EB70E80F001004FF0805300F00100086087F0010000F013
:203C400001008860D3F8F06103F5F87072680090594648469047DFF86491DAF80070584BE0
:203C600039F83B2C07F0FF06101280F0C000B04211D002F0FF021968B04234BF01214FF0D1
:203C8000FF3140180102864281F4404142EA010129F83B1CEFD13809C7F30331C7F38446C2
:203CA0006FF4017200F0F000014304F80810F90CA65401F0F00040F47040A4F86300DAF861
:203CC000046028681F4620F0100828F4F070286057F8080C5FEA9B6002D25FEA5B6017D2F7
:203CE00055F8180C800834BF300AF00800F0F80040F47840A4F86100207800F07F0020703E
:203D0000207840F080002070C6F3044007F0F4FE46F3050321783A6841F30500984211D075
:203D20009842B4BF01224FF0FF3201F04001801800F03F020A4322702178834241F08001B9
:203D40002170E7D138683868C5F800801D4957F8080CDAF814004026C0F3053089F8A30F6D
:203D600043F61803E675009A0B8010688168584688471549154A0AE0105C9378141D83428D
:203D800099BF204410F8010C20444078086008684B689842FCD10228EED10D49012008603C
:203DA000BDE8F88FAC4F0050FEFDFFFF28000940F813005094042A43000220436BA00C4006
:203DC000342009406AB00C4000600C40CC3C010094046042066208402DE9FE4F0E468046C4
:203DE0003068D8F80440D8F808B0E8B1B7680FB97568CDB194F894100020012908BF012052
:203E0000384202D17168084205D0012080F00100C0B2012808D10EF09AFED4F8881031B17B
:203E20000EF0C4FF032030740020BDE8FE8F0125357400210291C4F88860C4F88C10C4F86D
:203E400090100EF0B3FF94F8AC0038B194F895206549D4F8A40011430CF050FA77680EF01B
:203E600076FE814694F8E00070B917F0704F06D12FB104200CF082FF06200CF07FFF022092
:203E80000CF07CFF84F8E05048460EF08FFFDBF80010486840F002004860207800287CD16B
:203EA0003068DBF81C10814277D9B7685D46002F14BFB84604F1AE0877682FB9E88904F1BE
:203EC000AE07A4F8AE003068616909292CBF022101215FEA0009019132D0DFF810A16069E8
:203EE000092811D3DAF800004268398828689047DAF80000C16828680A4669469047BDF8F3
:203F00000000A8F8000010E0DAF800004268397828689047DAF80000C16828680A466946F3
:203F200090479DF8000088F80000B3680BB10198804473680BB101983F18B9F10109CED187
:203F40002A68DBF80010D0684009FCD2486820F00200486077680EF0FAFD054694F8E000A8
:203F600078B117F0704F06D12FB106200CF020FC04200CF01DFC02200CF01AFC029884F8DA
:203F8000E00028460EF012FFD4F8881002980874C4F888000120029022E02046594603F059
:203FA000DBF9DBF80010486940F00100486120780028EFD1616804F16C0528460EF077FB32
:203FC0000028E7D0D4F88800017C012904BF03210174404604F08EFC029928460EF067FB3E
:203FE0000298BDE8FE8FC04600000680C40100102DE9FE43DFF8C081704D0E46B00958D330
:20400000444604F17C074DE00178D0290EDBD02909D181783970C17879700179B9708568EF
:204020007D60C168B96053F0BBFB48E004F15005286009F009FA28460BF0FEFC3FE0884721
:2040400094F88410491E84F88410A9688847009801788DF8041020654378CBB1DC2B0DD09F
:20406000DD2B0BD0E42B09D0F32B07D0DE2B05D0DF2B03D0E82B18BFDB2B0BD105F038F8D4
:204080009DF80400162805D168460BF0D5FC01E009F0DAF99DF80400162803D004F150005D
:2040A0000BF0CAFC384653F083FA002869680090C5D1F00BA9464446C00305D0404F53F004
:2040C00075F9002800909FD1700905D32E208DF8040001A809F0B8F9700805D325208DF8B5
:2040E000040001A809F0B0F9B00805D326208DF8040001A809F0A8F9F00805D327208DF833
:20410000040001A809F0A0F9300905D329208DF8040001A809F098F9F00908D300208DF8D1
:2041200005002D278DF8047001A809F08DF9300A08D300208DF8050030278DF8047001A84D
:2041400009F082F9700A08D300208DF8050035278DF8047001A809F077F9F00A08D3002090
:204160008DF8050023278DF8047001A809F06CF9B00A08D300208DF8050036278DF80470D6
:2041800001A809F061F9E06CD9F8041080B18847E16C00270091D9F80810E7648847009852
:2041A00004F15006306009F04FF930460BF044FC0020BDE8FE83C04628200020D42E00205C
:2041C000483300202DE9F041694CA288054671380E46022840F2C880133828D0674F4C38B5
:2041E00000F0A680401E00F08C80401E71D0401E5AD0401E2DD0DFF88081401E1AD028463F
:204200000EF067FA0546FF2D11D05D4C60688047584A0746E800115C801842884346C9189F
:20422000304653F0B1FAA168384688470EE0F420BDE8F0813278022A80F296804146701C3B
:20424000383101EB8201042253F09EFA0020BDE8F08131888A4240F38780D7F8DC22D7F8F4
:20426000DC3288008D0000EB011005EB0115105AD7F8DC22B0805819408851190822091DBF
:20428000F08006F1080053F07FFAD7F8DC12A27A30694919C968D20053F076FAD7F8DC02BC
:2042A0004019007C3075D1E735882089A8425BDDD7F8CC122C24B01C102204FB05111531EE
:2042C00053F062FAD7F8CC0204FB0500806A7061BCE730882189814246DDD7F8CC22B5780E
:2042E0002C2101FB0020007DA8423DDD3A463388B178D2F8D82201EB430102EB4101022229
:2043000030E03088218981422EDDD7F8CC2275882C2101FB00208089A84225DDE28839465C
:2043200033887488D1F8D412301D03FB024288E730882189814217DDD7F8CC22B5782C21C9
:2043400001FB00200079A8420EDDE17A3A463388B478D2F8D02203FB0143590001EBC3012A
:2043600089180A22F01C6FE7E820BDE8F081C046383300207C2E0100D0220020282000203A
:20438000D42E00202DE9F04F8246ADF11C0D02F0AFFA5C4800780AF0DBFD5B4D0024012899
:2043A00006D90C3804D0401E0ED0401E09D006E00DF0C8FE022804BF01210C1C06D029684C
:2043C00006E005211F2401E003210724284601604E4AD068C0F38150012804D112680120A2
:2043E000120E904004430EF0C5F9DFF828B1DFF82081FF2240185B46401E471CC8F8000007
:204400007F1E03F8012BFBD1DAF80020002702F0FF03FE2B1CD0D4463B46012602F0FF0532
:20442000FF2D0ED0A84205D3A94203D806FA05F52C4201D0022062E002F0FF022F430BF8E5
:2044400002305CF8042F5B1C02F0FF05FE2DE7D1092005F083FB3048C0F800A03748012146
:204460000CF046FE364D00264FF00109B04609FA06F0044214D1074207BF06F0FF0141F4B6
:20448000C0411BF806005AF82010244804F00CFCF0B24FF0FF310DF0D9FCC5F8008001E017
:2044A000042028601A480068761C2D1D8642DED904A80EF04FF91A4C20781B4A05901948E0
:2044C000102104AB0BF0E2FC68460EF073F96068174902901548CDF80C806A460BF0E6FD15
:2044E000144951F80D0C20F4F85040F4005041F80D0C114AC1F8FF9F4046C2F8009007B092
:20450000BDE8F08F7149002070330020A84F00506C33002088470020D4440020007FC76700
:20452000EC3C010000480020691E010074460020D5F700000D3009402C0009401C4800203D
:20454000584400202DE9F84F684C064694F86101002800F0C880B4F8CE03B6F842108842AD
:2045600040F0C18006F128000DF024F8002800F0BA80002594F8D10384F8615110B10220AA
:204580000DF01CFB94F8070210B101200DF016FB307C400905D310200DF010FB80200EF0DF
:2045A00029F920200BF0DCFD04F5067007F0A6FF72685178107804F5027A00EB0120C0F35B
:2045C0000321C0F3003784F85D11C0F3031384F8D43300F00F0184F85E7194F8F70384F84A
:2045E00062110F2804D0884202DDD77807B9014684F8B51394F8B5B384F83852BBF10F0F36
:2046000009D194F85F0102286DD10BF003FF06F05FFABDE8F88F36480078012802D00120E2
:20462000FEF78AFB334F7868804780460DF0C4FC0BF060FF8146304850F82B002063606302
:204640000AF036FCA16A48460CF052FA09F0D8FFB9684046884794F85F0102280FD150467B
:2046600007F04CFF94F8B52304EB4200B0F824014FF470719140091A50460DF0FFF894F868
:20468000D473308929460DF087F9C4F854010F2F14D094F8B51394F85D01B94208D0401C8E
:2046A0006FF00F06B8408101A1EB8005AD1905E0401CB8408501A5EB8005A03DC4F858511F
:2046C000022004F5A27584F85C01284607F016FF0A48C4F84C01D4F8581128460DF0CEF894
:2046E00010200EF087F8BDE8F88FC04628200020F2330020D42E00203C2E0100F5C60000E6
:204700002DE9F04F604DA869416EADF11C0D02A88847DFF878B1DFF878A19BF9000038B12A
:20472000514691F90000002818BF002040F0A980DFF87891D9F80400804705900026029611
:2047400031468DF80C10534CA66604F16008A8F8026094F86C00012761F3030084F86C00D8
:204760003A46069294F87B0094F86C3067F3000062F3C71384F87B0094F87B2067F34102AE
:2047800084F87B2094F87B0061F3820084F87B0094F87B0061F3C30084F87B0094F87B0012
:2047A00061F3041084F87B0094F87B0084F86C3004F17C0140F0600084F87B00F4200AF074
:2047C0008BFDA869344A076D354B344831468DE803001068414602AAB847334A931CD9F8BC
:2047E00008101F7828800028894604D5059888473146069144E0514691F90000294B401C03
:20480000087093F90000002F00F1010018709BF90000C5F8048000F101008BF8000014BFCE
:204820008021311CA88E4FF67F730340194304F178030843A88618781646082267F3C7104E
:2048400006F57B7739461870B6F8CE03B6F8D233A5F8420005F13700A5F8403052F094FF44
:20486000B6F8CE030822B6F8D253A4F892003946A4F8905004F1880052F086FF0598C847A3
:20488000069807B0BDE8F08F442E00207B3300207A330020A82D0020EC31002020004300DD
:2048A000972B01007933002028200020D42E00202DE9FC41DFF888810026054688F8E96270
:2048C000687D062803DBE82088F8E902687DA97D0E2905DD032803D0E82088F8E902687DFA
:2048E000032806D1B8F8540040083CBFE82088F8E90295F8280010B1E82088F8E90208F516
:204900003A77294638460CF08EF9291D112207F12C0052F039FF95F8280008F53A740028D7
:2049200004BF88F83063A87D04D095F8290088F83003688DA8F82603687E88F82803A87ECA
:2049400088F82903E87E822788F82A03287F98F8EB6388F82B0398F8FA3388F82C73394F58
:2049600088F82D6398F8FB23C8F80C73042688F8106305F11D0188F82E3304F1490088F86A
:204980002F230B2252F000FF98F8E902002850D1687800284DD1287E98F8EA728DF8000056
:2049A00017B1EA2088F8E90205F11701E72000F027F998F8300328B1287E022808BF012041
:2049C0008DF8000098F8FB039DF80010884203D0E820694600F014F91B4C98F8EA3227781C
:2049E00067B9B8F8CE0319490880D3B1032B14D0052B05D0012B03D0022B01D00EF087F817
:204A00000220207006F004FD4FF6FF70A8F8CE03104F38800E49088005E006F0F9FC0320DF
:204A200000E0012020702720287030460DF0C6F801E02A202870284608F006FDBDE8FC8187
:204A400028200020F527010000470020EA310020862E00203A2E002066492DE9F0470F7850
:204A6000002F40F0B3805B4C634E5B4A88460121012860707568176888F800102AD9DFF8F8
:204A80005C91DFF85CA1801E4AD0401E45D0401E35D0401E66D0401E2FD195F86D006081FA
:204AA00095F86E00002806BFE170081CE070534F51460A7839784E4611FB02F1484381003E
:204AC000316396F8341021F00F0141F0030186F8341047E00021EF8A6171F90934BF96F842
:204AE000CD1396F8F613A17088B996F8AB0370B10229C4BF0220A07009E00EF008F895F83C
:204B00006900607195F86A00A0700027A77104F097FC756835BBBDE8F0870CF01DF820E094
:204B20009AF800008500F86B8047DAF804103C22401AB0FBF5F0B0FBF2F15143401AC0F1D9
:204B400078001FFA80FAF86B804705FB0A014846016390F8341021F00F0141F0020180F88A
:204B6000341075681F48007868B9002D2ED06968087800F0200020718878E071087880099D
:204B800001D20DF015FF6078032803D0022818BF06281DD1144D68688047617802290CD066
:204BA00012490F7817B912490F7837B1022188F80010A9688847BDE8F087832188F8001096
:204BC000A96888470CF070FBBDE8F0870DF09FFFBDE8F087683200205C2E0020A82D002062
:204BE000CC32002070490020D42E002073490020754900207749002028200020F433002053
:204C00002DE9F843614E80460F46B8F1450F08D106F50F743422204652F0B6FDC6F8B043C3
:204C2000B0E00DF068F8FF2808BFF42000F0AB80B8F1E80F00F0A680B8F1E70F00F0A28003
:204C4000534C04EB8004A07808B9E17869B3E178814208BFFB2000F09680B8F1580F1AD0F6
:204C6000B8F1600F10D0B8F1E00F05D03A78904218DC914216DB18E097F900000BF0E6FB2F
:204C8000B0F1FF3F0ED010E038880A280ADBB0F5804F07DA09E038888F2803DB47F602516D
:204CA000814202DCE820BDE8F8833C4D686880478146207862783946301800F56A7052F0FA
:204CC00063FDA96848468847324AD7784046503851D0801E37D0401E4AD08D3843D0401EB9
:204CE00028D0401E22D0801F38D00D384AD10E208DF8000096F8290410B11B218DF8001065
:204D000096F9EA23244C9DF90010914204D0E0206946FFF775FF2078214914310968096AF6
:204D200009B18847207800282CD019E00CF064FA37B327E096F8EB0309F0DEFD012821D080
:204D40001A20BDE8F88396F8D10318B902200BF007FA17E002200DF03DFD13E003F0E2FB95
:204D600009F0EEFA0EE096F9EA030DF0A9FC09E00CF0F4FE01E00DF003F9D078012801D053
:204D800007F0B4F90020BDE8F883C04628200020A8300100F433002051240020D42E0020EA
:204DA000442E002001282DE9F84F40F0B58064489038D0F88C10012940F0AB808146022030
:204DC000C9F88C000CF07EFB01200BF0AFFB5FEA000805D00120C9F88C000CF087FB9DE0BC
:204DE0000DF0C7FE009011200DF0A6FD00280CBF0025012510200DF09FFD08B145F0020594
:204E00000F200DF099FD08B145F00405454CA06A0068014601208847012818BF002703D1A4
:204E2000002009F07DFF01270DF080FDDFF8F8A040080AD20026206A806801465046884764
:204E40008346BBF1040FF6D000E00126304600214FF0FF3202F0B8FC012E0ED0BBF1010F87
:204E600005D1206A4068012102465046904735496C39086840F003000860206840690146AD
:204E8000284688470B200DF057FD284E30B12068C06A3146091D0246088890470A200DF0DD
:204EA0004BFD28B12068C06A31460246088890471F4903200126C9F88C001E4B0E60002201
:204EC0001A602068406B0146284688470128F8D1194C206804200BF029FB0546174806606F
:204EE0002068012F02D1304609F01AFF0DF000FD08200BF01BFB07460098C9F88C600DF0DD
:204F000051FF0CF0F3FA57EA050018BF4FF0FF3804E06FF0040801E06FF001084046BDE802
:204F2000F88FC046B8010010004003403238010028200860800104432C2009400C4009408B
:204F4000C42C0020902208402DE9F04F624E0546B07AADF15C0DC00052F082FC0C90012089
:204F60008DF84800E87D092205F118018DF849000DF14A0052F008FC584C60688047159091
:204F80000DF146018120FFF71DF9A87DA346A8B3012004278DF803004FF0000A8DF80470A0
:204FA000AC8A8DF802A06946ADF80040D220FEF79BFAB1464FF6FF78544616941AE0C000D3
:204FC000524647180A50A98AD420B98008A9FEF78BFA02E04046ADF804008DF807A0A88A86
:204FE0008DF806A06946ADF80000D120FEF77CFA641CA4B2B9F80600A0422FDCA88A002703
:205000009DF84920ADF838000DF14A018DF83A700DF13B0052F0B8FB01200EA98DF844006E
:20502000D020FEF761FA071C0FD1A88A29461022ADF808000DF10A0052F0A6FB286902A986
:205040000790D320FEF750FA07460C9852F01CFCDBF8081015988847F8B239E0A88AADF83B
:2050600002406946ADF80000D120FFF7ABF80028B0D1BDF804008045ACD0ADF8200008A9F7
:20508000D420FFF79FF8002818BF0C9819D199F80A70002F04BF0C9950460ED00C993A46C7
:2050A00050460B469E88B04507D0B44205D0521E03F1080300F10100F4D187427FF47FAFBC
:2050C000084652F0E1FBDBF8081015988847192017B0BDE8F08FC04638330020D42E002026
:2050E0002DE9F843DFF880815B4F5C4CD8F89400002870D0401E0BD05A49401E62D0401E9F
:205100001AD0401E55D0401E18D0401E35D031E050480124006888F8924040680221702294
:2051200004230546009138460021A84720200BF0B5FE2046BDE8F883022100E003214FF004
:205140008056D6F8A40188F8921040680024702204232146054600943846A847D6F8A40139
:20516000C06870222146134605463846A84701200446DCE70320BDE8F8830025256065601D
:2051800020688008FCD260688008FCD2374834490127001D05600E200F6004F051FB02206E
:2051A0000BF006FBC8F8945088F893500220BDE8F8830520C8F8940000270F6008688008A3
:2051C000FCD243E00320C8F8940000270F6008688008FCD23AE0264D01260F20266042F66A
:2051E0002A213C3DC5F80B004FF08059C5F80F10D9F8A40140684FF4C07207230221844685
:20520000384600910021E047D9F8A401C06800214FF4C072072384463846E047266020685C
:205220008008FCD398F89100C5F81B6018B9032100200E4602E0002020630321C8F89460F8
:2052400045F8011C606060688008FCD20020BDE8F883C046A401001000A00C4054600C402F
:2052600004800C4058600C40342C002038500C403D400C402DE9FE4F1C469246894680460B
:205280000DF065FC5B4D019028680CAF404508BF68686FF00101009128B19C300DF052FA30
:2052A000002840F095800CF06BFA061C00F09B8008F178000DF047FCC6F80C90DFF838B128
:2052C0009AF80430BBF91C00C6F81080401C86F836306FF31F30ABF81C00B460BBF81C0057
:2052E000464BB08697E8060000242027346303EA0100F46206F1180307EA020186F8374021
:2053000006F1200783E803002146084687E80300DAF8007007B1376399F80C0000F00F00AA
:20532000022804BFD9F80800F062DAF808702FB196F8370040F0200086F8370048460CF0D7
:205340009CFE00886FF30900B0F5305F1CBF0222101C06D196F83710082041F0100186F8CD
:20536000371006F1180191E80C002746104306F1180247EA030182E80300A86A5F46804562
:2053800007D195F82C00410824BF00F0FE0085F82C00304609F074FC10F1020F10D010F1E7
:2053A000030F0DD096F8370040F0800086F83700B6F93400009088F8C0400DF0BFF812E03B
:2053C000B7F91C0000F6FF706FF31F30B88302E06FF00200009095F82C0040F0040085F873
:2053E0002C00C5F8288001980DF0E0FC0098BDE8FE8FC046A846002048470020FFEFFF9F91
:205400002DE9F0410546880FC0F0A080002009F0E7FB4F480DF0B6F94E4A40F60A011180EB
:2054200000205080137B60F3030313735060537B4FF0010868F303035373AC686080238883
:20544000A3F60207A7B141F21E03FF1A10D0637E60F3820363766F7C37B9238B23F47C73E4
:2054600043F43473238313E0238B60F30913F9E7637C60F3820363746F7C2FB9238A23F493
:205480007C7343F4347302E0238A60F3091323828E4668742646AEF1070101F1010C00E0FA
:2054A0003E46776837B13B889E4503D0994218BF9C45F5D17260737B274F60F3030373735A
:2054C0003F6837B1FB681B8899421AD06146994217D02F8DBFB1E86205F12801488095F81F
:2054E000343060F3030385F8343095F8353068F3030385F835305160517B60F30301517341
:2055000001E0164908600CF0F1FF154D1549687B696070B91448006800680146404688479A
:2055200001280CD0707B68F3030070730F49696005E00AF08BFB0028FBD00AF0A7FB2046BF
:205540000DF020F9014640460CF03EF9BDE8F08101010E04A4480020484700209448002054
:20556000F4480020412A0000E001001075E10000F8B55A4C064694F83C03002798B1D4F877
:20558000742382B1D4F8940368B142F21A0069469047D4F89403804728B19DF8000010B198
:2055A000E12E08BF01270DF081FAC07B02280CBF052501256068002800F08880002E6DD0A2
:2055C0001B2E06D1017D052903D094F82A34002B64D0E92E27D037BBE12E15D10CF040FFB3
:2055E00088B16068C18AC9080ED294F8DC13817694F8CA134A1C84F8CA23406881702846FD
:20560000FFF72AFAF8BD60681C2E48D1616A002949D088472E49002009786060012955D08D
:20562000FDF78AFBF8BDF1200CF041FD61688F7E4FB90CF015FF20B16068C18AC9082ED24E
:20564000D3E760682BE048680088000905D394F83C7317B10BF066FA6168C88AC00811D37F
:20566000087E00F07F000876087D032803D1487E40F004004876F0200CF019FD6068002170
:2056800088470FE0887E401E887612490127F0200F700CF00CFD10480078B1E7002646708F
:2056A00006F0E0FC6068C08A000A0AD394F83C0318B994F8EB0309F01FF994F9EA030CF082
:2056C000FFFF0020606010200DF094F8F8BDC046F233002070490020693200202820002037
:2056E0002DE9FE4F88460646564CF1892589C81D87B2A078EA19B2F5005F0BDD01F060F8F3
:20570000874204DD607900B90520BDE8FE8FF1892589A0788346C81D42F2010287B2E81997
:20572000824240F38980F288337A10128DF8012063F39F00B3888DF800000E469A1003F0D4
:2057400003008DF80220C1F3851201F03F0342EA8012A9198DF8032098001FFA81F9F21DBF
:205760008DF804001FFA82FABAF10D0F25DB4046314600220DF0C2F80246052168460DF055
:20578000BDF89DF804103346962600F03F0742468DF8066041EAA0118DF80410B80040F070
:2057A000020029468DF80500584609F001FE57464D4607236A46607130E004F12C004146C5
:2057C000324605F0F3FC9DF804300099301900F12C084046037100220160731D04F12C006F
:2057E00099B20DF08BF89DF80410962300F03F0641EAA0118DF80630B0008DF8041040F037
:2058000002006E4641468DF805003268B0790A60B28888713B468A8004F12C0258462946A6
:2058200009F0C6FD60712189C919218130B148460BF05CFA607901E005206071C0B2BDE826
:20584000FE8FC046B83000202DE9F04F044608469A46ADF1240D214605908E680692129BDA
:2058600004914C68756807935044854238BF6FF00304C0F093804B4D28684FF0FF310CF05A
:2058800016FF4948328C079F48496368026083460B60780819D23846800813D3F768002F27
:2058A0003AD03569002D37D000970195012002900599069A0498534607F008F95FEA000870
:2058C00013D114E04FF0000811E0A0683AEA00070AEA00021CBFB1680A44059901400498D2
:2058E00005F016FC5FEA000801D0044652E034680598DDF818905746241805E0BBF80010CC
:2059000004980CF0B0FEA944AFB90798C00840D3F16809B1306910B94FF0FF343AE00091E0
:20592000019000270297069A05990498534607F0CDF880462DE0049809F0A2FB38BB049853
:205940000BF03AF818BB04F0FF05C5F58075BD4288BF3D1C210C8DF80D1002208DF80F403C
:20596000230A8DF80C00BBF8001004988DF80E300CF070FE03A8042109F022FA7F1B6419E1
:2059800028B94846294609F01BFA0028B6D04FF0FF384446034800680DF0E7F8204609B0BF
:2059A000BDE8F08F284900202449002020490020B0B5456884685148297BADF1180D0129F4
:2059C0001AD001462F7E227E637E4D4837F0010741EA020240EA030001904A48009218BFBC
:2059E000011CA27E1143029195F895200323FF2A13D0014610460DE0A17E627E237E41F0B4
:205A00000041024343F00043029195F8950000933D490192014304230391FE2105F198007D
:205A20004DF82310694605F023FEC5F8A400002808BF00205FD0287B344951F820000128D8
:205A40002BD02068B0F1804F14BF22220A22217ED5F8A4000BF00AFB2068B0F1804F14BF35
:205A600021220922617ED5F8A4000BF0FFFA2068B0F1804F14BF24220C22A17ED5F8A400A5
:205A80000BF0F4FA95F89510FF2933D02068B0F1804F14BF23220B2228E02068B0F1804F83
:205AA00014BF21220922217ED5F8A4000BF0DEFA2068B0F1804F14BF22220A22617ED5F8DB
:205AC000A4000BF0D3FA2068B0F1804F14BF24220C22A17ED5F8A4000BF0C8FA2068B0F1A5
:205AE000804F14BF23220B2295F89510D5F8A4000BF0BCFA012006B0B0BDC046000480A0D0
:205B0000004000800004C0A0002000801C3D01002DE9FF4104466668A7680D460DF017F88B
:205B20003178012903D10DF041F900208DE0012131700DF03BF9287870706878B0706868B6
:205B40007060A868B060E868F06028693061287D3075687D7075A87DB075A869B061287F6C
:205B60003077687F4FF000087077A87FC6F82080C6F83080B077454675627563B562B563E6
:205B800086F82C5086F82D50786803F0E7FF204604F0E2FA204604F0A5F878B92C4800681D
:205BA000C068014638688847786803F049FE0CF0CEFF35700DF0FAF82C4645E068460CF04F
:205BC000C9FD3A7B06F17C00B9680192214A00946B460AF05BF968460CF0ECFD396902915D
:205BE0001D49009406F198006A460AF05FFAB07830B906F1CC0029460BF07AFA1748306177
:205C0000707830B906F1E80029460BF071FA1448F06068460CF0FEFE01958DF8005006F547
:205C20008270104902940A226B4608F061FFB969FA6906F13C000CF031FD0B4A06F16800B8
:205C4000042123460BF066FC20460090BDE8FF81D0010010255F000075B00000BD2A0100CC
:205C6000B52A0100F1F5000025280100F8B507465448524C001DC26A0168B7F5C067C2F3A2
:205C80000722A766C1F38441E266C0692167C0F38120C4F8800000F08D8094F8886046B95C
:205CA000C4F88470206FA067E66E6667D4F88050E567D4F88400E26E002854BF02256FF034
:205CC000010504F17803196800EB40004019451000EB957001EBA0011960A16F62670029FC
:205CE00016DD1E292FDDE06F28B93429B4BF15391E21A1671CE02A29BABFA06F0B381E2071
:205D0000A067606F3E28D4BF401C3F20606718E0E06F03280ED011F10A0FA6BFA06F0B3018
:205D20000120A067606F0028CCBF401E00206067032007E011F1140FA6BFA06F153001206B
:205D4000A0670020E0674FF08057D7F8A401B4F874101B4D40684FF47F42082306460091FF
:205D600028463021B047D7F8A40101214FF40032112340680091064604212846B047D7F850
:205D8000A401B4F8781040684FF4F80212230646009104212846B047D7F8A401B4F87C10FD
:205DA00040684FF440620A230446009120212846A047F8BD002084F88800F8BD342C0020AA
:205DC00000A00C4000A00C402DE9F04F4B4CDFF83C81606894F83C13ADF1140D00284AD0C7
:205DE000474D484FDFF820A1012911D0686880473F7847B95246A96817782FB98323424639
:205E00001370884762E0A96802234246137069E00AF0A2FE3E4EB069DFF8F8B0016CDBF866
:205E200004008847049068688047A1463F780390002F4ED15046007800284AD1D9F8881328
:205E400000208847F42002A909F046FA9DF90810DFF8CCA0049A584691421CDC5446641E47
:205E6000A779C7B9A96803988847D9F888736078A579042801D00CF04AFE042041466D1CD0
:205E80000870E8B2A0710FB10320B8470320608107F0F8FF27E0B7698322414640687B6C29
:205EA0000A706A4600219847B6F90200BDF90010884214BF002001200AF000FEA9680398BF
:205EC00088475446E41D1449207808700BF0ECF909E0022041460870A96803988847D9F8B5
:205EE0008813042088470D480078012802D00020FCF722FF05B0BDE8F08FC04628200020D1
:205F0000D42E0020734900207549002077490020442E0020E8310020F6330020F23300206C
:205F2000693200202DE9F0478046D8F808603068076CD8F8045047646A6CA96B286C17F4F8
:205F4000F06FA0EB020937D1F8091FD2780979D3B9B196F82100464A145C601E814294BFD8
:205F60000C1C641E404621460AF0FCFAA86B001BA863A86B002865D105F1980001210CF044
:205F8000FCFD404649460AF001FE5BE00029F8D040460AF0E7FA014695F82D00A96318B98F
:205FA000A86B00284ED101E00020A86305F1980001210CF0E2FD45E0F80A21D24FF0000A8D
:205FC000544603E0A86B401EA863A96B91B1404601210AF0C7FA3068446814F00F04C0F8FC
:205FE00004A0EFD0296BAB6B686B491E2963401E6863EBB905F1980001210CF0BEFD13E0A7
:20600000306844680022202904F00F044260CCBF4FF0200A8A46404651460AF0A3FACAF1F5
:2060200020008145C8BF8146494640460AF0AEFDEC77404607F066F9706A18B102462146E1
:2060400040469047B80910D3AF6A77B1404639460AF0C0FAA862AD6A3DB996F82000054932
:20606000095C4046C91909F0A3F8BDE8F087C046443D0100503D0100F0B54C4C074620796A
:20608000ADF11C0D032840F08D8000256846182225710823657129460CF0A2FC6846294607
:2060A0000AF074FF6061FF26A6700AF0C9FF3946284609F0C5F904F1200120610CF0BEFCC4
:2060C00001212570A06A6170B0F5005F05D1606A2769800B18BF002F02D12171084663E073
:2060E000A078A9421CDAFF2809D0FF2E04D030460AF010FB6071A07808F04AFD0EE020787D
:20610000FF2E08D0A670304608F042FD2081304600F056FB47E009F019FB0420208142E044
:206120006903384606AA04230CF08DFC9DF81820A52A08D19DF81910FF2904DA9DF81B3000
:20614000A078962B0BD0E778242A02D0B72A1BD11EE0A0782E4607BB9DF819101CE0E278DF
:20616000FF2817D0914203DAFE2A18BF01290BD1914203DD012A08BFFE2905D00AF0CAFAFD
:206180009DF81910607105E028460AF0C3FA6071A07802E0A5702846E170276961786D1CD5
:2061A000EDB29EE76071607907B0F0BDB83000202DE9F04F05468846ADF1140D1C46D5F849
:2061C00008B00E990092DBF80400019108EB0401884238BF6FF003047BD3404E30684FF093
:2061E000FF310CF064FA3E48019F01684FF0000978081CD23846CDF80C90800827D334B388
:206200003046DBF800200099066823464244491E521E11F8010F12F8015F054085421CBFDE
:206220006FF00604301C52D15B1EF2D10FE034EA010701EA040202D02A480068121801EA83
:206240000801284607F0F2FF002803903CD1DBF8005009F061F927464544DDF800A00290A4
:2062600002E0BF1BB244AD1997B1082F8CBF08263E1C0CF06CFC04902946324650460BF0E4
:2062800083FD814604980CF091FDB9F1000FE8D002980BF0CBF9B9F1000F12D10198C008CA
:2062A00012D38CB1DBF8000000994044491E401E10F8012F11F8013F9A4202D1641EF7D18D
:2062C00002E04FF0FF3003900448039C00680CF04CFC204605B0BDE8F08FC0461449002082
:2062E0001C49002018490020FEB504466078002840F08B8094F89A1002291CBF0329E820F0
:2063000094F88F1080297FDC00287ED1424894F8911029300078884204D004F19101E82022
:20632000FEF76EFC04F19001E720FEF769FC04F18F01E120FEF764FC04F19C015020FEF745
:206340005FFC364D94F89A0002280CD04FF6FE70A5F8C80304F1920105F2BE3051F07EFCF0
:2063600004F1920604E004F192063088A5F8C80305F5FE7004F184010B2251F005FA02208E
:20638000012320753146E38268460BF083FE94F89E706068B4F89CC0401E606004F19E0023
:2063A00007B9002347780FB143F0020387780FB143F00403C7780FB143F0080307790FB1CD
:2063C00043F0400347790FB143F080036068411E616003706168277D00266A46481C20628D
:2063E0006346781E0870208926658321A665801C20812046FBF7D6FA071C02D1204603F04F
:20640000EDF8381C01D1FEBDE820607018202070204607F019F8FEBDFA2300202820002048
:206420002DE9F04F444F824607F118000068416EADF1140D02A88847444D6E68002E72D076
:206440003B490120424C08702178012902D0FCF773FC6E68348995F8EB0376680BF0BEFBFA
:2064600007F096F9334DDFF8EC9005F1280809F1040088F80F400068AE6300246C8580477B
:2064800083462E48DFF8B8C0BE6900683AF0010A27D105F140014C8005F128026A6495F834
:2064A0004D2095F8573022F00F0242F0020285F84D2095F84C206C8564F3030285F84C20E9
:2064C00023F00F0242F0040285F8572049F64043EB6595F8343064F3030385F834304546A0
:2064E00002E028356C8029468DF80C40029408238DE81800346D02AA6346A04711494E4618
:206500000880B168002808D40F4A92F900007D60401C10705846884707E0584688471A203E
:2065200006F0A2F901E00CF0F2FA05B0BDE8F08F77330020A82D0020442E0020EC3100209A
:20654000C96E0000403200207933002028200020F2330020D42E00202DE9F04F99469246CB
:206560000C468046ADF13C0D0BF038FA444D3C2205F1100108600021684606F0F5F9206856
:206580006E4630606068706020893081207A032804D0022003248DF80C0002E003248DF8C4
:2065A0000C40287818B105F134000CF0ABF8A88EADF80A0068781E28D4BF411C002100271A
:2065C000B8F1050F697040F080000BD0B8F1040F05D0B8F1020F08BF40F0600004E040F0E4
:2065E000200001E040F040008DF80D00ADF828A04FF0010BCDF8249022498DF80EB00A6847
:206600000BA802604968416005238DF83540B8F1050F8DF83640B5F858008DF8343012D069
:20662000B5F85E00B8F1040F08D0B8F1020F0ED1B5F86400401CA5F8640008E0401C80B23E
:20664000A5F85E0003E0401C80B2A5F858000E4918206A464FF0C8FDC0B258B1B8F1050F5E
:2066600009D1E86A0AF074F9B5F85800401CA5F8580000E05F4638460FB0BDE8F08FC04645
:20668000682B0020B136010001300000F0B5494D014695F807020027ADF1140D002855D1E2
:2066A00095F8AA03002851D0087ACF68C0F3021600F0070100E0BF1C0846411EC9B248B1FF
:2066C0007A783878B5F8D24300EB0220A042F2D102270FE005F56A74443400E008373046A7
:2066E000411ECEB2A0B32046394651F09FFA0028F4D0032795F8070240F0040085F8070243
:2067000002A80AF06BFF01200BF058FA05F5FE718720FDF757FD05F501718520FDF752FD51
:2067200005F205218620FDF74DFD05F206218820FDF748FD0120009005F5FE760196B5F8F6
:20674000CE33394602AA052005F048FC002F2ED195F8B5030F282AD095F8D413814226D0DE
:2067600095F8D10318BB95F8560000BB12480078012802D00120FCF7DFFA104C60688047A2
:2067800095F85F11022910D195F85C11FF290CD0696851B9A96F41B9A168884705F5A27021
:2067A00005F0ACFE05F0A6FF01E0A168884705B0F0BDC04628200020F2330020D42E0020B0
:2067C0002DE9F04F494F81460020787139787878ADF1340D494518BF081C0C9009F09AFFC5
:2067E00000212422787148460BF0EAFA3C89042620E04FEA49312A2CDABFA4F10A0085B275
:206800002025386904AA641B2B46A4B209190CF01AF90DEB050010300178962905D06D1E98
:20682000401EADB2002DF7D14BE06419641C00E0641BA4B20B2C46DBB6F5005F43DA787959
:20684000002845D1E41F48466A46A4B2214602F05FFEBDF80E50E81D2B1D1FFA80FAA342D5
:2068600006D89DF80A00962808BF4FF0000801D04FF001089DF80B0041081FD280081DD364
:20688000B8F1010F1DD09DF80920601B1FFA80FB294658460AF049FD68B90C98594632465C
:2068A000534607F09FF95644B6B2B6F5005FC4BF0520787102E0641EA4B202E0B8F1000FBF
:2068C000B6D00B2C95DA0C9808F040FF787910B14FF0FF3007E03E81484609F01BFFC6F58F
:2068E0000056787130B20DB0BDE8F08FB830002041482DE9F043006842F21072ADF1140DDF
:20690000B0FBF2F1514340F2AB22401A82426ED8424C94F89A00002867D14FF00108374E11
:2069200084F89A80307B84F899007768C4F8C47001A80CF06FF84FF000094D4604F10C004A
