:20000000003B01208DF70000A1C10310A1C10310A1C10310A1C10310A1C10310A1C1031042
:1C002000A1C10310A1C10310A1C10310A1C10310A1C10310A1C1031079C10310B9
:200040002DE9F047054668784FF00009ADF1200D401E0E2809D92F38142817D9203800F0C4
:20006000C883401E00F0C183BCE3DFE810F0AA03A303EA038603E603E203DE03210314038A
:20008000BB03BB03DA03D6030503FE02DFE810F0E40193008300C10376006B005D0043001F
:2000A000BD033800AA03AA03AA03AA03AA03AA032F002400B9031500B503A888022838BF0D
:2000C000272407D3A868024657F043FD911C13F077FD04464320DCE2A88828B9CB49182030
:2000E00056F082F8C4B200E027244120D1E2A88818B913F0FDFD044600E027244020C8E20E
:20010000A88828B9C249182056F06EF8C4B200E027243920BDE2A888CDF80090012818BFC1
:2001200027240CD1A868CA4902786B46182056F05BF80099C4B20DF1110057F0DCFC8DF8B6
:2001400010403720052104AA14E3A888012818BF272406D1A868BF490278182056F044F88F
:20016000C4B2362095E2A88828B9CE49182056F03BF8C4B200E0272435208AE2A8880828A1
:2001800018BF272405D1CB49AA68182056F02CF8C4B234207DE2A888022818BF272408D121
:2001A000A86857F0D6FCCD490246182056F01CF84C4632206DE2A9880529C0F04581A8680E
:2001C0000678B6F1710000F02581401E012840F239815E3800F0FB80401E00F0D480401E7F
:2001E00000F0BA80401E00F09C80401E63D0401E44D03046813801280FD9801E11D0801E0B
:2002000001280ED9801E0AD0401E0AD0401E012805D9801E18BFFF2004D1022002E0082024
:2002200000E00120491F814240F00E8112F02AFC071C00F0D380A86831468139012900F1E9
:20024000050017D9891E12D0891E01290FD9891E07D0491E0BD0491E012902D9891E79D14A
:2002600008E001683A4611604068506072E0007838706FE057F06DFC38806BE0092940F00E
:20028000E380052012F0FEFB071C00F0A780A868401C10F8041B397010F8011B797010F850
:2002A000011BB97010F8011BF9700478494604B1012139714EE0182940F0C680182012F0C1
:2002C000E1FB071C00F08A80082012F0DBFB0028386100F08380A868401C034657F039FC40
:2002E0003880181D57F035FCB880981D57F031FCF88003F1080107F1080013F0B7FF187C76
:20030000494600B1012103F11100397557F010FC3969086003F1150057F01BFC396988805A
:2003200018E0192940F09080182012F0ABFB071C54D0A868401C044657F00BFC1022241DA5
:2003400038802146B81C0BF075FE04F1100057F0EFFB78613A4660E0072975D1062012F0CF
:2003600091FB071C3AD0A868401C024657F0F1FB921C388012F8020BB87012F8010BF870BA
:2003800010783871E6E709295ED1082012F07AFB071C23D0A868401C024657F0DAFB921CCB
:2003A0003880104657F0D5FB921C7880104657F0D0FB921CB88012F8014B484604B101206A
:2003C000B8711078494600B10121F971C2E70F293AD10E2012F056FB021C01D11A2434E0F1
:2003E000A868401C034657F0B4FB1080981C10F8021B91704468D71C7C6003683B60017AEC
:20040000397210F8091F117307E0C046E1440100CDD10000052917D14A46AA60AB68CF49F1
:20042000182032461F4655F0DFFEC4B26FB1D42E04D1A868006908B112F0E8FE384612F07E
:20044000E5FE02E0F42400E02724312021E1C046C9B20000595D0000A888052840F00281FA
:20046000A86890F80080461C1A2440467138022840F2F6805F381FD0401E18D0401E13D0B6
:20048000401E0BD0401E06D0401E1CBF0825281C14D105200CE0182005460FE01820192567
:2004A0000CE0C046217900000620072506E00820092503E0016700000E200F2512F0E2FA97
:2004C000071C00F0CB804046D038022811D9C01E13D0401E04D0401E0FD012E0E1EB00002E
:2004E0003078387070787870082012F0CBFA386107E0B078B870F078F87030783870707815
:200500007870D3491820424655F06EFED149182042463B4655F068FEC4B2002C40F094807A
:20052000681C80B212F0AEFA5FEA000A00F08B800646404606F8014BD03867D0401E56D02E
:20054000401E4CD0401E3AD0401E1ED0401E06D02A46304639460BF06DFD29466AE0397805
:20056000304600F8011B4D4600F8015B00F8015B00F8015B797800F8011BB97800F8011B18
:20058000F97800F8011B397950E03988304657F0DAFAB98857F0D7FAF98857F0D4FA07F1BB
:2005A000080113F063FE397D017039690968401C57F0A1FA3969898857F0C5FA38E03988C4
:2005C000304657F0C0FA1022851CB91C28460BF031FD796905F1100057F08DFA28E03988E6
:2005E000304657F0B0FAB97800F8021BC8E73988304657F0A8FA798857F0A5FAB98857F010
:20060000A2FAB97900F8011BF9790FE03988304657F099FAB978FD1C00F8021B2A68026033
:200620006B6843602A7A0272397B093000F8011B801BC1B2491C3020524613F041FE5046F8
:2006400012F0E4FD00E01A24B8F1D40F03D1386908B112F0DBFD384612F0D8FD1CB9F3E008
:20066000F42400E02724302013E0A888012814BF272426240F200CE0A888012818BF27249D
:2006800006D1A86874490278182055F0ADFDC4B20E202146A3E0A888002808BF272105D04B
:2006A000A9680878491C13F0BFF90146092096E00A202727ADF80C00AE888DF81870012E08
:2006C0000CD1A8680478452C05D164491820462203AB55F089FDBDF80C0038B99DF8180045
:2006E000002840D1BDF80C00401C3DE0BDF80C00401C80B212F0C6F9071C31D0452C07D00B
:20070000791C204603AA11F0F1FD8DF818000DE0452001A90DF10E0211F0E8FD0199BDF866
:200720000C208DF81800781C0BF084FC9DF8180038709DF81800002806BFBDF80C00401CD5
:200740000120ADF80C00BDF80C103A46082013F0B7FD384612F05AFD76E0C046A13400008F
:200760001A208DF818000120ADF80C00BDF80C1006AA082013F0A4FD66E0A888042818BF0A
:20078000272115D1A86801788DF80810401C10F8011B8DF8091010F8011B8DF80B103049AA
:2007A000007802AA8DF80A00182055F01DFDC1B2042014E0A88800280CBF49462721022048
:2007C0000DE0A888012818BF272107D1A9680978484601B1012013F095FA0146012013F0EC
:2007E0009FFB31E04FF026092EE028460FF026F82AE028460FF022FA26E028460FF048FAFF
:2008000022E028460FF0F6FE1EE028460DF000FB1AE028460BF096F916E028460FF08EFD31
:2008200012E028460AF004F90EE028460DF0AAFF0AE028460DF038FA06E0284607F002FE8D
:2008400002E0284608F0CCFE484608B0BDE8F087050801007D45000045400100BD07010009
:20086000FB4301002DE9F04FB849B74C16460122ADF14C0D0A70B64D109300220F962069FA
:200880002A704FF0E04202251A400E9205EA06050D9504BF291C002940F0AD83AD493346A0
:2008A000109D0A78DFF82483DFF82493C94E4FF4803707EA030100272F4008BF002935D16B
:2008C0001A464FF400312B460025114015EA030708BF00290ED11F464FF480013D4001EAF4
:2008E000020108BF002900F07A83002101710EF019FC74E329460171EB2013F07CF84F4623
:200900004046294601703878862802D108460FF0BDFE70688047E1690A682B461371096877
:20092000E161B168884712F0FBFF58E300210171A949012A18BF0A78A84DFF232B708122F8
:200940000A702778A7700022A281A549007A45461346801E1FFA80F808882B704045C0F245
:200960002D83E16904F118000422083156F03CFF0420A081B74BA17E607EE27EA8F103054B
:200980004FF0000B1FFA85F8C1F3011A00EB0120608193F880132271002908BFBAF1020F5E
:2009A00000F00C83BAF1020F00F3088369B110F0070F00F0038341B14D462978862904D12E
:2009C00000F00701022940F0F982011301F00201022966DA637800F007004D46022854D122
:2009E000D6F80490181C50D1E16909A801220C3156F0FAFE0520A081C84780460A962B7849
:200A00009448B6684768862B3AD19DF9240013F081FD9DF9243078775846B8774046FB7798
:200A2000B0470A9866892779406880478146287806F0100886281ED1874E06F11E01088892
:200A4000401C08808720287013F028FC0A99896848468847082012F007FBF079B84208D1F3
:200A6000B8F1000F03D158460CF0B0FF0AE01B20FAE7E920F8E70A9989684846884701E0E1
:200A80004046B04712F04CFF9BE228785A46862808BF01220A9632B158460FF0F7FDA77804
:200AA00000E00A9663788FB183B9012F00F081826089022F03D110F0070F40F07A82032FDA
:200AC00005D100F00701032901D072E2608902094FEAE00109D310F4405F00F06A825D4AE7
:200AE00092F82474002F00F06482021302F00202022A02DA820A80F05C82BD4A1278C2F39C
:200B000081059611012D00F05482012E00F05182B64ABAF1020F08D0935D525DD218D7B21C
:200B2000F6B1C2091CD3BF1E0BE0B318AA181B791279D218D7B2C2090ED255EA06030FD09B
:200B4000BF1CFFB20CE0C0463845002054320020BC310020A01C002055EA060308BF0227B3
:200B6000C0F300203A1A60719045C0F22282A8EB07024908024490B2208128BF4FF0250BE6
:200B80005844743080B212F041FC94F801806061002800F00E82002174220CF097FF0020C5
:200BA000E0706089B8F1000F0B9003D1074900F020000870054894F8058003784FF00009DC
:200BC000002B4ED0B8F1000F4BD10BE0AD470020AF470020142B0020AB47002031320020EF
:200BE0006E3100200B9800F00700032806D0012837D1184890F86E04002832D09248037891
:200C00001BB113F0A7F8FE2828D01248B0F85C004A46810809D30F4991F88A30F3B94B68FB
:200C20001BB15B7E33F07F0318D1BAB98008CA460CD386498B6888783BB11846804794F838
:200C40000390618994F805800B9138B9BAF1000F07D003E020190020903000200420E07058
:200C60008146616901F17400486023890C9388650B8120890B9AA1F85C0010090ED3C8F11B
:200C8000030082B2A1F85C20886DCB4956F0ACFD6169B1F85C20886D80188865544B0B9865
:200CA00088811878C44BC0F301121878B8F1000F00F0780040EA020049EA000008744FF0FC
:200CC000FF038B730CBF2079002081F8306081F83A5081F84900A089002FA0EB080085B2A0
:200CE000A58100F05E81BB46E169E78068465A464919083156F078FD3D487F19BEB2A681F5
:200D000065690078C0F301111191297C6F46C0F38103C0F38109002B01F0400A47D0C0F328
:200D200001100023022801D1C8090BD29DF801109DF8000000EB0120A5F844000DF10207A6
:200D4000A5F84200DFF80883B5F84400B8F84210814203D04FF6FF71814223D1B9F1030FA1
:200D600011D07978387800EB012081B26986B8F84020BF1C01208A4213D04FF6FF728A4286
:200D800018BF181C0DE0B84800683946323056F051FFB548006808F13701323056F032FF0D
:200DA00008370346002B00F0FF806569A07EDDF82C80831108F0070823D01198022803D070
:200DC000287CC00903D309E05AEA090206D179783878BF1C00EB0120A5F84200032B09D053
:200DE0007878397801EB002129850AE0BC550100524500209C4800683946283056F01AFF62
:200E00006569B8F1030F07D0B8F1010F38D1974890F86E04002833D09448D0F880704FF0D9
:200E20000008F7B1787E30F07F0016D095F8300002280DD0032810D107F1700005F1280130
:200E400056F0E0FE48B11BE09431002070310020B7F87000298D884212D057F80C7C002F4D
:200E6000E0D1B8F1000F0BD1814F4046E07078783B46C0F30111187800F078000843287472
:200E8000A8890009C0F08D80A86D69465A4656F0ABFC6169886D58448865E769B1F85C006D
:200EA00001225844A1F85C000DF12500B919083156F09AFC751CAEB2A68161699DF82500D8
:200EC000896D087060699DF825709DF82530816D491C8165B0F85C10491CA0F85C1007F01A
:200EE000070180F82410C3F3C10780F8257090F82450002D58D057483F180C9B3D782D1DC6
:200F0000E5809D4250DCE1692A4605A88919083156F06AFC38789DF817209DF814109DF8A9
:200F2000163080193E78001D01EB026180B201EB0341A0819DF81530606901EB0321816198
:200F40006EB149480068761E06A932461C3056F04BFC397860696944C97D80F82610806DDD
:200F600005A92A4656F040FC61690C9E886D40198865B1F85C2005EB05474FF0FF33C6EAA0
:200F80000240A0FA47F01FFAA0F213FA80F0A1F85C2082B22281B1F85C000A818018A1F869
:200FA0005C0000F069F80CE013F07EF90EF0BAF807E012F0ABFF04E05145002012F0A6FF9A
:200FC0000A96DDF82880D8F804008047E1690A68002313710968E161D8F8081088470F9AE3
:200FE000109F202100201140384008BF002916D012F05EFC13E0184B184A93F90010491E2B
:20100000197092F90010491E117093F9007017B9134900220A80002101710EF083F80F498C
:2010200091F9000038B10E98002806BF0D98002891F9000005E00B4800210170084601F04A
:2010400093FF0C49002013B00870BDE8F08FC0465C2C002040470100BE310020BD310020D7
:20106000222C0020BA3100204C4500202019002052450020543200202DE9F04FC04D68695D
:201080002C89E969AE89806DADF1340D22468919083156F0A9FB6969886D00198865E969FA
:2010A0003619B6B201220BA88919083156F09CFBB44CE969761CB6B20122601C8919083125
:2010C00056F092FBE969761CB6B2042204A8AE818919083156F088FB9DF813109DF81000EF
:2010E00000EB01606B699DF81210361D00EB01409DF81110AE8100EB0120049012F0D4FE41
:20110000D863049812F0AAFBA3F84000EA2012F072FC9D49022008709C480078A94638B148
:20112000207810B96078FF2802D0042089F80300D9F8144099F80300217C084320749DF90A
:201140002C0013F0E7F984F8460004F17407A765666821899DF92C00DFF8ECB284F84800CF
:20116000B4F85C004FF0000A401A801901466060A08984F847A04212530818D2020952D3CF
:2011800010F0070F07D000F00700032812BF081C6068401C43E06168C87800F007024010B2
:2011A00000F0380000EB42004018001D37E050082FD361684878C7112BD12589616650468C
:2011C0004B780A7803F07F035B0003EBE2137E2B0DD07F2B09D002F07F0280188918801CC6
:2011E000891C80B28542EBDC09E0514600E0012184F860102189801C80B2814201DA504670
:2012000005E06168091861602189091A2181A4F86800606E10B1B4F86800B8B16068606136
:20122000A08900091AD294F86000002800F01C8120460FF051FAD9F81440E06C002800F0B6
:201240001381B4F85000002840F00E8113F01AF85046C9F814000DF065FF82E150465646A1
:20126000059094F82470069005A906AA07AB0796204602F07FFC002840F0E980B4F85C10CA
:2012800060690091019026896168401A311A88B202900698001D03900598A36DA1693A46F5
:2012A00015300BF057FA002840F0D180584694F860502689C15D701A208115B120460FF0F7
:2012C0000BFAA58905F00705032D02D160680078E07394F80F80732009A911F0FBFB83204A
:2012E0000DF12D0103F04AF9DFF87CC251460AE0C278012A03D1002F08BFDC2028D0001DB6
:20130000491C0990C9B29DF82D00884240F39E8009988278032D07D00378AB420DD09CF8FC
:2013200000600EB1022D08D0032DE8D10378032BE5D103465B784345E1D1BB10B3EBA20FCF
:2013400005DA02F0030207F003039A42D0DD504680460598E77B90F814E0514601E0491C7D
:20136000C9B28E456EDD06694B00032D06EB03020ED1F35C032BF2D15278BA42EFD110E05F
:201380003845002030320020AB470020943100201278AA4205D09CF80020002ADFD0022D30
:2013A000DDD10698077C002F08BFB8F1DC0F4DD0A069B0F1FF3F43D0712008A911F08AFBF4
:2013C0006A48078947B3089D51468446059A95421CD19CF80AE0BEF1000F08BF50460CD0F3
:2013E0000698C2687346504696888E4205D05B1E02F1080200F10100F6D186451ED0069A8B
:20140000D268A36952F830209A4217D87F1E05F12C0501F10101D9D1C2000698A169C3682A
:20142000491CD150C0681058B0F1FF3F02D107980121C17084F801A0504609E0DB2007E074
:20144000DB2004E0DC2002E044470100DD206070D9F814406070A0696778606527B1F220EA
:2014600012F0C9FAD9F81440414D95F8800330B1D5F8C81319B120468847D9F81440A1890D
:201480000A9411F0070039D0401E51D0801E4BD1C1F30130022803D16068007807282BD017
:2014A0002089002840D0204641684A1C42600F78A446C7739CF8246076B9002F34D00A2FD6
:2014C00032DA01895E46F01DC05D884208D0082F2AD1082904D027E0C07B28B30A2823DA83
:2014E00020460189491E0181C17B0B3101700A99C87B401CC8731DE032201AE095F8F903DB
:201500000F280BD012F0EEFC40B90A988189091301F00201022901DA2969884795F82F04F1
:201520000A9C2074152004E00AA810F03BF913E0162020700A9905F1840056F09FF80D4C66
:201540006068804795F88C10491C85F88C10A1688847202012F0CEFD5046C9F8140012F003
:20156000DFF90DB0BDE8F08FA01C00206031002020190020142B00202DE9FE4FCE4C0746A3
:20158000B4F85C000021820804D2B7F89E20D20828BFE82110F0600F04D1B7F89E00800872
:2015A00028BFE821CB483B8900F10E0212889A42B8BFE82197F89C0030B997F8980000280A
:2015C00008BFF52100F0B881002940F0B581D7F8AC1094F8800311B9012803D028E00028E6
:2015E00000F0A98197F89800002818BF032806D1D7F8AC0040F00A000146C7F8AC0011F041
:20160000FF0F08D02A20D7F8AC6087F83C0006F0FF013964314611F47F0F07D00420D7F89D
:20162000AC6087F82C0006F47F00386394F88003002540B397F898606068042166B92522DE
:201640003A75C08AC00934BF94F8110494F83A0487F86A00801C08E015223A75C08AC00904
:2016600034BF94F8110494F83A0487F86A0087F86B100A2207F1700087F8695007F19001D4
:2016800056F0B2F801E001203875AB46B7F89E00C7F858B097F8A060C7F850B097F8A130F8
:2016A000F88297F82C10FE767A683B770F293A6200F0BB80B7F8A81007F12C0A284601B921
:2016C0000120002F06BFE8210191CDF804B0BAF1000F00F0A7800199002940F0A58060B1E7
:2016E0007868401E7860F82101707868401E78602E4606703889801C3881AAF108054FF04D
:201700000208D94615F8080F00F00F010F2900F08680012822D004287BD194F88003002884
:2017200077D0D4F8981368688847061C5DD03889B7F84C108019801C814256DB7868D4F85C
:201740009CC369683A465B46801BE04700284CD078683989801B8919786059E00AEB09063E
:2017600004235846F61C16F8011FFF2941D021293DD13989B7F84C200B318A4235DB7968FD
:20178000B4F82824491E796012120A707968491E796094F828240A707968491E796081F866
:2017A00000B094F82A147A68117094F8262479681201491E796042F00F020A7094F818C41D
:2017C00094F8F9237968491E796042EA0C120A707968491E796021220A707968C01D80B2AE
:2017E000491E796005220A7001E01A259FE05B1EB9D17968C0F30122491E796042F08802B3
:201800000A707968491E7960087039890918891C3981B8F1010809F108097FF473AF786841
:20182000B86501E0E8200190019D002D7FD197F83C00FF2802D1B86D00285ED017F13C066C
:2018400014BFD9464FF0E809002F53D0B9F1000F52D17868401E78603F210170BD6D002DFA
:201860000CBF802159467868DFF8D8A0083E401E7860022501703889A7F85450801C3881C1
:2018800016F8080FFF2832D02A282ED1706860B3D4F898138847804678689AF80020A0EB95
:2018A00008007860716849B9D4F89CC33A465B46E04768B110E0C04620190020D4F89CC367
:2018C000786871688DF800206B463A46E04718B9EB252CE0603100203889B7F8543040443C
:2018E000388103EB0800A7F854006D1EC8D17868386501E04FF0E8094D46C5B997F89C1048
:20190000B7F89A3007F19002384600F0D5F9051C0DD10D483989C089884203DB384608F00B
:2019200043FC04E0E520787038460AF0EDFF291C02D1BDE8FE8F182138460AF0C1FEBDE8D4
:20194000FE8FC04692310020603100202DE9F04FB84C0546A07AADF1340DC00055F0AEFF11
:20196000DFF8D492089009F10400006880470B900AA9822002F002FEBDF82800002834D179
:201980004FF000084FF6FF76ADF8288024E0ADF81460BDF82800ADF81660FF210822ADF8F5
:2019A000100006A855F03CFFA77A57B143461946089AC8007F1E01F1010113501044868020
:2019C000F6D18DF82480D42004A901F069FDBDF82800401CADF82800A088BDF8281088423A
:2019E000D5DC82200AA901F05BFDB04FDFF8C0B2002026464FF6FF79A2463988ADF8280091
:201A000006E0AA4FBDF828003988401CADF82800BDF828008142DCBF8748816840F33C813D
:201A20009BF800004FF00008012744460EE08249B08889687F1CBFB2A9E0BAF80600641C6B
:201A4000A4B23BE09BF80000641CA4B2A04208DC002FD6D1B8F1000F2ED1687F0028D0D0AA
:201A60002AE0BDF828008DF802406946ADF80000D02002F083FD0028E4D19DF80C30012B28
:201A800008D19DF80B0028B90DF1030012F08CF80028B6D1697B00290CBF052209224746FF
:201AA0009942CFD10DF1030005F10E0155F060FE0028C7D04FF00108F0880024A0425DDD43
:201AC000BDF82800ADF802406946ADF80000D12002F054FD0028B0D1BDF804008145ACD016
:201AE000ADF8100004A9D42002F048FD002858D106A8291D082255F03BFE00289DD0288827
:201B00006F88ADF81400B8F1000FADF8167023D0287B96F80AC08DF824005FEA0C0008BF7F
:201B200000200FD00899024600208B88994509D0BDF828709F4205D0521E01F1080100F174
:201B40000100F2D184452CDD0899AA69C000BDF828700A5040188780D42004A901F0A0FC47
:201B6000B8F1000F0AD0287F9DF80610884205D08DF806006946D12001F092FCF088A042DE
:201B80007FF43FAF2C49B08889680027BA46B84240F38080ADF81070D42004A902F0EEFC50
:201BA00018B125498968192477E006AB184611F0FBFF38B9291D1846082255F0D9FD00285D
:201BC0003FF435AF28886C88ADF814002B7BADF8164096F80AC08DF824305FEA0C0208BFA1
:201BE00050460ED0089950468B88994509D0BDF828409C4205D0521E01F1080100F1010043
:201C0000F2D1844503DC0C4989681A2445E0089A291DB8F1000F0CBF5346AB69C000135075
:201C20001218BDF828009080082206A855F0DCFD544605E060310020142B0020641CA4B232
:201C4000F088A04220DDBDF82800ADF802406946ADF80000D12002F091FCE82803D0BDF80D
:201C600004008145EAD1BDF810008DF807A02B7FADF8040004A98DF80630D42001F010FC42
:201C8000D120694601F00CFC0A488168B088A0427FF7D0AEB842B8D000240B9888470898AA
:201CA00055F020FE20460DB0BDE8F08F683100206B310020142B00202DE9F04F0546ADF168
:201CC000240D884692F80890287D04933528039205D0114605F170000A2255F085FDDFF859
:201CE000A8C238F07F0706BF604600884FF6FF700590E88A800934BF002008202876E88A4A
:201D0000C00834BF102080206876E88A400903D260460E30007800E00020A876E88A410895
:201D20002CBF20240024000928BF44F010046B68287D4FF0000B08F07F085F1E02280DDB48
:201D40000D2808DA0C2804BF44F408544FF0020B44F0030403E044F0010400E0044395F88A
:201D60008C0008B144F00804E110220900D320B1A74E96F8243413B908B1DF203DE1490850
:201D80006ED305F12401DFF88CA295F88D70069100EB0A011AF807300A7999182B89491D34
:201DA000CAB299189C4B1A8807908A42C0F2278100284CD0049A039905F1840008F05AFA6C
:201DC0000699002808603FD0806AB0F1FF3F39D068680023401E8FB195F88E10524600F8A7
:201DE0000119D15D491EC9B241B14A1992F88320491EC9B2002900F80129F6D106996866D6
:201E00000968896AA962090E00F8011995F82A1000F8011995F82910079A00F8011995F84B
:201E2000281007F0030700F8011902F0070141EAC701017069682F89091ACAB26860B91838
:201E4000298105E0DB2700E0F3276F70D8E00023E88A6B70C00828BF44F010046F687F1E85
:201E60002B6DABB9AB6D9BB996F83D14012903D12889B0F5EE7F06DA200904D202290BD174
:201E800044F4005401E044F480544FF0010B03E044F408544FF0020BB07801280CD096F800
:201EA000800348B195F86B00042805D124F480544FF0020B44F4005444EA8834B8F1020F44
:201EC000A4B20AD0B8F1030F10D1FF1F06F58661384655F0AFFE7F1E08E0B6F81604001267
:201EE00007F8010996F8160407F80109BBF1020F0CD0B8F1000F15D0B9F1000F0CD00499C0
:201F00000598814208D144F040040BE0B9F1000F08D1B8F1000F05D00599081207F8010945
:201F200007F8011944EA8924B9F1020FA4B209D0B9F1030F0ED10399FF1F384655F07AFE33
:201F40007F1E07E003980188091207F80119007807F80109B9F1000F05D00498011207F8E8
:201F6000011907F80109287D80B9286D28B996F80004411C86F800140DE096F82504411C68
:201F800086F8251407E0C046321D002096F80E04411C86F80E1407F80109201207F801094D
:201FA0003C7068682B89C01BC1B26F6058182881200921D3A86D00B1286296F8800310B17C
:201FC000287D0D2818D1686A816A4A1C82622A89286AA962C61B0092921B019090B2029062
:201FE000686A95F88C203B46153009F0C5F900281CBF6870071C07D10020687005E0E5279A
:202000006F70F32011F0F7FCF8B209B0BDE8F08F20190020404701006E3100202DE9F04F5E
:20202000CB4D07466868ADF1140D80470024DFF8CC820390002F88F8034000F0C18010F0E6
:202040000BFC08F53B702146402255F0E9FBAC4D29892C20484380B255F030FCC8F81003E7
:20206000E97A28894843410001EBC00188B255F025FCC8F81403E98828894843800080B2FD
:2020800055F01CFCC8F818032889800080B255F015FCC8F81C03288980B12246D8F8101333
:2020A00089180C75D8F8101389180C71D8F81013401E114402F12C028C81EFD1A946B9F8B9
:2020C0000410880000EB011080B255F0F7FB4FF6FF7AA3462546C8F8200320E099F80A006F
:2020E000C00055F0EBFB99F80A70D8F82013AE0006EB05168919C8607FB12146D8F82003D9
:202100008019C368CA0042F803B0C0687F1E01F101011044A0F804A0F0D16D1CADB2B9F8A1
:202120000400A842DADC8948FF210822C01D55F077FB8648FF21082288F8FB12103055F022
:202140006FFB0323B9F8087088F80C33A8F80EA3B7B1012604252246D8F81C0391000E54B4
:20216000D8F81C0340184570D8F81C0340188370D8F81C037F1E02F101020844C570EBD16A
:2021800072480121042505220227343000F8041F457082707F1EC170F8D16C4880F83C3095
:2021A000B9F8040048B12146D8F82023401E0A4401F11401A2F802A0F6D1022088F8F002AD
:2021C0000DF052F998F92E0411F008FF0FF008FC11F060FB11F04AF910F054FB494E072537
:2021E00056F8040B00B180476D1EF9D111F0D0FC454605F15400016809B10FF0D3FA42489A
:20220000006885F85E40C0B112E0304655F000FA029002A80FF0C6FA1FE0304655F0F8F97D
:20222000019001A80FF0BEFA12E068460FF0BAFA55F0ECF800280090F7D134480078012894
:2022400002D0204600F090FE314805F180060470D5F880000028E0D1361DD5F8840000286D
:20226000D3D1C5F88040C5F884402B4FC5F8907185F88A40294EC5F89461294BC5F898311A
:2022800085F88B40274AC5F89C21AC702148C5F89800294AC5F8C8202349C5F8A01185F8C2
:2022A0008C402649C5F8CC10204FC5F8A471244FC5F8D0701E4EC5F8A861224EC5F8AC414D
:2022C0001C4BC5F8D4602249C5F8B0311E4B0398C5F8D8308968C5F8B441884705F2154115
:2022E000522002F0E3FB95F82F040EF0F3FB0DF0BBF8204605B0BDE8F08FC04620190020A2
:2023000060310020301A0020A047002054320020AA4700200D4501003FDB00007F440100B3
:202320008D2C010079150000F19B00002D3401001D2001009569000047CB0000B1A80000C0
:2023400069E3000035C300007DEB00000C1C0020142B0020B0B50446C6480768ADF1480D0B
:20236000002F00F085812078401E112800F28081DFE810F063014F01350120011901030126
:20238000F100E300C300B2008D005D00530042007E012A001C001200F86B002800F068813A
:2023A000684621460AF02EFDF96B5FE1386C002800F05E816846002101220BF087FB60785D
:2023C0008DF80000396C51E1F86A002800F05081684600210E220BF079FBA11C684611F07C
:2023E00077FBA57BA1890022ADF80A1005B101228DF80C20F96A3AE1B86B002800F0388144
:202400006846002102220BF061FBA5788DF8015060788DF80000B96B28E1786B002800F0FA
:202420002781684621460AF0EDFC796B1EE1386B08B36846002114220BF048FBA5788DF8D6
:202440000150A3680193A289ADF80820A17B8DF80A1060788DF80000E57B8DF80B50237C9D
:202460008DF80C3094F911208DF80D2061690491396B684688476068002800F0F98001460B
:20248000F2200870002048700FF01EFAF0E0B86A002800F0ED806846002124220BF016FB2B
:2024A0006078A11C8DF800000DF1020011F010FB04F10C0103A811F00BFB257EE08A04F140
:2024C00019018DF818500B22ADF816000DF1190009F0B0FDB96AC9E0786A002800F0C88042
:2024E0006846002102220BF0F1FAA5788DF8015060788DF80000796AB8E0386A002800F07E
:20250000B7806846002112220BF0E0FA658862796078ADF8025023798DF80520E11D8DF84C
:202520000000A5798DF804300B220DF107008DF8065009F07FFD396A98E0F869002800F0AE
:2025400097806846002101220BF0C0FA60788DF80000F9698AE0B86910B120460DF040FC13
:20256000A07820B9A069002800F0828002E0A06900287DD010F02AFE7AE07869002877D015
:202580006846002113220BF0A1FA6D46A01C0168406829600B22686004F10A0102A809F000
:2025A00049FD796962E03869002861D0204608F08FFF5DE0F86800285AD0684600210E22DD
:2025C0000BF084FA6078A11C8DF800000DF1020011F07EFAA089ADF80C00F96846E0B8686E
:2025E000002845D06846002114220BF06FFAA01C01686D46296040686860A07A0B2204F128
:202600000B018DF808000DF1090009F013FDB9682CE0786860B36846002110220BF056FAA5
:2026200060786588211D8DF800000B22ADF8025001A809F0FFFC796818E03868C0B16846B9
:20264000002119220BF042FAA01C01686D46296040686860A07A02A90FF0FDF80B220DF132
:202660000E0004F10B0109F0E5FC39686846884712B0B0BD443100202DE9F04FBF4DDFF857
:202680000493C14C4FF000084FF0010AADF11C0DE0694FF0FF3112F04FF8D9F804008047A1
:2026A0006789E688A288A4F80A802189A4F80680114347EA010246EA0201A180D9F80810DB
:2026C000A4F808808847A188080A03D34FF67F700840A08008200927ADF80000D9F800107C
:2026E000ADF8027068468847DDF808B00028CDF80CB039D120789DF80620616A904233D112
:2027000039B1A078401E02D0401E02D126E05846884758460AF05EFA071C25D00C2010F0AF
:20272000C5F9061C1DD0D9F804008047B7603B7883465BB92069314611F0FAFFA08840F037
:202740001000A080E06911F0EFFF05E0304610F06DFD384610F06AFDD9F808105846884711
:2027600002E0384610F062FDA38858092ED3206911F0D6FFE8B9D9F8041011F029FDC0B988
:2027800088470646206911F0C7FF071C0DD0B8684068A061B968486849880AF025F8B8682C
:2027A00010F044FD384610F041FDD9F8081030468847206911F0B4FF20B9E06911F0B4FFDB
:2027C000A38803E0A38823F01003A3809808C0F0968080E004A851460FF09AFA2878002813
:2027E0006DD0401E71D0401E5ED0401E47D0401E1ED0401E6FD19DF810006978A8706F689D
:20280000A868C91CCEB20590314611F0E5F99DF81010814205D147B1059930464246B84777
:2028200003E05748006810F011FD85F8008052E0AF68E8789DF81010C019C170E878401C7F
:20284000C3B2EB7010F042FD6978C6B2C91AB1420CDBD8193146C01C0FF05AFAE87869787B
:202860008019C0B2E870814224D034E0DB1989B2DB1C18460FF04CFA6878E8701AE09DF89A
:20288000100085F803809DF810706870F81C10F0D1F80028A86008BF85F8008020D0697899
:2028A000017085F800A016E09DF81000A9688870687810B9052028700DE00420FBE79DF8F8
:2028C0001000FE2807D10320F5E79DF81000A968487002272F7010F0F9FC00287FF47AAFFC
:2028E000A38810F0F3FC30B94FF6FD70184023F00203A08003E0E06911F016FFA388180905
:2029000027D3606911F008FF071C15D0216A69B1607858B1401E02D0401E0AD103E0B868F2
:202920000EF0A4FB216AB868884702E0B8680EF09DFB384610F07AFC606911F0F1FE20B962
:20294000E06911F0F1FEA38803E0A38823F00803A380D808FFF49CAE4FF6FB701840A0807F
:20296000206911F0DDFE00287FF492AEA08840F01000A080E06911F0D7FE89E67C31002034
:2029800084310020142B0020942200202DE9F84FB74E0F460546F80B80F02F81A849B24C19
:2029A000DFF8B4820878B90F80F0D380B90880F0C780DFF89092DFF890A2DFF8A8B2F90A51
:2029C00080F09B80B90B80F08980790B53D2380C42D23809C0F02D810FF0D0FE002836D094
:2029E00055464C46032128682170783011F062FD08F012FC0220002110F0EEFA02200FF00B
:202A0000EFF9112007F068FD9048007818B92868403011F06DFD8E48007810B90E2007F079
:202A20005BFD607B20B10020607305200FF0D8F940460022874BB0F91C102270B0F91E0002
:202A40006360814214BF022007200BF0CDFA27F008070CF023FCECE040461030016839B1EC
:202A6000C86840880028FBD0C86840880128F7D027F40047EDE728B104200FF0B1F97049EE
:202A8000002008700FF0E0F940B1A8696FF4807100224FF0007306462846B0476F4870497B
:202AA000002211F011FD2268484602215C4601702668106B804755466C492B680A689A4296
:202AC00014BF0122002226B1801B01EB8201000B8860002027F480572060BAE732684AB142
:202AE000906838B11069B2F934109268202314460022A04727F400579BE011F0DFFC009094
:202B0000404600680646A8B15546286810B1783011F0D0FC20683169006B296080475C4642
:202B20004946544A2060091D53480A604FF4006111F0E6FC009811F0EBFD27F4806778E05B
:202B400005F0F6FB40460830006808B927F002076FE04A4A116841F08001116028B104200C
:202B60000FF03EF936490020087011F0A7FC8146606D0068014604208847D8B1287CC8B188
:202B80003F480668B6B12068006B8047801BE968E860E868000BE860E868884203D2401801
:202BA0004008E860E86840F6C41181422CBFB0F5967FE960484611F0ABFD0FF045F988B1CC
:202BC000A8696FF4807100224FF0007304462846A04740460068002808BF47F0020701D02F
:202BE0000CF05CFB686900214FF0806304460A462846A04727F000571BE011F05FFC36681C
:202C00009EB1B16A890810D2B56AB16AA943B16211F07EFDB06850B14DB13069B6F934107F
:202C2000B46800232A46A04701E011F071FD27F480471FB11048394611F062FCBDE8F88F9A
:202C4000D94600202C470020C8460020D84600208655010075890000804500200046002011
:202C6000ADAB0000D04600208C010010E044002098450020F977000044440020CC2108409B
:202C8000CC460020B3492DE9F04F09781346ADF1240D814240F05A8158781F789E78069027
:202CA000FB2F079680F23A8100F01E004FF001090A2880F22F810698A74900F01F0051F88F
:202CC0002060002E089600F02581069ADD1CADF80C70079E8DF8082028468DF8096032F088
:202CE0007F04049000F01281002F4FF0040A00F0F78001781B798DF80B1021F007048DF809
:202D00000A30083C00F0E580DFF85082083C4ED0083C07D0083C40F0D980032F08BF4FF0B5
:202D2000000ADDE0032F40F0DB80841C04944446257DADF80C900027012D30D1257F954299
:202D40002AD1627FB24227D1E27F514011F0070F22D1A17F99421DD18078A8B1401E12D035
:202D6000401E032818D9001F02D0401E14D008E0607D1B1AB3F1FF3F06D007200CF00AFFC8
:202D8000A2E008270EE0B94602A8494609F0A0F9074604E0032705E007200CF0FBFE002F3F
:202DA00000F092803A4602A8202100278AE0042FC0F296808346A81C54F0CBFE44460546AB
:202DC00020783F1FFEB2002701282BD19DF80810227A914223D19DF80910627A91421ED1A5
:202DE0009DF80A10A27A914219DB9DF80BC0E37A9C4512D1A3899D420DD1914206D0A17815
:202E00008E420DD0A1888E4205D109E002202070A1788E4204D0574602E0022700E003272C
:202E2000216927B99DF80A30042808D020E0084610F0DCF9504620709DF80A30A372ABB9C4
:202E400002A90EC904F1080080E80E0028460FF005FE2061002804BF2078062708D00020E4
:202E60006070A670A580A581207005E007B90327042823D002281DD02169A0789DF80A202B
:202E8000884612FB00F080B2324640180BF1040109F0D0F89DF80A00A072A088801B86B2F7
:202EA000A68036B9CDF81080ADF80C500627D14602E02078042801D04E46267004F10800C5
:202EC00018213A460FF020FDBA4609E04FF0050A06E07F1E401CADF80C704FF0060A049003
:202EE000D146B9F1060F15D1089902A888478146049878B101901A4808210527ADF8001073
:202F00000168ADF802706846884703E0089902A888478146B9F1000F02D10FE04FF0040929
:202F20000698079F8DF81490002103228DF8150005AB8DF81670602002F052FB09490888E8
:202F4000401C08800020022154F07CFD09B0BDE8F08FC04694220020E82F00201045002028
:202F6000142B0020EC2C00202DE9F04FAA4C05466068ADF11C0D80479B4FDFF87C92012DD1
:202F8000069000F0D48010F0EBFD002800F0CA808F480078A0B98F48007888B99F48007876
:202FA00070B98D48007858B98C48007840B98C48007828B98B480078002808BF012000D0ED
:202FC00000203D46A969002801F13C0100F0AA80864E0868347880477168DFF818A2A50005
:202FE000401AB0FBF5F7F168B0684FF0000842460D461646AF42B24101DA884207D8024641
:20300000434631469742994142DA114600E043460A46D21B73EB0803104619462246E31764
:2030200010F0E6FD272507464FF47A7200238846ADF80A500820ADF8080038460BF0BAF8F5
:2030400075490968039002A88847049833464FF0000100F6FC02BF1A78EB0308784271EB8F
:20306000080112DA62480268414638460BF0A2F8884607464FF00001784271EB080104DA55
:2030800038460DF0B3FF002000E001205446207054462078002845D10027384654F0C2FBA2
:2030A00000B101274FF0000AA346381C38D14D462878002834D14C488069504C436C6068B8
:2030C000022102AA98479DF8080048B346484C4E826996F900106068574611F1020F18BFA9
:2030E00001274FF0010837B1926B96F9001090473D4882696068434F97F9001011F1020F88
:2031000006D0926B97F9001090473748826960686FF0010139703170D16985F80080884782
:203120008BF800A03C490698896888474DE0012054F078FB21460698896888474D4628788C
:20314000012834D110F082F938B1287801282ED10020287010F010FD29E020464068804772
:20316000002402268146DFF8A080B869A8F80240416E2E7002A888470294B8698DF80C60D4
:203180001E4AD0F850C03346101D8DE818001F4B0068414602AAE0471D491F4E91F9000033
:2031A000401C0870B168C7F804804846884710F04DF950B929781748022908BF0178007850
:2031C000012802D028780228FCD007B0BDE8F08FAB470020AD470020AC470020BA3100203F
:2031E000BB310020BC3100205C2C0020F4300020102F0020AE47002055320020103000204F
:20320000B8310020B9310020C02B00202D120100BD31002054320020142B0020AF47002027
:203220002DE9FE4F0546287D012807D195F917000EF0BAFBB0F1FF3F00F016819548EF7B35
:20324000017895481FB990F88B208A4208DB012F03D190F88A208A4202DBF120BDE8FE8F3C
:2032600080462E6A95F83500B5F8289095F83470AC8B4FF0000A5FEA060B029017D098F8B5
:203280008033002B2FD0D8F8981300292BD006F0FF008847D8F8981306B20BF47F0088476E
:2032A000361830B2001D00B2C83086B200E0C8260CB1241DA4B298F82404012809D147B10A
:2032C000764802993F1897F804A0405C8019401D86B209EB040080195044801C80B254F00A
:2032E00015FA071C02D11A20BDE8FE8F09EB0A0033193881002C03EB070078600EBF002074
:20330000B819801C00217822C7F8A40007F10C0054F086FA09EB0600FF2110220019A7F856
:203320004C0007F13C0054F07BFA07F12C000F21102254F075FA00243C707C707868696AAC
:203340002A8D54F051FA07F1840005F12C010B2254F04AFA07F19000294610F03FFB6889B1
:20336000A7F89A00287B87F89C00687B05F10E0687F89D00326869460A60706848609DF885
:2033800000102046012908BF01209DF80110012908BF40F004009DF80210012908BF40F012
:2033A00008009DF80310012908BF40F010009DF80410012908BF40F020009DF8051001296E
:2033C00008BF40F040009DF80610012908BF40F080009DF80710012908BF40F48070A7F80A
:2033E0009E00A87D87F8A000E87D87F8A10095F8380087F86C00AA8BA7F8A82022B1D7F878
:20340000A400A96954F0F0F9A87F87F8AA00286AC7F8AC00B7F8A800C0B1D7F8A400A8B1E8
:203420007868401E7860F82101707868401E78600470B7F8A810B7F8A8607868401A786032
:2034400038898019801C38817868B865B7F89E00410A16D395F83710042905DD00F0040167
:2034600000F00100084302D0E820BDE8FE8F08F1900630460AF032F995F83710304610F090
:2034800065F898F80000394654F036F82046BDE8FE8FC0466031002020190020404701001E
:2034A0002DE9F0410D46904CDFF848C2DFF84082A188D128074613DCDFF83CE2D12800F0E0
:2034C000A280713800F0E280401E00F0DB80401E00F0D280113810D04C3800F0AF8007E0D3
:2034E000D2387AD0401E61D0401E34D0401E2CD0384610F07CFDFF2802D1F420BDE8F08112
:203500007A4C04EBC004217909B9E08860B1E088884208BFFB2000F0E5802A78914200F38C
:2035200095809042C0F29280744E706880472378628807464046A0F138015818294654F03A
:2035400053F9B16838468847CBE0297802297DDA40466C1C6EE02888814277DD6746AA88E9
:20356000D7F820338100860001EB001106EB0016D7F820035A52E988D7F82033801908222A
:20358000418005F108019819001D54F02DF9D7F82003A27A29698019C068D20054F024F99F
:2035A000297DD7F82003801901749AE02E882189304681424ADD6746D7F810032C24A91C87
:2035C000102204FB0600153054F00EF96969D7F8100304FB0600816283E029882289A878A9
:2035E0008A4233DD022831DADCF810332C22471C00EB410602FB01331F75DCF81C130222D4
:2036000001EB460035E02A882089698890421DDDE3888B421ADD704600682C2404FB0200AD
:203620008489A142A4BF4C1C8481DCF8180302FB03112C1D00EB810004221BE02988228998
:20364000A8788A4202DDE27A824202DCE820BDE8F081DCF810432C23471C01FB020603FBA8
:2036600001442771DCF814130A22700000EBC6004018EC1C254631E0002D32D0404608226A
:203680002C46F7E76DB37046103026E025BB27893FB3E588E47A00231A46DCF8100302FB0A
:2036A00004F6710001EBC601DCF814638919C150DCF8181302FB05F601EB8601DCF81C6331
:2036C0007F1E184403F12C03816006EB820102F101020161E1D104E070460422294654F0FC
:2036E00083F80020BDE8F0816031002000480100441C002020190020301C0020142B00207B
:203700002DE9F04F05468E4C6F780026ADF12C0D3846312810DC312800F0C780002800F0E0
:203720000781401E00F0FD80401E00F0F680B0F12E0700F0D280EEE0323800F09F80401EB5
:2037400040D0401E012816D9801E40F0E480A88802280DD12068002808BF182109D0A868E0
:2037600054F0F7F92168884710F04AFC014600E027213620CCE01034206800B3A86802A9CC
:203780000FF06EFF342F034608BF9B1C13F8012B352F03D1A988901D884208D0342F04D16C
:2037A000A98802F10800884201D0272108E0246802A803C8A04710F023FC014600E01821AB
:2037C0003846A5E0A88808284AD10C342068002844D0A86802A90FF043FF024654F0B9F92D
:2037E00095780990F82DC8BFF825DFF8588104204FF0080AAF1CADF812005FFA87F9D8F80A
:203800000010ADF810A004A8CDF814908346884710BB069F07B3BB1C0093099A246802A829
:2038200003C82B46A047041C07D13C70494633203A467D7010F04AFD02E010F0E1FB044623
:203840000520ADF812004546ADF810A029680597584688472CB96EE01A2402E0182400E0A3
:20386000272408A8314602220AF030F98DF82040332008AA022110F029FD5CE0A888314679
:2038800005280BD11434206840B1A86804A90FF0E7FE226804A803C89047014602A854F0B0
:2038A0002AF93220042102AAE5E7A888052811D108342068002808BF18210CD0A86802A934
:2038C0000FF0CEFE226802A803C8904710F098FB014600E0272131201AE0A888092815D1B3
:2038E000241D2068002808BF182110D0A86802A90FF0B6FE54F01CF92468024602A803C8E7
:203900003346A04710F07CFB014600E02721302010F010FB0FE026260DE00B4A0220052141
:20392000A9E702A8432154F00EF902AA0120A1E701200EF06BF930460BB0BDE8F08FC0466B
:203940001C1F0020142B0020785501002DE9F04F794C02204FF0080AADF1340DADF80A00C4
:203960002168ADF808A01020039002A8884700280CBF049F00270126A14602A8ADF808A073
:20398000D9F80010ADF80A6088479DF80C106B4C04982170606067B1D020387000257D7051
:2039A000B970FD703D710220BD603946FD600DF08BFF304610F0A6F9A046E22008F10C011E
:2039C00010F032F8182052F0F5FE88F801005C48C8F808000CF0D2FA5C4D5A4802273822CD
:2039E00045625B4C47705849628003780162594D867004276422237058492F70564C2F75FB
:203A000004F10C0054F0B0F84FF0000B544DA0606F68544C8DF81CB06FB107A8A11D0090E9
:203A20000AAB0A6889881A600AAA998092E8030033465A46B8472A684AB1A11D0AA80B6802
:203A4000898803600AAF818097E80300904721680DF11D0001602779077143480068400887
:203A600005D341208021062207AB01F0B9FD3F4C04F1140004F1080108F0D8FD606058462E
:203A800054F02EF85E46A51E074605F802BF02206870304654F02AF8014660683A46C9B26A
:203AA0000DF018FD761C022EEFDB314904F12000322254F059F84FF0FF3707260324ADF882
:203AC00008A00A20ADF80A00D9F80010039702A888470028F3D1ADF808A0D9F80010ADF8B2
:203AE0000A6002A88847049D00289DF80E209DF80C000695E3D198F8001091420ED198F885
:203B00000110814207D0D8F808104B6C33B159462A46984702E02846FEF71CFC0698002866
:203B2000CDD0ADF808A0ADF80A40D9F80010039502A88847C3E7C046142B00203C3100201E
:203B4000F02C00209422002035FE0000F93E0100E42F002010450020242F002085EE00005A
:203B6000241F002078550100A0310020D02D0020B17905002DE9F043044694F830900F46A3
:203B8000984615468B20ADF1340D0DF10A0100F0F5FC8A20694600F0F1FC94F82500002869
:203BA0003FD1B9F1000F19D1BDF80A104FF6FE70884205DCBDF80A10884230D1694615E0E7
:203BC000B4F844009DF80A608DF80E0000128DF80F00BDF80A008DF810601CE0B9F1020F52
:203BE0000AD0B9F1030F1AD104F128010DF10E0054F020F8092612E0207CC00934BFB4F899
:203C00004200B4F844008DF80E0000128DF80F00208D8DF81000001205268DF81100002004
:203C200016E002280CBF05260926012818BF04F11C0106D189200DF11A0100F09FFC0DF10B
:203C40001A0132460DF10E0053F0CEFD94F826000DEB060148733A460DF10E0031460AF04E
:203C600013F9002840F09380B9F1000F19D1BDF80A104FF6FE70884205DCBDF80A10884264
:203C800030D1694615E0B4F844009DF80A608DF8220000128DF82300BDF80A008DF8246067
:203CA0001CE0B9F1020F0AD0B9F1030F1AD104F128010DF1220053F0BDFF082012E0207CD9
:203CC000C00934BFB4F84200B4F844008DF8220000128DF82300208D8DF8240000128DF8FC
:203CE000250004203E68814603A9822000F046FCBDF80C10B0898142D8BFBDF80C00002841
:203D000045D007460024722029460EF0E3FEB068BDF80C100019C8F800000088814232DD21
:203D20002B68810001EB0011581828600146D8F800008278012A22D0C07840BBB9F1040F5C
:203D400007D0091D0DF1220053F05CFF012818D019E008884B888DF82A0004220DF1220145
:203D60008DF82C3000128DF82B0018128DF82D000DF12A0053F0FCFC012802D003E0C0784B
:203D800028B9002004E07F1E04F10404BBD1F3200DB0BDE8F08370477A4A2DE9F84F814691
:203DA000844C5068800806D2106804F15001000C40F0F0000870D2F808B0DFF8CC81744F50
:203DC000641E5E46B00E11D2700E0FD3802084F820004FF6D801A4F861103D462074A5F1A8
:203DE00070000068C0F3046008F0AEFE674D55F8180CBA46C0F3400018B966490020086010
:203E000001E046F040666449F00EB70E80F001004FF0805300F00100086087F0010000F031
:203E200001008860D3F8F06103F5F87072680090594648469047DFF86491DAF80070584BFE
:203E400039F83B2C07F0FF06101280F0C000B04211D002F0FF021968B04234BF01214FF0EF
:203E6000FF3140180102864281F4404142EA010129F83B1CEFD13809C7F30331C7F38446E0
:203E80006FF4017200F0F000014304F80810F90CA65401F0F00040F47040A4F86300DAF87F
:203EA000046028681F4620F0100828F4F070286057F8080C5FEA9B6002D25FEA5B6017D215
:203EC00055F8180C800834BF300AF00800F0F80040F47840A4F86100207800F07F0020705C
:203EE000207840F080002070C6F3044008F02CFE46F3050321783A6841F30500984211D05B
:203F00009842B4BF01224FF0FF3201F04001801800F03F020A4322702178834241F08001D7
:203F20002170E7D138683868C5F800801D4957F8080CDAF814004026C0F3053089F8A30F8B
:203F400043F61803E675009A0B8010688168584688471549154A0AE0105C9378141D8342AB
:203F600099BF204410F8010C20444078086008684B689842FCD10228EED10D49012008605A
:203F8000BDE8F88FAC4F0050FEFDFFFF28000940F813005094042A43000220436BA00C4024
:203FA000342009406AB00C4000600C40B455010094046042066208402DE9FE4F0E468046E1
:203FC0003068D8F80440D8F808B0E8B1B7680FB97568CDB194F894100020012908BF012070
:203FE000384202D17168084205D0012080F00100C0B2012808D110F061FAD4F8881031B1D5
:2040000010F086FB032030740020BDE8FE8F0125357400210291C4F88860C4F88C10C4F8CB
:20402000901010F075FB94F8AC0038B194F895206549D4F8A40011430DF062FC776810F062
:204040003DFA814694F8E00070B917F0704F06D12FB104200EF0DAF906200EF0D7F9022045
:204060000EF0D4F984F8E050484610F051FBDBF80010486840F002004860207800287CD175
:204080003068DBF81C10814277D9B7685D46002F14BFB84604F1AE0877682FB9E88904F1DC
:2040A000AE07A4F8AE003068616909292CBF022101215FEA0009019132D0DFF810A1606906
:2040C000092811D3DAF800004268398828689047DAF80000C16828680A4669469047BDF811
:2040E0000000A8F8000010E0DAF800004268397828689047DAF80000C16828680A46694612
:2041000090479DF8000088F80000B3680BB10198804473680BB101983F18B9F10109CED1A5
:204120002A68DBF80010D0684009FCD2486820F002004860776810F0C1F9054694F8E00001
:2041400078B117F0704F06D12FB106200DF048FE04200DF045FE02200DF042FE029884F877
:20416000E000284610F0D4FAD4F8881002980874C4F888000120029022E02046594603F0B8
:2041800017FEDBF80010486940F00100486120780028EFD1616804F16C0528460FF015FF6C
:2041A0000028E7D0D4F88800017C012904BF03210174404604F0C4FF029928460FF005FF80
:2041C0000298BDE8FE8FC04600000680C40100102DE9F04FDFF8C88198F8F903ADF11C0DEA
:2041E000049098F81804059098F8EF03069098F824044FF0000B01280AD198F8E0713FB1FB
:20420000664898F8E1113F18445C3D79641D01E05D465C4698F88A60082EA8BF072698F846
:20422000F873F000C1B278180019A13084B26019801C80B253F06AFADFF868A1DAF80490CC
:20424000071C08BF5C4600F0A3805946902253F0E7FA3819786098F8F8233D81D8F8F413E1
:204260007868841A801A53F0BFFA3C62C8473546D946641ED8F88060039016E0707EC00971
:2042800011D371684878C0F3810003280BD1E41F491D204653F0CEFC6D1EEDB2641E09F1E4
:2042A00010005FFA80F956F80C6C002D18BF002EE4D1DAF8081003988847DAF8040080477E
:2042C000D8F880600EB37168491C0A78C2F38102022A16D1727ED20906D2317E890910D39B
:2042E0004FF0010B6DB910E0497904F80119716849796D1E09F10103EDB25FFA83F904F8F1
:20430000011956F80C6C002EDDD1DAF80810884704F801990020069E049D04F80109059B87
:2043200098F8ED2398F8021041EA420146EA8101090141F00F0104F8011945EA03112170E6
:2043400079683E89091BCAB2B11839817C6004463C65F882BC650B22387508F5EC718DF877
:20436000080007F1840053F03FFABBF1000F03D0F88A40F00800F8820FF0B6FB6A462346B2
:2043800001463846FDF798FC18B1384653F038FA2746384607B0BDE8F08FC04640470100C0
:2043A00020190020142B00202DE9FE43DFF8C081704D0E46B00958D3444604F184074DE0AA
:2043C0000178D0290EDBD02909D181783970C17879700179B97085687D60C168B96053F0F9
:2043E0000FFA48E004F1580528600AF0ABFD28460DF0D8F93FE0884794F88C10491E84F8DB
:204400008C10A9688847009801788DF80410A0654378CBB1DC2B0DD0DD2B0BD0E42B09D08B
:20442000F32B07D0DE2B05D0DF2B03D0E82B18BFDB2B0BD105F0DCFB9DF80400162805D187
:2044400068460DF0AFF901E00AF07CFD9DF80400162803D004F158000DF0A4F9384653F063
:20446000D7F8002869680090C5D1F00BA9464446C00305D0404F52F0C9FF002800909FD181
:20448000700905D32E208DF8040001A80AF05AFD700805D325208DF8040001A80AF052FDEA
:2044A000B00805D326208DF8040001A80AF04AFDF00805D327208DF8040001A80AF042FD31
:2044C000300905D329208DF8040001A80AF03AFDF00908D300208DF805002D278DF8047054
:2044E00001A80AF02FFD300A08D300208DF8050030278DF8047001A80AF024FD700A08D3C5
:2045000000208DF8050035278DF8047001A80AF019FDF00A08D300208DF8050023278DF895
:20452000047001A80AF00EFDB00A08D300208DF8050036278DF8047001A80AF003FD606D54
:20454000D9F8041080B18847616D00270091D9F8081067658847009804F1580630600AF0F7
:20456000F1FC30460DF01EF90020BDE8FE83C04620190020142B0020703100202DE9F041B8
:20458000694CA288054671380E46022840F2C880133828D0674F4C3800F0A680401E00F06F
:2045A0008C80401E71D0401E5AD0401E2DD0DFF88081401E1AD028460FF019FD0546FF2D53
:2045C00011D05D4C60688047584A0746E800115C801842884346C918304653F005F9A168F2
:2045E000384688470EE0F420BDE8F0813278022A80F296804146701C383101EB82010422E7
:2046000053F0F2F80020BDE8F08131888A4240F38780D7F82023D7F8203388008D0000EB44
:20462000011005EB0115105AD7F82023B0805819408851190822091DF08006F1080053F012
:20464000D3F8D7F82013A27A30694919C968D20053F0CAF8D7F820034019007C3075D1E74A
:2046600035882089A8425BDDD7F810132C24B01C102204FB0511153153F0B6F8D7F8100344
:2046800004FB0500806A7061BCE730882189814246DDD7F81023B5782C2101FB0020007D5B
:2046A000A8423DDD3A463388B178D2F81C2301EB430102EB4101022230E0308821898142D1
:2046C0002EDDD7F8102375882C2101FB00208089A84225DDE288394633887488D1F81813DE
:2046E000301D03FB024288E730882189814217DDD7F81023B5782C2101FB00200079A842A8
:204700000EDDE17A3A463388B478D2F8142303FB0143590001EBC30189180A22F01C6FE771
:20472000E820BDE8F081C04660310020004801000C1C002020190020142B00202DE9F04F06
:204740008246ADF11C0D02F0D1FC5C4800780BF093FE5B4D0024012806D90C3804D0401E19
:204760000ED0401E09D006E00FF06AF9022804BF01210C1C06D0296806E005211F2401E00E
:2047800003210724284601604E4AD068C0F38150012804D112680120120E904004430FF0D8
:2047A00061FCDFF828B1DFF82081FF2240185B46401E471CC8F800007F1E03F8012BFBD149
:2047C000DAF80020002702F0FF03FE2B1CD0D4463B46012602F0FF05FF2D0ED0A84205D333
:2047E000A94203D806FA05F52C4201D0022062E002F0FF022F430BF802305CF8042F5B1CBE
:2048000002F0FF05FE2DE7D1092005F02DFF3048C0F800A0374801210DF0C6FF364D002699
:204820004FF00109B04609FA06F0044214D1074207BF06F0FF0141F4C0411BF806005AF86F
:204840002010244804F040FFF0B24FF0FF310EF0A3FFC5F8008001E0042028601A48006844
:20486000761C2D1D8642DED904A80FF0E3FB1A4C20781B4A05901948102104AB0CF056FDCC
:2048800068460FF00FFC6068174902901548CDF80C806A460CF096FE144951F80D0C20F4E5
:2048A000F85040F4005041F80D0C114AC1F8FF9F4046C2F8009007B0BDE8F08FA94700206D
:2048C000B4310020A84F0050B0310020C04500200C430020007FC767D45501003846002082
:2048E000B5370100AC440020490D01000D3009402C00094054460020904200202DE9F04F68
:20490000604DA869416EADF11C0D02A88847DFF878B1DFF878A19BF9000038B1514691F95C
:204920000000002818BF002040F0A980DFF87891D9F80400804705900026029631468DF834
:204940000C10534CA66604F16008A8F8026094F86C00012761F3030084F86C003A460692BA
:2049600094F87B0094F86C3067F3000062F3C71384F87B0094F87B2067F3410284F87B20AD
:2049800094F87B0061F3820084F87B0094F87B0061F3C30084F87B0094F87B0061F30410BF
:2049A00084F87B0094F87B0084F86C3004F17C0140F0600084F87B00F4200BF0FFFEA869CB
:2049C000344A076D354B344831468DE803001068414602AAB847334A931CD9F808101F78A4
:2049E00028800028894604D5059888473146069144E0514691F90000294B401C087093F9AC
:204A00000000002F00F1010018709BF90000C5F8048000F101008BF8000014BF8021311CE2
:204A2000A88E4FF67F730340194304F178030843A88618781646082267F3C71006F5866752
:204A400039461870B6F81204B6F81634A5F8420005F13700A5F8403052F0C6FEB6F81204B0
:204A60000822B6F81654A4F892003946A4F8905004F1880052F0B8FE0598C847069807B055
:204A8000BDE8F08F5C2C0020BF310020BE310020C02B0020143000202000430019450100FA
:204AA000BD31002020190020142B00202DE9F843614E80460F46B8F1450F08D106F51174BF
:204AC0003422204652F090FEC6F8F443B0E00EF09AFDFF2808BFF42000F0AB80B8F1E80F73
:204AE00000F0A680B8F1E70F00F0A280534C04EB8004A07808B9E17869B3E178814208BFAC
:204B0000FB2000F09680B8F1580F1AD0B8F1600F10D0B8F1E00F05D03A78904218DC9142CA
:204B200016DB18E097F900000CF03EFFB0F1FF3F0ED010E038880A280ADBB0F5804F07DAEA
:204B400009E038888F2803DB47F60251814202DCE820BDE8F8833C4D68688047814620783F
:204B600062783946301800F57B7052F03DFEA96848468847324A17794046503851D0801EF0
:204B800037D0401E4AD08D3843D0401E28D0401E22D0801F38D00D384AD10E208DF800005E
:204BA00096F86D0410B11B218DF8001096F92E24244C9DF90010914204D0E0206946FFF721
:204BC00075FF2078214914310968096A09B18847207800282CD019E00DF054FE37B327E0B8
:204BE00096F82F040BF076FF012821D01A20BDE8F88396F8150418B902200CF05BFD17E02B
:204C000002200FF067FA13E004F02EF90AF0B6FC0EE096F92E040FF0E1F909E00EF026FCC7
:204C200001E00EF037FE1079012801D008F0CEFA0020BDE8F883C046201900202C4A010007
:204C4000903100208D1D0020142B00205C2C002001282DE9F84F40F0B58064489038D0F87B
:204C60008C10012940F0AB8081460220C9F88C000DF0BCFF01200CF007FF5FEA000805D0DC
:204C80000120C9F88C000DF0C5FF9DE00FF034FC009011200FF0C0FA00280CBF0025012581
:204CA00010200FF0B9FA08B145F002050F200FF0B3FA08B145F00405454CA06A0068014601
:204CC00001208847012818BF002703D100200BF045FA01270FF09AFADFF8F8A040080AD241
:204CE0000026206A80680146504688478346BBF1040FF6D000E00126304600214FF0FF3214
:204D000003F08CFA012E0ED0BBF1010F05D1206A4068012102465046904735496C390868DF
:204D200040F003000860206840690146284688470B200FF071FA284E30B12068C06A31460E
:204D4000091D0246088890470A200FF065FA28B12068C06A31460246088890471F490320BA
:204D60000126C9F88C001E4B0E6000221A602068406B0146284688470128F8D1194C2068B6
:204D800004200CF081FE0546174806602068012F02D130460BF0E2F90FF014FA08200CF05C
:204DA00073FE07460098C9F88C600FF0ADFC0DF031FF57EA050018BF4FF0FF3804E06FF045
:204DC000040801E06FF001084046BDE8F88FC046B8010010004003402E510100282008604A
:204DE000800104432C2009400C400940DC2A0020902208402DE9F04141780025ADF1180DB9
:204E0000891F6CD00A392DD0891E00F09F80DC3940F09A8081688088012814BFFF200878CD
:204E20008DF8000098B1401E09D0401E05D06846FF21092208F04AFE10E04D4900E04D4905
:204E40000A680DF1010002604968416006E04A490DF101031820E22251F0C6F9EE2009213E
:204E60006F463AE086888768052E34D3434C38782070606878BB387868B30820424AADF83E
:204E80000000042301961168ADF802306846884700BB02986060F0B1781C52F049FE5FEA6B
:204EA000000806D1781C4FF47A7152F024FE4FF47A78668060683946324607F0BBF8A06861
:204EC000642101FB08F10FF01BFC04F10C0052F07FFE00E06560102031463A4641E081888C
:204EE000052925D180680378401C52F021FE01468DF80C501846401E09D0401E16D1204B01
:204F00000846196802080BD2C0F3100006E01D4B08461968020803D200F00100014303E004
:204F20006FF0004242401140196005E0252001E0272029468DF80C000DF10D0052F0DBFD0D
:204F40000620052103AA0CE026250CE00EF0E4FE8DF814000EF0E0FE022105AA8DF8150074
:204F600012200FF0B9F9284606B0BDE8F081C046C87F0500F0120050BD070100242F002038
:204F80003C320020A0310020142B00202DE9F04F624E0546B07AADF15C0DC00052F08EFC26
:204FA0000C9001208DF84800E87D092205F118018DF849000DF14A0052F016FC584C6068F2
:204FC000804715900DF146018120FFF7D7FAA87DA346A8B3012004278DF803004FF0000A32
:204FE0008DF80470AC8A8DF802A06946ADF80040D220FEF755FAB1464FF6FF78544616949A
:205000001AE0C000524647180A50A98AD420B98008A9FEF745FA02E04046ADF804008DF8AA
:2050200007A0A88A8DF806A06946ADF80000D120FEF736FA641CA4B2B9F80600A0422FDC88
:20504000A88A00279DF84920ADF838000DF14A018DF83A700DF13B0052F0C6FB01200EA990
:205060008DF84400D020FEF71BFA071C0FD1A88A29461022ADF808000DF10A0052F0B4FBF1
:20508000286902A90790D320FEF70AFA07460C9852F028FCDBF8081015988847F8B239E0D0
:2050A000A88AADF802406946ADF80000D120FFF765FA0028B0D1BDF804008045ACD0ADF8F5
:2050C000200008A9D420FFF759FA002818BF0C9819D199F80A70002F04BF0C9950460ED01F
:2050E0000C993A4650460B469E88B04507D0B44205D0521E03F1080300F10100F4D18742F8
:205100007FF47FAF084652F0EDFBDBF8081015988847192017B0BDE8F08FC0466031002034
:20512000142B00202DE9FC41DFF874810025044688F82D53607D062803DBE82088F82D03E1
:20514000607DA17D0E2905DD032803D0E82088F82D03607D032806D1B8F85C0040083CBF57
:20516000E82088F82D0394F8280010B1E82088F82D0308F54B76214630460DF06CF8211D10
:20518000112206F12C0052F02FFB94F8280008F54B77002804BF88F87453A07D04D094F82B
:2051A000290088F87403608DA8F86A03607E88F86C03A07E88F86D03E07E822688F86E0303
:2051C000207F98F82F5488F86F0398F83E3488F87063344E88F8715398F83F24C8F85063AA
:2051E000042588F8545304F11D0188F8723307F1490088F873230B2252F0F6FA98F82D03B1
:20520000002846D16078002843D1207E98F82E738DF8000017B1EA2088F82D0304F1170158
:20522000E720FFF743FC98F8740328B1207E022808BF01208DF8000098F83F049DF80010A5
:20524000884203D0E8206946FFF730FCB8F812041549164E088098F82E0390B103280CD0BF
:205260000220307007F0FEF84FF6FF70A8F81204104F38800E49088005E007F0F3F8032035
:2052800000E0012030702720207028460EF02EF901E02A202070204609F054FEBDE8FC8175
:2052A00020190020F540010012300020384500209E2C0020522C00202DE9F047604A584C3D
:2052C000584B604D1178012891464FF0010160701F686E6811702AD9DFF84C81DFF84CA19B
:2052E000801E48D0401E43D0401E33D0401E64D0401E62D196F86D00608196F86E70002F8C
:2053000006BFE1700F1CE7704F4D504601782878434610FB01F04743B900196393F8341097
:2053200021F00F0141F0030183F8341045E00021F78A6171F90934BF95F8111495F83A143D
:20534000A17078B995F8EF0360B10229C4BF0220A07007E096F86900607196F86A00A070E4
:205360000027A77104F0EAFD6E6836BBBDE8F0870CF00AFF20E09AF800008600F86B8047E9
:20538000DAF804103C22401AB0FBF6F0B0FBF2F15143401AC0F178001FFA80FAF86B80477C
:2053A00006FB0A014046016390F8341021F00F0141F0020180F834106E681D4807785FB948
:2053C0007168087800F0200020718878E0710878800901D20EF062FF6078032803D0022847
:2053E00018BF062819D1134D68688047617802290CD011490F7817B910490F7837B102214B
:2054000089F80010A9688847BDE8F087832189F80010A96888470DF0A3FABDE8F087C0462E
:2054200090300020742C0020C02B0020F4300020A8470020142B0020AB470020AD470020E9
:20544000AF47002020190020913100202DE9F843DFF880815B4F5C4CD8F89400002870D0B4
:20546000401E0BD05A49401E62D0401E1AD0401E55D0401E18D0401E35D031E0504801247E
:20548000006888F8924040680221702204230546009138460021A84720200DF02FF820469A
:2054A000BDE8F883022100E003214FF08056D6F8A40188F89210406800247022042321460F
:2054C000054600943846A847D6F8A401C06870222146134605463846A84701200446DCE7AD
:2054E0000320BDE8F88300252560656020688008FCD260688008FCD2374834490127001DBD
:2055000005600E200F6004F0E7FF02200CF068FCC8F8945088F893500220BDE8F8830520BF
:20552000C8F8940000270F6008688008FCD243E00320C8F8940000270F6008688008FCD2C5
:205540003AE0264D01260F20266042F62A213C3DC5F80B004FF08059C5F80F10D9F8A401B4
:2055600040684FF4C072072302218446384600910021E047D9F8A401C06800214FF4C0726C
:20558000072384463846E047266020688008FCD398F89100C5F81B6018B9032100200E464B
:2055A00002E0002020630321C8F8946045F8011C606060688008FCD20020BDE8F883C04610
:2055C000A401001000A00C4054600C4004800C4058600C404C2A002038500C403D400C4023
:2055E0002DE9F04F81460E469046ADF1340D5D4C8DF810909B468DF81160B8F1FA0FADF88A
:2056000014802168CDF818B074DD584C04F114000078042802D007200AF0BCFA4646F620F3
:20562000B6FBF0F0401CC0B202460746B1180992491E800091FBF2F1C9B208910DF00EFAA3
:2056400000210A9000280B9134D089466FB307908A4608988642D4BFF5B2051CB9F1000FF3
:2056600018BF0B9802D1281D0DF0F8F90346079840F8043B002B079008BF4FF0030910D097
:2056800010201870414683F801A0981C52F05BFA2A461B1D5946184606F0CCFC761BB6B208
:2056A000AB447F1E0AF1010AD3D14F4627750998607500E0277D04A991E8061004F11C003C
:2056C00080E806100B99A1770A9A6262227F102342F080022277E3773FB9089AA275A4F860
:2056E000188006F0F5FC0B9002E005200AF052FA0B9834E002204FF0080AADF802005FFA19
:2057000088F8ADF800A008F1030001906846884700280CBF029F002713480578002F408830
:205720002468079008BF062019D087F8008087F80190F81C59464246BE7006F07BFCADF8E6
:2057400000A0ADF802A08DF80450039700268DF808600798ADF806006846A047C0B20DB0CE
:20576000BDE8F08F142B0020E42F0020104500202DE9FE4F1C469246894680460EF09EFE32
:205780005B4D019028680CAF404508BF68686FF00101009128B19C300EF044FC002840F03C
:2057A00095800DF0F5FB061C00F09B8008F178000EF080FEC6F80C90DFF838B19AF80430ED
:2057C000BBF91C00C6F81080401C86F836306FF31F30ABF81C00B460BBF81C00464BB08651
:2057E00097E8060000242027346303EA0100F46206F1180307EA020186F8374006F12007C5
:2058000083E803002146084687E80300DAF8007007B1376399F80C0000F00F00022804BFD6
:20582000D9F80800F062DAF808702FB196F8370040F0200086F8370048460EF0C2F800887B
:205840006FF30900B0F5305F1CBF0222101C06D196F83710082041F0100186F8371006F1AC
:20586000180191E80C002746104306F1180247EA030182E80300A86A5F46804507D195F836
:205880002C00410824BF00F0FE0085F82C0030460AF014FC10F1020F10D010F1030F0DD0B7
:2058A00096F8370040F0800086F83700B6F93400009088F8C0400EF0BBFA12E0B7F91C005A
:2058C00000F6FF706FF31F30B88302E06FF00200009095F82C0040F0040085F82C00C5F851
:2058E000288001980EF014FF0098BDE8FE8FC046E044002080450020FFEFFF9F2DE9F04784
:205900005A4C064694F86901002800F0A880B4F81204B6F84210884240F0A18006F1280063
:205920000DF0DCF9002800F09A80002594F8150484F8695110B102200DF0D8FD94F80F0211
:2059400010B101200DF0D2FD307C400905D310200DF0CCFD80200EF0CDFB20200BF0AAFE8D
:2059600004F5087007F0BAFE72685178107804F5047800EB0120C0F30321C0F3003784F81E
:205980006511C0F3031384F8183400F00F0184F8667194F83B0484F86A110F2804D0884216
:2059A00002DDD77807B9014684F8F91394F8F97384F840520F2F09D194F8670102284ED1CF
:2059C0000BF0D6FF05F02EFEBDE8F08728480078012802D00120FDF7C7FA264D68688047F7
:2059E00081460DF08FFF0BF0BFFE82461D4850F82700206360630CF02BF8A16A50460DF0FE
:205A0000BDF909F09FFFA9684846884794F86701022810D1404607F061FE94F8F90304EB79
:205A20004001B1F82C214FF4707707FA00F14046891A0DF02BFB3189022008F083FB04F57C
:205A4000A675284607F04AFE0748C4F85401D4F8601128460DF01AFB10200EF04BFBBDE848
:205A6000F087C046C0470100C5F400002019002054320020142B00202DE9F0410546880F61
:205A8000C0F0A08000200AF0C9FA4F480EF0F2FA4E4A40F60A01118000205080137B60F39D
:205AA000030313735060537B4FF0010868F303035373AC6860802388A3F60207A7B141F2A1
:205AC0001E03FF1A10D0637E60F3820363766F7C37B9238B23F47C7343F43473238313E014
:205AE000238B60F30913F9E7637C60F3820363746F7C2FB9238A23F47C7343F4347302E0D5
:205B0000238A60F3091323828E4668742646AEF1070101F1010C00E03E46776837B13B8814
:205B20009E4503D0994218BF9C45F5D17260737B274F60F3030373733F6837B1FB681B884C
:205B400099421AD06146994217D02F8DBFB1E86205F12801488095F8343060F3030385F8F3
:205B6000343095F8353068F3030385F835305160517B60F30301517301E0164908600EF04E
:205B80002FF9154D1549687B696070B914480068006801464046884701280CD0707B68F335
:205BA000030070730F49696005E00BF09FFA0028FBD00BF0BBFA20460EF05CFA014640463B
:205BC0000DF00AFABDE8F08101010E04DC46002080450020CC4600202C4700208D290000F8
:205BE000E0010010F9F20000F8B55A4C064694F88003002798B1D4F8B82382B1D4F8D8032A
:205C000068B142F21A0069469047D4F8D803804728B19DF8000010B1E12E08BF01270EF0FE
:205C200001FCC07B02280CBF052501256068002800F08880002E6DD01B2E06D1017D0529C8
:205C400003D094F86E34002B64D0E92E27D037BBE12E15D10EF074F888B16068C18AC90868
:205C60000ED294F82014817694F80E144A1C84F80E24406881702846FFF71EFBF8BD606838
:205C80001C2E48D1616A002949D088472E49002009786060012955D0FDF766F9F8BDF12085
:205CA0000DF0A9FE61688F7E4FB90EF049F820B16068C18AC9082ED2D3E760682BE0486831
:205CC0000088000905D394F8807317B10CF042FA6168C88AC00811D3087E00F07F000876A2
:205CE000087D032803D1487E40F004004876F0200DF081FEE168606888470FE0887E401EA9
:205D0000887612490127F0200F700DF074FE10480078B1E70026467006F0F6FD6068C08AC5
:205D2000000A0AD394F8800318B994F82F040AF0D1FE94F92E040EF051F9002060601020FD
:205D40000EF0D8F9F8BDC04654320020A847002091300020201900202DE9F04FDFF85CB191
:205D60000746ABF10605A87AADF12C0DC00051F0A5FD534E08907068804700244FF0FF0A4F
:205D800026460A9024E0ADF800708DF80240D0206946FEF7F3FBC8B99DF80C00012802D17D
:205DA0009DF80B1019B988B99DF8071071B1002814BF082304230DF103005B1E00F801ABE7
:205DC000FBD106706946D020FDF76AFB641CE4B2E87AA042D7DC584601884FF6FF78B146A2
:205DE00012E00899C00041F800904018A0F8048004A9D420FDF754FB02E0641CA4B21EE079
:205E0000BBF80010761CF6B2B142D8BF4E4649DDADF80070ADF80260D1206946FEF7AEFBE7
:205E20000028EDD1BDF804008045E9D0ADF8100004A9D420FEF7A2FB002832D14C46E88830
:205E4000A0420FDDADF80070ADF80240D1206946FEF794FB0028D0D1BDF81000BDF80410FD
:205E60008842CAD1E888A042CAD1ADF81480ADF8168006A85146082251F0D2FCAC7A002C8C
:205E800008BF48460BD00899224648468B889F4205D0521E01F1080100F10100F6D1844288
:205EA0009FDC192606490A9889688847089851F019FD30460BB0BDE8F08FC046663100206E
:205EC000142B00202DE9FE4F88460646564CF1892589C81D87B2A078EA19B2F5005F0BDDF5
:205EE00001F06CF8874204DD607900B90520BDE8FE8FF1892589A0788346C81D42F2010295
:205F000087B2E819824240F38980F288337A10128DF8012063F39F00B3888DF800000E464F
:205F20009A1003F003008DF80220C1F3851201F03F0342EA8012A9198DF8032098001FFAC3
:205F400081F9F21D8DF804001FFA82FABAF10D0F25DB4046314600220EF040F9024605210F
:205F600068460EF03BF99DF804103346962600F03F0742468DF8066041EAA0118DF8041045
:205F8000B80040F0020029468DF8050058460AF0A5FC57464D4607236A46607130E004F105
:205FA0002C004146324606F045F89DF804300099301900F12C084046037100220160731DA6
:205FC00004F12C0099B20EF009F99DF80410962300F03F0641EAA0118DF80630B0008DF8F2
:205FE000041040F002006E4641468DF805003268B0790A60B28888713B468A8004F12C0288
:20600000584629460AF06AFC60712189C919218130B148460CF0B2F9607901E0052060714E
:20602000C0B2BDE8FE8FC046502E00202DE9F04F044608469A46ADF1240D214605908E688A
:206040000692129B04914C68756807935044854238BF6FF00304C0F093804B4D28684FF059
:20606000FF310DF0B2FF4948328C079F48496368026083460B60780819D23846800813D304
:20608000F768002F3AD03569002D37D000970195012002900599069A0498534607F0C8FD87
:2060A0005FEA000813D114E04FF0000811E0A0683AEA00070AEA00021CBFB1680A44059976
:2060C0000140049805F068FF5FEA000801D0044652E034680598DDF818905746241805E075
:2060E000BBF8001004980DF04CFFA944AFB90798C00840D3F16809B1306910B94FF0FF3443
:206100003AE00091019000270297069A05990498534607F08DFD80462DE004980AF044FAE8
:2061200038BB04980BF02CFF18BB04F0FF05C5F58075BD4288BF3D1C210C8DF80D100220A0
:206140008DF80F40230A8DF80C00BBF8001004988DF80E300DF00CFF03A804210AF04EF873
:206160007F1B641928B9484629460AF047F80028B6D04FF0FF384446034800680EF0B8F9E1
:20618000204609B0BDE8F08F604700205C47002058470020B0B5456884685148297BADF19A
:2061A000180D01291AD001462F7E227E637E4D4837F0010741EA020240EA030001904A48EE
:2061C000009218BF011CA27E1143029195F895200323FF2A13D0014610460DE0A17E627E35
:2061E000237E41F00041024343F00043029195F8950000933D490192014304230391FE2152
:2062000005F198004DF82310694606F00FFAC5F8A400002808BF00205FD0287B344951F8C2
:20622000200001282BD02068B0F1804F14BF22220A22217ED5F8A4000CF074FA2068B0F13C
:20624000804F14BF21220922617ED5F8A4000CF069FA2068B0F1804F14BF24220C22A17E21
:20626000D5F8A4000CF05EFA95F89510FF2933D02068B0F1804F14BF23220B2228E020682F
:20628000B0F1804F14BF21220922217ED5F8A4000CF048FA2068B0F1804F14BF22220A22C4
:2062A000617ED5F8A4000CF03DFA2068B0F1804F14BF24220C22A17ED5F8A4000CF032FA64
:2062C0002068B0F1804F14BF23220B2295F89510D5F8A4000CF026FA012006B0B0BDC04678
:2062E000000480A0004000800004C0A000200080045601002DE9FF4104466668A7680D468B
:206300000EF0DCF83178012903D10EF001FA00208DE0012131700EF0FBF928787070687869
:20632000B07068687060A868B060E868F06028693061287D3075687D7075A87DB075A8694C
:20634000B061287F3077687F4FF000087077A87FC6F82080C6F83080B07745467562756375
:20636000B562B56386F82C5086F82D50786804F07BF9204604F0D6FC204604F039FA78B9C7
:206380002C480068C068014638688847786804F0A3F80EF093F835700EF0BAF92C4645E05E
:2063A00068460DF047FE3A7B06F17C00B9680192214A00946B460AF0B9FF68460DF072FE94
:2063C000396902911D49009406F198006A460BF0F9F8B07830B906F1CC0029460CF0E4F947
:2063E00017483061707830B906F1E80029460CF0DBF91448F06068460DF09EFF01958DF8AF
:20640000005006F58270104902940A226B4609F065FDB969FA6906F13C000DF0CDFD0B4A44
:2064200006F16800042123460CF008FC20460090BDE8FF81D0010010AD650000FDBE0000A6
:20644000354401002D440100650B010025410100F8B507465448524C001DC26A0168B7F5E6
:20646000C067C2F30722A766C1F38441E266C0692167C0F38120C4F8800000F08D8094F87F
:20648000886046B9C4F88470206FA067E66E6667D4F88050E567D4F88400E26E002854BFEB
:2064A00002256FF0010504F17803196800EB40004019451000EB957001EBA0011960A16F80
:2064C0006267002916DD1E292FDDE06F28B93429B4BF15391E21A1671CE02A29BABFA06F18
:2064E0000B381E20A067606F3E28D4BF401C3F20606718E0E06F03280ED011F10A0FA6BFFA
:20650000A06F0B300120A067606F0028CCBF401E00206067032007E011F1140FA6BFA06F9F
:2065200015300120A0670020E0674FF08057D7F8A401B4F874101B4D40684FF47F4208238E
:206540000646009128463021B047D7F8A40101214FF4003211234068009106460421284651
:20656000B047D7F8A401B4F8781040684FF4F80212230646009104212846B047D7F8A40187
:20658000B4F87C1040684FF440620A230446009120212846A047F8BD002084F88800F8BD0A
:2065A0004C2A002000A00C4000A00C402DE9F0478046D8F808603068076CD8F80450476448
:2065C0006A6CA96B286C17F4F06FA0EB020937D1F8091FD2780979D3B9B196F82100464ACD
:2065E000145C601E814294BF0C1C641E404621460BF066FAA86B001BA863A86B002865D1FB
:2066000005F1980001210DF07BFF404649460BF0D5FD5BE00029F8D040460BF051FA014632
:2066200095F82D00A96318B9A86B00284ED101E00020A86305F1980001210DF061FF45E02B
:20664000F80A21D24FF0000A544603E0A86B401EA863A96B91B1404601210BF031FA306847
:20666000446814F00F04C0F804A0EFD0296BAB6B686B491E2963401E6863EBB905F1980071
:2066800001210DF03DFF13E0306844680022202904F00F044260CCBF4FF0200A8A4640460A
:2066A00051460BF00DFACAF120008145C8BF8146494640460BF082FDEC77404607F0E8FDFE
:2066C000706A18B10246214640469047B80910D3AF6A77B1404639460BF02AFAA862AD6AE1
:2066E0003DB996F820000549095C4046C9190AF019F8BDE8F087C0462456010030560100AC
:206700002DE9F04F504CADF1340DA4F10B050A90A87AC00051F0D2F84A4E089070688047AE
:206720000B90DFF828812889A2464FF6FF76B146C346002518E0ADF81490ADF8169006A88C
:20674000FF21082251F06CF8D42004A9FCF7A8FE48466946ADF80400D120FCF7A1FE0BF1AB
:20676000040000886D1CADB2A842D8BF00245EDD9AF800000127002439E00A9906AF08224C
:20678000384650F0F5FF0028D5D138460DF00CFA28B1ADF80460D1206946FCF781FEB8F854
:2067A0000000641CE4B229E0ADF800508DF80240D0206946FDF7E2FEA8B99DF80C00012860
:2067C00010D19DF80B0068B90DF102020820002112F8013FFF2B03D1401E01F10101F7D16A
:2067E0000829BCD000279AF80000641CE4B2A042DADC002FB3D1B8F800000024A042AEDD81
:20680000ADF80050ADF80240D1206946FDF7B6FE0028C4D1BDF804008642C0D0ADF81000D1
:2068200004A9D420FDF7AAFE0028A6D0192405490B9889688847089851F054F820460DB03F
:20684000BDE8F08F142B00206B31002064310020F8B54B4C4D4D002859D194F8F9136068B4
:206860000F2957D067680F20398984F86501012007F068FC94F8EF0378B194F8150460B13E
:206880004048D4F85C2194F8F013C4F8D80204F53470891820310CF0F9FB94F81804D4F80F
:2068A00060110F2807D03848C4F8540104F5A6700CF0ECFB01E00CF039FA606840680078DE
:2068C000400958D3686880470646D4F88000074670B10022387E800905D23A4657F80C7C18
:2068E000002FF7D104E004F18000394650F072FEA96830468847002F3DD0787E394640F0E2
:206900001000787604F1800050F042FF33E0606894F8F9130F292ED104F53A71076D0A783F
:206920004FB1082094F83F7484F8EA02974202D0E820FEF7BBF894F8150410B102200DF0A8
