:10000000803F012071270200A1C10310A1C103108C
:10001000A1C10310A1C10310A1C10310A1C103100C
:10002000A1C10310A1C10310A1C10310A1C10310FC
:0C003000A1C10310A1C1031079C103108D
:1010000001000000000000000000000000000000DF
:10101000FFFFFFFF7006002004000000000000003A
:10102000000000001400000050150000180000002F
:1010300090100000DC05002004000000000000000B
:1010400000000000240000003C1400001800000014
:10105000ED7E00000800000001000000010000001B
:101060006815000000000000FFFFFFFF4806002099
:101070000400000000000000000000002800000044
:1010800028150000240000001800000000000000E7
:10109000BC120000A41000000BB8031089AE0310AE
:1010A00091B6031001AA031061AE0310F5B003104E
:1010B000320000003400000025002900000000007C
:1010C000BC050020FFFFFFFF900600200400000089
:1010D000000000000000000038000000DC150000E7
:1010E0002800000001000000418000000000000016
:1010F0007FBB03100400000040160000E650010012
:101100000200000008000000360000005006002029
:101110009806002009000000E405002001000000FE
:10112000FFFFFFFF80060020040000000000000019
:101130000000000010000000A015000018000000D2
:10114000FFFFFFFFF8060020040000000000000081
:101150000000000054000000041600003C000000E5
:1011600000000100300000000410000003D6000061
:101170002D00000000000000681100009011000028
:101180004DA20310B5A80310C1B7031009A50310A1
:1011900069AA031061B103103DB103102D000000D6
:1011A000000000000000000000070020FFFFFFFF1C
:1011B000780600200400000000000000000000008D
:1011C000580000006C15000034000000A1C103109D
:1011D00001003200060000000000000020000000B6
:1011E0000100000099BF031028000000BC1200009D
:1011F00000120000FFB70310F9B60310B5B70310D3
:1012000011AD0310D1B00310ADB0031030000000D9
:101210000000000024060020040000000000000080
:101220000000000010000000541400002C0000001A
:10123000000000000000030000000E003C00000061
:1012400000000000000000009BBF03100800000029
:1012500050160000FFFFFFFF88060020040000007A
:1012600000000000000000001C000000B815000095
:1012700024000000EC110000D40500200400000050
:1012800000000000000000000C000000C41300007B
:10129000180000000000000000000000080000002E
:1012A0000100000004000000000000000000000039
:1012B000C81A000024000000000200000410000012
:1012C00000000F0079B803100C00000000000000BF
:1012D000B405002004000000000000000000000031
:1012E000200000008C13000030000000E01A000015
:1012F00001000000A7C5000000000000000200007F
:1013000000002200010000007811000040060020CB
:1013100004000000000000000000000020000000A9
:101320000415000024000000F81A00003406002014
:0813300020000000641600001B
:10134000657E0000878000008B8000008F80000099
:1013500093800000978000009B800000F92E010020
:10136000A92F0100B52E0100BD2702009F27020012
:10137000812F01008D2F0100EF270200DD2F0100DA
:10138000192E0100000000000000000030000000E5
:101390000000000000000000B41300000400000082
:1013A0000000000001000000FFFFFFFFFF00000041
:1013B00001000000080000000000000025B5031037
:1013C000FD9603101800000000000000000000005F
:1013D000D41300000800000000000000100000000E
:1013E000BC120000F41300001D28020091820000CE
:1013F0002D830000BF800000138100009F8000004B
:1014000031000000E01300001C0600200400000072
:101410000000000000000000200000002414000074
:10142000180000001800000000000000000000008C
:101430003414000008000000000000001800000044
:1014400000000000000000004C1400000800000034
:10145000000000002C000000000000000000000060
:1014600078140000040000000000000001000000EB
:10147000FFFFFFFFFFFFFFFF08000000000000006C
:101480006811000098140000393001004930010053
:1014900065300100593001005D8100008781000046
:1014A000338100002E000000801400002C06002074
:1014B0000400000000000000000000001400000014
:1014C000C81400001C0000001C0000000000000008
:1014D00000000000DC140000000000000800000014
:1014E00000000000010000009B49000019280200D4
:1014F0003F9500009F490000A34900008F4900006C
:10150000AD490000240000000000000000000000C1
:101510002015000000000000000000000000000096
:10152000080000000000000024000000000000008F
:101530000000000044150000000000000000000052
:101540000000000008000000000000000A00000089
:1015500018000000000000000000000060150000FE
:101560000800000000000000952700003400000083
:1015700000000000000000009815000000000000BE
:101580000000000001000000000000000100000059
:101590000000000000000000080000000000000043
:1015A000180000000000000000000000B01500005E
:1015B00008000000000000002400000000000000FF
:1015C00000000000D4150000000000000100000031
:1015D00000000000080000000000000028000000DB
:1015E0000000000000000000FC15000000000000EA
:1015F00000000000FFFFFFFF0000000008000000E7
:10160000000000003C00000000000000000000009E
:10161000381600000000000000000000010000007B
:1016200000000000000000000000000000000000BA
:1016300001000000000000000800000000000000A1
:101640006F8000009DAA0310E59503103DAD0310C7
:101650000100000000000000000000000000010088
:101660000000010083BF031085B1031045A70310DC
:10167000C9B203108DA1031005A303108DAC031094
:1016800065B00310EDB50310F52F01004F9E00006B
:101690004FD8000021280200237F0000DD7F0000DA
:1016A000EBC706EEC906F1880CF48A10F78D0AFA2A
:1016B0004D20FD5128005934015C38020D440311BE
:1016C0005404166C051E9400A01600000D070000BF
:1016D000A1BA00002D2600002D2600002D260000B6
:1016E0002D26000069BE000087BE00002D260000E8
:1016F000A1BE0000D1BE0000D5BE00002FC000007A
:101700002D26000047C00000A9BB0000D9BE000084
:10171000FDBE00001DC00000CDC000002D26000051
:101720002D2600002D2600002D26000009BC0000FB
:101730003FBE00002D260000FD8F00006F900000CE
:10174000D9900000D18E0000E38E00005D92000071
:1017500061920000C99500003B960000A59600002C
:10176000419500005395000029970000C99700009B
:10177000872702009327020025B503103DA8031018
:101780000805450303100A00001B0020041B00206D
:101790003A0100000000000000000000500300209B
:1017A000D80200200000000000000000D016000059
:1017B000FC180000381700001C1900007817000002
:1017C00000000000081B0020000000006002002054
:1017D000A8020020B8020020C8020020C81600009D
:1017E000FF0000000000000070160020E01700005D
:1017F00001000000FF00000002000000C4160020ED
:10180000F417000001000000FF00000001000000CC
:101810001017002008180000010000000000000060
:1018200000C20100FFFFFFFF6817002080000000DA
:10183000D01B00005C1700201C18000001000000F5
:101840000080040000400000F01B00000A2B002074
:101850004018000001000000FF0000000000000030
:1018600000000000D5390000672C000001010100D4
:10187000FF00010000000000000000000010004018
:101880000600000015000000FF000000000000003E
:101890000302FFFF381A00202000000001030000AF
:1018A0000000000000B00040140000003400000000
:1018B000FF00000000000000FFFFFFFF581A00209B
:1018C000200000000103000000000000181C0000C0
:1018D000E81700207C180000181C000010190020D8
:1018E000A418000002000000080000000B2B0020DC
:1018F000E81800000000000000000000C7340100EC
:101900003935010049350100BB35010025280200A9
:101910002B2802001F36010083360100B98D00001C
:10192000DB8D0000F58D0000794D00000B4D0000AF
:10193000174E00005D4E00007D4E0000A54C0000DB
:101940002D4E0000BF4D0000094F0000FD4C00006F
:10195000334F0000274F0000154F0000714D00006D
:10196000734D000047510000774D0000754D000099
:1019700053696D706C652043656E7472616C000014
:10198000446973636F766572204465766963657335
:101990000000000053746F7020446973636F7665B4
:1019A00072696E670000000043616E63656C2043DE
:1019B0006F6E6E656374696E670000005365742016
:1019C0005363616E6E696E672050485900000000D5
:1019D00031204D6270730000436F64656400000045
:1019E000436F6E6E65637420746F0000576F726B87
:1019F00020776974680000004741545420526561A3
:101A00006400000053746172742052535349205291
:101A1000656164696E67000053746F7020525353A0
:101A2000492052656164696E67000000436F6E6E05
:101A3000656374696F6E20557064617465000000A1
:101A4000446973636F6E6E6563740000474154545C
:101A50002057726974650000577269746520307888
:101A600030300000577269746520307835350000D9
:101A7000577269746520307841410000577269746B
:101A8000652030784646000053657420436F6E6EC3
:101A90002050485920507265666572656E63650016
:101AA00032204D62707300003120262032204D62BA
:101AB000707300003120262032204D6270732C207C
:101AC0002620436F646564007B7374617469632DC1
:101AD000696E7374616E63652D6E616D657D000066
:101AE0007B656D7074792D696E7374616E63652D9D
:101AF0006E616D657D0000007B756E6B6E6F776E3D
:101B00002D696E7374616E63652D6E616D657D0008
:101B100096C298D84539A1F4A033EB2D817D037787
:101B2000F240A463E5E6BCF847422CE1F2D1176B22
:101B3000F551BF376840B6CBCE5E316B5733CE2BF5
:101B4000169E0F7C4AEBE78E9B7F1AFEE242E34F24
:101B5000FFFFFFFFFFFFFFFFFFFFFFFF0000000091
:101B6000000000000000000001000000FFFFFFFF78
:101B7000FCFFFFFFFFFFFFFFFFFFFFFF0000000074
:101B8000000000000000000001000000FFFFFFFF58
:101B90004B60D2273E3CCE3BF6B053CCB0061D6521
:101BA000BC86987655BDEBB3E7933AAAD835C65AAA
:101BB000512563FCC2CAB9F3849E17A7ADFAE6BCEF
:101BC000FFFFFFFFFFFFFFFF00000000FFFFFFFF21
:101BD0007DC200007FC20000FDC2000025C30000DE
:101BE000B9C3000055C400006DC4000073C40000F8
:101BF000A9C50000B1C50000B7C50000E7C50000D9
:101C000001C600004FC6000067C60000DBC600002A
:101C100019C7000021C7000075CF000005D00000E3
:101C200025CE000035CE0000F1D1000017D3000012
:101C30001DD3000069D000005FD1000065D1000015
:101C4000286E756C6C2900003031323334353637EC
:101C500038396162636465660000000028272573D7
:101C6000272900007B6D6F64756C652325647D00FA
:101C70007B6D6F64756C652D726F70653A25787D2C
:101C800000000000222573222C2000006C696E6584
:101C90002025643A2000000002000000000000003F
:101CA000FFFFFFFF000000000200000022440000D0
:101CB00002000000C242000013290200BD9701008B
:101CC0000000000000010208090A0B0C0D0E14169A
:101CD0000101060101010101010602020002FF00EB
:101CE0000201FF00030100030402FF000601FF00E0
:101CF00007010004080100020901FF00D9CC01001E
:101D0000E5E301001DF001008DEA0100C94F01006B
:101D100005FD01003D9501002176010049460100C5
:101D20000DFF010001010201020101020102030392
:101D3000040103010101010103030201030000008A
:101D4000FFFFFFFFFFFF00009E60EE2DCE2DC22D96
:101D5000540FEF2FEF0F975F9D170050A0058004E1
:101D6000407F00402801080F00080004FF034040A6
:101D7000202E00000300130010002100220032007A
:101D800031004300400050005300620061007100C8
:101D900072005F0060005D005E005B005C00590047
:101DA0005A005500560057005800CC00C3003C00B4
:101DB00033000000010002000300000400081800C6
:101DC000080003001A000A002C0011003E00030066
:101DD000080018001A0011002C000A003E00004004
:101DE0000C00000088140900F905010000808B0038
:101DF0008000500F00001D0A90050000050000043F
:101E0000207BC10000000F00277F7F0100800C00B5
:101E1000000098140900F905000000808B00800084
:101E2000700F00001D129005000005000004207BCB
:101E3000C10000000F00267F7F0100400CA00C00B5
:101E400087030300CD4001050080EE01800070068D
:101E500000001E09000556000C0000001450500040
:101E600000001F007F7F000004887F7F7F2C000020
:101E70000000000000009F004040202E030C90FD59
:101E80003C7800000D720E720F7210725DA3E5A413
:101E9000D8673CB6D0B00071D0A010B11B7262817F
:101EA0002010623930062000301601110114016C37
:101EB000C260CB60F2603C61C260CD60D9614E62AD
:101EC000C260D360F26064612012C36010121173AB
:101ED00012731373B1811000B09170B0A560B1C4DA
:101EE000D46091C7BC78FBC102C340C5D86021C68D
:101EF000AC78FBC502C360C42018136F236E1116A3
:101F00001216D968EB948C9C7081001EC24430C0BC
:101F1000B092F0C1D09232C6C0C92018EF4003126F
:101F2000236E1216EC6800839099C26005B091721E
:101F300000C1F09128B120B113B111B1E8B0007126
:101F400028B1E8A030B210B9808C309911B1A284C8
:101F5000B484F3C0D1B0007112B002B011B1D1A0FD
:101F600091722C7230B613B003B0E0B0007120B1A2
:101F70007081C09290814096007120B1C3924296C8
:101F8000007120B14496007120B1E0A030A633B6B4
:101F9000D3B0007113B1D3A030C0109920C03099D4
:101FA000D1B0007111B1D1A0917203A002A06372EF
:101FB000057306739173917230A2C0C71090C2600E
:101FC0008D65BD65C465007110A9937310B94F8B01
:101FD0006F318F3D0F7213730000000074B031B287
:101FE0005DB30F97E5A444A064B0D067B1C2E567C4
:101FF000F322574500711F97A3C03399179135A25B
:10200000007178B043C2D4673C4530C0F767C26006
:102010008D656078BE65F0C56869C465D5B015B1D9
:1020200031C0007190805022CE4574B010A99373D6
:1020300010B90F72137331B2D5A05DB3408B203944
:102040000097E5A444A064B0D06734B261C2E567EC
:10205000F3228745007178B0A3C2D46740C0F76708
:10206000C260B084A095709980890E10A08490956C
:10207000709980890E1480C00E1880C00E1851838C
:10208000813921396106311600111014006C1E319E
:102090001E318E318E392E9740823022B045D5B018
:1020A000007115B1D5A0A86100C1E0911078109918
:1020B000E7139A78E5B440C5109002B004B006B0BA
:1020C0000070507850903090707860904090007020
:1020D00035B26CB011B089B0E5B4D1A0D0A03DB19B
:1020E000FDB00070319A438A548A3331633D3431F4
:1020F000643D9396A49653B06B61908900931173DD
:1021000012731F7291727081C0929081409650C07C
:10211000F7675CC11DC37EC008C0E8B0007128B17C
:10212000E8A030B210B9808C309911B1D1B00071F3
:10213000D1A034B6E1B002B012B003B013B021B1F7
:102140000071E1A034A630B613B1D3B020B1E0B035
:10215000A484F0C04F103F661439066AB484F0C0FE
:102160004F103F6614390C6A948C40C04F103F6684
:102170001439126A948C04222446DF813F6610824F
:1021800010221F42196230C00FC03F66206A3162C0
:102190005DC31EC0DF813F66108210222C42246284
:1021A00030C00FC03F662D6A3162E1A030C0109987
:1021B00040C0309911B1D1B00071D1A0917203A08B
:1021C00002A02372C2601F063F318F14CF14F26F3A
:1021D000281048393206D214236F007120B1CE92F4
:1021E0004396007060C0F76790890093657200DBCA
:1021F00060961DB300C1E091C0C02093907B5097C2
:1022000000C1B1C3D2C7136F236E111612165F6AD5
:10221000A8677B67408230227046D5B0007115B147
:10222000D5A0666270C0F76735B2407801800100C2
:10223000019010905078309050908078409060904D
:1022400020DF809372B0E5B4F0B33BB620781099EC
:1022500080C0F76793730CB14CB13DB1FDB00FB1C5
:102260004FB108B0007108A014B914A94CB110A95D
:102270001E79007110B94F89C080C022F147F02249
:102280008C46FDA0107244A064B074B031B230B27C
:1022900032720F7248A049A04AA009A000C230992A
:1022A00011B1D1B00071D1A0808720221647E7B0CC
:1022B000F0C127B10071B56A4FB0E5A41DA373B09A
:1022C000C0C020934BB041B090C0F7678381031E1C
:1022D000C2425B894089B0180C103C06203933316A
:1022E000031820C30318339910A93078109911B13D
:1022F00010B9D1B0F322FF460A838A395A396B8666
:102300003B315086803950390B00041200719080A7
:102310001022FF460183528663863ABA258B8531A7
:102320002531541CFC42F54AA114B214F95E13166F
:10233000F962A118B218F95A131A019352966396CA
:10234000541027B1E26233B250B7D4789497C4786E
:10235000A497E0C060B7066BD1A02372A373F48A80
:10236000A0D0149AF767E7A003720472057306738E
:102370009172C260E5A4D0C03099FE1C1D47A0D662
:102380001F6390D60000809373B072B04BB0A07BF7
:102390005097E7A011B1D1B0B3B100716FB04FB099
:1023A0004DB041B0C0C0209339BAF08A10310097C7
:1023B00060B9937300CF376B1AB00AA0B0C0F7674B
:1023C0008381031E3C435B894089B0183331031875
:1023D000E0780318339910A911B110B9F3226747B7
:1023E000A089A189101C4D43E7B027B150B7011255
:1023F0000071A0807022634327B1111E5D43111646
:102400005463A0899097B089A09760B7011290801B
:1024100010225443E7A033B24DA050B7F478A497EC
:1024200004799497E0C060B76F6BD1A02372C0C0ED
:10243000F76703720472057306739172C2605CC120
:102440000DC00AC008C070C0AE84DBC2B76F996708
:10245000836B1B16B76F70C00AC09967896BBE8407
:102460001B16B76F70C00AC09967906B1B16B76FC9
:1024700070C00AC09967966B0070EF101F063F315D
:102480008F14CF14F26F2810483932062A001A3FF1
:102490001A3F7A6E1E3900705CC10DC008C0E0C0E2
:1024A000AE845BC2EF101F063F318F14CF14F26F62
:1024B000281048393206BA47CACCC363121EBE4739
:1024C0003ACCC363221EC247CAC3C3633AC30022C5
:1024D000C743A610CC63B76F8A316A007A6E1B16A9
:1024E0001E39AE6B64B000708381031ED043007050
:1024F0003399179100715DA32372917391720372E6
:102500000472637230C00090C0FF109005730673B0
:1025100000705B894089B018233103181318339970
:1025200010A911B110B9D1B0007014B914A94CB1EF
:1025300010A92E799562009AF0890022F847E0B937
:10254000007000000000000000000000000000001B
:1025500000000087BE83605ADB0B376038A5F5AA00
:102560009183886C0000000002000000FFFFFFFF65
:10257000FB349B5F80000080001000000000000022
:1025800001020003020001030061620088250000CF
:10259000010000000000D002EC0000215F000000FC
:1025A00000000000000000009825000094250000B5
:1025B000000000008E74000034880000B68D00001A
:1025C000FE8E0000668F00002E5301002F53010085
:1025D0009C2500006A9400000A9500003C0A002037
:1025E0000000000002000000FFFFFFFFB900020032
:1025F000FF000000000000000C0802170D0101029E
:102600000909010106020918180301010909030358
:10261000050300000000000002000000FFFFFFFFB4
:102620000149086070470000F802002081B00121D4
:102630008DF800109DF800000028FBD101B0704714
:102640007047FF7F80B500F0B0F80FF2F80000F09F
:10265000D9FC00B1FEE7BDE801404DE070B50D4684
:1026600000F040F8002600F042F8C6F1070025FA15
:1026700000F202F00102092100F03BF8012200F013
:1026800037F8082001F022F8761CF0B20828EADBBF
:1026900000F02DF80122142100F02BF8BDE8704065
:1026A0004FF42F7001F012B818B50FF27C0085B00E
:1026B000D0E90013CDE9001302A8694600F0F2FD4D
:1026C00000F010F8012001F001F80122142100F0BF
:1026D00010F84FF40C7000F0F9FF204600F033FFC3
:1026E00006B010BD04460022142100F067BF00228E
:1026F0000A21204600F062BF10B588B0FFF7D4FF72
:1027000003A80FF22C01142200F0F4FF03A968467D
:1027100000F0C8FD0446B921FFF7A0FF204600F0F5
:1027200012FF08B010BD00001404C0A0FE0000009D
:102730001404C0A00A0480A0090480A008400080FE
:10274000FE00000006088080070880800D2007C07A
:102750000E2007C01400C080024000800300C0802B
:1027600009400080084000800A400080FE00000010
:10277000DFF8CC068068704702460020022904D1A9
:10278000012A06D140F2EE207047012A08BF4FF41B
:102790007A707047DFF8A81691F8990020B1D1F847
:1027A000C400002818BF004770472DE9F041DFF84A
:1027B0009416DFF8943684B00968A1FB0332520BFB
:1027C00042F2107000FB121140F2AB24A14200D281
:1027D000FEE7DFF86C4694F89A00002840F081800C
:1027E0000121DFF86866DFF86876DFF8685684F85C
:1027F0009A10307B84F899007068C4F8C40001A86E
:1028000001F00DF8002102918DF80410039101AB45
:1028100000220FF2A15104F10C0000F0CBFF0023C5
:102820000FF2D542322104F1300001F01FF80020F0
:1028300038600023DFF820262C2104F14C0001F041
:1028400015F8DFF8180601786868C0F38151707BCD
:1028500028B1032903D1012184F8911003E0032951
:1028600018BF022911D1386840F04000386001F0EB
:1028700020F8A16841F00401A16094F89D10491C62
:1028800084F89D1001F027F81BE0012919D1DFF829
:10289000D065DFF8D075032000901C23D6F800C067
:1028A000DCF804804FF0405200213846C047012038
:1028B000009038463668776809234FF4007200218B
:1028C000B847286840070CD400F0F3FFA16841F036
:1028D0000101A16094F89B10491C84F89B1000F042
:1028E000FAFF002004B0BDE8F08130B581B00024CB
:1028F00008B1150004D16FF00204204601B030BDCC
:102900008160C26003610146DFF8340501F017F809
:10291000204601B030BD10B5044600F0CAFFDFF814
:1029200020150A1992F89B305B1E82F89B30DBB2AF
:1029300033B98A68012303FA04F422EA04048C60A0
:1029400000F0C9FF002010BDF0B581B0054600F0D1
:10295000B0FF0446DFF8E814481990F8A220521E90
:1029600080F8A220D2B27ABB0FF2245000EB85028D
:1029700010F825505688280617D5DFF8EC7439680A
:102980000A6A304690473A68916A30468847396803
:102990000A6B30469047DFF8D41401200860DFF856
:1029A000D00401688907FCD507E0680612D501EB61
:1029B00086010020D1F8B820904705F03F05152D7D
:1029C000BCBF2846FFF7C0FF204600F084FF002070
:1029D00001B0F0BDDFF8907439688A6930469047DD
:1029E0003A68516B304688470228F9D1E5E710B5BF
:1029F000044600F05EFFDFF848148A680123A34014
:102A00001A438A60214491F89B20521C81F89B2034
:102A100000F061FF002010BD2DE9F041064600F0F6
:102A200048FF0446DFF81854A81990F8A2104A1C71
:102A300080F8A22081BB0FF2584818F8260000F059
:102A40003F001428D8BFFFF7E7FF08EB8600478850
:102A500018F82600010617D5DFF80C542968CA6952
:102A6000384690472A68516A384688472968CA6AB2
:102A700038469047DFF8F41301200860DFF8F003D0
:102A800001688907FCD507E040060BD505EB8701F7
:102A90000120D1F8B8209047204600F01CFF00200C
:102AA000BDE8F081DFF8C05329684A69384690478D
:102AB0002A68516B384688470128F9D1ECE72DE99F
:102AC000F04F00260024012881B0A34618BF6FF004
:102AD000010955D1DFF868A3DAF88C0001282DD15F
:102AE0000221CAF88C1000F0C2FF012000F065F945
:102AF0005FEA000928D101F01FF880469AF8B30078
:102B000008B14FF0010B9AF8B20008B14BF0020B7C
:102B10009AF8B10008B14BF0040BDFF84C53A96AE6
:102B20000A6801209047012804BF012401F044F8FD
:102B30009AF80800C10727D501262CE06FF0040998
:102B4000484601B0BDE8F08F0120CAF88C0000F0C3
:102B500099FF484601B0BDE8F08F01F02DF800F074
:102B6000B1FD082000F029F906430120CAF88C00C5
:102B7000404600F0E9FF00F085FF0EB14FF0FF394D
:102B8000484601B0BDE8F08F296ABB488A68904783
:102B90000746042FF8D04FF0FF320021304601F0F5
:102BA00045F85EB9012F04D12A6AB3485368012160
:102BB0009847B248016841F00301016058462A680D
:102BC000516988479AF8AD0020B12968CA6A4FF464
:102BD000806090479AF8AC0020B12968CA6A4FF427
:102BE00081609047A149A64A012008600021116038
:102BF0000320CAF88C0029684A6B58469047012880
:102C0000F9D19C4F3868042000F0D7F806469D495A
:102C100001200860002C3968A1D0A96A0A68904791
:102C200001289AD000F097FF01208AF890009AF8C6
:102C30000800810693D4914880214167C16E41F01C
:102C40008001C1668BE730B581B0044600F031FEEB
:102C5000054621467A4800F09CFE284601B0BDE8B2
:102C6000304000F038BE10B50024022802D00328FE
:102C700005D008E001F068F80446204610BD01F0D8
:102C800041F9204610BDFEE7F0B581B000F011FE1D
:102C90006B49054691F89000012450B1704E71487F
:102CA0003768D7F80CC0002301223C21E04700B967
:102CB0000024284600F00FFE204601B0F0BD70B59C
:102CC00082B000F0F6FD044600F051FF5C495F4A17
:102CD000002081F8900002209568A8470646102041
:102CE00000F06BF8012E04BF0320A847204602B075
:102CF000BDE8704000F0EFBD2DE9F041544C82B0CA
:102D00006568206820EA05010540680621602FD526
:102D1000534EF16B0A6804209047022818BF03281D
:102D200026D1032000901C23D6F800C04D4FDCF8BC
:102D300004804FF0405200213846C04701200090E7
:102D400038463668776809234FF400720021B84787
:102D500000F0AFFD3A4991F89D20521E81F89D2068
:102D6000D2B21AB98A6822F004028A6000F0B3FD78
:102D700028061BD500F09DFD4FEA000600F0F7FE87
:102D80000028FBD02E49314A002081F89000022013
:102D90009768B8478046102000F00FF8B8F1010F8F
:102DA00004BF0320B847304600F095FDA56002B08F
:102DB000BDE8F08170470020704730B505462048D7
:102DC000046881B05CB1A068284205D02269E3683C
:102DD00000212846984728B92468002CF3D1002008
:102DE00001B030BD4FF0FF3001B030BD26490128A1
:102DF0000CBF0720002008600020704700B50128A4
:102E000081B018D121490A6813689847012812D067
:102E100000F0A1FE0A48012180F89010007A810696
:102E20000BD40B4880218160016841F08001016072
:102E3000002001B000BD00F0BFFE002001B000BDC9
:102E4000800700201C1400505917B7D160180000EB
:102E500090220840B04F0050B93D0000282B0020C0
:102E6000A401001000A00C40B80100102820086048
:102E7000282008402C20094000400340242208401C
:102E8000800104430C40094000000460E001001090
:102E90008F0000008F0001008F0002008F000300F0
:102EA000900000018F0001019000000290000003DB
:102EB0008F0001048F0000058F0008048F000004BC
:102EC0008A000006510000007F0001003F0004005E
:102ED0003F0002003F0001007F0002008F0002045B
:102EE0008F00010270B500F029FE05465FF0000674
:102EF000DFF8744725FA06F0C0070AD504F1080088
:102F0000F1B250F8210020B1026811001CBFF1B2EB
:102F10009047761C2068F1B28842EBD270BDDFF892
:102F20004C07DFF84C270168DFF84807116000F014
:102F300007BE2DE9F04182B00D00DFF83C17ECB27E
:102F400001EB840144BF85F0204585F4C0450B6842
:102F5000064606EA0507DFF8240785EA0302B343BD
:102F6000074032403B4306F4E020120EB0F5E02F5C
:102F700002F0010202D1DA0105D411E016F4E02FCB
:102F800008BF002A0CD003F4E020B0F5A02F04D035
:102F9000B0F5C02F04D1052000E0062060F31243F5
:102FA000DFF8DC760B603868E04010F0010809D1EA
:102FB000700207D504F18041A80D01F5083100F039
:102FC0000100087030020DD500F073FC0122A24010
:102FD00039682B024CBF13460023914319433960D3
:102FE00000F079FCB8F1000F09D0700207D504F1A8
:102FF0008044AD0D04F5083405F00105257002B0DC
:10300000BDE8F0812DE9F04F8BB00746FFF7CDFB0F
:10301000DFF87406DFF85046017801F021F9002549
:103020000E284FF0000918D8DFE800F0080817173D
:1030300017171717171717170810140001F0FAF8C9
:1030400002280AD101206060012506E003206060AB
:10305000072502E0052060601F25DFF83006C16803
:10306000C1F38151012903D10068000E81400D4355
:10307000DFF810160A68616802F07F025218521ECB
:103080002260002004F18803FF26401C824203F8DE
:10309000016BFAD2CC46BE465FF00103DEF80000B9
:1030A00000F0FF08B8F1FE0F00F0D78000F0FF0637
:1030B000FF2E11D0424528BF8845C0F0EE8025FA8A
:1030C00000F6F60700F1E98003FA00F040EA09098A
:1030D00004F1880000F808C00CF1010C0EF1040E98
:1030E000DCE70998DFF89085E840C0074DD50A98DD
:1030F00099F8001050F82170FEB2002F44BFDFF89D
:103100009005474008EB8600DFF888150368DFF874
:1031100088251A4039401143CA010DD501F4E02237
:10312000B2F5A02F03D0B2F5C02F02D004E00622E2
:1031300000E0052262F31241016000980068F0404F
:1031400010F0010B06D1DFF85405B90D801901F01C
:103150000101017000F0ADFB009909680122B24045
:103160003B024CBF134600239143009A1943116060
:1031700000F0B1FBBBF1000F2DD0DFF82005BF0D33
:10318000861907F00107377025E0EEB208EB8600DC
:10319000DFF804150268114041F4C0410160009855
:1031A0000768F74017F0010704D1DFF8F004801931
:1031B0000021017000F07DFB009A13680121B140ED
:1031C00023EA0101116000F086FB27B1DFF8CC048F
:1031D000861900213170E8B208EB80010868800987
:1031E000800108600020CAF800006D1C2068A84219
:1031F0000AF1040A09F1010946D201A800F063FBB3
:10320000DFF89C54DFF89C242878029001AB102151
:1032100004F1A80000F02AFB04A800F063FC686831
:1032200006900021079104AADFF87C1404F1C40081
:1032300000F060FCDFF87404DFF87424016821F406
:103240007C5141F4005101600120DFF868140860EE
:1032500010600BB00020BDE8F08F0920FFF7DCFB09
:10326000C4F88470012104F1F80001F047F8DFF898
:10327000103400930A97CDF82490089504F1880142
:1032800004F1080A002589460898E840C0077FF540
:1032900028AF0421CAF80010A7E702200BB0BDE850
:1032A000F08F00002DE9F04E81B00D4601B4DFF83B
:1032B000B89382B04FF0FF3109F1F80001F054F8F3
:1032C000290040F08D800298DFF8B4A3002101604E
:1032D0000020029948602C46029988600120002D48
:1032E000009000F08480029E17E0FF2809D0D9F8F2
:1032F0000020824279D309F1080252F82000002808
:1033000073D1091D6CE000BF05F18045BF0D05F5C7
:10331000083507F001072F70241D2078FE286ED095
:10332000FF28F9D009F1080141F82060009A71687E
:1033300002FA00F0084370602768D9F8001007F01F
:10334000FF008142E8D309F1080151F82000B042A2
:10335000E2D1FDB2002F44BFDFF834034740DFF86D
:103360001803DFF83013DFF8302300EB8500394015
:1033700003681A401143CA010ED501F4E022B2F5E8
:10338000A02F03D0B2F5C02F02D005E0062201E045
:103390005FF0050262F312410160DAF80000E840D4
:1033A00010F0010B08D105F18041B80D01F508318D
:1033B00000F0010081F8000000F07BFADAF800105C
:1033C000009AAA403B024CBF134600239143194385
:1033D000CAF8001000F07FFABBF1000F94D19BE710
:1033E0000878FE287FF481AF6DE70020029009F194
:1033F000F80000F0C4FF029804B0BDE8F08E029619
:10340000F5E72DE9F047002882B00D4600F09780DF
:10341000426822FA05F1C90740F19180012404FABB
:1034200005F18A434260A846DFF83C02DFF850729B
:10343000DFF8449200EB88020021916000EB080164
:1034400091F88810FF2925D109EB8501DFF84802A2
:103450000A68024042F4C0420A603E68EE4016F03C
:10346000010605D105F1804101F508310020087001
:1034700000F01FFA3968AC4021EA04043C6000F017
:103480002AFA002E51D005F1804505F508350020B7
:1034900028704AE0D0F8840050F82160F5B209EBBA
:1034A0008501002E0A68DFF8F00144BF86F020464F
:1034B00086F4C0460240DFF8DC0130400243D00110
:1034C0000DD502F4E020B0F5A02F03D0B0F5C02F49
:1034D00002D004E0062000E0052060F312420A60FA
:1034E0003868E84010F0010A07D105F18041B00DBD
:1034F00001F5083100F00100087000F0DAF9AC4085
:10350000396832024CBF22460022A1431143396080
:1035100000F0E1F9BAF1000F07D005F18045B60DD2
:1035200005F5083506F001062E7009EB88010868DC
:1035300080098001086002B00020BDE8F087022009
:1035400002B0BDE8F08710B50446606858B1616804
:1035500091FAA1F0B0FA80F1C9B22046FFF751FF0D
:1035600060680028F3D110BD0146DFF84C01006807
:10357000C84000F00100704730B50D46DFF8E81094
:1035800014460A68AA4281B004D301EB85018A6817
:10359000824202D0022001B030BD00F08AF9DFF88B
:1035A000E0100A680123AB409A4304FA05F515437D
:1035B0000D6000F090F9002001B030BD10B42A4B2E
:1035C0001C688C4204D303EB81039C68844202D0C4
:1035D00010BC02207047501E804101F18041C04361
:1035E00001F50831C00F0870002010BC704710B101
:1035F0000160002070470220704730B51A4C2568E2
:103600000B46114601F0FF02954281B004D304EB52
:1036100082029468844202D0022001B030BD184674
:10362000FFF787FC002001B030BD10B40E4B1C68C2
:103630008C4204D303EB81039C68844202D010BC0B
:10364000022070470C4800EB8100002A016848BF47
:103650000022890902F03F0242EA81120260002042
:1036600010BC704700000000F41C0020E020024065
:10367000E0200260B81D002000100840007F077F96
:10368000D020024044130050282B0020A84F0050A7
:10369000006000A0007F0767FF803898002002408C
:1036A000581800001F2F0000E52E000000300940D0
:1036B0002C0009400C400940C0200240EFF310806C
:1036C00072B67047EFF3108062B670470138FDD1D3
:1036D0007047704762B38B0708D0521E11F8013B48
:1036E00000F8013B00F024808B07F6D1830740F0FF
:1036F000208000BF103A07D330B4B1E83810103A38
:10370000A0E83810F9D230BC530724BFB1E8081044
:10371000A0E8081044BF51F8043B40F8043BD2072E
:1037200024BF31F8022B20F8022B44BF0B78037022
:103730007047121F17D35B0009D151F8043B20F8E2
:10374000023B1B0C121F20F8023BF6D20BE051F893
:10375000043B00F8013B1B0A20F8023B1B0C121F24
:1037600000F8013BF3D238BF121D521E24BF11F8DE
:10377000013B00F8013BF8D870470040DFF800F04B
:1037800011B70310DFF800F029AF0310DFF800F0E5
:1037900033B80310DFF800F099B50310DFF800F03C
:1037A0002BB80310DFF800F0EDA80310DFF800F0ED
:1037B000B1B50310F0B51C0089B005460E4617469A
:1037C00003D10023FFF7EEFF12E00823242200219B
:1037D0006846FFF7D3FFA06806906B462178ADF8E6
:1037E00010103A466068059031462846FFF7DAFF28
:1037F0001048114A01681160284609B0F0BDFFF772
:10380000CDBFFFF7D3BF00F0C1BD00B581B000F060
:10381000D4FD401E8041C043C00F01B000BD002157
:103820008160017041607047FFF7B0BFFFF7B2BF22
:10383000FFF7A8BF4C150000BC1F0020DFF800F008
:10384000E1B60310DFF800F0AFB70310DFF800F0C7
:10385000D5B60310DFF800F0F7B70310DFF800F07B
:10386000BDA60310DFF800F07DB40310F0B51C0016
:103870008DB005460E46174604D1002300F0A4FD86
:103880000DB0F0BD0823302200216846FFF7DEFFAF
:10389000206805906B46606808903A46207AADF83B
:1038A00018003146284600F08FFD0DB0F0BDFFF73F
:1038B000D1BFFFF7C3BFFFF7D1BF00F0A5BD00F038
:1038C000ADBDFFF7CFBF002101604FF0FF31416078
:1038D000012101727047FFF7B5BF10B50446FFF72D
:1038E000E8FF002161602160BDE81040FFF7F3BFF1
:1038F00030B581B00546FFF7DCFF2C683CB121688C
:103900002960216800291ABF00224A606960FFF718
:10391000E2FF204601B030BD70B504460D461646A4
:10392000FFF7C7FF2E60716869607168002914BFD6
:103930000D6025607560BDE87040FFF7CCBF30B505
:1039400081B004460D46FFF7B4FF0021296061688D
:1039500069606168002914BF0D602560656001B071
:10396000BDE83040FFF7B7BF30B581B004460D4623
:10397000FFF79FFF21682960002169602168002905
:1039800014BF4D606560256001B0BDE83040FFF7B1
:10399000A2BF30B581B004460D46FFF78AFF296803
:1039A0006A6800290CBF62604A6069682A68002959
:1039B0000CBF22600A6001B0BDE83040FFF78BBF4A
:1039C000DFF800F03DB50310DFF800F05DAC031048
:1039D00030BF704770B5FFF771FE304C2069416809
:1039E0008847FEF7C5FE054605F00C000C2838D0C8
:1039F000680721D400F01AFD064601210120FEF7D8
:103A0000BBFE2749096801FB06F2904214D2F02060
:103A1000B0FBF1F0234C311A04F10C00FFF7B6FEB5
:103A200004F10C00FFF7B6FE0120FFF748F804F19F
:103A30000C00FFF7A7FE16E0280712D421681A48E9
:103A40008A6890470428F9D0E90600D408B9012013
:103A500000E0002000F0D6F8144801210160006861
:103A600001E0FFF7B5FFBDE87040FFF72BBE10B5D2
:103A70000F4CFFF7A5FF20600E48006808B1804793
:103A8000606010BD10B50C48094C016809B1606850
:103A900088472068BDE81040FFF796BFD8010010A6
:103AA0004C15000080070020004003402C200940F6
:103AB000081E0020BC130000C0130000DFF800F057
:103AC00025B50310DFF800F03DA80310DFF800F083
:103AD000E9A50310DFF800F065B70310DFF800F088
:103AE00063B80310002101604160C1604FF0FF31F5
:103AF0008160704770B514008AB005460E4604D147
:103B0000002200F0AFFC0AB070BD0823282200217B
:103B10006846FFF7DFFF206804906A4660680590FA
:103B20003146E0680790A0680690284600F09AFCAD
:103B30000AB070BDFFF7D2BFFFF7C0BF00F09EBC58
:103B400000F0A2BCFFF7C2BFFFF7BCBF00F0ACBCE7
:103B500025480168084710B5294A13685C680121A7
:103B60000120A047234824490068886010BD38B56B
:103B70001E4CE16B0A680120904701281AD0246886
:103B80001B48E568002301223C21A84798B1FFF7B4
:103B9000DFFF1848184B0268996818481C68DA60FB
:103BA000A4EB9404521A4243120C1A60A24238BF8A
:103BB00022461A60012032BD38B5114C2268536884
:103BC00000210120984721680A680120904708B128
:103BD000FFF7BEFF0748084D00686860E0680168AD
:103BE0008847286131BD000080000010A40100104A
:103BF00000A00C4030200940C01F002040420F00B0
:103C0000E001001010B54349434C08604348016887
:103C100041F003010160202021688A6990474048F3
:103C200001682168886BBDE8104000472DE9F84322
:103C3000894605463B493A4E374C3B4F00200860C9
:103C4000904631682268916927208847796937480A
:103C500001407961F86D20F48070F8654FF4806060
:103C600021680A6B904721680A6B4FF48160904786
:103C700021680A6B4FF4C06090472D49012008600D
:103C800024492C48C1F80090012101602A490868A4
:103C9000820748BF002212D418F1010F14D1274A1D
:103CA000126842F21073B2FBF3F342F2107000FBA1
:103CB000132240F2AB20824203D34FF04042CA604D
:103CC00004E01F48C86001E0C1F80C803068386823
:103CD0008007FCD521684A6B072090470228F9D15C
:103CE00095B9216A174D8A68284690470428F8D06C
:103CF000012804D1226A53680321284698470748BF
:103D000001688908890001602068816BBDE8F14382
:103D1000084700008C210840B80100102422084008
:103D20002C2009400C40094028200840FFFFFEFEDF
:103D30002820086080010443100009401C14005032
:103D400008E7A4800040034030B5DFF8AC5495F894
:103D50009100002481B0002802BFDFF8A014887B06
:103D600000280CD0FFF7A5FD95F89310002906BF99
:103D7000012285F893200124FFF7ADFD14B1002046
:103D800001B030BD0220FEF732FE0E20FEF744FEE9
:103D9000DFF86C14086810B1012001B030BDDFF805
:103DA00064044022026042600120C86101B000202A
:103DB00085F8920030BD0000F0B5DFF84C1481B0FA
:103DC00000200860DFF8304494F8920000283BD0CF
:103DD000012845D1DFF834140D68DFF834144BF2B4
:103DE000F520454308682D0AC0F3814001280FD112
:103DF000DFF82064B06C01688847F16B8A689047EF
:103E0000F16BCA6890472F09C010474305EBE735AF
:103E100094F8980018B1002184F8981006E0DFF8B3
:103E2000F803006820F07F402D186D08DFF8EC03E0
:103E300005602D0C456001218160DFF8C013887B8F
:103E400050B10221C4F8941000F068F80028FBD0AB
:103E5000401E012854D9FEE70620C4F89400F3E779
:103E600002280DD1DFF8A4030568284600F031F9D7
:103E7000A5F2FF55022DEFD90420C4F89400E3E722
:103E80000328E1D1DFF884030068A16EA0F5C060CB
:103E90000029C4F8840048BF4942002848BF404276
:103EA0008142A8BF002028DADFF86853E06EDFF80F
:103EB000706380B2009008232F68D7F804C04FF4D5
:103EC0007F4230213046E047206F80B200901223BD
:103ED0002F68D7F804C04FF4F80204213046E047B9
:103EE000D4F8800080B2009030462D686E680A23B6
:103EF0004FF440622021B047012084F88800ABE7EE
:103F000001B0F0BD00B581B000F008F80028FBD08A
:103F1000401E012801D801B000BDFEE72DE9F043A5
:103F2000B54CD4F89400062881B000F2BD80DFE8DB
:103F300000F00441505D73809C00BA4DBA4EB54FFD
:103F4000DFF8DC820120286007230F20F0604FF4A7
:103F5000C07242F62A2030610021022000904046C3
:103F6000D7F800C0DCF80490C8473F68D7F80CC009
:103F700007234FF4C07200214046E047012028602B
:103F800028688107FCD50121F16194F8910000288F
:103F90001DBF0021296301200320C4F894000320E1
:103FA00030600020686068688107FCD4002001B0A0
:103FB000BDE8F083012084F892000220954C009027
:103FC0000423256896486E6870220021B04720209F
:103FD00045E00320C4F89400002192484160416804
:103FE0008A07FCD4002001B0BDE8F083022084F8E9
:103FF00092000020874C8A4D009004232668776841
:10400000702200212846B84724682846E5687023B6
:1040100070220021A84721E00520C4F89400002167
:104020008048416041688A07FCD4002001B0BDE8A7
:10403000F083032084F892000020764C784D0090A5
:10404000042326687768702200212846B847246830
:104050002846E568702370220021A847012000F05F
:1040600027F8012001B0BDE8F0836E48002101600F
:10407000416001688A07FCD441688A07FCD40020AB
:1040800061495F4A0860012111600E20FEF75CFC67
:104090000220FEF740FC0020C4F8940084F893004E
:1040A00001B00220BDE8F083032001B0BDE8F08339
:1040B0005E4901220A600A689307FCD508225A4922
:1040C0008861002008604F4802604260012008605B
:1040D0007047F0B55649484C81B0CA6AC2F307220E
:1040E000E266B0F5C0600A68C2F384422267C9691B
:1040F000A066C1F38121C4F8801008BF84F888004D
:1041000078D0A26F94F8881039B9E16E226F616798
:10411000C4F88400D4F88010E167D4F88400002843
:104120004CBF6FF00101022100EB40000818411064
:1041300000EB917002EBA002E16E6167002A13DCD4
:10414000E06F032805D10120153290421FDB0122C8
:104150001DE001200B329042A8BF0122491E48BF3A
:1041600000216167032013E01E2A12DDE06F28B9E9
:10417000153A1E2AC8BF1E22032009E00B3A1E2A48
:10418000C8BF1E22491C3F29C8BF3F2161670020CC
:10419000E067A26708231F4D606F214E80B2009038
:1041A0004FF47F422F68D7F804C030213046E047F3
:1041B0000120009011232F68D7F804C04FF400327B
:1041C00004213046E047A06F80B2009012232F6890
:1041D000D7F804C04FF4F80204213046E047E06FFE
:1041E00080B200900A232C6865684FF44062202159
:1041F0003046A84701B0F0BD8007002060180000DD
:1042000004800C4038500C403C500C4008400C409E
:10421000B44F0050A4010010102009407C600C40F5
:1042200000A00C4054600C4000400C4058600C4012
:1042300004A00C401D480068000C00F00700062890
:1042400028BF4FF0FF30704719490968C1F30F319B
:104250004BF641324FF0FF30914208BF04207047C7
:1042600010B5FFF7F1FF11490A68D30D04284FF08C
:10427000FF34C2F3406117D1120B02F00F02082A7B
:1042800011D0092A0AD00F2A0ED1D80704D5002947
:104290000CBF0D240E2407E00B2405E000290CBF01
:1042A00009240A2400E00C24204610BD941200507A
:1042B0001813005080B5FFF7C7FF042800D101BDD7
:1042C000FEE70018DFF800F059B70310DFF800F040
:1042D0005DA90310DFF800F001A80310DFF800F07B
:1042E00057B80310DFF800F05BB80310DFF800F0F8
:1042F00005900310DFF800F0D199031030B589B0B4
:1043000004460D460823242200216846FFF7DAFF01
:1043100001228DF8182029466A462046FFF7D6FF6D
:10432000204609B030BD10B58AB0044608232422C7
:1043300000216846FFF7C6FF01228DF81820694664
:10434000034A2046FFF7C6FF0AB010BD0000000078
:104350009405002000B581B000906846FFF7BEFFCD
:1043600001B000BDFFF7BEBF00B581B0FFF7BEFFD3
:1043700000280CBF4FF0FF30002001B000BDFFF758
:10438000B9BF0000DFF800F025A9031070B504469E
:1043900000F0AAF80646A08A0025012808D1FFF7F8
:1043A000F1FF0546E068451BA068A84238BF00251C
:1043B000304600F09AF8284670BD808A70470000A9
:1043C000DFF800F0AD9F0310F8B504460B480C4F22
:1043D0000668F8690D4650F82500B04209D1094831
:1043E00000902046FFF7ECFFF86950F82500B04236
:1043F00001D10020F2BD2046F2BD00BFCC1100006B
:10440000D801002094050020102803D30249103859
:10441000C1F8000F704700BF00E000E0816042601B
:1044200070470118DFF800F051B6031070B500F0C6
:104430005BF8094E0446B0680021FFF7F3FF05461C
:104440007069451BB069A84238BF0025204600F0BE
:104450004CF8284670BD00BF10010020DFF800F0C6
:1044600065A4031010B50446034BFFF7F7FFA068DF
:1044700000B1204610BD00BF9405002001488068AF
:10448000704700BF6C01002038B504460D4600F0AF
:1044900038F8616A0D43656200F034F82046BDE8E3
:1044A0003240FFF713BB002870B50D4615F1010F20
:1044B000044608BF052500F024F806460120A84060
:1044C000A061656129460548406900F018F8A062BE
:1044D0003046BDE8704000F015B800BF6C01002008
:1044E000DFF800F021B4031000E005E0EFF31180E5
:1044F000202181F31188704780F311887047FFF7FE
:10450000EFBFF3E7F8E70000F0E7F5E70000EDE7BD
:10451000F2E70E49C20744BF01220A60820744BF86
:104520004FF480720A60400744BF4FF48030086047
:104530007047074AC30748BF1160830748BF5160EF
:10454000400748BF91607047000000000420094008
:10455000182009403EB50446294D05F1300105F10A
:104560003C00FEF79FFEA8600FF25101FFF73FF8F5
:10457000A868244A4FF4E021FFF73FF8A868224AD0
:104580004FF4E021FFF739F8A868204A4FF0C051F6
:10459000FFF733F8A8681E4A4FF0C051FFF72DF817
:1045A0000020019000900023C8220FF2450105F180
:1045B0000C0000F03FF86C6037BD000010B5104CE7
:1045C000002020700D20FEF7CFFF18B9217841F0B0
:1045D000080121700E20FEF7C7FF18B9207840F0BF
:1045E0001000207004F10C00BDE8104000F047B846
:1045F0000348416800291CBF007808477047000045
:10460000FC0200200D0005800E0005800D0000104A
:104610000E000010DFF800F0159E0310DFF800F028
:10462000FDAB0310DFF800F0EDB40310DFF800F08D
:10463000D1B403102DE9F04389B08046894617466E
:104640001D46109C119E0823242200216846FFF776
:1046500095F8364906964FF47A700A68B0FBF2F086
:10466000454305954743ADF810406B463A464946E9
:104670004046FFF797F8404609B0BDE8F083FFF7E2
:1046800089B8FFF77FB810B504460021FFF7C6FFD1
:10469000204610BD70B505460C4616460C2000F0AD
:1046A00067FB01000BD08E602846FFF7BBFF24B1EB
:1046B0004FF080412046FFF7ADFF012070BD30462E
:1046C00000F057FB002070BD10B50446FFF7AEFFA9
:1046D000A04204D0846800F04CFB204610BD0020AE
:1046E00010BD78B585B0044668460FF26C011422FF
:1046F000FFF700F80E4830250570831C78254570BB
:10470000A21D062112F8015D2D09491E1DF8056044
:1047100003F8016B167806F00F061DF8065003F833
:10472000015BEFD1197006B070BD00004C150000A0
:10473000F81B002003460020002B00D1704730B545
:104740000120002400E0641CA5B2954203D25D5D07
:104750008D42F8D0002030BD303132333435363719
:10476000383941424344454600000000DFF800F07C
:1047700071B70310DFF800F005AB0310DFF800F0AD
:10478000EDA10310DFF800F081B60310DFF800F0B0
:10479000F9900310DFF800F0C5A7031020B108233B
:1047A0003C220021FFF7E2BF704780B5FFF786F992
:1047B000ADF80000FFF742F8ADF80200009802BD26
:1047C00001B5BDF80200FFF73DF8BDF80000BDE8F7
:1047D0000240FFF777B938B5DFF8D44920780128CF
:1047E0002DD001212170DFF8CC29DFF8CC19890800
:1047F0008900521AA26161610A4602E0002342F870
:10480000043BA3695D18AA42F8D39B0801EB83021D
:10481000002042F8040CE8200860A06980088000AD
:10482000EC38C1F8E80001F1E800A060002000F0D9
:1048300007F8E0606069A060A069001F206131BDD9
:10484000F8B500240026051D15F003001CBF291D26
:104850000D1AFFF7AAFFDFF8582901465160112D04
:1048600034BF9368D3681868002803D580F00040EF
:10487000002619E0370013D02768D3F800C067443A
:10488000AF42276010D33846ECB1401B042811D347
:10489000605145F0004020601069451B156111E032
:1048A000A84214D201261C46034418680028DBD114
:1048B000002408E0136920681B1A1361206840F087
:1048C00000402060241D00F051FA2046F2BD1C4635
:1048D000DAE710B50446FFF768FFDFF8D418486040
:1048E00054F8042C22F0004244F8042C0B69D2182E
:1048F0000A61221F8B689A4238BF8A60BDE8104067
:104900005EE72DE9FC41FFF750FFDFF8A418CA6805
:10491000486000240025002600270AE00E460125F5
:10492000144605E02B00F9D02368CB1823608E19BC
:104930000A441168B046BE4238BFB846002905D0C7
:10494000F0D581F0004100254746F1E7FFF738FF39
:104950004046BDE8F68110B50446DFF85408816989
:10496000216000696060FFF7CCFF09282CBF083880
:104970000020A06010BDDFF838180A69121A40F252
:104980002D139A4228BFFFF75BBF0020704780B508
:10499000FFF721FF4BF6BE2002BD084650E7084650
:1049A00097E702B56846FFF7D6FF01BD01207047C3
:1049B00038B50446FFF7F9FE00220C23DFF8FC1798
:1049C0005343CD18A96C21B18C4206D0521C032A46
:1049D000F3D3FFF7F5FE002032BDFFF7F1FE05F13E
:1049E000480032BD7CB50546FFF7DFFE04460021D6
:1049F0000C22DFF8C8074A438618B06C48B18542DC
:104A000010D0491C0329F3D32046FFF7D9FE00201C
:104A100076BD3065B5640021FFF7ACFEF06408B9DF
:104A200000F0E4FB2046FFF7CBFE06F1480076BD20
:104A300038B50446FFF7B9FE0025DFF880270C21C2
:104A40006943515A21B18C4206D06D1C062DF6D314
:104A5000FFF7B6FEFF2032BD1FE310B504462088E5
:104A6000FFF7E6FFFF2802D14FF0FF3010BD0C2109
:104A7000DFF8482748431044816811B96FF00100FE
:104A800010BD2046BDE81040084702460FF25070A6
:104A9000104710B500200C21DFF82027002401FB6F
:104AA00000F31344401C03289C641C65F7D30020CA
:104AB000002301FB00F4401C13530628F9D3BDE882
:104AC000104088E62DE9F8478FB081468846FEF70A
:104AD00077FF05460027DFF8E86647451FD268469E
:104AE000FFF75CFE09EB07104168069181680891A9
:104AF0006946026804920022C06805903046FFF7BC
:104B00003DFE040011D0FFF750FE82462046FFF71D
:104B100069FF50B15046FFF753FE7F1CDDE7284682
:104B2000FEF752FF10B0BDE8F08700F05FFB00BF5A
:104B3000F8B56846052141604FF480518160DFF887
:104B40008426DFF884160091C2600121FFF7BAFFC6
:104B500005B000BD38B504460D46FFF726FE00211E
:104B600045F80C1C226812B9256006E00A4652F886
:104B70000C1C0029FAD142F80C5CBDE832401FE65B
:104B800080B5FFF7FFFDFFF713FF10B96FF00400CA
:104B900002BD816809B9022002BD4068AFE0062865
:104BA00081B00ADA0C22DFF814365043185A002874
:104BB0001CBF4FF6F873984202D14FF0FF3001E06E
:104BC0000880002001B0704730B5DFF800562A6831
:104BD0000C464FF47A71A1FB0001002300F00AFBA0
:104BE000002399424FF0004201D8904202D36FF067
:104BF000020030BD2060002030BD01468868496851
:104C0000084770B505460E46FFF7BCFDFFF7EAFE04
:104C1000040009D0FFF7C9FD0146002200F09FF80B
:104C200020B1521C062AF9D300F0E0FA4FF6F870D2
:104C300018805C60002098602A706068306000F026
:104C400095F8002070BD0C3843E670B50446154653
:104C50001E460846FFF7ECFE0146FF2902D14FF041
:104C6000FF3070BD33462A462046BDE8704083E0E1
:104C70007CB50546164600F0A2F8040010D128883D
:104C80006946C0B2FFF78BFF28B13068FFF7DBFF42
:104C90006FF0050076BDBDF800002880FFF770FFBB
:104CA000204676BD38B50546FFF76CFDFFF780FE60
:104CB000044600F0B7FB002818BF012800D014B943
:104CC0006FF0040032BD65B900200090009B606861
:104CD0004FF000420021FFF759FD401E8041C00FF8
:104CE00032BD15F1010F08BF4FF0FF30EDD069461E
:104CF0002846FFF769FF0028E8D032BD80B54FF0A5
:104D00000041FFF787FC002002BD2DE9F84305466E
:104D100000F0A0F9FFF766FE04006FF002091CD056
:104D2000FFF743FD0146002200F019F840B185422B
:104D300011D0521C062AF7D300F058FABDE8F283CE
:104D40001D805C609E603A706068C8F8000000F0EA
:104D50000DF80020F2E700F009F84846EEE70C23D2
:104D6000DFF858045343034418887047084627E582
:104D700066E5AEE5FFE5EEE52DE9F8430D462F4685
:104D8000062FBCBF04460628164699466FF0020857
:104D900006DAFFF70AFD00F003FA19B9FFF710FD74
:104DA00040460AE0FFF70CFD00F0F0F97868406833
:104DB0004FF00041FFF72EFC0020BDE8F2832DE903
:104DC000F04106460F469046FFF7DCFCFFF7F0FD8A
:104DD000050008BF6FF004001BD0FFF7E6FCA968D0
:104DE000002441B10C46A4F10C010A68AA6000221B
:104DF0000A60FF228A72FFF7E3FC0CB9022008E088
:104E0000A4F10C000179317040793870C8F8004085
:104E10000020BDE8F08182B001218DF800109DF8DE
:104E200000000028FBD100F0E1F900BFFFF7AABAAB
:104E300010B5DFF8980302686FF00044A4FB02018C
:104E400000234FF47A7200F0D5F9002399424FF015
:104E5000004201D8904200D3204610BD7CB50C46DC
:104E600015461E466946FFF7AFFE30B90098334637
:104E70002A46214600F002F8002076BD2DE9F043D5
:104E80001D4689B02C6880460E4617462CBB0C2068
:104E9000FFF7D6FC04006FF0030918D00823242282
:104EA00000216846FEF76AFC0020ADF8100005906E
:104EB000069400236A464146DFF81403FFF76AFCB4
:104EC000206030B9FFF7A7FF2046FFF702FD4846F4
:104ED00017E06660A7602C600BE0DFF8F8623068CE
:104EE000804705462068FEF74DFCA760284671689C
:104EF000884720684146FEF749FC2068FEF74AFCD7
:104F0000002009B0BDE8F08300281CBF0068FEF750
:104F100039BC7047E0B58DF80400684600F0B6FA79
:104F20009DF805000EBDE0B50190684600F0E4FA7A
:104F30000EBDE0B50190684600F0E8FA0EBD2DE91F
:104F4000F84384B0044600F085F8FFF731FD0546CC
:104F50000020029000F066FA002818BF012800D057
:104F600015B96FF0040072E044B900200190FFF71A
:104F700009FA814601980124814425E014F1010FCA
:104F800008BF4FF0FF30F1D001A92046FFF71CFE0B
:104F90000028ECD05BE0039902A8FFF7DBFD68680E
:104FA0004FF00051FFF736FB0199012411F1010F79
:104FB0000AD0080008D0FFF7E5F9B9EB000031D0BE
:104FC000019981422ED30190019B68684FF00052F5
:104FD0000021FFF7DBFB28B303AA69460DF10100AE
:104FE000FFF7EDFE0400DFD19DF801000DF1020195
:104FF000FFF7D5FD0028CED1039A9DF80010BDF82B
:105000000200B0470028C6D017B1BDF802003880B2
:10501000B8F1000F1CBF9DF8001088F800100C9824
:1050200003990160FFF7ACFD029EFFF7BEFB01464E
:1050300056B1324600E0024652F80C0C0028FAD174
:10504000A86842F80C0CAE60FFF790FE204605B051
:10505000BDE8F0830E4617469846FFF793BB38B578
:10506000FFF790FB044600F0DDF9002818BF012887
:1050700011D0FFF79AFB0025504A0C236B43D15AFD
:1050800039B1D1184B681968A14206D06D1C062DA4
:10509000F3D3FFF795FBFF2032BDFFF791FBE8B29A
:1050A00032BDE0B5ADF800008DF8061000204A4989
:1050B0000A68ADF802006846904710B99DF80700ED
:1050C0000EBDFF200EBD1078422801D1012070478F
:1050D000002070470CB478B504460E4687B000F047
:1050E000A1F90CAD002814BF0128FFF794FE14208D
:1050F000ADF810000021FF2002918DF812000696F5
:105100000595FFF7ACFF05AB03222146FFF79DFD98
:10511000002001A901900091002300222F4941F2B3
:105120008830FFF70CFF012805D020B9019820B185
:10513000FFF789FD01E0FFF76EFE0598006808B0F3
:1051400070BC5DF80CFB2DE9F8430D462F46062F89
:10515000BCBF04460628164699466FF0020806DAD8
:10516000FFF723FB00F01CF819B9FFF729FB4046B5
:105170000AE0FFF725FB00F009F8786840684FF077
:105180000051FFF747FA0020BDE8F283A9F10800BB
:10519000047045708670494678680830FFF7DABCBD
:1051A0000C21064A11FB07F7D719796870470000F0
:1051B000E41A00207F3B01205B2B0020781A00209E
:1051C0008B4A00006C03002005D600004C1500003F
:1051D000FB4B0000440300204C030020C75000009C
:1051E0005B4A0000AB470000C1470000012000F00F
:1051F0009DB90128B3BBD9B1B2F5803F7DD2022A57
:105200001ED98C46B1FBF2F102FB11C31B0443EA29
:105210001043B3FBF2FC02FB1C3380B240EA0343B1
:10522000B3FBF2F002FB103240EA0C40002370475F
:10523000022A05D98446B0FBF2F002FB10C2704787
:105240004AB105D100F0010249085FEA3000704719
:1052500000220023704700F06FB90B00020000210C
:1052600000207047904271EB030CF6D3B3F5803FFA
:105270002FD2F0B5B3FA83F7B1FA81F4A7F10F0E8C
:105280003D1B5340CEF1200602FA0EF2F34153408B
:10529000B5F10F0746D80F3C2C444140C4F120061D
:1052A000A040F1414140B1FBF3F603FB1611A2FB14
:1052B0000645001BA94102D2761E8018594180EA9A
:1052C000010221FA0EF362FA0EF200215A40304632
:1052D000F0BD30B4B1FBF3FC03FB1C11A2FB0C4589
:1052E000001BA94103D2ACF1010C8018594130BC1C
:1052F00002460B46604600217047B2F1807F65D3BD
:10530000F0B5B2FA82F7B1FA81F4C7F10F063D1B8E
:1053100022FA06F307F1110EF24120355A40B5F199
:105320000F07B8D94140C4F12006A040F1414140E7
:10533000B1FBF3FC03FB1C11A2FB0C45001BA941B4
:1053400003D2BCF1010C801859410F2F12D30F3F2B
:10535000C90341EA5041B1FBF3F603FB1611A2FB6E
:105360000645D4EBC030A94102D2761E80185941BF
:1053700046EACC3C07B34140C7F12006B840F141B2
:105380004140B1FBF3F603FB1611A2FB0645001BDF
:10539000A94102D2761E8018594180EA010221FA01
:1053A0000EF3C7F1200462FA0EF20CFA07F05A402D
:1053B0002CFA04F13043F0BD80EA010221FA0EF329
:1053C000002162FA0EF260465A40F0BD8C46B1FBF5
:1053D000F2F102FB11C31B0243EA1063B3FBF2FCC0
:1053E00002FB1C331B024CEA002043EA1063B3FBB0
:1053F000F2FC02FB1C331B024CEA002043EA106360
:10540000B3FBF2FC02FB1C331B024CEA002043EA14
:105410001063B3FBF2FC02FB1C324CEA00200023B9
:10542000704703280148007D704700BF48010020F5
:1054300038B50446012501E0FDF7D9FAB4FA84F045
:10544000C0B2202806D000F019F8F5DB401FFDF7A8
:10545000E3FAF3E731BD38B50446012501E0FDF775
:105460005AFAB4FA84F0C0B2202806D000F006F848
:10547000F5DB401FFDF768FAF3E731BDC0F11F000F
:10548000C0B205FA00F14C400528704738B5054612
:1054900001206871244C2879A8B1FFF786F90546E8
:1054A0002078FF2805D12846FFF78AF96FF006001B
:1054B00032BD401C2070C0B2012804BF6068FFF7F5
:1054C000B7FF284614E0FFF770F9217821B9FFF7FC
:1054D00077F96FF0070032BD491E2170C9B239B9A2
:1054E000FFF76EF96068FFF7B6FF0020687101E012
:1054F000FFF766F9002032BD80B5406810F07F4F9D
:1055000000D00DE0FFF794FF002002BD80B5406899
:1055100010F07F4F00D003E0FFF79DFF002002BD99
:105520006FF0020002BD0000540300202021090397
:1055300026311820ABBEF9E77047022910B50FF2EB
:10554000180403E011F8013B5840205C13465A1E32
:10555000002BF7D110BD00000097B92EE5725CCB8F
:105560005DCAE473B82F0196BA2D03945FC8E67143
:10557000E7705EC90295BB2CE3745ACD0691BF2833
:10558000BE2907905BCCE27559CEE077BC2B059223
:105590000493BD2AE17658CF51C6E87FB4230D9A13
:1055A0000C9BB522E97E50C7EB7C52C50E99B72003
:1055B000B6210F9853C4EA7DB2250B9C57C0EE79F3
:1055C000EF7856C10A9DB324089FB126ED7A54C3E3
:1055D00055C2EC7BB027099EA2351B8C47D0FE69D3
:1055E000FF6846D11A8DA334188FA136FD6A44D3C3
:1055F00045D2FC6BA037198E41D6F86FA4331D8AB3
:105600001C8BA532F96E40D7FB6C42D51E89A730A2
:10561000A6311F8843D4FA6DF3644ADD1681AF3892
:10562000AE3917804BDCF26549DEF067AC3B158282
:105630001483AD3AF16648DF1087A93EF5624CDB72
:105640004DDAF463A83F1186AA3D13844FD8F66162
:10565000F7604ED91285AB3C7047002ADFF800F0A6
:1056600021B6031070B5394C0FF24900384DFCF7E4
:10567000D7FFFCF7E7FF23681E68012201212846B7
:10568000B0472268334C5368012128469847324876
:10569000E26801681160FFF7CBFBE1684860FFF743
:1056A000F8F9FFF745FA00F0A5F8FFF7D7FF00205B
:1056B00070BD00007CB5294E326804460D462AB9FB
:1056C00000214FF0FF3001F0D9FB3060002230683C
:1056D0000FF29403002101F005FC30680FF29803EB
:1056E000022C10D0042C02D0052C18D01DE000F0A4
:1056F00037F80FF29003306802B0BDE87040002226
:10570000022101F0EFBB012D04D100F029F80FF2C6
:105710008803F0E700F024F80FF29403EBE700F0C1
:105720001FF830680FF29C0304E000F019F83068AD
:105730000FF2A0030022022101F0D4FB01218DF819
:1057400000109DF800000028FBD173BDD8010010A7
:10575000004003406C0300204C150000CC030020E7
:105760000022002101F0BEBB3E3E3E535441434B5C
:1057700020415353455254002A2A2A4552524F522F
:105780002A2A2A003E3E204F5554204F46204D45A0
:105790004D4F5259210000003E3E20494E54455283
:1057A0004E414C204657204552524F522100000096
:1057B0003E3E20494E5445524E414C204552524F98
:1057C000522100003E3E204943414C4C2041424F73
:1057D000525421003E3E2044454641554C542053EE
:1057E00050494E4C4F434B2100000000DFF800F0C1
:1057F000B5A3031000B58FB008233C2200216846F2
:10580000FEF7B4FFDFF80C0C00F1500107914FF4E4
:10581000806201210892069100236A460FF2A511C9
:10582000FFF7E4FF0FB000BD3EB5DFF8244D04F1F3
:105830001C012046FFF7E5F904F12C00FEF723FFD9
:1058400020624FF6FF720020DFF8081D00250301DB
:10585000401CCA520B440828DD60F8DBDFF8B80BA7
:10586000FEF778FE0FF21C10DFF8B01B0090152336
:10587000002200F0A4FFDFF8A81B1020FFF72AFC8D
:1058800000F09CF80246DFF89C1B00F025FB4FF06F
:10589000FF32DFF8941B00F01FFB4FF0FF32DFF800
:1058A0008C1B00F019FB00F089F80246DFF8801B22
:1058B00000F012FB02208DF807008DF806508DF8DD
:1058C000055001210DF107008DF80410009001230F
:1058D000DFF8845C4FF4806200F0F4FF0DF1060005
:1058E0000090012340F2024200F0ECFF0DF10500B0
:1058F0000090012340F2034200F0E4FF01A8009071
:10590000012340F2064200F0DDFF04F16402DFF8FB
:105910004C1CDFF8AC5C00F0DFFA00230022DFF85B
:10592000401C00F0ECFC00F049F80246DFF8941C43
:1059300000F0D2FA00F042F8002102220191009218
:1059400003460822DFF8801C00F039FF00214FF0E9
:10595000FF3001F093FAA0616FF0784200F02AF86E
:10596000A069DFF8683C0422294601F0CDFADFF88F
:10597000E40C0FF228030178A069002201F0B2FACA
:1059800037BD000053696D706C652043656E74729D
:10599000616C000000000000000000003D3D3D3D46
:1059A0003D3D3D3D3D3D3D3D3D3D3D3D3D3D3D3D27
:1059B000000000000021284601F006BB217850209D
:1059C000FFF76FBB3EB5FFF72FFFDFF8845BE86999
:1059D0004FF0FF334FF040420021FEF7D7FE0400A6
:1059E000F5D00020019001AA69460DF10200FFF7F1
:1059F0003FF9C8B9BDF802100120102902BF9DF877
:105A0000002029788A4208D101990A884FF6FF734D
:105A10009A421CBF084600F014F8019900291EBFE5
:105A200000280846FFF70FF96000D0D5286AFEF776
:105A30004BFE0400CBD000F0EDF82046FFF799F9BB
:105A4000F4E77CB50178912909D0B02904D0D02998
:105A500078D100F044FA75E000F0FAFB72E041788A
:105A6000DFF8EC4ADFF8EC5B0E2906D00F291ED0D8
:105A7000102917D03E293FD064E0818841F20542C9
:105A800091425FD1806890F903604178807801EBA2
:105A9000002188B200F0C8FD7642019600900FF216
:105AA000A80348E000210820FFF704FE4AE0297817
:105AB0008288A46940F20645AA4243D042F23205E8
:105AC000AA4280780FD1491C1A2807D10FF28C0303
:105AD0000022C9B2204601F005FA33E0009000220E
:105AE0000FF2A80305E001900092C91C0FF2B80361
:105AF0000022C9B2204623E082780C2A22D1C17844
:105B000031B1808800F090FD00900FF2C00312E0E8
:105B1000C179012908BF0FF2CC0605D002290CBFBC
:105B20000FF2C8060FF2CC06808800F07DFD0196CA
:105B300000900FF2C8032978A069891C0022C9B21D
:105B400001F0D0F9012076BD25733A205253534914
:105B5000202D25642064426D00000000504859202B
:105B60004368616E6765206661696C7572652C209B
:105B70007065657220646F6573206E6F7420737535
:105B800070706F72742074686973000050485920F7
:105B9000557064617465205374617475733A203074
:105BA0007825303278000000556E6B6E6F776E206E
:105BB000436D64205374617475733A2030782530D6
:105BC00034783A3A307825303278000025733A201C
:105BD000504859206368616E6765206661696C751D
:105BE0007265000031204D627073000032204D62FA
:105BF00070730000436F64656400000025733A20F1
:105C0000504859207570646174656420746F202554
:105C1000730000002DE9FC47DFF83479DFF8A08934
:105C2000DFF8304A06463188B869491E092915D877
:105C3000DFE811F00A00570063001F00AB00C0004E
:105C4000D300D800ED000A01B078010707D50D2078
:105C5000FDF78AFC002801D101F0D2F9FFE0C0066F
:105C6000FCD50E20FDF780FC002801D101F0E4F9FD
:105C7000F5E07568E88AA96902002ED00844421E42
:105C800000E00144914228D211F8010B0028F9D01C
:105C90000B78022B18BF032BF3D1491C401EC0B256
:105CA000012840F3E280914280F0DF800B78F02BF6
:105CB00007BF4B78FF2B891C801EF0D16978A81C88
:105CC00000F050FCA81CFEF70CFD0090002221788B
:105CD000B8690FF2A81300F0CDFEA86900280BD018
:105CE000C8E0DFF8DC2B042100F0A5FA2178B869C0
:105CF0000FF2981300F0A7FAB1E021787D780FF247
:105D00009C130095C91C00F09BFB4FF003090DB1DB
:105D10004FF00B09B87808B149F020090422494630
:105D200000F089FA284600F096FF0400DFF8048CA2
:105D30007C6208BF0025D8F8040065F3DF60002C02
:105D4000C8F80400D8D04FF0000ADFF89C9C0EE0A1
:105D500009F10100CAEBCA010844FEF7C2FC00F0D9
:105D600075FF08EBCA000AF1010AC4600F34AA45A6
:105D7000EEDBBAF1070F7CDC012202FA0AF2002105
:105D800000F059FA0AF1010AF3E70020B88278829C
:105D90000120F870F88A011FADF8041050203978FE
:105DA000FFF77FF9009001AB3A8ADFF8AC1B00F0F7
:105DB0008AFD54E0B078DFF89C1700014FF6FF72BF
:105DC0000C5A94424BD00844C068FEF758FC224657
:105DD000DFF8EC1B00F080F841E07168B07800F06B
:105DE000B2FA3CE072683D8A1178DFF8EC7B31B1A1
:105DF00021780FF2C0030097491C00F021FB0097A7
:105E000000232A46DFF8E41B00F0D9FC27E000203D
:105E100001F0A0F90546062207F15C0101F0B2F994
:105E2000E8B12846FEF75DFC009000222178B869B1
:105E30000FF2B433891D00F01EFE0622294607F139
:105E40005C00FDF747FC0AE021780FF27803891C1B
:105E500000F0FAF9DFF8781C1020FFF73BF97068C2
:105E600008B1FEF786FFBDE8F387012800D1491C81
:105E700008E7786AFEF77DFFF1E700004469736385
:105E80006F76657265643A20257300004469736318
:105E90006F766572696E672E2E2E00002564206471
:105EA00065766963657320646973636F766572658F
:105EB0006400000050617373636F64653A20256469
:105EC00000000000496E73756666696369656E74EB
:105ED000204D656D6F7279001020FFF7FBB82DE93A
:105EE000F84F054688B0A878DFF8D486DFF844BAC2
:105EF0000FF2CC2ADFF85C46DFF85476DFF85467FF
:105F000070B1052800F08C80062800F0C5800728B5
:105F100000F02381112800F00481152871D03BE1A5
:105F200000230FF2ED72DFF8AC1BDFF8AC4B00F092
:105F3000E6F94FF48602DFF8A41BFFF7CDFF4FF41C
:105F400048700190009001230122DFF8941B00F0BB
:105F500036FC0620ADF80A000DF10A03002200F01D
:105F600016FC01208DF8080002AB012200F00FFCA6
:105F700001208DF8080002AB062200F008FC40F674
:105F80000200ADF80A000DF10A03032200F0FFFB46
:105F9000A888F8820022032100F04DF93178B86911
:105FA0000FF22C2300F04FF900F044FAA81DFEF781
:105FB00098FB019081A000F041F90FF22023491DC8
:105FC00000F059FD002001F0C5F80146062207F156
:105FD0005C00FDF77FFB07F15C00FEF782FB00F041
:105FE0002DF90FF20423891D00F045FD0920012140
:105FF0000190009100F0F2FC07F13800FEF71AFB67
:10600000CAE0B8780B2400B12B243178B8690FF2BC
:10601000E41300F018F9E24322F07842214638E018
:106020006889291D00F0D4FA00F00EFA04EB001282
:10603000002111721C2500F0F9F800F0F1F80FF2C0
:10604000D01300F017FD00F0F5F9B8780828A8BFC4
:106050001F254FF00009012712E00BF10C000F2261
:1060600050F83900214601F08DF828B907FA09F2F5
:106070000021584600F0A8FF09F101005FFA80F9FD
:10608000DBF80400B9EBD06FE7DB2A46ED4325F0DF
:10609000784100F0D0F87FE0B5F80490484600F071
:1060A00031F9032500200106090D625A4A4576D0D0
:1060B000401CC1B20829F6DB77E000F0B7F800F029
:1060C000AFF80FF6A83300F0D5FC00F0B3F90026C6
:1060D0004FF0010A10E00BF10C000F2250F83600CF
:1060E000214601F04FF828B900220AFA06F1584675
:1060F00000F06AFF761CF6B2DBF80410B6EBD16F45
:10610000E9DBB87800B12325EA4322F0784229463A
:1061100000F091F8388A81453ED1404600F03BFFBF
:106120003AE0A888ADF800006A46A97B8DF80A100D
:106130000121E888ADF802002889ADF804006889DB
:10614000ADF80600A889ADF808008DF80B101020F6
:10615000DFF88C1AFEF7BEFF1EE0AA88DFF8841A6B
:1061600002AB00F015FBB8B9E87800280DF10A0081
:1061700007D1FEF7B6FABDF81C100FF604330191F3
:1061800005E0FEF7AEFA01900FF61033A87800F0A4
:1061900055F8491C00F06FFC09B0BDE8F08F4FF6D0
:1061A000FF726252B9784A1EBA70C0B2082884DB06
:1061B0009DF80000401C8DF80000F9E749440000FC
:1061C0004E756D20436F6E6E733A2025640000009B
:1061D000496E697469616C697A6564002573204150
:1061E0006464723A20257300525020416464723A0C
:1061F00020257300436F6E6E6574696E672061744D
:1062000074656D70742063616E63656C6C656400A9
:10621000436F6E6E656374656420746F2025730030
:106220000446009400223178B8697047A11C01EB44
:106230000010FEF756BA404600F0C6BE009000229D
:106240003178B8697047C91C0022C9B200F04ABE53
:1062500038B5044601236288DFF88C1900F04FF846
:10626000002845D0DFF8EC13B94B0978657822791E
:106270009869491C162D03D100920FF638232FE0A0
:106280000B2A08D0012A0CD1227A0A2A16D1227BA5
:106290000FF6342323E0E268137800930FF63823D7
:1062A0001EE0132A10D11A790FF65023009200F045
:1062B000C7F8DFF8380900F06EFE19E0122A12D193
:1062C000227B0FF62823F1E77E2A03D1227A0FF6EC
:1062D000402304E07F2A06D122890FF6442300924E
:1062E00000F0AEF804E0D87810B1204600F0B5F820
:1062F000217904F10800BDE8344000F077BF102098
:10630000FEF7E8BE1CB500F080F900F09DF8914959
:1063100001EB0014E06808B9122016BDFEF7B1F9D0
:10632000E068FDF73BFAE068FEF723FD0020E0603F
:106330000022C848864B01789869891CC9B200F0D0
:10634000C9FD002016BDF0B5C24E814D0C46317816
:1063500087B00346491CA278A8691F0003D10FF635
:10636000D01300224BE0012B3AD1002A34D10FF692
:10637000D013C9B200F0B6FD2288DFF8681801AB6F
:1063800000F006FA002843D19DF80500022818BF46
:1063900003283DD10622002103A8FEF7CBF90028EF
:1063A00036D10DF10600FEF79CF9009000223178FD
:1063B000A8690FF69C1300F05DFB208800F025F91A
:1063C00000F042F8DFF8283806220DF1060103EB51
:1063D0000010FDF77FF91BE000920FF6881315E01F
:1063E000022B07D112B90FF6901308E000920FF6B6
:1063F0009C130BE0032B0BD12AB90FF6A813C9B2DB
:1064000000F070FD04E000920FF6AC1300F018F8F5
:1064100007B0F0BDC80A0020AF6600004D9701002C
:10642000B18901005D8A010099970100A1870100EF
:1064300031950100B878009053463178B869091D4C
:106440000022C9B200F04EBD082805DB9DF800000F
:10645000401C8DF80000F9E7704730B53C4D04460C
:10646000E878012887B015D1207903286DD10FF67F
:10647000601229781288ADF808200220E8705020B8
:10648000FEF70FFE02220092019002AB6288DFF855
:10649000641730E0022834D1207907282ED12089D2
:1064A00050B1E0680178427801EB0221698281787D
:1064B000C07801EB0021A98260781A2845D1688A4A
:1064C000002842D00321E970ADF804000221A88A17
:1064D0008DF80810ADF80600FF21F1208DF80A10A4
:1064E0008DF8090050202978FEF7DBFD009001AB04
:1064F0006288DFF8041700F0E6F926E0012824D1CD
:10650000DDE7032821D1217909291CD12089D0B1C7
:10651000288A00F07AF8FFF797FFE1680FF6B403D6
:10652000CA78DFF8D81600010A54002249480178D9
:10653000A869491CC9B200F0D5FC00220321DFF88C
:10654000AC0600F041FD0020E87007B030BD00004F
:10655000B4030020681B0020B5370100313A010068
:10656000E50B01002DE9F047DFF894566C78A24660
:10657000BAF1070F814688461FDC0026DFF86874F1
:1065800000E0761CF0B2A0420BD2F1B2781CC1EB55
:10659000C10101440622484600F0F4FD0028F0D174
:1065A0000BE0CAEBCA0A781C062249465044FDF7A4
:1065B00091F807F80A80641C6C70BDE8F087000051
:1065C00020040020BD4F01003D490100E56A0000A4
:1065D00070B500244FF6FF72DFF8283625062D0D22
:1065E0005E5B964205D0641CE5B2082DF6DBE0B296
:1065F00070BD58530622981C2844FDF76BF8DFF84D
:1066000000068178491C8170F1E701460020DFF81F
:10661000F42503061B0DD35A8B4203D0401CC3B292
:10662000082BF6DBC0B2704710B50021DFF8D42587
:106630000B061B0DD45A844205D0491CCBB2082B43
:10664000F6DB002010BDBDE81040D018801CFEF71E
:1066500048B80000E91B0020F8B505460E4617466D
:106660000420FEF785FB04000CD02580A77022468D
:106670003146072000F034F820B12046BDE8F24052
:10668000FEF7E1BAF1BD38B51D460120FEF770FBFB
:1066900004000BD0257022460021082000F020F8CD
:1066A00020B12046BDE83240FEF7CDBA31BD0146EB
:1066B0000022012014E0014680B5C0B2062802D0B5
:1066C000092804D001BD09040022090E06E0DFF804
:1066D0003805FDF7D4FF002200210920BDE808405D
:1066E00070B504460D4616460820FEF741FB68B11A
:1066F0000480857046600246DFF80435D969186A5F
:10670000FDF7C8FF401E8041C00F70BD132070BD53
:1067100010B50C4641020BD5042022460021FFF79C
:10672000DFFF20B12046BDE81040FEF722BB10BDC0
:10673000C10348BF0220F0D4810348BF0320ECD43A
:106740000028F4D50A20E8E71CB5040007BF0120A3
:106750008DF8040004218DF8041001AB0122DFF84C
:10676000781300F015F8DFF8A4240FF27C6302EB35
:10677000C40100F09EF9C91CDFF88404806900F0B0
:106780007AF9DFF88C0400F006FC012016BD2146E2
:106790001020FEF79FBC80B5DFF8641400200022B3
:1067A000487000926423DFF86C1400F008F8444A43
:1067B000DFF85C04042100F007FC012002BD10207A
:1067C000FEF788BC80B5C2492AE03EB5002201929E
:1067D0000123C0EBC0008449DFF83444DFF82054C3
:1067E00000930A18531C0A5CDFF82C1402F0010213
:1067F000FFF7E5FFDFF824241021204600F0E4FB3A
:10680000DFF81C040FF2F8530178A869FFF71BFDAD
:10681000204600F0C0FB01203EBD80B5DFF8041427
:106820001020FEF757FC012002BDF8B504460022F7
:10683000082C00F0C7F8DFF8C85301EB04163088C5
:106840002882307A20B900210520FFF749FF032272
:10685000DFF8D403DFF8947300EBC400C16839603B
:10686000F068002807BF42F00802042142F0040249
:106870000821384600F0A8FBDFF8A4030178A869D6
:10688000C91C0022C9B200F025FB384600F083FB8A
:106890000120F2BD1CB5DFF86843208AFFF7B5FE82
:1068A00000F04AF850202178FEF7FBFB009001AB86
:1068B000228ADFF8781300F006F8012016BD0000E8
:1068C000FBFFFF0729461020FEF704BC30B50FF28E
:1068D000405185B0054604A80C6804600023C84CEC
:1068E000208A0122122100F08AFC0290F8B1208A4D
:1068F000FFF78BFE00F020F80120ADF8060004A998
:10690000485D0299207108700020ADF80C005020FD
:106910002178FEF7C6FB009001AB228AC449FFF73D
:10692000D2FFC0B218B1122101A800F05FFC012013
:1069300005B030BD78040020082805DB9DF8000074
:10694000401C8DF80000F9E7AE4901EB0010017A18
:10695000ADF8041070470000698A01007CB501465B
:10696000A748A24C008A012202FA01F104291BD196
:10697000FFF74BFE0546082D00F024F801EB051645
:10698000F068D8B92420FEF7F3F9F060B0B1012126
:106990002D02009145F00605019500F01FF8FDF766
:1069A00049FE0422082104E0FFF7ACFC30B90822BC
:1069B0000421204600F008FB012076BD002076BDB2
:1069C000072A020005DB9DF80000401C8DF800003E
:1069D000F9E78C497047000040E20100002340F6CF
:1069E000B832944970470000301B0020593A01002A
:1069F00070B54FF4C870824C7A49228A884E8AB0AA
:106A00004FF44875ADF80600ADF804200020ADF84D
:106A10000A00ADF8085004ABFFF7BAFE58B9BDF84C
:106A20002400B0F5167F1ABF4FF41670ADF80C00B5
:106A3000ADF80C500CE00DF11200FDF752FE009085
:106A400000223178A0690FF2CC33491C00F013F812
:106A500001AA79491020FEF73DFBBDF80C00317802
:106A60000FF2DC330090491CA069FFF7E9FC01201C
:106A70000AB070BDC91CC9B200F034BA3EB50546B3
:106A80005F4C228A60190021007A029101900090E7
:106A900000236A49FFF793FE694A0FF2CC3302EBF9
:106AA000C50100F006F8491CA069FFF7E4FF0120CA
