:10000000803F0120D99E0200A1C10310A1C10310AD
:10001000A1C10310A1C10310A1C10310A1C103100C
:10002000A1C10310A1C10310A1C10310A1C10310FC
:0C003000A1C10310A1C1031079C103108D
:1010000001000000000000000000000000000000DF
:10101000FFFFFFFF8C040020040000000000000020
:10102000000000001400000050150000180000002F
:1010300090100000F80300200400000000000000F1
:1010400000000000240000003C1400001800000014
:10105000C9A5000008000000010000000100000018
:101060006815000000000000FFFFFFFF640400207F
:101070000400000000000000000000002800000044
:1010800028150000240000001800000000000000E7
:10109000BC120000A41000000BB8031089AE0310AE
:1010A00091B6031001AA031061AE0310F5B003104E
:1010B000320000003400000025002900000000007C
:1010C000D8030020FFFFFFFFAC0400200400000055
:1010D000000000000000000038000000DC150000E7
:1010E00028000000010000005DA6000000000000D4
:1010F0007FBB031004000000401600004E080100F2
:101100000200000008000000360000006C0400200F
:10111000B4040020090000000004002001000000C9
:10112000FFFFFFFF9C0400200400000000000000FF
:101130000000000010000000A015000018000000D2
:10114000FFFFFFFF14050020040000000000000066
:101150000000000054000000041600003C000000E5
:1011600000000100300000000410000067F90000DA
:101170002D00000000000000681100009011000028
:101180004DA20310B5A80310C1B7031009A50310A1
:1011900069AA031061B103103DB103102D000000D6
:1011A00000000000000000001C050020FFFFFFFF02
:1011B0009404002004000000000000000000000073
:1011C000580000006C15000034000000A1C103109D
:1011D00001003200060000000000000020000000B6
:1011E0000100000099BF031028000000BC1200009D
:1011F00000120000FFB70310F9B60310B5B70310D3
:1012000011AD0310D1B00310ADB0031030000000D9
:101210000000000040040020040000000000000066
:101220000000000010000000541400002C0000001A
:10123000000000000000030000000E003C00000061
:1012400000000000000000009BBF03100800000029
:1012500050160000FFFFFFFFA40400200400000060
:1012600000000000000000001C000000B815000095
:1012700024000000EC110000F00300200400000036
:1012800000000000000000000C000000C41300007B
:10129000180000000000000000000000080000002E
:1012A0000100000004000000000000000000000039
:1012B0004419000024000000000200000410000097
:1012C00000000F0079B803100C00000000000000BF
:1012D000D003002004000000000000000000000017
:1012E000200000008C130000300000005C1900009A
:1012F00001000000EBF70000000000000002000009
:101300000000220001000000781100005C040020B1
:1013100004000000000000000000000020000000A9
:10132000041500002400000074190000500400207F
:0813300020000000641600001B
:1013400041A50000A3A60000A7A60000ABA60000D0
:10135000AFA60000B3A60000B7A60000AD6901006B
:101360005D6A0100696901003BA202001DA2020042
:10137000356A0100416A01006DA20200916A010014
:10138000CD680100000000000000000030000000F7
:101390000000000000000000B41300000400000082
:1013A0000000000001000000FFFFFFFFFF00000041
:1013B00001000000080000000000000025B5031037
:1013C000FD9603101800000000000000000000005F
:1013D000D41300000800000000000000100000000E
:1013E000BC120000F41300009BA20200ADA8000094
:1013F00039A90000DBA600002FA70000BBA6000053
:1014000031000000E0130000380400200400000058
:101410000000000000000000200000002414000074
:10142000180000001800000000000000000000008C
:101430003414000008000000000000001800000044
:1014400000000000000000004C1400000800000034
:10145000000000002C000000000000000000000060
:1014600078140000040000000000000001000000EB
:10147000FFFFFFFFFFFFFFFF08000000000000006C
:101480006811000098140000ED6A0100FD6A010077
:10149000196B01000D6B010079A70000A3A70000E4
:1014A0004FA700002E000000801400004804002018
:1014B0000400000000000000000000001400000014
:1014C000C81400001C0000001C0000000000000008
:1014D00000000000DC140000000000000800000014
:1014E0000000000001000000BB4B000097A20200BA
:1014F0000BF30000BF4B0000C34B0000AF4B0000DC
:10150000CD4B00002400000000000000000000009F
:101510002015000000000000000000000000000096
:10152000080000000000000024000000000000008F
:101530000000000044150000000000000000000052
:101540000000000008000000000000000A00000089
:1015500018000000000000000000000060150000FE
:101560000800000000000000992600003400000080
:1015700000000000000000009815000000000000BE
:101580000000000001000000000000000100000059
:101590000000000000000000080000000000000043
:1015A000180000000000000000000000B01500005E
:1015B00008000000000000002400000000000000FF
:1015C00000000000D4150000000000000100000031
:1015D00000000000080000000000000028000000DB
:1015E0000000000000000000FC15000000000000EA
:1015F00000000000FFFFFFFF0000000008000000E7
:10160000000000003C00000000000000000000009E
:10161000381600000000000000000000010000007B
:1016200000000000000000000000000000000000BA
:1016300001000000000000000800000000000000A1
:101640008BA600009DAA0310E59503103DAD031085
:101650000100000000000000000000000000010088
:101660000000010083BF031085B1031045A70310DC
:10167000C9B203108DA1031005A303108DAC031094
:1016800065B00310EDB50310A96A01008BF50000E9
:1016900073FA00009FA20200EBC706EEC906F188AC
:1016A0000CF48A10F78D0AFA4D20FD5128005934A8
:1016B000015C38020D4403115404166C051E94009D
:1016C000981600000D070000D5DA00003125000053
:1016D0003125000031250000312500009DDE00008D
:1016E000BBDE000031250000D5DE000005DF000074
:1016F00009DF000063E00000312500007BE000000E
:10170000DDDB00000DDF000031DF000051E00000F4
:1017100001E10000312500003125000031250000E5
:10172000312500003DDC000073DE000031250000A3
:101730006DB00000DFB0000049B10000B1AF0000A3
:10174000C3AF0000CDB20000D1B20000FDB5000073
:101750006FB60000D9B6000075B5000087B500006F
:101760005DB70000FDB70000EF9E0200FB9E020087
:1017700025B503103DA803100805FF0303100A0058
:101780007C1C0020801C00203A01000000000000AA
:101790000000000040030020D802002000000000EC
:1017A00000000000C8160000D0180000301700002C
:1017B000F01800007017000000000000301D00202D
:1017C0000000000060020020A8020020B8020020F3
:1017D000C8020020C0160000FF000000000000004A
:1017E00078180020D817000001000000FF0000005A
:1017F00002000000CC180020EC17000001000000DF
:10180000FF0000000100000018190020001800006F
:101810000100000000800400004000004C1A00009D
:10182000104100201418000001000000FF0000001B
:101830000000000000000000B53700006B2B000026
:1018400001010100FF000100000000000000000095
:10185000001000400600000015000000FF0000001E
:10186000000000000302FFFFB41B00202000000066
:10187000010300000000000000B000401400000060
:1018800034000000FF00000000000000FFFFFFFF29
:10189000D41B002020000000010300000000000015
:1018A000741A00006419002050180000741A000017
:1018B0008C1A0020781800000200000008000000C8
:1018C00011410020BC1800000000000000000000D2
:1018D0006BEF0100DDEF0100EDEF01005FF00100B3
:1018E000FDB6020003B70200C3F0010027F10100BA
:1018F00099AE0000BBAE0000D5AE0000B54F0000B1
:10190000474F00005350000099500000B9500000AC
:10191000E14E000069500000FB4F000045510000FF
:10192000394F00006F510000635100005151000019
:10193000AD4F0000AF4F000083530000B34F0000D5
:10194000B14F00007B7374617469632D696E7374A9
:10195000616E63652D6E616D657D00007B656D70E8
:1019600074792D696E7374616E63652D6E616D653A
:101970007D0000007B756E6B6E6F776E2D696E73E8
:1019800074616E63652D6E616D657D0096C298D839
:101990004539A1F4A033EB2D817D0377F240A46398
:1019A000E5E6BCF847422CE1F2D1176BF551BF37A1
:1019B0006840B6CBCE5E316B5733CE2B169E0F7C74
:1019C0004AEBE78E9B7F1AFEE242E34FFFFFFFFFE9
:1019D000FFFFFFFFFFFFFFFF00000000000000000F
:1019E0000000000001000000FFFFFFFFFCFFFFFF01
:1019F000FFFFFFFFFFFFFFFF0000000000000000EF
:101A00000000000001000000FFFFFFFF4B60D22735
:101A10003E3CCE3BF6B053CCB0061D65BC869876F6
:101A200055BDEBB3E7933AAAD835C65A512563FCA6
:101A3000C2CAB9F3849E17A7ADFAE6BCFFFFFFFF49
:101A4000FFFFFFFF00000000FFFFFFFFB1E200000B
:101A5000B9E20000BFE20000EFE2000009E300008D
:101A600057E300006FE30000E3E3000021E400001F
:101A700029E400007DEC00000DED00002DEB0000DE
:101A80003DEB0000F9EE00001FF0000025F0000023
:101A900071ED000067EE00006DEE00000200000036
:101AA0005A3500000200000046250000F3A00200A5
:101AB0005147010000000000FB349B5F8000008064
:101AC00000100000000000000102030306030901EA
:101AD0000B010C061201130114011601170100007D
:101AE00004000040040000400600800C0600800C4A
:101AF0000000F3010A00800C0000FFFF0000FFFF60
:101B000000010208090A0B0C0D0E14160101060152
:101B100001010101010602020002FF000201FF00B3
:101B2000030100030402FF000601FF000701000497
:101B3000080100020901FF00002000800000C00031
:101B4000000000E400000028220000000000000463
:101B50000000F7FFFF7F00000030F0FFFF010000F2
:101B60000400000000000000000000000000000071
:101B70000000000000000000000000000200000063
:101B800000000000FFFFFFFF00000000FFFFFFFF5D
:101B9000FFFF00000000000002000000FFFFFFFF49
:101BA0000000000002000000FFFFFFFF0000000037
:101BB00002000000FFFFFFFF000000000200000025
:101BC000FFFFFFFF0000000002000000FFFFFFFF1B
:101BD0000000000002000000FFFFFFFF0000000007
:101BE00002000000FFFFFFFF0000000002000000F5
:101BF000FFFFFFFF9E60EE2DCE2DC22D540FEF2F65
:101C0000EF0F975F9D170050A0058004407F0040B4
:101C10002801080F00080004FF034040202E0000A8
:101C200003001300100021002200320031004300A5
:101C300040005000530062006100710072005F00BC
:101C400060005D005E005B005C0059005A005500BA
:101C5000560057005800CC00C3003C003300000081
:101C6000010002000300000400081800080003003F
:101C70001A000A002C0011003E00030008001800A2
:101C80001A0011002C000A003E0000400C00000069
:101C900088140900F905010000808B008000500FB6
:101CA00000001D0A9005000005000004207BC10013
:101CB00000000F00277F7F0100800C0000009814B7
:101CC0000900F905000000808B008000700F000003
:101CD0001D129005000005000004207BC1000000DB
:101CE0000F00267F7F0100400CA00C00870303003B
:101CF000CD4001050080EE018000700600001E0945
:101D0000000556000C0000001450500000001F0099
:101D10007F7F000004887F7F7F2C00000000000090
:101D200000009F004040202E030C90FD3C780000F6
:101D30000D720E720F7210725DA3E5A4D8673CB6E7
:101D4000D0B00071D0A010B11B7262812010623936
:101D500030062000301601110114016CC260CB6006
:101D6000F2603C61C260CD60D9614E62C260D360F6
:101D7000F26064612012C360101211731273137346
:101D8000B1811000B09170B0A560B1C4D46091C7AA
:101D9000BC78FBC102C340C5D86021C6AC78FBC586
:101DA00002C360C42018136F236E11161216D9686F
:101DB000EB948C9C7081001EC24430C0B092F0C184
:101DC000D09232C6C0C92018EF400312236E1216FB
:101DD000EC6800839099C26005B0917200C1F091E7
:101DE00028B120B113B111B1E8B0007128B1E8A059
:101DF00030B210B9808C309911B1A284B484F3C090
:101E0000D1B0007112B002B011B1D1A091722C7298
:101E100030B613B003B0E0B0007120B17081C09251
:101E200090814096007120B1C3924296007120B11A
:101E30004496007120B1E0A030A633B6D3B0007153
:101E400013B1D3A030C0109920C03099D1B0007127
:101E500011B1D1A0917203A002A063720573067341
:101E60009173917230A2C0C71090C2608D65BD653C
:101E7000C465007110A9937310B94F8B6F318F3DFA
:101E80000F7213730000000074B031B25DB30F978E
:101E9000E5A444A064B0D067B1C2E567F32257451A
:101EA00000711F97A3C03399179135A2007178B0C4
:101EB00043C2D4673C4530C0F767C2608D65607827
:101EC000BE65F0C56869C465D5B015B131C0007193
:101ED00090805022CE4574B010A9937310B90F7240
:101EE000137331B2D5A05DB3408B20390097E5A4C0
:101EF00044A064B0D06734B261C2E567F32287457D
:101F0000007178B0A3C2D46740C0F767C260B084E4
:101F1000A095709980890E10A08490957099808901
:101F20000E1480C00E1880C00E18518381392139DB
:101F30006106311600111014006C1E311E318E31F5
:101F40008E392E9740823022B045D5B0007115B140
:101F5000D5A0A86100C1E09110781099E7139A7894
:101F6000E5B440C5109002B004B006B000705078DF
:101F700050903090707860904090007035B26CB0A6
:101F800011B089B0E5B4D1A0D0A03DB1FDB00070D2
:101F9000319A438A548A3331633D3431643D939698
:101FA000A49653B06B6190890093117312731F72E2
:101FB00091727081C0929081409650C0F7675CC169
:101FC0001DC37EC008C0E8B0007128B1E8A030B2DF
:101FD00010B9808C309911B1D1B00071D1A034B654
:101FE000E1B002B012B003B013B021B10071E1A0B2
:101FF00034A630B613B1D3B020B1E0B0A484F0C0A1
:102000004F103F661439066AB484F0C04F103F6623
:1020100014390C6A948C40C04F103F661439126A10
:10202000948C04222446DF813F66108210221F42D6
:10203000196230C00FC03F66206A31625DC31EC0A6
:10204000DF813F66108210222C42246230C00FC014
:102050003F662D6A3162E1A030C0109940C03099CE
:1020600011B1D1B00071D1A0917203A002A023726E
:10207000C2601F063F318F14CF14F26F2810483909
:102080003206D214236F007120B1CE9243960070B5
:1020900060C0F76790890093657200DB60961DB39E
:1020A00000C1E091C0C02093907B509700C1B1C3A4
:1020B000D2C7136F236E111612165F6AA8677B676B
:1020C000408230227046D5B0007115B1D5A066624D
:1020D00070C0F76735B24078018001000190109020
:1020E00050783090509080784090609020DF8093BE
:1020F00072B0E5B4F0B33BB62078109980C0F767B2
:1021000093730CB14CB13DB1FDB00FB14FB108B0FC
:10211000007108A014B914A94CB110A91E7900715E
:1021200010B94F89C080C022F147F0228C46FDA033
:10213000107244A064B074B031B230B232720F7217
:1021400048A049A04AA009A000C2309911B1D1B05D
:102150000071D1A0808720221647E7B0F0C127B1D7
:102160000071B56A4FB0E5A41DA373B0C0C0209341
:102170004BB041B090C0F7678381031EC2425B89B8
:102180004089B0180C103C0620393331031820C3A5
:102190000318339910A93078109911B110B9D1B042
:1021A000F322FF460A838A395A396B863B315086BF
:1021B000803950390B000412007190801022FF46C4
:1021C0000183528663863ABA258B85312531541CAA
:1021D000FC42F54AA114B214F95E1316F962A11873
:1021E000B218F95A131A019352966396541027B1F4
:1021F000E26233B250B7D4789497C478A497E0C021
:1022000060B7066BD1A02372A373F48AA0D0149A8E
:10221000F767E7A003720472057306739172C260D8
:10222000E5A4D0C03099FE1C1D47A0D61F6390D6F0
:102230000000809373B072B04BB0A07B5097E7A0C2
:1022400011B1D1B0B3B100716FB04FB04DB041B06A
:10225000C0C0209339BAF08A1031009760B99373E7
:1022600000CF376B1AB00AA0B0C0F7678381031E96
:102270003C435B894089B01833310318E078031878
:10228000339910A911B110B9F3226747A089A18928
:10229000101C4D43E7B027B150B701120071A08068
:1022A0007022634327B1111E5D4311165463A08948
:1022B0009097B089A09760B7011290801022544384
:1022C000E7A033B24DA050B7F478A497047994975F
:1022D000E0C060B76F6BD1A02372C0C0F767037214
:1022E0000472057306739172C2605CC10DC00AC0AE
:1022F00008C070C0AE84DBC2B76F9967836B1B16D2
:10230000B76F70C00AC09967896BBE841B16B76F20
:1023100070C00AC09967906B1B16B76F70C00AC077
:102320009967966B0070EF101F063F318F14CF1422
:10233000F26F2810483932062A001A3F1A3F7A6E87
:102340001E3900705CC10DC008C0E0C0AE845BC225
:10235000EF101F063F318F14CF14F26F2810483949
:102360003206BA47CACCC363121EBE473ACCC36317
:10237000221EC247CAC3C3633AC30022C743A61082
:10238000CC63B76F8A316A007A6E1B161E39AE6B4A
:1023900064B000708381031ED0430070339917919D
:1023A00000715DA323729173917203720472637260
:1023B00030C00090C0FF10900573067300705B89F9
:1023C0004089B018233103181318339910A911B19B
:1023D00010B9D1B0007014B914A94CB110A92E795C
:1023E0009562009AF0890022F847E0B90070000079
:1023F0005D00020095F60100F5F2010071F30000A6
:10240000A9DE0100458B0100F91601000D4901000C
:102410000000000000000000000000000000008735
:10242000BE83605ADB0B376038A5F5AA9183886CB0
:10243000010102010201010201020303040103017F
:10244000010101010303020103000000000000007C
:1024500002000000FFFFFFFF00000000020000007C
:10246000FFFFFFFF0000000002000000FFFFFFFF72
:1024700081520200FF0000000000000000616200C5
:102480007C240000010000000000D002EC000021CC
:102490005F00000000000000000000008C2400002D
:1024A0008824000000000000169700005A990000E0
:1024B0005A9A0000869A0000BA9B00008A0901001F
:1024C0008B0901009024000090AA0000DAB40000FB
:1024D000DC0700200C0802170D01010209090101A7
:1024E0000602091818030101090903030503000086
:1024F0000000000002000000FFFFFFFF252627006C
:102500000318041806180518041800000102000337
:1025100002000103F401FA00960064004B0032004F
:102520001E0014000149086070470000F8020020F6
:1025300081B001218DF800109DF800000028FBD12A
:1025400001B070477047001880B500F0B0F80FF286
:10255000F80000F071FC00B1FEE7BDE801404DE07D
:1025600070B50D4600F040F8002600F042F8C6F1C4
:10257000070025FA00F202F00102092100F03BF801
:10258000012200F037F8082000F090FF761CF0B22E
:102590000828EADB00F02DF80122142100F02BF8C6
:1025A000BDE870404FF42F7000F080BF18B50FF2F7
:1025B0007C0085B0D0E90013CDE9001302A869467C
:1025C00000F08AFD00F010F8012000F06FFF0122FA
:1025D000142100F010F84FF40C7000F067FF204653
:1025E00000F0CBFE06B010BD04460022142100F01E
:1025F000F7BE00220A21204600F0F2BE10B588B0D6
:10260000FFF7D4FF03A80FF22C01142200F062FFA1
:1026100003A9684600F060FD0446B921FFF7A0FF5A
:10262000204600F0AAFE08B010BD00001404C0A0AF
:10263000FE0000001404C0A00A0480A0090480A0C9
:1026400008400080FE0000000608808007088080A7
:102650000D2007C00E2007C01400C080024000807B
:102660000300C08009400080084000800A400080CC
:10267000FE000000DFF8CC068068704702460020AC
:10268000022904D1012A06D140F2EE207047012A26
:1026900008BF4FF47A707047DFF8A81691F89900D8
:1026A00020B1D1F8C400002818BF004770472DE9B9
:1026B000F041DFF89416DFF8943684B00968A1FB86
:1026C0000332520B42F2107000FB121140F2AB24A5
:1026D000A14200D2FEE7DFF86C4694F89A00002889
:1026E00040F081800121DFF86866DFF86876DFF866
:1026F000685684F89A10307B84F899007068C4F8A2
:10270000C40001A800F07BFF002102918DF80410A5
:10271000039101AB00220FF2A15104F10C0000F073
:1027200039FF00230FF2D542322104F1300000F0CE
:102730008DFF002038600023DFF820262C2104F1D3
:102740004C0000F083FFDFF8180601786868C0F3DA
:102750008151707B28B1032903D1012184F89110A4
:1027600003E0032918BF022911D1386840F0400066
:10277000386000F08EFFA16841F00401A16094F878
:102780009D10491C84F89D1000F095FF1BE0012965
:1027900019D1DFF8D065DFF8D075032000901C2335
:1027A000D6F800C0DCF804804FF0405200213846D3
:1027B000C0470120009038463668776809234FF4F7
:1027C00000720021B847286840070CD400F061FF70
:1027D000A16841F00101A16094F89B10491C84F8A4
:1027E0009B1000F068FF002004B0BDE8F08130B518
:1027F00081B0002408B1150004D16FF00204204616
:1028000001B030BD8160C26003610146DFF834056C
:1028100000F085FF204601B030BD10B5044600F041
:1028200038FFDFF820150A1992F89B305B1E82F8FA
:102830009B30DBB233B98A68012303FA04F422EA3D
:1028400004048C6000F037FF002010BDF0B581B0AB
:10285000054600F01EFF0446DFF8E814481990F81A
:10286000A220521E80F8A220D2B27ABB0FF22450CE
:1028700000EB850210F825505688280617D5DFF89A
:10288000EC7439680A6A304690473A68916A304673
:10289000884739680A6B30469047DFF8D414012026
:1028A0000860DFF8D00401688907FCD507E06806F6
:1028B00012D501EB86010020D1F8B820904705F031
:1028C0003F05152DBCBF2846FFF7C0FF204600F08E
:1028D000F2FE002001B0F0BDDFF8907439688A691B
:1028E000304690473A68516B304688470228F9D104
:1028F000E5E710B5044600F0CCFEDFF848148A681E
:102900000123A3401A438A60214491F89B20521C62
:1029100081F89B2000F0CFFE002010BD2DE9F04192
:10292000064600F0B6FE0446DFF81854A81990F8E1
:10293000A2104A1C80F8A22081BB0FF2584818F858
:10294000260000F03F001428D8BFFFF7E7FF08EB90
:102950008600478818F82600010617D5DFF80C54C2
:102960002968CA69384690472A68516A38468847B4
:102970002968CA6A38469047DFF8F41301200860D6
:10298000DFF8F00301688907FCD507E040060BD5A6
:1029900005EB87010120D1F8B8209047204600F0D0
:1029A0008AFE0020BDE8F081DFF8C05329684A693B
:1029B000384690472A68516B384688470128F9D134
:1029C000ECE72DE9F04F00260024012881B0A34652
:1029D00018BF6FF0010955D1DFF868A3DAF88C0051
:1029E00001282DD10221CAF88C1000F030FF0120FF
:1029F00000F065F95FEA000928D100F08DFF8046FC
:102A00009AF8B30008B14FF0010B9AF8B20008B180
:102A10004BF0020B9AF8B10008B14BF0040BDFF851
:102A20004C53A96A0A6801209047012804BF012479
:102A300000F0B2FF9AF80800C10727D501262CE064
:102A40006FF00409484601B0BDE8F08F0120CAF8D4
:102A50008C0000F007FF484601B0BDE8F08F00F0A1
:102A60009BFF00F01FFD082000F029F9064301201C
:102A7000CAF88C00404600F057FF00F0F3FE0EB19C
:102A80004FF0FF39484601B0BDE8F08F296ABB48D6
:102A90008A6890470746042FF8D04FF0FF32002194
:102AA000304600F0B3FF5EB9012F04D12A6AB34863
:102AB000536801219847B248016841F00301016061
:102AC00058462A68516988479AF8AD0020B12968AC
:102AD000CA6A4FF4806090479AF8AC0020B1296828
:102AE000CA6A4FF481609047A149A64A0120086054
:102AF000002111600320CAF88C0029684A6B5846EF
:102B000090470128F9D19C4F3868042000F0D7F88D
:102B100006469D4901200860002C3968A1D0A96AA9
:102B20000A68904701289AD000F005FF01208AF832
:102B300090009AF80800810693D49148802141675B
:102B4000C16E41F08001C1668BE730B581B00446AB
:102B500000F09FFD054621467A4800F00AFE28460F
:102B600001B0BDE8304000F0A6BD10B50024022839
:102B700002D0032805D008E000F0D6FF0446204626
:102B800010BD01F0AFF8204610BDFEE7F0B581B0F2
:102B900000F07FFD6B49054691F89000012450B18B
:102BA000704E71483768D7F80CC0002301223C21D1
:102BB000E04700B90024284600F07DFD204601B022
:102BC000F0BD70B582B000F064FD044600F0BFFEB9
:102BD0005C495F4A002081F8900002209568A84770
:102BE0000646102000F06BF8012E04BF0320A84712
:102BF000204602B0BDE8704000F05DBD2DE9F04117
:102C0000544C82B06568206820EA050105406806DA
:102C100021602FD5534EF16B0A680420904702289B
:102C200018BF032826D1032000901C23D6F800C02B
:102C30004D4FDCF804804FF0405200213846C04729
:102C40000120009038463668776809234FF40072F7
:102C50000021B84700F01DFD3A4991F89D20521E11
:102C600081F89D20D2B21AB98A6822F004028A60E3
:102C700000F021FD28061BD500F00BFD4FEA0006F1
:102C800000F065FE0028FBD02E49314A002081F873
:102C9000900002209768B8478046102000F00FF897
:102CA000B8F1010F04BF0320B847304600F003FD20
:102CB000A56002B0BDE8F08170470020704730B5D4
:102CC00005462048046881B05CB1A068284205D060
:102CD0002269E36800212846984728B92468002C17
:102CE000F3D1002001B030BD4FF0FF3001B030BD56
:102CF000264901280CBF07200020086000207047EB
:102D000000B5012881B018D121490A681368984795
:102D1000012812D000F00FFE0A48012180F890101F
:102D2000007A81060BD40B4880218160016841F054
:102D300080010160002001B000BD00F02DFE0020E8
:102D400001B000BD9C0500201C1400505917B7D1DC
:102D50003418000090220840B04F0050993B00000A
:102D60003A410020A401001000A00C40B80100105E
:102D700028200860282008402C20094000400340FB
:102D800024220840800104430C40094000000460F4
:102D9000E00100108F0000008F0001008F00020092
:102DA0008F000300900000018F00010190000002DD
:102DB000900000038F0001048F0000058F000804BD
:102DC0008F0000048A000006510000007F0001000F
:102DD0003F0004003F0002003F0001007F000200AE
:102DE0008F0002048F00010270B500F097FD0546C8
:102DF0005FF00006DFF8584625FA06F0C0070AD54E
:102E000004F10800F1B250F8210020B1026811006D
:102E10001CBFF1B29047761C2068F1B28842EBD219
:102E200070BDDFF83006DFF830260168DFF82C06C9
:102E3000116000F075BD00002DE9F04F8BB0074622
:102E4000FFF735FCDFF82406DFF80446017801F0CF
:102E5000F7F800250E284FF0000918D8DFE800F039
:102E60000808171717171717171717170810140040
:102E700001F0D0F802280AD101206060012506E0A7
:102E800003206060072502E0052060601F25DFF851
:102E9000E005C168C1F38151012903D10068000E2A
:102EA00081400D43DFF8C0150A68616802F07F02B7
:102EB0005218521E2260002004F18803FF26401C95
:102EC000824203F8016BFAD2CC46BE465FF00103A2
:102ED000DEF8000000F0FF08B8F1FE0F00F0D78028
:102EE00000F0FF06FF2E11D0424528BF8845C0F0F4
:102EF000EE8025FA00F6F60700F1E98003FA00F00B
:102F000040EA090904F1880000F808C00CF1010C3E
:102F10000EF1040EDCE70998DFF84485E840C007AD
:102F20004DD50A9899F8001050F82170FEB2002F84
:102F300044BFDFF84005474008EB8600DFF838154E
:102F40000368DFF838251A4039401143CA010DD50E
:102F500001F4E022B2F5A02F03D0B2F5C02F02D0C9
:102F600004E0062200E0052262F3124101600098AD
:102F70000068F04010F0010B06D1DFF80405B90D30
:102F8000801901F00101017000F083FB00990968CC
:102F90000122B2403B024CBF134600239143009AEA
:102FA0001943116000F087FBBBF1000F2DD0DFF853
:102FB000D004BF0D861907F00107377025E0EEB287
:102FC00008EB8600DFF8B4140268114041F4C041F8
:102FD000016000980768F74017F0010704D1DFF897
:102FE000A00480190021017000F053FB009A1368BF
:102FF0000121B14023EA0101116000F05CFB27B11F
:10300000DFF87C04861900213170E8B208EB8001FA
:1030100008688009800108600020CAF800006D1C63
:103020002068A8420AF1040A09F1010946D201A860
:1030300000F039FBDFF84C54DFF84C24287802907C
:1030400001AB102104F1A80000F000FB04A800F07F
:1030500039FC686806900021079104AADFF82C1457
:1030600004F1C40000F036FCDFF82404DFF8242467
:10307000016821F47C5141F4005101600120DFF826
:103080001814086010600BB00020BDE8F08F092014
:10309000FFF744FCC4F88470012104F1F80001F04A
:1030A0001DF8DFF8C03300930A97CDF824900895F7
:1030B00004F1880104F1080A002589460898E840CF
:1030C000C0077FF528AF0421CAF80010A7E7022047
:1030D0000BB0BDE8F08F00002DE9F04E81B00D4639
:1030E00001B4DFF86C9382B04FF0FF3109F1F800C2
:1030F00001F02AF8290040F08D800298DFF864A3DF
:10310000002101600020029948602C4602998860E5
:103110000120002D009000F08480029E17E0FF281F
:1031200009D0D9F80020824279D309F1080252F877
:103130002000002873D1091D6CE000BF05F1804517
:10314000BF0D05F5083507F001072F70241D207805
:10315000FE286ED0FF28F9D009F1080141F820605F
:10316000009A716802FA00F0084370602768D9F885
:10317000001007F0FF008142E8D309F1080151F87F
:103180002000B042E2D1FDB2002F44BFDFF8E402DC
:103190004740DFF8CC02DFF8E012DFF8E02200EB76
:1031A0008500394003681A401143CA010ED501F465
:1031B000E022B2F5A02F03D0B2F5C02F02D005E077
:1031C000062201E05FF0050262F312410160DAF8C5
:1031D0000000E84010F0010B08D105F18041B80D66
:1031E00001F5083100F0010081F8000000F051FA0B
:1031F000DAF80010009AAA403B024CBF13460023A5
:1032000091431943CAF8001000F055FABBF1000FC2
:1032100094D19BE70878FE287FF481AF6DE700200A
:10322000029009F1F80000F09AFF029804B0BDE89E
:10323000F08E0296F5E72DE9F047002882B00D46A2
:1032400000F09780426822FA05F1C90740F19180A9
:10325000012404FA05F18A434260A846DFF8F00130
:10326000DFF80072DFF8F89100EB8802002191602E
:1032700000EB080191F88810FF2925D109EB8501A1
:10328000DFF8F8010A68024042F4C0420A603E6872
:10329000EE4016F0010605D105F1804101F5083137
:1032A0000020087000F0F5F93968AC4021EA040408
:1032B0003C6000F000FA002E51D005F1804505F584
:1032C0000835002028704AE0D0F8840050F82160CA
:1032D000F5B209EB8501002E0A68DFF8A00144BFB2
:1032E00086F0204686F4C0460240DFF88C0130406C
:1032F0000243D0010DD502F4E020B0F5A02F03D099
:10330000B0F5C02F02D004E0062000E0052060F3F5
:1033100012420A603868E84010F0010A07D105F14E
:103320008041B00D01F5083100F00100087000F097
:10333000B0F9AC40396832024CBF22460022A143AA
:103340001143396000F0B7F9BAF1000F07D005F169
:103350008045B60D05F5083506F001062E7009EB1F
:103360008801086880098001086002B00020BDE87B
:10337000F087022002B0BDE8F08710B5044660680F
:1033800058B1616891FAA1F0B0FA80F1C9B2204653
:10339000FFF751FF60680028F3D110BD30B50D462E
:1033A000DFF8AC1014460A68AA4281B004D301EBDE
:1033B00085018A68824202D0022001B030BD00F04F
:1033C00068F9DFF8A0100A680123AB409A4304FAB9
:1033D00005F515430D6000F06EF9002001B030BD19
:1033E00010B41B4B1C688C4204D303EB81039C6814
:1033F000844202D010BC02207047501E804101F16F
:103400008041C04301F50831C00F0870002010BC96
:10341000704710B40E4B1C688C4204D303EB81033D
:103420009C68844202D010BC022070470C4800EB1C
:103430008100002A016848BF0022890902F03F028A
:1034400042EA81120260002010BC704700000000B8
:103450007C320020E0200240E02002604033002067
:1034600000100840D0200240441300503A41002090
:10347000A84F0050006000A0007F0767FF803898C9
:10348000002002402C180000232E0000E92D00002F
:10349000003009402C0009400C400940EFF3108037
:1034A00072B67047EFF3108062B670470138FDD1F5
:1034B0007047704762B38B0708D0521E11F8013B6A
:1034C00000F8013B00F024808B07F6D1830740F021
:1034D000208000BF103A07D330B4B1E83810103A5A
:1034E000A0E83810F9D230BC530724BFB1E8081067
:1034F000A0E8081044BF51F8043B40F8043BD20751
:1035000024BF31F8022B20F8022B44BF0B78037044
:103510007047121F17D35B0009D151F8043B20F804
:10352000023B1B0C121F20F8023BF6D20BE051F8B5
:10353000043B00F8013B1B0A20F8023B1B0C121F46
:1035400000F8013BF3D238BF121D521E24BF11F800
:10355000013B00F8013BF8D870470118DFF800F094
:1035600011B70310DFF800F029AF0310DFF800F007
:1035700033B80310DFF800F099B50310DFF800F05E
:10358000EDA80310DFF800F02BB80310DFF800F00F
:10359000B1B50310F0B51C0089B005460E461746BC
:1035A00003D10023FFF7EAFF12E0082324220021C1
:1035B0006846FFF7D3FFA06806906B462178ADF808
:1035C00010103A466068059031462846FFF7D6FF4E
:1035D0001048114A01681160284609B0F0BDFFF794
:1035E000D1BFFFF7D3BF00F0C1BD00B581B000F07F
:1035F000D4FD401E8041C043C00F01B000BD00217A
:103600008160017041607047FFF7B0BFFFF7B2BF44
:10361000FFF7A8BF4C15000010350020DFF800F0C0
:10362000E1B60310DFF800F0AFB70310DFF800F0E9
:10363000D5B60310DFF800F0F7B70310DFF800F09D
:10364000BDA60310DFF800F07DB40310F0B51C0038
:103650008DB005460E46174604D1002300F0A4FDA8
:103660000DB0F0BD0823302200216846FFF7DEFFD1
:10367000206805906B46606808903A46207AADF85D
:1036800018003146284600F08FFD0DB0F0BDFFF761
:10369000D1BFFFF7C3BFFFF7D1BF00F0A5BD00F05A
:1036A000ADBDFFF7CFBF002101604FF0FF3141609A
:1036B000012101727047FFF7B5BF10B50446FFF74F
:1036C000E8FF002161602160BDE81040FFF7F3BF13
:1036D00030B581B00546FFF7DCFF2C683CB12168AE
:1036E0002960216800291ABF00224A606960FFF73B
:1036F000E2FF204601B030BD70B504460D461646C7
:10370000FFF7C7FF2E60716869607168002914BFF8
:103710000D6025607560BDE87040FFF7CCBF30B527
:1037200081B004460D46FFF7B4FF002129606168AF
:1037300069606168002914BF0D602560656001B093
:10374000BDE83040FFF7B7BF30B581B004460D4645
:10375000FFF79FFF21682960002169602168002927
:1037600014BF4D606560256001B0BDE83040FFF7D3
:10377000A2BF30B581B004460D46FFF78AFF296825
:103780006A6800290CBF62604A6069682A6800297B
:103790000CBF22600A6001B0BDE83040FFF78BBF6C
:1037A000DFF800F03DB50310DFF800F05DAC03106A
:1037B00030BF704770B5FFF771FE304C206941682B
:1037C0008847FEF757FF054605F00C000C2838D057
:1037D000680721D400F01AFD064601210120FEF7FA
:1037E0004DFF2749096801FB06F2904214D2F020F0
:1037F000B0FBF1F0234C311A04F10C00FFF7B6FED8
:1038000004F10C00FFF7B6FE0120FFF7DAF804F12F
:103810000C00FFF7A7FE16E0280712D421681A480B
:103820008A6890470428F9D0E90600D408B9012035
:1038300000E0002000F0D6F8144801210160006883
:1038400001E0FFF7B5FFBDE87040FFF72BBE10B5F4
:103850000F4CFFF7A5FF20600E48006808B18047B5
:10386000606010BD10B50C48094C016809B1606872
:1038700088472068BDE81040FFF796BFD8010010C8
:103880004C1500009C050020004003402C200940FE
:1038900090330020BC130000C0130000DFF800F0DC
:1038A00025B50310DFF800F03DA80310DFF800F0A5
:1038B000E9A50310DFF800F065B70310DFF800F0AA
:1038C00063B80310002101604160C1604FF0FF3117
:1038D0008160704770B514008AB005460E4604D169
:1038E000002200F0AFFC0AB070BD0823282200219E
:1038F0006846FFF7DFFF206804906A46606805901D
:103900003146E0680790A0680690284600F09AFCCF
:103910000AB070BDFFF7D2BFFFF7C0BF00F09EBC7A
:1039200000F0A2BCFFF7C2BFFFF7BCBF00F0ACBC09
:1039300025480168084710B5294A13685C680121C9
:103940000120A047234824490068886010BD38B58D
:103950001E4CE16B0A680120904701281AD02468A8
:103960001B48E568002301223C21A84798B1FFF7D6
:10397000DFFF1848184B0268996818481C68DA601D
:10398000A4EB9404521A4243120C1A60A24238BFAC
:1039900022461A60012032BD38B5114C22685368A6
:1039A00000210120984721680A680120904708B14A
:1039B000FFF7BEFF0748084D00686860E0680168CF
:1039C0008847286131BD000080000010A40100106C
:1039D00000A00C40302009401435002040420F0068
:1039E000E001001010B54349434C086043480168AA
:1039F00041F003010160202021688A699047404816
:103A000001682168886BBDE8104000472DE9F84344
:103A1000894605463B493A4E374C3B4F00200860EB
:103A2000904631682268916927208847796937482C
:103A300001407961F86D20F48070F8654FF4806082
:103A400021680A6B904721680A6B4FF481609047A8
:103A500021680A6B4FF4C06090472D49012008602F
:103A600024492C48C1F80090012101602A490868C6
:103A7000820748BF002212D418F1010F14D1274A3F
:103A8000126842F21073B2FBF3F342F2107000FBC3
:103A9000132240F2AB20824203D34FF04042CA606F
:103AA00004E01F48C86001E0C1F80C803068386845
:103AB0008007FCD521684A6B072090470228F9D17E
:103AC00095B9216A174D8A68284690470428F8D08E
:103AD000012804D1226A53680321284698470748E1
:103AE00001688908890001602068816BBDE8F143A5
:103AF000084700008C210840B8010010242208402B
:103B00002C2009400C40094028200840FFFFFEFE01
:103B10002820086080010443100009401C14005054
:103B200008E7A4800040034030B5DFF8AC5495F8B6
:103B30009100002481B0002802BFDFF8A014887B28
:103B400000280CD0FFF7A5FD95F89310002906BFBB
:103B5000012285F893200124FFF7ADFD14B1002068
:103B600001B030BD0220FEF7C4FE0E20FEF7D6FEE7
:103B7000DFF86C14086810B1012001B030BDDFF827
:103B800064044022026042600120C86101B000204C
:103B900085F8920030BD0000F0B5DFF84C1481B01C
:103BA00000200860DFF8304494F8920000283BD0F1
:103BB000012845D1DFF834140D68DFF834144BF2D6
:103BC000F520454308682D0AC0F3814001280FD134
:103BD000DFF82064B06C01688847F16B8A68904711
:103BE000F16BCA6890472F09C010474305EBE735D2
:103BF00094F8980018B1002184F8981006E0DFF8D6
:103C0000F803006820F07F402D186D08DFF8EC0302
:103C100005602D0C456001218160DFF8C013887BB1
:103C200050B10221C4F8941000F068F80028FBD0CD
:103C3000401E012854D9FEE70620C4F89400F3E79B
:103C400002280DD1DFF8A4030568284600F031F9F9
:103C5000A5F2FF55022DEFD90420C4F89400E3E744
:103C60000328E1D1DFF884030068A16EA0F5C060ED
:103C70000029C4F8840048BF4942002848BF404298
:103C80008142A8BF002028DADFF86853E06EDFF831
:103C9000706380B2009008232F68D7F804C04FF4F7
:103CA0007F4230213046E047206F80B200901223DF
:103CB0002F68D7F804C04FF4F80204213046E047DB
:103CC000D4F8800080B2009030462D686E680A23D8
:103CD0004FF440622021B047012084F88800ABE710
:103CE00001B0F0BD00B581B000F008F80028FBD0AD
:103CF000401E012801D801B000BDFEE72DE9F043C8
:103D0000B54CD4F89400062881B000F2BD80DFE8FD
:103D100000F00441505D73809C00BA4DBA4EB54F1F
:103D2000DFF8DC820120286007230F20F0604FF4C9
:103D3000C07242F62A2030610021022000904046E5
:103D4000D7F800C0DCF80490C8473F68D7F80CC02B
:103D500007234FF4C07200214046E047012028604D
:103D600028688107FCD50121F16194F891000028B1
:103D70001DBF0021296301200320C4F89400032003
:103D800030600020686068688107FCD4002001B0C2
:103D9000BDE8F083012084F892000220954C009049
:103DA0000423256896486E6870220021B0472020C1
:103DB00045E00320C4F89400002192484160416826
:103DC0008A07FCD4002001B0BDE8F083022084F80B
:103DD00092000020874C8A4D009004232668776863
:103DE000702200212846B84724682846E5687023D9
:103DF00070220021A84721E00520C4F8940000218A
:103E00008048416041688A07FCD4002001B0BDE8C9
:103E1000F083032084F892000020764C784D0090C7
:103E2000042326687768702200212846B847246852
:103E30002846E568702370220021A847012000F081
:103E400027F8012001B0BDE8F0836E480021016031
:103E5000416001688A07FCD441688A07FCD40020CD
:103E600061495F4A0860012111600E20FEF7EEFCF7
:103E70000220FEF7D2FC0020C4F8940084F89300DE
:103E800001B00220BDE8F083032001B0BDE8F0835B
:103E90005E4901220A600A689307FCD508225A4944
:103EA0008861002008604F4802604260012008607D
:103EB0007047F0B55649484C81B0CA6AC2F3072230
:103EC000E266B0F5C0600A68C2F384422267C9693D
:103ED000A066C1F38121C4F8801008BF84F888006F
:103EE00078D0A26F94F8881039B9E16E226F6167BB
:103EF000C4F88400D4F88010E167D4F88400002866
:103F00004CBF6FF00101022100EB40000818411086
:103F100000EB917002EBA002E16E6167002A13DCF6
:103F2000E06F032805D10120153290421FDB0122EA
:103F30001DE001200B329042A8BF0122491E48BF5C
:103F400000216167032013E01E2A12DDE06F28B90B
:103F5000153A1E2AC8BF1E22032009E00B3A1E2A6A
:103F6000C8BF1E22491C3F29C8BF3F2161670020EE
:103F7000E067A26708231F4D606F214E80B200905A
:103F80004FF47F422F68D7F804C030213046E04715
:103F90000120009011232F68D7F804C04FF400329D
:103FA00004213046E047A06F80B2009012232F68B2
:103FB000D7F804C04FF4F80204213046E047E06F20
:103FC00080B200900A232C6865684FF4406220217B
:103FD0003046A84701B0F0BD9C0500203418000011
:103FE00004800C4038500C403C500C4008400C40C1
:103FF000B44F0050A4010010102009407C600C4018
:1040000000A00C4054600C4000400C4058600C4034
:1040100004A00C401D480068000C00F007000628B2
:1040200028BF4FF0FF30704719490968C1F30F31BD
:104030004BF641324FF0FF30914208BF04207047E9
:1040400010B5FFF7F1FF11490A68D30D04284FF0AE
:10405000FF34C2F3406117D1120B02F00F02082A9D
:1040600011D0092A0AD00F2A0ED1D80704D5002969
:104070000CBF0D240E2407E00B2405E000290CBF23
:1040800009240A2400E00C24204610BD941200509C
:104090001813005080B5FFF7C7FF042800D101BDF9
:1040A000FEE70028DFF800F059B70310DFF800F052
:1040B0005DA90310DFF800F001A80310DFF800F09D
:1040C00057B80310DFF800F05BB80310DFF800F01A
:1040D00005900310DFF800F0D199031030B589B0D6
:1040E00004460D460823242200216846FFF7DAFF24
:1040F00001228DF8182029466A462046FFF7D6FF90
:10410000204609B030BD10B58AB0044608232422E9
:1041100000216846FFF7C6FF01228DF81820694686
:10412000034A2046FFF7C6FF0AB010BD000000009A
:10413000B003002000B581B000906846FFF7BEFFD5
:1041400001B000BDFFF7BEBF00B581B0FFF7BEFFF5
:1041500000280CBF4FF0FF30002001B000BDFFF77A
:10416000B9BF0000DFF800F025A9031070B50446C0
:1041700000F0AAF80646A08A0025012808D1FFF71A
:10418000F1FF0546E068451BA068A84238BF00253E
:10419000304600F09AF8284670BD808A70470000CB
:1041A000DFF800F0AD9F0310F8B504460B480C4F44
:1041B0000668F8690D4650F82500B04209D1094853
:1041C00000902046FFF7ECFFF86950F82500B04258
:1041D00001D10020F2BD2046F2BD00BFCC1100008D
:1041E000D8010020B0030020102803D30249103862
:1041F000C1F8000F704700BF00E000E0816042603E
:1042000070470128DFF800F051B6031070B500F0D8
:104210005BF8094E0446B0680021FFF7F3FF05463E
:104220007069451BB069A84238BF0025204600F0E0
:104230004CF8284670BD00BF10010020DFF800F0E8
:1042400065A4031010B50446034BFFF7F7FFA06801
:1042500000B1204610BD00BFB003002001488068B7
:10426000704700BF6C01002038B504460D4600F0D1
:1042700038F8616A0D43656200F034F82046BDE805
:104280003240FFF713BB022870B50D4615F1010F40
:10429000044608BF052500F024F806460120A84082
:1042A000A061656129460548406900F018F8A062E0
:1042B0003046BDE8704000F015B800BF6C0100202A
:1042C000DFF800F021B4031000E005E0EFF3118007
:1042D000202181F31188704780F311887047FFF720
:1042E000EFBFF3E7F8E70000F0E7F5E70000EDE7E0
:1042F000F2E70E49C20744BF01220A60820744BFA9
:104300004FF480720A60400744BF4FF48030086069
:104310007047074AC30748BF1160830748BF516011
:10432000400748BF9160704700000000042009402A
:104330001820094010B50FF2180403E011F8013BF2
:104340005840205C13465A1E002BF7D110BD0000C8
:104350000097B92EE5725CCB5DCAE473B82F019665
:10436000BA2D03945FC8E671E7705EC90295BB2C55
:10437000E3745ACD0691BF28BE2907905BCCE27545
:1043800059CEE077BC2B05920493BD2AE17658CF35
:1043900051C6E87FB4230D9A0C9BB522E97E50C725
:1043A000EB7C52C50E99B720B6210F9853C4EA7D15
:1043B000B2250B9C57C0EE79EF7856C10A9DB32405
:1043C000089FB126ED7A54C355C2EC7BB027099EF5
:1043D000A2351B8C47D0FE69FF6846D11A8DA334E5
:1043E000188FA136FD6A44D345D2FC6BA037198ED5
:1043F00041D6F86FA4331D8A1C8BA532F96E40D7C5
:10440000FB6C42D51E89A730A6311F8843D4FA6DB4
:10441000F3644ADD1681AF38AE3917804BDCF265A4
:1044200049DEF067AC3B15821483AD3AF16648DF94
:104430001087A93EF5624CDB4DDAF463A83F118684
:10444000AA3D13844FD8F661F7604ED91285AB3C74
:10445000DFF800F071B70310DFF800F0B5A3031028
:10446000DFF800F02DAC0310DFF800F0F990031036
:10447000DFF800F0ADB60310DFF800F0D1B40310A0
:10448000DFF800F0159E0310DFF800F0EDB4031024
:1044900000B58FB008233C2200216846FFF7D8FF03
:1044A000DFF88C0400F1500107914FF48062012184
:1044B0000892069100236A460FF20111FFF7CCFF24
:1044C0000FB000BD38B5DFF86C4404F1140120468C
:1044D00000F0A7FC02210FF2DD3001F0B0F82378E4
:1044E0000FF225420FF2E931002001F045F9217861
:1044F000502000F0F4FE0246DFF83C1400F05AF8B9
:10450000002020615020217800F0E9FE0246DFF80B
:104510002C1400F04FF8DFF82814102000F0F8FEFB
:10452000221DDFF8201400F045F84FF0FF32DFF8CD
:10453000181400F03FF84FF0FF32DFF8101400F0CD
:1045400039F8E08900F00C010C2903D10A220FF29E
:104550000C410DE0010703D50E220FF20C4107E0DC
:10456000400747BF11220FF210410E220FF21C41EB
:1045700004F12000FEF7AEFF04F1200003F096FEE8
:1045800004F1200100910346DFF8C45300222946BC
:10459000102000F0BDFE04F11C0000900223012257
:1045A0002946102000F0B4FE00210020FFF758FF3C
:1045B000A06131BD102000F0ABBE0000FEB5FFF7DA
:1045C00081FF4FF6FF75DFF86C63DFF88873706961
:1045D0004FF0FF333A460021FFF746FF0400F6D0C4
:1045E0000020019001AA69460DF1020000F05EFC76
:1045F00090B9BDF80200102802BF9DF80010307875
:10460000814206D101980188A94202D000F01DF82C
:1046100010B1019800F035FCE007D8D5B069FFF77C
:1046200027FF0028D3D1B069FFF726FF0446B06901
:104630008442CCD0A068E1688847204600F0B7FCEF
:1046400070690121FFF71CFFC1E710B5044620780F
:10465000012819D1606802780021022A04D0042AB6
:1046600007D18178C91C04E0C178027901EB0221ED
:10467000491D89B200F02CF960680178891E012972
:1046800007D803F02FFE04E09128204603D100F064
:1046900006F8012010BDBDE8104001F01ABE7FB53C
:1046A0000446AD4D60780E284FF0FF3609D00F2834
:1046B00015D0102800F081803E283FD0FF286FD011
:1046C0007FBDA08801F0C2F800286DD134F8040C39
:1046D000A368A188A0F10C02D2B20E206AE0A088E3
:1046E00001F0B4F800285FD1A58842F232018D4272
:1046F00067D1A4780F2000F0B6FB002861D0042118
:104700000170FF2141700721418000F108014160E3
:104710000421426811700F214268517004214268DF
:10472000917001224168CC7041680A7142685571EC
:104730002D0A41688D7100F086FF7FBDA0780C289E
:1047400017D080283DD18DF800000622E0788DF842
:104750000100611D20798DF802000DF10300FEF7C4
:10476000A9FEE07A8DF80900207B8DF80A000B2065
:1047700012E08DF80000E2788DF80120A0888DF815
:104780000200A088000A8DF80300A0798DF80400CB
:10479000E0798DF805000620694600F062F87FBDDB
:1047A000A08801F053F808B12E607FBDA368A278FD
:1047B000A188FF2000F006F87FBD0021082003F04B
:1047C000F7FD7FBD2DE9FC4207460D461646FF2F3B
:1047D00006F10B0014BF032102210818994680B28C
:1047E00000F041FB04003AD0042020704946FF202D
:1047F000607004F1080060600420626810706068F6
:104800004770280A6268FF2F0DD0F31C93700122B5
:104810006368DA7062681571324663685871B51D55
:104820006068801D13E0B31C937063680A78DA70C7
:1048300063684A781A7163688A785A71C91C626819
:104840009571F21E6368D871751D60680830FEF7B7
:1048500031FE65802046BDE8F64200F0F4BEBDE8BA
:10486000F382F8B5054605F10B000E4680B200F064
:10487000FAFA04001DD004212170FF206070EF1CA3
:1048800004F10800606067800420616808703E20C1
:104890006168487060688570280005D060682A46A5
:1048A0003146C01CFEF706FE2046BDE8F24000F08F
:1048B000CABEF1BD10B50446606800F0E5FF60684F
:1048C00000F0DFFA2046BDE8104000F070BB0000A9
:1048D00070B505460E4606F1080000F0C4FA040063
:1048E00010D029782170FF206070668004F10800E4
:1048F000606032462946FEF7DDFD2046BDE8704087
:1049000000F0A1BE70BD000038B504460D46102071
:1049100000F04CFB58B18460C5600146054CA069AD
:10492000FFF7B2FD60690121FFF7AAFD012032BD4A
:1049300068080020FC020020A94801000DF30000D7
:104940001D350100CD4801002D4701000D33010048
:10495000C9460100010000C0440300205449204220
:104960004C4520416C6C0000544920424C4520438A
:10497000656E7472616C0000544920424C452050B1
:1049800065726970686572616C000000544920426C
:104990004C4520556E6B6E6F776E0000DFF800F0AF
:1049A00005AB0310DFF800F0EDA10310DFF800F015
:1049B00081B60310DFF800F0C5A7031020B108236B
:1049C0003C220021FFF744BD704780B5FEF766FF2B
:1049D000ADF80000FEF722FEADF80200009802BD1F
:1049E00001B5BDF80200FEF71DFEBDF80000BDE8F0
:1049F0000240FEF757BF38B5DFF8F04920780128AC
:104A00002DD001212170DFF8E829DFF8E8198908A5
:104A10008900521AA26161610A4602E0002342F84D
:104A2000043BA3695D18AA42F8D39B0801EB8302FB
:104A3000002042F8040CE8200860A069800880008B
:104A4000EC38C1F8E80001F1E800A060002000F0B7
:104A500007F8E0606069A060A069001F206131BDB7
:104A6000F8B500240026051D15F003001CBF291D04
:104A70000D1AFFF7AAFFDFF8742901465160112DC6
:104A800034BF9368D3681868002803D580F00040CD
:104A9000002619E0370013D02768D3F800C0674418
:104AA000AF42276010D33846ECB1401B042811D325
:104AB000605145F0004020601069451B156111E010
:104AC000A84214D201261C46034418680028DBD1F2
:104AD000002408E0136920681B1A1361206840F065
:104AE00000402060241D00F05FFA2046F2BD1C4605
:104AF000DAE710B50446FFF768FFDFF8F018486002
:104B000054F8042C22F0004244F8042C0B69D2180B
:104B10000A61221F8B689A4238BF8A60BDE8104044
:104B20005EE72DE9FC41FFF750FFDFF8C018CA68C7
:104B3000486000240025002600270AE00E460125D3
:104B4000144605E02B00F9D02368CB1823608E199A
:104B50000A441168B046BE4238BFB846002905D0A5
:104B6000F0D581F0004100254746F1E7FFF738FF17
:104B70004046BDE8F68110B50446DFF8700881694B
:104B8000216000696060FFF7CCFF09282CBF08385E
:104B90000020A06010BDDFF854180A69121A40F214
:104BA00027239A4228BFFFF75BBF0020704780B5DC
:104BB000FFF721FF4BF6BE2002BD084650E708462E
:104BC00097E702B56846FFF7D6FF01BD01207047A1
:104BD00038B50446FFF7F9FE00220C23DFF8181859
:104BE0005343CD18A96C21B18C4206D0521C032A24
:104BF000F3D3FFF7F5FE002032BDFFF7F1FE05F11C
:104C0000480032BD7CB50546FFF7DFFE04460021B3
:104C10000C22DFF8E4074A438618B06C48B185429D
:104C200010D0491C0329F3D32046FFF7D9FE0020FA
:104C300076BD3065B5640021FFF7B0FEF06408B9B9
:104C400003F0D1FB2046FFF7CBFE06F1480076BD0E
:104C500038B50446FFF7B9FE0025DFF89C270C2184
:104C60006943515A21B18C4206D06D1C062DF6D3F2
:104C7000FFF7B6FEFF2032BD2DE310B504462088B5
:104C8000FFF7E6FFFF2802D14FF0FF3010BD0C21E7
:104C9000DFF8642748431044816811B96FF00100C0
:104CA00010BD2046BDE81040084702460FF26C7068
:104CB000104710B500200C21DFF83C27002401FB31
:104CC00000F31344401C03289C641C65F7D30020A8
:104CD000002301FB00F4401C13530628F9D3BDE860
:104CE000104088E62DE9F8478FB081468846FEF7E8
:104CF00057FD05460027DFF8046747451FD2684681
:104D0000FFF75CFE09EB0710416806918168089186
:104D10006946026804920022C06805903046FFF799
:104D200041FE040011D0FFF750FE82462046FFF7F7
:104D300069FF50B15046FFF753FE7F1CDDE7284660
:104D4000FEF732FD10B0BDE8F08703F04CFB00BF6A
:104D5000F8B56846052141604FF480518160DFF865
:104D6000A026DFF8A0160091C2600121FFF7BAFF6C
:104D700005B000BD38B504460D46FFF726FE0021FC
:104D800045F80C1C226812B9256006E00A4652F864
:104D90000C1C0029FAD142F80C5CBDE832401FE639
:104DA00080B5FFF703FEFFF713FF10B96FF00400A3
:104DB00002BD816809B9022002BD4068BDE0062835
:104DC00081B00ADA0C22DFF830365043185A002836
:104DD0001CBF4FF6F873984202D14FF0FF3001E04C
:104DE0000880002001B0704730B5DFF81C562A68F3
:104DF0000C464FF47A71A1FB0001002303F0F6FA90
:104E0000002399424FF0004201D8904202D36FF044
:104E1000020030BD2060002030BD0146886849682E
:104E2000084770B505460E46FFF7C0FDFFF7EAFEDE
:104E3000040009D0FFF7C9FD0146002200F0ADF8DB
:104E400020B1521C062AF9D303F0CDFA4FF6F870C0
:104E500018805C60002098602A706068306000F004
:104E6000A3F8002070BD10B5044604F10C00FFF754
:104E7000F7FD28B1048100210160FF2181720C300F
:104E800010BD0C3835E670B5044615461E4608467A
:104E9000FFF7DEFE0146FF2902D14FF0FF3070BD63
:104EA00033462A462046BDE8704083E07CB505467F
:104EB000164600F0A2F8040010D128886946C0B256
:104EC000FFF77DFF28B13068FFF7DBFF6FF00500CB
:104ED00076BDBDF800002880FFF762FF204676BD52
:104EE00038B50546FFF762FDFFF772FE044603F092
:104EF00095FB002818BF012800D014B96FF00400FA
:104F000032BD65B900200090009B60684FF0004200
:104F10000021FFF7A9FA401E8041C00F32BD15F1F4
:104F2000010F08BF4FF0FF30EDD069462846FFF76C
:104F30005BFF0028E8D032BD80B54FF00041FFF79D
:104F40009FFA002002BD2DE9F843054600F0A0F9C4
:104F5000FFF758FE04006FF002091CD0FFF735FD83
:104F60000146002200F019F840B1854211D0521CD0
:104F7000062AF7D303F037FABDE8F2831D805C60A0
:104F80009E603A706068C8F8000000F00DF80020DC
:104F9000F2E700F009F84846EEE70C23DFF8580482
:104FA0005343034418887047084619E558E5A0E5BF
:104FB000F1E5E0E52DE9F8430D462F46062FBCBF8D
:104FC00004460628164699466FF0020806DAFFF7EF
:104FD000FCFC00F003FA19B9FFF702FD40460AE0B5
:104FE000FFF7FEFC00F0F0F9786840684FF00041F0
:104FF000FFF746FA0020BDE8F2832DE9F0410646AE
:105000000F469046FFF7D2FCFFF7E2FD050008BF10
:105010006FF004001BD0FFF7D8FCA968002441B151
:105020000C46A4F10C010A68AA6000220A60FF2263
:105030008A72FFF7D5FC0CB9022008E0A4F10C003D
:105040000179317040793870C8F800400020BDE81F
:10505000F08182B001218DF800109DF80000002839
:10506000FBD103F0C0F900BFFFF77CB810B5DFF843
:10507000980302686FF00044A4FB020100234FF480
:105080007A7203F0B3F9002399424FF0004201D83D
:10509000904200D3204610BD7CB50C4615461E46F6
:1050A0006946FFF7A1FE30B9009833462A462146EB
:1050B00000F002F8002076BD2DE9F0431D4689B0CE
:1050C0002C6880460E4617462CBB0C20FFF7C8FC08
:1050D00004006FF0030918D0082324220021684639
:1050E000FEF73CFA0020ADF810000590069400236E
:1050F0006A464146DFF81403FFF75CFC206030B9D4
:10510000FFF7A7FF2046FFF7F4FC484617E066606C
:10511000A7602C600BE0DFF8F86230688047054636
:105120002068FEF71FFAA760284671688847206844
:105130004146FEF71BFA2068FEF71CFA002009B072
:10514000BDE8F08300281CBF0068FEF70BBA70476B
:10515000E0B58DF80400684603F094FA9DF8050068
:105160000EBDE0B50190684603F0C2FA0EBDE0B591
:105170000190684603F0C6FA0EBD2DE9F84384B0ED
:10518000044600F085F8FFF723FD05460020029055
:1051900003F044FA002818BF012800D015B96FF0B9
:1051A000040072E044B900200190FEF7DBFF814665
:1051B00001980124814425E014F1010F08BF4FF04C
:1051C000FF30F1D001A92046FFF70EFE0028ECD0F9
:1051D0005BE0039902A8FFF7CDFD68684FF000512E
:1051E000FFF74EF90199012411F1010F0AD00800CF
:1051F00008D0FEF7B7FFB9EB000031D0019981422A
:105200002ED30190019B68684FF000520021FFF7F8
:105210002BF928B303AA69460DF10100FFF7EDFE53
:105220000400DFD19DF801000DF10201FFF7C7FD79
:105230000028CED1039A9DF80010BDF80200B047B7
:105240000028C6D017B1BDF802003880B8F1000FB1
:105250001CBF9DF8001088F800100C98039901609D
:10526000FFF79EFD029EFFF7B0FB014656B13246A6
:1052700000E0024652F80C0C0028FAD1A86842F867
:105280000C0CAE60FFF790FE204605B0BDE8F08341
:105290000E4617469846FFF789BB38B5FFF786FBE1
:1052A000044603F0BBF9002818BF012811D0FFF70E
:1052B0008CFB0025504A0C236B43D15A39B1D118CD
:1052C0004B681968A14206D06D1C062DF3D3FFF779
:1052D00087FBFF2032BDFFF783FBE8B232BDE0B5AC
:1052E000ADF800008DF8061000204A490A68ADF8B4
:1052F00002006846904710B99DF807000EBDFF20D8
:105300000EBD1078422801D101207047002070475F
:105310000CB478B504460E4687B003F07FF90CADA7
:10532000002814BF0128FFF794FE1420ADF81000E8
:105330000021FF2002918DF8120006960595FFF7D7
:10534000ACFF05AB03222146FFF79DFD002001A91C
:1053500001900091002300222F4941F28830FFF78D
:105360000CFF012805D020B9019820B1FFF789FD75
:1053700001E0FFF76EFE0598006808B070BC5DF8AC
:105380000CFB2DE9F8430D462F46062FBCBF044603
:105390000628164699466FF0020806DAFFF715FB55
:1053A00000F01CF819B9FFF71BFB40460AE0FFF7B5
:1053B00017FB00F009F8786840684FF00051FFF7DC
:1053C0005FF80020BDE8F283A9F108000470457081
:1053D0008670494678680830FFF7CCBC0C21064A35
:1053E00011FB07F7D719796870470000601C00208F
:1053F0007F3B012067410020F41B0020AB4C0000E4
:1054000068030020194A01004C1500001B4E0000E3
:10541000340300203C030020035300007B4C0000B9
:10542000CB490000E1490000DFF800F041B703106C
:105430002DE9FE4FCA4EDFF82CA3CB4DDFF82C939D
:1054400072E0A16800F027F95DE0204688470AE095
:105450004046FFF7ACFD00F02CF93168584688470C
:1054600001E000F026F9380724D500F0A1F8E0B9F2
:1054700003F06FF9C8B9DAF800008047804600F001
:1054800097F878B96868FFF7CFFF04000AD0A168E1
:105490004868E860498803F093F9A068FFF787FD42
:1054A00000F007F931684046884700F081F808B9F4
:1054B00000F0EDF8F80708D503F0EEF903F046FB2D
:1054C00018B128690121FEF7DBFF780725D5A86808
:1054D000FEF7CEFFC8B9A868FEF7CEFF040014D0CF
:1054E0006969287800291CBF6A78002AA9D0022A95
:1054F00001D002D307E0A06804E0A16800F0CBF877
:10550000A0686969884700F0D4F8A868FEF7B0FF82
:1055100018B928690421FEF7B3FFB80704D500F0D5
:1055200047F808B900F0B3F828694FF0FF334A464E
:105530000021FEF799FF0746DAF80000804731683E
:10554000884701AA69460DF10200FFF7AFFC002869
:1055500001BF019C9DF800002978884283D1A96988
:1055600041B1A878012803D002283FF46EAF01E0D2
:1055700020468847204603F070F904003FF473AFDB
:105580000C20FFF713FD5FEA00083FF46AAFDAF87A
:10559000000080478346C8F80840207800287FF440
:1055A00057AF68684146FEF76FFF00F070F854E7A8
:1055B0006868FEF75DBF10B56B4C0020E06000210D
:1055C000FEF74EFF606000210020FEF749FFA0605B
:1055D00004F11003224600213820FFF7B4FC0FF23B
:1055E000F50003F037F90FF26D120FF245110FF2CB
:1055F000C90003F097F8BDE8104019E7DBE730B5C4
:105600005B4C20604FF482658FB0BB22294604F1C9
:10561000580003F0D1FA08233C2200216846FEF727
:1056200017FF04F158000790089502200690002308
:105630006A465049201DFEF70FFF0FB030BD4A4AA1
:1056400050615170704770B503F007F905001DD027
:105650000C20FFF7ABFC040004D12846BDE87040E5
:10566000FFF7A5BC3F49086880470646A560287833
:1056700030B93D4D68682146FEF706FF00F007F897
:105680003046BDE8704036490A68104770BD286949
:105690000821FEF7F5BE38B5354D0C46296863681C
:1056A000002289B2FFF7EFFB054600F002F828461A
:1056B00032BD2046FFF77BBC10B52B4CE06818B11B
:1056C000FFF7DFFB0020E06002212069BDE8104009
:1056D000FEF7D6BEF8B505460E4617460C20FFF776
:1056E00065FC040023D00820FFF760FC010019D0FE
:1056F00046604580A06067B91B4D002008702146B8
:10570000A868FEF7C1FE2869BDE8F4400421FEF751
:10571000B7BEFFF74CFCFFF7CCFF3046BDE8F240C8
:10572000FFF7AFBB2046BDE8F240FFF740BCF1BD3C
:1057300010B5044603F01AFA844209DAA0B203F065
:10574000DDF909480069BDE810400121FEF798BE67
:10575000FEE70000044800694021FEF791BE00000A
:105760003803002034030020082400204F0000806C
:10577000B80C0020FD55000010B5DFF8604D6060EA
:10578000A160E2606370194601F0BCF90246DFF8DF
:10579000501D01F0B3F901F0B4F90246DFF8441DE1
:1057A00001F0ACF901F0ADF9BDE810400246DFF8B8
:1057B000381D1020FFF7ACBD1CB58DF804208223E6
:1057C0008DF802108DF80300120A8DF800300624BF
:1057D0008DF805208DF801400621684600F049FD4E
:1057E00013BD3EB50C460021217015460121C007AE
:1057F0002AD56846FFF7DDFB217841F001012170D1
:10580000012060700E210098A0700098000AE070DE
:105810000098000C20710098000E60710198A07132
:105820000198000AE0710198000C20720198000EA6
:1058300060720298A0720298000AE0720298000C4E
:1058400020730298000E6073297037BDDFF89C2C1E
:1058500012680146002012F1010F00D1704770B5A7
:1058600000230FF29C140C255D43665B8E4201BF42
:1058700065196D6825F00045954203D05B1C6A2BC5
:10588000F1D370BD012070BD0178932908BF00F0ED
:1058900023BD022908BF00F001B870472DE9F0418F
:1058A00096B040684178827801EB02211FFA81F8B6
:1058B000017800260929DFF8241C49680CBF441D23
:1058C000041D01B188470C270FF2341507FB06F0C1
:1058D000285A404504D0761C6A2EF4D300F08C8000
:1058E0007E430AA8302103F085F9AA190121907896
:1058F00020B19268531C13F8018C03E002F10803F5
:105900004FF008084FF0000E0AAA18E0062104E044
:10591000082102E0102100E0217847072ED500F091
:105920000B0042F82E40022825D0032814BF64182B
:1059300004EB810401E0002842D00EF1010EC645BF
:105940003EDA0EEBDE704710D85DAEEB4707BF00C6
:10595000F84000F00F000707DFD5A0F10C01032984
:10596000DAD8DFE801F006050403D5E7D2E7CFE790
:10597000CCE70221D1E704EB4104DEE703280DD197
:105980002078677800EB0720A77800EB0740E778DE
:1059900000EB076042F82E00241DCEE7022808D154
:1059A0002078677800EB072080B242F82E00A41C14
:1059B000C3E70128BFD114F8010B42F82E00BCE761
:1059C00015981499536809900891139812990790A3
:1059D000069111980F9905900391906904901069B0
:1059E0000290D068019090680A9A0090281D815911
:1059F00021F0004101F001FB16B0BDE8F08100008C
:105A000005140000D3A8020002000000010C0000F1
:105A10006DD2010005000000630C00009DD2010062
:105A200005000000030C0000CDD2010000000000C2
:105A30000110000035A80200000000000210000064
:105A400055DB010000000000031000008FA80200D9
:105A50000000000009100000B5A8020000000000CE
:105A60001D200000A9AE0200010000001E20000061
:105A70008DAE0200110100001F200000F9AE0200EF
:105A80000000000017200000F9AA0200FF0000003B
:105A90001820000063AB0200000000001C20000082
:105AA00091AB0200000000000F20000095A9020049
:105AB0000000000010200000B3A902000000000058
:105AC00011200000CDA90200D1000000122000002A
:105AD000EDA90200D1000000012000006DDB0100F3
:105AE0000500000003200000FDA8020000000000E7
:105AF00002200000B57F010000000000052000002A
:105B00001BA9020005000000072000004BA90200AD
:105B100000000000060400004DFF0000120000001D
:105B20001520000027AA0200020000001620000035
:105B300081AA0200020000001D0400008FA70200DD
:105B4000020000002D0C000009A802001200000055
:105B5000310C0000E9DA010001000000330C000004
:105B600029DB010012220000350C0000F12D01009C
:105B700069060000142000000DAA020005000000C4
:105B80002F200000F1AC02000000000022200000E5
:105B90008FAC02002202000024200000D7AC0200DB
:105BA0002200000023200000B5AC0200000000002D
:105BB0007B0C000017AC0200620000007C0C0000AF
:105BC00069AC020022000000202000005103010007
:105BD000222222022120000087030100120000007F
:105BE00027200000AD800100D1FF00002820000028
:105BF0001BAD0200D10000002920000035AD0200DD
:105C0000000000002A2000004FAD0200000000004C
:105C10002B2000006DAD0200D10000002C20000000
:105C20008BAD0200D10000002D200000F57F0100A7
:105C3000010000002E200000098501000200000084
:105C40004E200000DB940000D10100002520000060
:105C5000F1DF0100000000002620000089E20100C1
:105C60000500000030200000A9AD02000200000085
:105C70003120000019AE02001101000032200000A6
:105C800033AE02001211020033200000C5AE020044
:105C90001101000034200000DFAE020011110000ED
:105CA000062000003BA902002211D11108200000AB
:105CB0003FA90200510000000920000043A9020092
:105CC000510000000A20000047A902000100000066
:105CD0000B20000089A90200211201000C20000005
:105CE0008DA90200110000000D20010091A9020001
:105CF000500300200E200000D1F70000000000003B
:105D000019200000BD360200E2FC00001320000054
:105D1000F5000100222222021A200000953902001B
:105D2000F20000001B200000BB390200020000004E
:105D30004B20000021AF0200000000004C200000BA
:105D400043AF0200000000004D20000065AF0200DC
:105D50002200000001FC0000C3AF020001000000AF
:105D60001BFC0000B5B40200210000001CFC000078
:105D7000F5B402000200000005FC000073B0020050
:105D8000FF0000000EFC0000D5DC01000000000058
:105D900008FC00005DB102001100000009FC0000D9
:105DA00083B10200000000000AFC0000A9B102005B
:105DB0000100000027FC0000CFB10200110100002B
:105DC00028FC0000F5B102001101000029FC0000D0
:105DD0001BB20200110000000BFC000041B20200E7
:105DE000000000000CFC0000A1DB01000D00000021
:105DF0001DFC000019B502000100000006FC0000B7
:105E0000EBB002000E00000011FC0000E1B2020045
:105E10000100000000FC00007FAF02000100000054
:105E200016FC000051B402000000000019FC000044
:105E30008BB402000100000003FC000021B002004E
:105E40000100000004FC00004BB002000100000053
:105E500012FC000007B30200110000000FFC00005C
:105E60008DB202000100000010FC0000B7B2020079
:105E70000000000013FC000031B30200020000002B
:105E800014FC00008FB30200120000001FFC000091
:105E900073B502001100000002FC0000F7AF020021
:105EA000010000000DFC000067B2020002000000CB
:105EB00020FC000099B50200000000001EFC00005C
:105EC00049B502000100000007FC000011B102000A
:105ED000010000001AFC000037B1020001000000C0
:105EE00021FC000031B602002222000024FC000048
:105EF00057B60200020000002DE9F041DFF8DC7522
:105F00000646F86800280C4636D0B6F1004F40F23D
:105F1000136827D00820FFF749F8050019D02E6034
:105F20006C60FA680FF25501904728BBB6F5800FF8
:105F300005D13CB1A06918B1FFF739F800E00CB108
:105F400000F047F92846FFF732F8424607210020C3
:105F50000EE0B6F5800F05D13CB1A06918B1FFF78E
:105F600026F800E00CB100F034F942460721012088
:105F7000BDE8F041FFF720BCBDE8F0813EB505006B
:105F80004ED028686C68B0F5803F15D0B0F5003F62
:105F90002CD0B0F5802F18BFB0F5002F0CD0B0F585
:105FA000801F18BFB0F5001F06D0B0F5800F04BFEA
:105FB000214600F036F830E006228DF801208DF8F9
:105FC000030000228DF802201321020A8DF804201C
:105FD0008DF80010020C000E8DF806008DF80520DB
:105FE0000721684600F045F9BCB114E0ACB11320BC
:105FF0008DF8000006216846417000214180017142
:1060000002214171002181712178C1716178017291
:10601000092100F02EF900F0DCF82846FEF7C7FF52
:1060200037BD2DE9F84F0F00834600F0A880FE8AA7
:10603000DFF8A894000E8DF8020040F213684FEAD2
:106040001B408DF801004FF0FF0A4FEA1B208DF82E
:106050000000C92EACBFC825F5B205F12A0080B2F8
:10606000FEF701FF04007AD004F10800012121703D
:10607000606084F801A004206168087005F11F01C8
:10608000606880F801A00622606881701321606852
:10609000C17006216068017100216068417161680A
:1060A00081F806B061689DF80000C87161689DF8CC
:1060B0000100087261689DF80200487261683878D2
:1060C000887261687878C872B91C60680C30FDF716
:1060D000F1F96068397A817406226068797AC1744E
:1060E0006068B97A01756068F97A41756068397BD2
:1060F00081756068797BC17507F10E0160681830A1
:10610000FDF7D8F96068B98A81776068B98A090AA9
:10611000C1772812616881F82050616881F82100F8
:10612000F88A38B1B969801B014460682A46223078
:10613000FDF7C0F9C92E09DB6068817A01F09F0183
:1061400081726068817A41F020018172D9F808205B
:106150000AB100F0B9F82046FEF793FE04E042468B
:1061600007210120FFF728FB761BB6B2002E7FF433
:1061700070AFB86908B1FEF71AFF384675E0BDE8A0
:10618000F18FF8B5DFF854730E46F9680546F9B19A
:106190000820FEF70BFF04000FD025606660FA6848
:1061A0000FF23501904798B93046FEF700FF00F036
:1061B00010F83E220721002006E03046FEF7F7FEE9
:1061C00040F2136207210120BDE8F840FFF7F4BA5E
:1061D000F1BD2046FEF7EBBE2DE9F84F040042D09A
:1061E0006068276890F800900026102F4FF0000894
:1061F00000F1010A04D0202F07D0402F07D007E07C
:106200009AF801800AF1020A01E0092600E003265B
:1062100006F1090B5FFA8BF002F0F0FC05001AD0D2
:1062200013202870EF700620687085F80280380A05
:10623000287185F80790380C3F0E6871AF712E7287
:106240003246514605F1090002F0E0FC5FFA8BF19D
:10625000284600F00EF82846FEF7A9FE6068FEF713
:10626000A6FE204601E0BDE8F18FBDE8F24FFEF743
:106270009EBE7CB505460E4606F10B00C0B2FEF789
:10628000F2FD04001FD001212170FF2004F108015C
:1062900061606070042162681170616848706068B4
:1062A0008670300005D0606832462946C01CFDF774
:1062B00001F98A498A680AB100F006F82046BDE86B
:1062C0007640FEF7DEBD73BD60688178C91C89B277
:1062D000104701F065BB000030B58BB000218DF890
:1062E0000410406810F8011B8DF8081002784178FE
:1062F000801C02EB01229DF80810ADF80A20092944
:1063000007D10278417802EB0122ADF80C20801C05
:1063100003E010F8011BADF80C100490BDF80A0062
:10632000C109491E04294ED8DFE801F003393E4374
:10633000480004990A784B78684D00F07F0002EB22
:1063400003240A28A4B202D0122813D03BE0BDF8DF
:106350000C309A1E92B2891C05A802F061FC010063
:1063600032D1697800F0CEFB009005AB2246DFF811
:10637000841711E0BDF80C00821E92B2891C05A89A
:1063800002F059FC01001FD1697800F0BBFB0090BE
:1063900005AB2246DFF8601700F037FE14E000F08E
:1063A0002FF800F0A5F80FE000F029F800F0ADFBA1
:1063B0000AE000F024F800F073FE05E000F01FF89A
:1063C00000F022F800E00120DFF8982B90707F2188
:1063D000BDF80A00D0701170000A40F0FC000621E0
:1063E000107151709DF804009DF804105071891DC2
:1063F000C9B21046FFF73DFF00200BB030BD01AA27
:1064000002A900F07F0070472DE9FF4114460027E4
:1064100001280B462770DFF84C5B06D002281CD001
:1064200004282ED007284DD052E09E687178377826
:106430008846B8F1640F22DA384601F097FAF0B9CD
:10644000A81D009043463A46DFF8C41B00F0D5FD76
:1064500000F08FFD3DD1707832E09C682578667839
:106460003146284601F082FA48B9A01C0090334614
:106470002A46DFF8A01B00F0C0FD074629E00227EE
:1064800027E06A46DFF8901B1020FEF741FF0098D6
:10649000A8716F73EF730098000AE8710098000C00
:1064A0002872BDF804006872000AA8729DF8060000
:1064B000E872BDF808002873BDF80A00A8730A2026
:1064C000207006E098680078A91DFFF78AF900E0BF
:1064D0000127F8B204B0BDE8F0810000841C002060
:1064E000398B0100C93501009915010044030020D2
:1064F0002DE9F04F0F4689B0B988402502294FF0A9
:10650000000BB8BF4020C0F21781BC6823786678C2
:10651000DFF8088B401E03EB06221D281FFA82FAC3
:106520004FF6FF79DFF8F86A00F28282DFE810F0B8
:106530001E0029003A0047005500650084009400C1
:10654000C000D500E20007011801330148015E01D7
:1065500077018701B90180028002C501EB010302C6
:1065600039028002430280025802760200F080FA6B
:1065700002F07EFB002872D103AB5246DFF8A41A6A
:106580001AE003A802908A1EA01C019200F038FDB8
:10659000002864D1717800F0B5FA00F088FADFF8CD
:1065A000881AD9E000F064FA02F071FB002856D195
:1065B00003AB5246DFF8741A00F01BFDCEE000F08A
:1065C00065FA02F06FFB002849D1717800F09AFA61
:1065D00000F071FADFF8581A60E000F052FA5FEA52
:1065E000000B2DD000F03EFA02F06DFB00282DD1FB
:1065F00003AB5246DFF83C1A69E000F047FA02F0BC
:1066000086FB00282BD100F01AFA002800F0F58054
:10661000BDF80C00012804BFBDF80E00484540F04D
:10662000EC80717800F06EFA01905246BDF81400CB
:10663000069BDFF8041A31E000F023FA5FEA000B52
:1066400077D000F00FFA02F083FB00286ED103AB85
:106650005246DFF8E8193AE000F03EFA002868D127
:106660009DF81030DFF8D80900F0E4F938B17178FE
:1066700000F048FA00F01FFADFF8C8190EE09DF8A4
:106680001030DFF8C40900F0D5F90028717808D07F
:1066900000F038FA00F00FFADFF8B01900F0ACFCA7
:1066A0005CE000F02FFA00F002FADFF8A41953E0E2
:1066B00000F0E7F95FEA000B3BD000F0D3F902F0FD
:1066C00057FB002832D103AB5246DFF8881900F09F
:1066D00090FC00F0D2F929D12BE000F0BDF900F0D8
:1066E00084FC30BB717800F00DFA00F0E0F9DFF8BF
:1066F000681931E0022902DD00F0C3F98346B88849
:10670000022802D0BBF1000F13D000F0ACF902F068
:1067100044FB40B903AB5246DFF8401900F069FC76
:106720000546C0B228B1BBF1000F02D0584601F0B7
:10673000D9FDE8B201F027F909B0BDE8F08F00F00B
:106740008BF900F049FC0028F3D1717800F0DAF9F8
:1067500000F0ADF9DFF8081900F057FC0546E8E74E
:10676000022902DD00F08DF98346B888022802D0A4
:10677000BBF1000FDDD000F076F902F014FB002829
:10678000D1D103AB5246DFF8DC1800F032FC00F048
:1067900074F9C8D1CDE700F074F95FEA000BC8D0F6
:1067A00000F07CF902F005FB0028BFD1717800F001
:1067B000A9F900F07CF9DFF8B01800F026FC88E7B2
:1067C000022902DD00F05DF98346B888022802D074
:1067D000BBF1000FADD000F046F902F0FAFA002844
:1067E000A1D103AB5246DFF88418CEE700F074F96C
:1067F00000289ED100F023F908B9022599E7BDF8D9
:106800000C00012804BFBDF80E004845F5D1717891
:1068100000F078F90346524600F067F99EE700F071
:1068200030F95FEA000B84D000F01CF902F0D7FACF
:106830000028BAD103AB5246DFF8341847E70B1FE4
:10684000E178A0789BB2221D01F05EF85FEA000BB0
:10685000E9D003A800905A46B888E178031FA078D1
:106860009BB202F0D1FA00283BD19DF8150048B93F
:10687000717800F047F900F01AF9DFF8F81700F026
:10688000C4FB0BE09DF8140000280CBFDFF8E817EC
:10689000DFF8E81703AB524600F0ABFB0546E8B261
:1068A0009BE000F0E5F802F0C4FA00282AD1524635
:1068B000DFF8CC1700F022F950E700F0E2F85FEAC9
:1068C000000B1FD000F0EAF802F0B8FA002808D157
:1068D000306918B93C20FEF769FB3061306908B9AE
:1068E000132523E7B2781346042BC8BF0225F8DC32
:1068F000521C0C21B2704B4318440C2203A9FCF724
:10690000D9FD002515E700F0BCF85FEA000BF9D0CF
:1069100000F0A8F802F0AAFA0028E2D103AB524630
:10692000DFF8601700F065FB00F0A7F8D9D10598F3
:106930000028D6D0FDE603AA00928B1E9BB2A21CB3
:106940000021002002F0ABFA0028F3D130690028C2
:106950003FF453AF717800F0D5F8029052469DF89D
:106960000C003369DFF820170190B07800F044FB89
:106970000546C0B288B100270C2408E0083014FB9B
:1069800007F1405808B101F0ADFC7F1CFFB2B178AF
:1069900030698F42F2DBFEF70AFB00203061B070F5
:1069A000C7E600F065F802F083FA0028F8D15246F5
:1069B000DFF8D8167EE700F04AF85FEA000BEFD068
:1069C00000F080F800288CD1A078DFF8C41600F021
:1069D0006EF800F01AFB0546C0B2002817D118E087
:1069E00000F035F85FEA000B17D000F06BF80028D4
:1069F0000DD1717800F086F8019003ABA078DFF834
:106A000094160090524600F000FB00F036F87FF438
:106A10008DAE049800283FF486AE8AE600F028F890
:106A200002F04BFA0028F8D15246DFF86C1641E725
:106A300001257EE60DF11102022102F043BA9DF814
:106A400010300DF111020221404602F03BBAC91E7E
:106A500089B2E01C00F009BF03A800908B1E9BB216
:106A6000A21C7047B888811E03AA89B25846704795
:106A7000891E03AA89B2A01C70470546C0B200282F
:106A80007047891E89B2A01C00F0EFBE03A80090D9
:106A90008B1E9BB2A21C00210020704703A800900F
:106AA0005A46B888831E9BB2002100207047009090
