:040000050005740B73
:020000040000FA
:10000000434332367832523156CBF3110301FEFFAF
:10001000FFFF0700FFFFFFFF4495020050000000B4
:1000200030303031439502002C00FFFF01FEFFFF0E
:100030001895020000000000FFFFFFFFFFFFFFFF19
:10004000FFFFFFFFFFFFFFFFFFFFFFFFFFFFFFFFC0
:10005000B050002091820200A1C10310A1C1031081
:10006000A1C10310A1C10310A1C10310A1C10310BC
:10007000A1C10310A1C10310A1C10310A1C10310AC
:10008000A1C10310A1C1031079C10310FFFFFFFF3D
:10009000FFFFFFFFFFFFFFFFFFFFFFFFFFFFFFFF70
:1000A000FFFFFFFFFFFFFFFFFFFFFFFFFFFFFFFF60
:1000B000FFFFFFFFFFFFFFFFFFFFFFFFFFFFFFFF50
:1000C000FFFFFFFFFFFFFFFFFFFFFFFFFFFFFFFF40
:1010000001000000000000000000000000000000DF
:10101000FFFFFFFF4C220020040000000000000042
:10102000000000001400000050150000180000002F
:1010300090100000B8210020040000000000000013
:1010400000000000240000003C1400001800000014
:101050000160000008000000010000000200000024
:101060006815000000000000FFFFFFFF24220020A1
:101070000400000000000000000000002800000044
:1010800028150000240000001800000000000000E7
:10109000BC120000A41000000BB8031089AE0310AE
:1010A00091B6031001AA031061AE0310F5B003104E
:1010B000320000003400000025002900000000007C
:1010C00098210020FFFFFFFF6C2200200400000099
:1010D000000000000000000038000000E0150000E3
:1010E0002800000001000000556100000000000021
:1010F0007FBB03100400000044160000A21701008B
:101100000200000008000000360000002C22002031
:101110007422002009000000C0210020010000000E
:10112000FFFFFFFF5C220020040000000000000021
:101130000000000010000000A415000018000000CE
:10114000FFFFFFFFD4220020040000000000000089
:101150000000000054000000081600003C000000E1
:10116000000001003000000004100000375A0000A9
:101170002D00000000000000681100009011000028
:101180004DA20310B5A80310C1B7031009A50310A1
:1011900069AA031061B103103DB103102D000000D6
:1011A0000000000000000000DC220020FFFFFFFF25
:1011B0005422002004000000000000000000000095
:1011C000580000007015000034000000A1C1031099
:1011D00001003200060000000000000020000000B6
:1011E0000100000099BF031028000000BC1200009D
:1011F00000120000FFB70310F9B60310B5B70310D3
:1012000011AD0310D1B00310ADB0031030000000D9
:101210000000000000220020040000000000000088
:101220000000000010000000541400002C0000001A
:10123000000000000000030000000E003C00000061
:1012400000000000000000009BBF03100800000029
:1012500054160000FFFFFFFF64220020040000007E
:1012600000000000000000001C000000BC15000091
:1012700024000000EC110000B02100200400000058
:1012800000000000000000000C000000C41300007B
:10129000180000000000000000000000080000002E
:1012A0000100000004000000000000000000000039
:1012B000501C000024000000000200000410000088
:1012C00000000F0079B803100C00000000000000BF
:1012D0009021002004000000000000000000000039
:1012E000200000008C13000030000000681C00008B
:1012F000010000001F590000000000000002000073
:101300000000220001000000781100001C220020D3
:1013100004000000000000000000000020000000A9
:101320000415000024000000801C00001022002092
:101330002000000068160000FFFFFFFFFFFFFFFF17
:10134000795F00009B6100009F610000A3610000C5
:10135000A7610000AB610000AF610000459E010085
:10136000F59E0100019E0100818602006386020055
:10137000CD9E0100D99E0100B3860200299F010085
:10138000359D01000000000000000000300000005A
:101390000000000000000000B41300000400000082
:1013A0000000000001000000FFFFFFFFFF00000041
:1013B00001000000080000000000000025B5031037
:1013C000FD9603101800000000000000000000005F
:1013D000D41300000800000000000000100000000E
:1013E000BC120000F4130000E18602001DC70000DB
:1013F000B1C70000D361000027620000B3610000A4
:1014000031000000E0130000F8210020040000007B
:101410000000000000000000200000002414000074
:10142000180000001800000000000000000000008C
:101430003414000008000000000000001800000044
:1014400000000000000000004C1400000800000034
:10145000000000002C000000000000000000000060
:1014600078140000040000000000000001000000EB
:10147000FFFFFFFFFFFFFFFF08000000000000006C
:101480006811000098140000859F0100959F0100DD
:10149000B19F0100A59F0100716200009B620000E6
:1014A000476200002E000000801400000822002087
:1014B0000400000000000000000000001400000014
:1014C000C81400001C0000001C0000000000000008
:1014D00000000000DC140000000000000800000014
:1014E0000000000001000000B3300000DD860200B3
:1014F000AF4E0000B7300000BB300000A730000046
:10150000C5300000240000000000000000000000C2
:101510002015000000000000000000000000000096
:10152000080000000000000024000000000000008F
:101530000000000044150000000000000000000052
:101540000000000008000000000000000A00000089
:1015500018000000000000000000000060150000FE
:101560000800000000000000C1450000E13B000051
:101570003400000000000000000000009C15000086
:10158000000000000000000001000000000000005A
:101590000100000000000000000000000800000042
:1015A0000000000018000000000000000000000023
:1015B000B415000008000000000000002400000036
:1015C0000000000000000000D8150000000000002E
:1015D0000100000000000000080000000000000002
:1015E00028000000000000000000000000160000BD
:1015F0000000000000000000FFFFFFFF00000000EF
:1016000008000000000000003C0000000000000096
:10161000000000003C160000000000000000000078
:1016200001000000000000000000000000000000B9
:1016300000000000010000000000000008000000A1
:1016400000000000836100009DAA0310D99D0100E5
:101650003DAD03100100000000000000000000008C
:10166000000001000000010083BF031085B10310DA
:1016700045A70310C9B203108DA1031005A30310E1
:101680008DAC031065B00310EDB50310419F010050
:1016900037500000CB5A0000E5860200376000009A
:1016A000F1600000EBC706EEC906F1880CF48A1061
:1016B000F78D0AFA4D20FD5128005934015C38029B
:1016C0000D4403115404166C051E9400A41600006A
:1016D0000D070000EDF50000C1270000C127000044
:1016E000C1270000C1270000B5F90000D3F90000B0
:1016F000C1270000EDF900001DFA000021FA0000EA
:101700007BFB0000C127000093FB0000F5F6000002
:1017100025FA000049FA000069FB000019FC0000EE
:10172000C1270000C1270000C1270000C127000019
:1017300055F700008BF90000C127000039CB0000ED
:10174000ABCB000015CC00007DCA00008FCA0000A2
:1017500099CD00009DCD0000D9D000004BD10000F4
:10176000B5D1000051D0000063D0000039D2000094
:10177000D9D20000A7820200B382020025B503106F
:101780003DA803100205FB0303100A00EC3C0020F7
:10179000F03C00203A0100000000000000000000C2
:1017A000541D0020E019002000000000000000008F
:1017B000D4160000D81900003C170000F8190000EA
:1017C0007C17000000000000F43C00200000000036
:1017D00068190020B0190020C0190020D01900207D
:1017E000CC16000000000000000000B000405104D2
:1017F000201100F010000000E4170000FF000000BE
:10180000000000008C360020FC17000001000000E2
:10181000FF00000002000000E03600201018000069
:1018200001000000FF000000010000002C37002034
:101830002418000001000000881A002078370020DA
:101840000B00000004000000FFFFFFFF0080040009
:101850000040000000000000000010000010000028
:101860008837002040000000000000000000000059
:1018700000093D00060000006C1D00005E4B0020CA
:101880004C180000941D0000C837002054180000B8
:1018900002000000FF000000000000000000000047
:1018A0003D500000934A000001010100FF000100CB
:1018B00000000000000000000000004017FF0000D2
:1018C000000000000400FF000800000010000000FD
:1018D00009080AFF0A0000000080004018FF00000D
:1018E000000000000500FF000000010000000200F1
:1018F000FFFFFFFF0A000000BC1D0000D4370020DE
:10190000B8180000BC1D0000B8380020D81800002E
:10191000020000000010004006000000150000005A
:10192000FF000000000000000302FFFFEC3B00206E
:1019300020000000010300000000000000B0004093
:101940001400000034000000FF0000000000000050
:10195000FFFFFFFF0C3C00202000000001030000FF
:1019600000000000D41D00009C3900201419000064
:10197000D41D0000C43A00203C1900000200000001
:10198000000002400A29FF002C3C002080190000C2
:10199000080000005F4B00209019000000000000CC
:1019A0000000000000000000000000B000405104F2
:1019B000301100F010000000A41900000A18232ABA
:1019C000242A252A262A272A282A292A2A2A502A66
:1019D00002000000BC19000013A4010085A401004E
:1019E00095A4010007A50100E9860200EF86020028
:1019F0006BA50100CFA5010065C9000087C90000E3
:101A0000A1C9000091340000233400002F350000EC
:101A10007535000095350000BD33000045350000E8
:101A2000D734000021360000153400004B3600008A
:101A30003F3600002D360000893400008B34000052
:101A40005F3800008F3400008D340000000000007B
:101A5000000000B000405104101100F01000000020
:101A60004C1A000000000000000000B000405104CB
:101A7000C0FF00F010000000641A0000496D6720EC
:101A80004964656E7469667900000000496D6720DD
:101A9000426C6F636B0000004F41442045787465D1
:101AA0006E64656420436F6E74726F6C000000009A
:101AB0004F414420444C20436F6D706C6574652C1D
:101AC000207761697420666F7220656E61626C6553
:101AD00000000000496D6749442054696D656F75C9
:101AE000742C20646973636F6E6E656374696E67CE
:101AF000000000004F4144204572726F723A202569
:101B00006400000046432056696F6C617465643A56
:101B1000202564004D54552053697A653A20256488
:101B20000000000041647620536574202564204540
:101B30006E61626C656400004164762053657420B8
:101B400025642044697361626C6564004164762099
:101B50005365742025642064697361626C65642038
:101B6000616674657220636F6E6E202564000000EC
:101B700053656E64696E6700446973706C6179695E
:101B80006E67000025732025730000001B5B333255
:101B90006D707265737365641B5B306D00000000CF
:101BA0001B5B33336D72656C65617365641B5B3001
:101BB0006D0000004E6F74692F496E642064697374
:101BC00061626C65640000004E6F746966696361F0
:101BD00074696F6E7320656E61626C6564000000ED
:101BE000496E6469636174696F6E7320656E6162CA
:101BF0006C656400556E737570706F7274656420E7
:101C00006F7065726174696F6E00000043434344F6
:101C1000204368616E6765206D73673A20257320E5
:101C200025733A2025730000427574746F6E20533B
:101C30006572766963650000425554544F4E30001A
:101C4000425554544F4E310053747265616D00001B
:101C50007B7374617469632D696E7374616E6365FF
:101C60002D6E616D657D00007B656D7074792D69E9
:101C70006E7374616E63652D6E616D657D0000002D
:101C80007B756E6B6E6F776E2D696E7374616E63AC
:101C9000652D6E616D657D0096C298D84539A1F4B9
:101CA000A033EB2D817D0377F240A463E5E6BCF819
:101CB00047422CE1F2D1176BF551BF376840B6CBE4
:101CC000CE5E316B5733CE2B169E0F7C4AEBE78EE0
:101CD0009B7F1AFEE242E34FFFFFFFFFFFFFFFFF84
:101CE000FFFFFFFF000000000000000000000000F8
:101CF00001000000FFFFFFFFFCFFFFFFFFFFFFFFF2
:101D0000FFFFFFFF000000000000000000000000D7
:101D100001000000FFFFFFFF4B60D2273E3CCE3B9F
:101D2000F6B053CCB0061D65BC86987655BDEBB3B6
:101D3000E7933AAAD835C65A512563FCC2CAB9F30B
:101D4000849E17A7ADFAE6BCFFFFFFFFFFFFFFFF72
:101D500000000000FFFFFFFF02000000B082000053
:101D600000000000BF820200000000007D30010082
:101D7000853001008B300100BB300100D5300100FF
:101D8000233101003B310100AF310100ED31010091
:101D9000F53101008534010013350100893501005A
:101DA000B9350100CB3501000136010019360100BB
:101DB0003F370100833701008D37010009410100E1
:101DC00061410100C5440100D3440100DF45010029
:101DD000394701008D5001001D5101003D4F0100A8
:101DE0004D4F0100095301002F54010035540100EB
:101DF00081510100775201007D520100286E756CFF
:101E00006C2900003031323334353637383961626D
:101E100063646566000000002827257327290000F9
:101E20007B6D6F64756C652325647D007B6D6F64CD
:101E3000756C652D726F70653A25787D0000000025
:101E4000222573222C2000006C696E652025643ADF
:101E5000200000000200000000000000FFFFFFFF64
:101E60000000000002000000AC820000C7870200F2
:101E700039D6010000000000FB349B5F8000008029
:101E800000100000000000009E60EE2DCE2DC22D3F
:101E9000540FEF2FEF0F975F9D170050A0058004A0
:101EA000407F00402801080F00080004FF03404065
:101EB000202E000003001300100021002200320039
:101EC0003100430040005000530062006100710087
:101ED00072005F0060005D005E005B005C00590006
:101EE0005A005500560057005800CC00C3003C0073
:101EF0003300000001000200030000040008180085
:101F0000080003001A000A002C0011003E00030024
:101F1000080018001A0011002C000A003E000040C2
:101F20000C00000088140900F905010000808B00F6
:101F30008000500F00001D0A9005000005000004FD
:101F4000207BC10000000F00277F7F0100800C0074
:101F5000000098140900F905000000808B00800043
:101F6000700F00001D129005000005000004207B8A
:101F7000C10000000F00267F7F0100400CA00C0074
:101F800087030300CD4001050080EE01800070064C
:101F900000001E09000556000C00000014505000FF
:101FA00000001F007F7F000004887F7F7F2C0000DF
:101FB0000000000000009F004040202E030C90FD18
:101FC0003C7800000D720E720F7210725DA3E5A4D2
:101FD000D8673CB6D0B00071D0A010B11B7262813E
:101FE0002010623930062000301601110114016CF6
:101FF000C260CB60F2603C61C260CD60D9614E626C
:10200000C260D360F26064612012C3601012117369
:1020100012731373B1811000B09170B0A560B1C498
:10202000D46091C7BC78FBC102C340C5D86021C64B
:10203000AC78FBC502C360C42018136F236E111661
:102040001216D968EB948C9C7081001EC24430C07B
:10205000B092F0C1D09232C6C0C92018EF4003122E
:10206000236E1216EC6800839099C26005B09172DD
:1020700000C1F09128B120B113B111B1E8B00071E5
:1020800028B1E8A030B210B9808C309911B1A28487
:10209000B484F3C0D1B0007112B002B011B1D1A0BC
:1020A00091722C7230B613B003B0E0B0007120B161
:1020B0007081C09290814096007120B1C392429687
:1020C000007120B14496007120B1E0A030A633B673
:1020D000D3B0007113B1D3A030C0109920C0309993
:1020E000D1B0007111B1D1A0917203A002A06372AE
:1020F000057306739173917230A2C0C71090C260CD
:102100008D65BD65C465007110A9937310B94F8BBF
:102110006F318F3D0F7213730000000074B031B245
:102120005DB30F97E5A444A064B0D067B1C2E56782
:10213000F322574500711F97A3C03399179135A219
:10214000007178B043C2D4673C4530C0F767C260C5
:102150008D656078BE65F0C56869C465D5B015B198
:1021600031C0007190805022CE4574B010A9937395
:1021700010B90F72137331B2D5A05DB3408B203903
:102180000097E5A444A064B0D06734B261C2E567AB
:10219000F3228745007178B0A3C2D46740C0F767C7
:1021A000C260B084A095709980890E10A08490952B
:1021B000709980890E1480C00E1880C00E1851834B
:1021C000813921396106311600111014006C1E315D
:1021D0001E318E318E392E9740823022B045D5B0D7
:1021E000007115B1D5A0A86100C1E09110781099D7
:1021F000E7139A78E5B440C5109002B004B006B079
:1022000000705078509030907078609040900070DE
:1022100035B26CB011B089B0E5B4D1A0D0A03DB159
:10222000FDB00070319A438A548A3331633D3431B2
:10223000643D9396A49653B06B619089009311739B
:1022400012731F7291727081C0929081409650C03B
:10225000F7675CC11DC37EC008C0E8B0007128B13B
:10226000E8A030B210B9808C309911B1D1B00071B2
:10227000D1A034B6E1B002B012B003B013B021B1B6
:102280000071E1A034A630B613B1D3B020B1E0B0F4
:10229000A484F0C04F103F661439066AB484F0C0BD
:1022A0004F103F6614390C6A948C40C04F103F6643
:1022B0001439126A948C04222446DF813F6610820E
:1022C00010221F42196230C00FC03F66206A31627F
:1022D0005DC31EC0DF813F66108210222C42246243
:1022E00030C00FC03F662D6A3162E1A030C0109946
:1022F00040C0309911B1D1B00071D1A0917203A04A
:1023000002A02372C2601F063F318F14CF14F26FF8
:10231000281048393206D214236F007120B1CE92B2
:102320004396007060C0F76790890093657200DB88
:1023300060961DB300C1E091C0C02093907B509780
:1023400000C1B1C3D2C7136F236E111612165F6A94
:10235000A8677B67408230227046D5B0007115B106
:10236000D5A0666270C0F76735B240780180010081
:10237000019010905078309050908078409060900C
:1023800020DF809372B0E5B4F0B33BB620781099AB
:1023900080C0F76793730CB14CB13DB1FDB00FB184
:1023A0004FB108B0007108A014B914A94CB110A91C
:1023B0001E79007110B94F89C080C022F147F02208
:1023C0008C46FDA0107244A064B074B031B230B23B
:1023D00032720F7248A049A04AA009A000C23099E9
:1023E00011B1D1B00071D1A0808720221647E7B08B
:1023F000F0C127B10071B56A4FB0E5A41DA373B059
:10240000C0C020934BB041B090C0F7678381031EDA
:10241000C2425B894089B0180C103C062039333128
:10242000031820C30318339910A93078109911B1FB
:1024300010B9D1B0F322FF460A838A395A396B8624
:102440003B315086803950390B0004120071908066
:102450001022FF460183528663863ABA258B853166
:102460002531541CFC42F54AA114B214F95E13162E
:10247000F962A118B218F95A131A01935296639689
:10248000541027B1E26233B250B7D4789497C4782D
:10249000A497E0C060B7066BD1A02372A373F48A3F
:1024A000A0D0149AF767E7A003720472057306734D
:1024B0009172C260E5A4D0C03099FE1C1D47A0D621
:1024C0001F6390D60000809373B072B04BB0A07BB6
:1024D0005097E7A011B1D1B0B3B100716FB04FB058
:1024E0004DB041B0C0C0209339BAF08A1031009786
:1024F00060B9937300CF376B1AB00AA0B0C0F7670A
:102500008381031E3C435B894089B0183331031833
:10251000E0780318339910A911B110B9F322674775
:10252000A089A189101C4D43E7B027B150B7011213
:102530000071A0807022634327B1111E5D43111604
:102540005463A0899097B089A09760B701129080DA
:1025500010225443E7A033B24DA050B7F478A497AB
:1025600004799497E0C060B76F6BD1A02372C0C0AC
:10257000F76703720472057306739172C2605CC1DF
:102580000DC00AC008C070C0AE84DBC2B76F9967C7
:10259000836B1B16B76F70C00AC09967896BBE84C6
:1025A0001B16B76F70C00AC09967906B1B16B76F88
:1025B00070C00AC09967966B0070EF101F063F311C
:1025C0008F14CF14F26F2810483932062A001A3FB0
:1025D0001A3F7A6E1E3900705CC10DC008C0E0C0A1
:1025E000AE845BC2EF101F063F318F14CF14F26F21
:1025F000281048393206BA47CACCC363121EBE47F8
:102600003ACCC363221EC247CAC3C3633AC3002283
:10261000C743A610CC63B76F8A316A007A6E1B1667
:102620001E39AE6B64B000708381031ED04300700E
:102630003399179100715DA32372917391720372A4
:102640000472637230C00090C0FF1090057306736F
:1026500000705B894089B01823310318131833992F
:1026600010A911B110B9D1B0007014B914A94CB1AE
:1026700010A92E799562009AF0890022F847E0B9F6
:1026800000700000B10E0200153E0200111D020094
:10269000F1FB0100B9BA0100DD670200C55B010072
:1026A00065FF0000B5B20100156A020001010201D8
:1026B00002010102010203030401030101010101FE
:1026C00003030201030000000000000000000000FE
:1026D0000000000000000087BE83605ADB0B3760FB
:1026E00038A5F5AA9183886C000000000200000064
:1026F000FFFFFFFF0000000002000000FFFFFFFFE0
:1027000085500200FF000000000000000061620030
:102710000C270000010000000000D002EC000021A6
:102720005F00000000000000000000001C27000007
:102730001827000000000000FA400000B642000028
:102740005A440000964400007E450000FE18010037
:10275000FF180100202700008E450000C64D000034
:10276000442600200C0802170D010102090901018D
:1027700006020918180301010909030305030000F3
:102780000000000002000000FFFFFFFF25262700D9
:1027900003180418061805180418000001020003A5
:1027A00002000103F401FA00960064004B003200BD
:1027B0001E0014000149086070470000001A002044
:1027C00081B001218DF800109DF800000028FBD198
:1027D00001B070477047FF7FF0B5DFF89C63DFF80A
:1027E0009C430546307885B0800000F04DFE010026
:1027F000A1600AD04FF6FF77384601F083F83078B1
:10280000800000F041FEE06008B9132020E001469E
:10281000384601F077F80FF2006001901021009126
:10282000072304F11402DFF85813102000F0DEFF34
:10283000064600F0A9F90720009001220FF2683344
:102840000FF250304FF4827101F07BF92570F0B235
:1028500005B0F0BD18B5010085B00FF2383011D0C9
:10286000C84A0FF268331160002204920392019269
:1028700000910024029401224FF48B7101F061F960
:1028800000200AE000F08DF8009102220FF26C3374
:1028900040F21B1101F055F9012006B010BD2DE9E1
:1028A000F04786B00C46914600260FF2E8280FF25A
:1028B0007433B24D10B101281DD028E0A81C05903A
:1028C00005F1100A0FF27832AF6800F060F840F2BC
:1028D0003F1100F063F8022C49DA200047D0494646
:1028E0002246504601F066FA05980480B878E0B9AF
:1028F0000FF2B0301FE0281D059005F1110A0FF20C
:102900004832EF6800F043F84FF4A571E1E700901A
:10291000049603960296019603220FF234334FF485
:10292000A77100F03BF8022030E001280CBF0FF245
:1029300090300FF2A4300190049603960296012283
:1029400038880FF2343300904FF4B07100F026F85D
:102950000FF29D000290072128780190009105F167
:10296000140300225146384600F0E6FF0DE0012234
:102970000292019204960396009403220FF26C33A4
:102980004FF4B77100F00AF818263046F1E00092D3
:10299000049603960296019401227047404601F086
:1029A000D0B800210491039102910191704720B5A4
:1029B00042F6021104E0426813888B4215D11038A8
:1029C0000278022AF7D0102A0FD145680FF2284169
:1029D000284601F043FA48B110220FF22C41284654
:1029E00001F03CFA08B9012020BDFF2020BD000005
:1029F0002DE9F84F814686B08A461298109C0FF256
:102A0000941B5E4E059090461D465046FFF7CFFF43
:102A1000002710B101281FD02EE0059976880FF20B
:102A20000433039104900294CDF8049001220FF234
:102A30001021009140F2D911584601F082F8A642C7
:102A400025DA00F035F80FF2343340F2EF11584632
:102A500001F077F8072727E00599B6880FF2C4231D
:102A6000039104970294CDF8049001220FF2D8113B
:102A700000914FF4F271DFE700F01AF80FF2E02353
:102A800040F2E911584601F05CF80A200DE0119976
:102A9000321B9142A8BF311B29804046DAF80C1046
:102AA0002A88214401F086F9384607B0BDE8F08F46
:102AB00004970397029701970097032270472DE927
:102AC000F8470E4685B031780FF2C807022901BFDA
:102AD0007468218842F60215A9423BD10F990E9CD9
:102AE000FE2982460CBF0FF2E8280FF200381D467F
:102AF00091463046FFF75BFF00210491039100905F
:102B0000CDF80880CDF804A001220FF2942340F202
:102B10001B21384601F015F80320019000942B4644
:102B20004A463146504600F06CFF040010D1154F64
:102B3000386800281CBF4068002809D03046FFF7DD
:102B400036FF2A463D686E6801464B465046B04700
:102B500020460EE03046FFF72AFF00F015F80090FF
:102B600003220FF2FC1340F23221384600F0E9FF55
:102B70000A2006B0BDE8F087654B0020041A00204B
:102B8000A52A0100883600200020049003900290BE
:102B900001907047627574746F6E5F7365727669C9
:102BA00063652E6300000000526567697374657287
:102BB000656420736572766963652C2025642061E5
:102BC0007474726962757465730000005265676998
:102BD0007374657265642063616C6C6261636B73AE
:102BE00020746F206170706C69636174696F6E2E00
:102BF0002053747275637420257000004E756C6CE0
:102C000020706F696E74657220676976656E2066E4
:102C10006F72206170702063616C6C6261636B73B2
:102C20002E000000536574506172616D65746572A9
:102C3000203A202573206C656E3A20256400000040
:102C4000425554544F4E3000425554544F4E31006B
:102C5000536574506172616D657465723A2050619C
:102C600072616D6574657220232564206E6F742017
:102C700076616C69642E0000547279696E67207405
:102C80006F2073656E64206E6F74692F696E643A8D
:102C900020636F6E6E48616E646C652025782C2011
:102CA000257300001B5B33336D4E6F74692F696EA3
:102CB000642064697361626C65641B5B306D000045
:102CC0004E6F74696669636174696F6E20656E61C9
:102CD000626C656400000000496E64696361746938
:102CE0006F6E20656E61626C656400004C656E6796
:102CF0007468206F75747369646520626F756E64A3
:102D0000733A204C656E3A202564204D696E4C65FF
:102D10006E3A202564204D61784C656E3A2025641A
:102D20002E00000052656164417474724342203A7F
:102D300020257320636F6E6E48616E646C653A2067
:102D40002564206F66667365743A202564206D657E
:102D500074686F643A2030782530327800000000C3
:102D600041747472696275746520776173206E6F47
:102D70007420666F756E642E00000000416E20693D
:102D80006E76616C6964206F666673657420776126
:102D900073207265717565737465642E00000000A0
:102DA00057726974654174747243422028434343E7
:102DB00044293A20706172616D3A20256420636F66
:102DC0006E6E48616E646C653A2025642025730040
:102DD0002D20726573746F72696E6720626F6E6406
:102DE0006564207374617465000000002D204F54E9
:102DF000412077726974650000000000000000B097
:102E000000405104211100F000000000000000B05B
:102E100000405104221100F0F1290000BF2A0000F7
:102E200000000000DFF800F071B70310DFF800F0D9
:102E300025B50310DFF800F0E1B60310DFF800F06D
:102E4000AFB70310DFF800F03DA80310DFF800F083
:102E500005AB0310DFF800F03DB50310DFF800F01C
:102E6000EDA10310DFF800F05DAC0310DFF800F017
:102E700081B60310DFF800F0F9900310DFF800F0DE
:102E8000159E0310DFF800F025A90310DFF800F00D
:102E900011B70310DFF800F0C5A70310DFF800F04A
:102EA00029AF0310DFF800F033B80310DFF800F0AB
:102EB00099B5031020B108233C220021FFF7B2BFCF
:102EC000704780B5FFF7B2FFADF80000FFF7B2FF23
:102ED000ADF80200009802BD01B5BDF80200FFF791
:102EE000ADFFBDF80000BDE80240FFF7ABBF38B54D
:102EF000DFF8D449207801282DD001212170DFF896
:102F0000CC29DFF8CC1989088900521AA2616161C5
:102F10000A4602E0002342F8043BA3695D18AA4276
:102F2000F8D39B0801EB8302002042F8040CE82050
:102F30000860A06980088000EC38C1F8E80001F161
:102F4000E800A060002000F007F8E0606069A06081
:102F5000A069001F206131BDF8B500240026051DC1
:102F600015F003001CBF291D0D1AFFF7AAFFDFF89B
:102F7000582901465160112D34BF9368D3681868F1
:102F8000002803D580F00040002619E0370013D058
:102F90002768D3F800C06744AF42276010D3384693
:102FA000ECB1401B042811D3605145F00040206073
:102FB0001069451B156111E0A84214D201261C4678
:102FC000034418680028DBD1002408E01369206856
:102FD0001B1A1361206840F000402060241D00F09F
:102FE00051FA2046F2BD1C46DAE710B50446FFF759
:102FF00068FFDFF8D418486054F8042C22F000422F
:1030000044F8042C0B69D2180A61221F8B689A427B
:1030100038BF8A60BDE810405EE72DE9FC41FFF74C
:1030200050FFDFF8A418CA68486000240025002675
:1030300000270AE00E460125144605E02B00F9D0D2
:103040002368CB1823608E190A441168B046BE422B
:1030500038BFB846002905D0F0D581F000410025E1
:103060004746F1E7FFF738FF4046BDE8F68110B567
:103070000446DFF854088169216000696060FFF749
:10308000CCFF09282CBF08380020A06010BDDFF855
:1030900038180A69121A40F22D139A4228BFFFF716
:1030A0005BBF0020704780B5FFF721FF4BF6BE20C5
:1030B00002BD084650E7084697E702B56846FFF7A5
:1030C000D6FF01BD0120704738B50446FFF7F9FE71
:1030D00000220C23DFF8FC175343CD18A96C21B153
:1030E0008C4206D0521C032AF3D3FFF7F5FE0020D2
:1030F00032BDFFF7F1FE05F1480032BD7CB5054653
:10310000FFF7DFFE044600210C22DFF8C8074A4320
:103110008618B06C48B1854210D0491C0329F3D3FE
:103120002046FFF7D9FE002076BD3065B56400214A
:10313000FFF78CFEF06408B900F0C4FE2046FFF7EC
:10314000CBFE06F1480076BD38B50446FFF7B9FE60
:103150000025DFF880270C216943515A21B18C42A8
:1031600006D06D1C062DF6D3FFF7B6FEFF2032BD4C
:103170001FE310B504462088FFF7E6FFFF2802D1C1
:103180004FF0FF3010BD0C21DFF8482748431044B2
:10319000816811B96FF0010010BD2046BDE81040F4
:1031A000084702460FF25070104710B500200C215E
:1031B000DFF82027002401FB00F31344401C032800
:1031C0009C641C65F7D30020002301FB00F4401C25
:1031D00013530628F9D3BDE8104088E62DE9F847D7
:1031E0008FB081468846FFF735FE05460027DFF899
:1031F000E86647451FD26846FFF75CFE09EB0710FB
:10320000416806918168089169460268049200222B
:10321000C06805903046FFF721FE040011D0FFF78B
:1032200050FE82462046FFF769FF50B15046FFF737
:1032300053FE7F1CDDE72846FFF714FE10B0BDE803
:10324000F08700F03FFE00BFF8B5684605214160F9
:103250004FF480518160DFF88426DFF884160091F6
:10326000C2600121FFF7BAFF05B000BD38B50446C2
:103270000D46FFF726FE002145F80C1C226812B906
:10328000256006E00A4652F80C1C0029FAD142F8E3
:103290000C5CBDE832401FE680B5FFF7E7FDFFF7A5
:1032A00013FF10B96FF0040002BD816809B9022054
:1032B00002BD4068AFE0062881B00ADA0C22DFF8D0
:1032C00014365043185A00281CBF4FF6F873984222
:1032D00002D14FF0FF3001E00880002001B07047BC
:1032E00030B5DFF800562A680C464FF47A71A1FB1E
:1032F0000001002300F0EAFD002399424FF0004254
:1033000001D8904202D36FF0020030BD206000204F
:1033100030BD014688684968084770B505460E46C5
:10332000FFF7A4FDFFF7EAFE040009D0FFF7C9FD8F
:103330000146002200F09FF820B1521C062AF9D362
:1033400000F0C0FD4FF6F87018805C6000209860B7
:103350002A706068306000F095F8002070BD0C386D
:1033600043E670B5044615461E460846FFF7ECFED8
:103370000146FF2902D14FF0FF3070BD33462A4687
:103380002046BDE8704083E07CB50546164600F057
:10339000A2F8040010D128886946C0B2FFF78BFF5D
:1033A00028B13068FFF7DBFF6FF0050076BDBDF890
:1033B00000002880FFF770FF204676BD38B505462F
:1033C000FFF754FDFFF780FE044600F097FE00284B
:1033D00018BF012800D014B96FF0040032BD65B9E0
:1033E00000200090009B60684FF000420021FFF732
:1033F00041FD401E8041C00F32BD15F1010F08BFD5
:103400004FF0FF30EDD069462846FFF769FF0028EE
:10341000E8D032BD80B54FF00041FFF72FFD00200E
:1034200002BD2DE9F843054600F0A0F9FFF766FE5E
:1034300004006FF002091CD0FFF743FD0146002293
:1034400000F019F840B1854211D0521C062AF7D37A
:1034500000F038FDBDE8F2831D805C609E603A702C
:103460006068C8F8000000F00DF80020F2E700F0F6
:1034700009F84846EEE70C23DFF8580453430344A9
:1034800018887047084627E566E5AEE5FFE5EEE5F6
:103490002DE9F8430D462F46062FBCBF04460628EB
:1034A000164699466FF0020806DAFFF70AFD00F0AB
:1034B00003FA19B9FFF710FD40460AE0FFF70CFDCB
:1034C00000F0F0F9786840684FF00041FFF7D6FC53
:1034D0000020BDE8F2832DE9F04106460F469046F4
:1034E000FFF7C4FCFFF7F0FD050008BF6FF0040014
:1034F0001BD0FFF7E6FCA968002441B10C46A4F1FB
:103500000C010A68AA6000220A60FF228A72FFF793
:10351000E3FC0CB9022008E0A4F10C000179317041
:1035200040793870C8F800400020BDE8F08182B0D2
:1035300001218DF800109DF800000028FBD100F05B
:10354000C1FC00BFFFF79EBC10B5DFF8980302680E
:103550006FF00044A4FB020100234FF47A7200F0E4
:10356000B5FC002399424FF0004201D8904200D3AD
:10357000204610BD7CB50C4615461E466946FFF731
:10358000AFFE30B9009833462A46214600F002F8D3
:10359000002076BD2DE9F0431D4689B02C68804699
:1035A0000E4617462CBB0C20FFF7D6FC04006FF02C
:1035B000030918D00823242200216846FFF766FC7F
:1035C0000020ADF810000590069400236A4641469D
:1035D000DFF81403FFF75EFC206030B9FFF7A7FFA8
:1035E0002046FFF702FD484617E06660A7602C60A2
:1035F0000BE0DFF8F8623068804705462068FFF787
:103600004DFCA76028467168884720684146FFF74F
:1036100049FC2068FFF74AFC002009B0BDE8F083B0
:1036200000281CBF0068FFF739BC7047E0B58DF873
:103630000400684600F096FD9DF805000EBDE0B55B
:103640000190684600F0C4FD0EBDE0B501906846EB
:1036500000F0C8FD0EBD2DE9F84384B0044600F02B
:1036600085F8FFF731FD05460020029000F046FD89
:10367000002818BF012800D015B96FF0040072E0CF
:1036800044B900200190FFF7FDFB81460198012419
:10369000814425E014F1010F08BF4FF0FF30F1D055
:1036A00001A92046FFF71CFE0028ECD05BE003993F
:1036B00002A8FFF7DBFD68684FF00051FFF7DEFB63
:1036C0000199012411F1010F0AD0080008D0FFF779
:1036D000D9FBB9EB000031D0019981422ED3019082
:1036E000019B68684FF000520021FFF7C3FB28B32D
:1036F00003AA69460DF10100FFF7EDFE0400DFD1DA
:103700009DF801000DF10201FFF7D5FD0028CED193
:10371000039A9DF80010BDF80200B0470028C6D0FB
:1037200017B1BDF802003880B8F1000F1CBF9DF83A
:10373000001088F800100C9803990160FFF7ACFDA9
:10374000029EFFF7BEFB014656B1324600E002463C
:1037500052F80C0C0028FAD1A86842F80C0CAE60A4
:10376000FFF790FE204605B0BDE8F0830E461746F1
:103770009846FFF77BBB38B5FFF778FB044600F0AF
:10378000BDFC002818BF012811D0FFF79AFB0025C7
:10379000504A0C236B43D15A39B1D1184B68196880
:1037A000A14206D06D1C062DF3D3FFF795FBFF2039
:1037B00032BDFFF791FBE8B232BDE0B5ADF80000D5
:1037C0008DF8061000204A490A68ADF802006846E4
:1037D000904710B99DF807000EBDFF200EBD107870
:1037E000422801D101207047002070470CB478B501
:1037F00004460E4687B000F081FC0CAD002814BFD3
:103800000128FFF794FE1420ADF810000021FF20DE
:1038100002918DF8120006960595FFF7ACFF05ABF7
:1038200003222146FFF79DFD002001A90190009190
:10383000002300222F4941F28830FFF70CFF0128B6
:1038400005D020B9019820B1FFF789FD01E0FFF70D
:103850006EFE0598006808B070BC5DF80CFB2DE9A1
:10386000F8430D462F46062FBCBF044606281646D1
:1038700099466FF0020806DAFFF723FB00F01CF808
:1038800019B9FFF729FB40460AE0FFF725FB00F0D6
:1038900009F8786840684FF00051FFF7EFFA002010
:1038A000BDE8F283A9F108000470457086704946AE
:1038B00078680830FFF7DABC0C21064A11FB07F7DD
:1038C000D719796870470000D03C0020FF3F0120E5
:1038D000B3500020643C0020A3310000CC1D002028
:1038E000D55D01004C15000013330000481D002079
:1038F000501D0020DF37000073310000C32E000090
:10390000D92E000038B54FF6FF74A0420DD100202B
:10391000874A137898420EDA21F8204001EB80059F
:103920000023401CAB70C0B2F3E700F0ABF810B15D
:1039300004800021817031BD2DE9F04F0024002862
:1039400018BF002985B003D013B1109F3D0001D1ED
:1039500002203BE00E9D0F9E0491A14683468DF808
:1039600008200393ADF8385029E05FFA89FA3BF854
:103970002A004FF6FF7188421EBF0BEB8A05A8781C
:1039800000281AD0049ABDF83810039800F029F8DE
:103990005FEA000811D0A878C10705D500F019F832
:1039A000012100F081F80443A878810705D500F0D3
:1039B00010F8022100F078F8044309F101095C488D
:1039C00000785FFA89F18142CFD3E0B205B0BDE85B
:1039D000F08F019700969DF808203BF82A00434697
:1039E000704730B50346002400E0641CA0B2884252
:1039F00005D203EB0010C5689542F6D130BD00201A
:103A000030BDF8B5044606980D460026F0B9022BE5
:103A10001AD111785278079801EB0227C043B9B246
:103A200001420FD1E8680168204600F012F8B9B2EF
:103A300088420CD0E8680168BAB2204600F00FF85E
:103A4000064604E0802602E00D2600E00B26304604
:103A5000F2BD80B500F016F800B1807802BD70B5F7
:103A600004460D46164600F00DF840B929464FF6BB
:103A7000FF7000F007F808B9112070BD048086704F
:103A8000002070BD30B52A4B1B78002200E0521C8C
:103A9000D4B29C4206D231F824508542F7D101EBD2
:103AA000840030BD002030BD2DE9F04186B00E46C7
:103AB00014461F46804603AB4FF6FF721B2100F0F1
:103AC000A1FB059070B3BDF80C200192FF210023EB
:103AD000029100930246DDF834C00DF1120339461D
:103AE0004046E0470546B0B97889ADF81000F107C7
:103AF00004D5009404AB42460E4908E00C995020CE
:103B0000FFF75BFE0190009404AB42460A49102087
:103B1000FFF76CFE0546E8B228B11B2104A800F0AF
:103B2000ADFB00E01525E8B206B0BDE8F08100006D
:103B3000654B00203F8302005D2C010075498860C1
:103B400070472DE9F34F81B00C9F0D9EDDF8389042
:103B5000DDF83CA0DDF840B015469846FFF76AF95D
:103B60006D496C4A0968DFF8B4C15378CDF800C0DC
:103B70004FF0280CDDF800E01CFB03FCF4440024AB
:103B8000CCF800109188ACF82610491C918001995E
:103B9000CCF804100299CCF80810ACF82450CCF8FA
:103BA0000C80CCF81070CCF81460CCF81890CCF8DD
:103BB0001CA0CCF820B09178002902BF1578AB4248
:103BC00001245B1CD9B2202908BF002353700CB11B
:103BD0005178117000219170BDE8FE4FFFF72EB9AA
:103BE00070B54C4DA8688AB008BB23E0FFF722F9F6
:103BF0002E784A49282212FB06F2044611446846F0
:103C0000282200F0E7F8761C301106EBD060401156
:103C1000A6EB40162E7028786978884204BF0120F0
:103C2000A8702046FFF70AF9684600F005F8A87862
:103C30000028DBD00AB070BD2DE9FF410446354DA8
:103C4000E38C0FF2EC02A62105F10C0000F01FFB43
:103C500000F06AF805F10C01276801EB0008B8B222
:103C600000F01CFB00222E4B00F026FB00222D4B07
:103C700000F022FB00F0F2FB009005F1B2063B0CD5
:103C80000FF2B402A6EB0801404600F000FB00F082
:103C90004BF805F10C010844A18C022906D0032938
:103CA0000CBF0FF2A4020FF2E80201E00FF2BC0217
:103CB000A1680091311A636800F0E9FA00F034F865
:103CC0000246A86805F10C0100F026FC206A03906A
:103CD000A621E0690290A0690190606900902369C3
:103CE000E26805F10C0000F0D2FA00F01DF805F1D1
:103CF0000C0108440D210170821C0A21417005F15C
:103D00000C00121AA86805F10C0104B0BDE8F041DE
:103D100000F002BCB820002030200940BC3D00204B
:103D20000000F03E00408F4005F10C0000F00CBC9C
:103D300023253036752000005B2025642E25303386
:103D400075205D20000000001B5B33313B316D4569
:103D500052524F523A201B5B33303B316D28257352
:103D60003A256429201B5B306D0000001B5B333358
:103D70003B316D5741524E494E473A201B5B333021
:103D80003B316D2825733A256429201B5B306D007B
:103D90001B5B33323B316D494E464F3A201B5B3340
:103DA000303B316D2825733A256429201B5B306D2B
:103DB0000000000062B38B0708D0521E11F8013BCF
:103DC00000F8013B00F024808B07F6D1830740F018
:103DD000208000BF103A07D330B4B1E83810103A51
:103DE000A0E83810F9D230BC530724BFB1E808105E
:103DF000A0E8081044BF51F8043B40F8043BD20748
:103E000024BF31F8022B20F8022B44BF0B7803703B
:103E10007047121F17D35B0009D151F8043B20F8FB
:103E2000023B1B0C121F20F8023BF6D20BE051F8AC
:103E3000043B00F8013B1B0A20F8023B1B0C121F3D
:103E400000F8013BF3D238BF121D521E24BF11F8F7
:103E5000013B00F8013BF8D8704700400300002008
:103E600013F0030F09D0521E22BF13F8010B11F8F3
:103E700001CBB0EB0C00F3D0704711F0030F14D15D
:103E8000121F22BF53F8040B51F804CB6045F7D042
:103E9000121D0AD200BA9CFA8CFCB0EB0C0038BFA1
:103EA0006FF0000088BF01207047521E22BF13F838
:103EB000010B11F801CBB0EB0C00F6D0521C08BF7F
:103EC00010467047012000F05BBBC92AB3BBD9B1D3
:103ED000B2F5803F7DD2022A1ED98C46B1FBF2F1A9
:103EE00002FB11C31B0443EA1043B3FBF2FC02FBC9
:103EF0001C3380B240EA0343B3FBF2F002FB103202
:103F000040EA0C4000237047022A05D98446B0FBE2
:103F1000F2F002FB10C270474AB105D100F0010275
:103F200049085FEA3000704700220023704700F024
:103F30002DBB0B000200002100207047904271EB66
:103F4000030CF6D3B3F5803F2FD2F0B5B3FA83F765
:103F5000B1FA81F4A7F10F0E3D1B5340CEF12006BC
:103F600002FA0EF2F3415340B5F10F0746D80F3C69
:103F70002C444140C4F12006A040F1414140B1FB36
:103F8000F3F603FB1611A2FB0645001BA94102D262
:103F9000761E8018594180EA010221FA0EF362FA76
:103FA0000EF200215A403046F0BD30B4B1FBF3FCB4
:103FB00003FB1C11A2FB0C45001BA94103D2ACF171
:103FC000010C8018594130BC02460B466046002166
:103FD0007047B2F1807F65D3F0B5B2FA82F7B1FADB
:103FE00081F4C7F10F063D1B22FA06F307F1110E0B
:103FF000F24120355A40B5F10F07B8D94140C4F11C
:104000002006A040F1414140B1FBF3FC03FB1C1131
:10401000A2FB0C45001BA94103D2BCF1010C801886
:1040200059410F2F12D30F3FC90341EA5041B1FB51
:10403000F3F603FB1611A2FB0645D4EBC030A941F1
:1040400002D2761E8018594146EACC3C07B3414063
:10405000C7F12006B840F1414140B1FBF3F603FB44
:104060001611A2FB0645001BA94102D2761E80183C
:10407000594180EA010221FA0EF3C7F1200462FAE5
:104080000EF20CFA07F05A402CFA04F13043F0BD5E
:1040900080EA010221FA0EF3002162FA0EF2604674
:1040A0005A40F0BD8C46B1FBF2F102FB11C31B027A
:1040B00043EA1063B3FBF2FC02FB1C331B024CEA25
:1040C000002043EA1063B3FBF2FC02FB1C331B022B
:1040D0004CEA002043EA1063B3FBF2FC02FB1C3302
:1040E0001B024CEA002043EA1063B3FBF2FC02FB24
:1040F0001C324CEA0020002370470A050148007D6D
:10410000704700BF4801002038B50446012501E092
:1041100000F083FBB4FA84F0C0B2202806D000F08F
:1041200019F8F5DB401F00F08DFBF3E731BD38B522
:104130000446012501E000F004FBB4FA84F0C0B2AB
:10414000202806D000F006F8F5DB401F00F012FB37
:10415000F3E731BDC0F11F00C0B205FA00F14C40D9
:104160000528704738B5054601206871244C287928
:10417000A8B1FEF7A6FE05462078FF2805D12846FF
:10418000FEF7AAFE6FF0060032BD401C2070C0B2E0
:10419000012804BF6068FFF7B7FF284614E0FEF768
:1041A00090FE217821B9FEF797FE6FF0070032BD2F
:1041B000491E2170C9B239B9FEF78EFE6068FFF75B
:1041C000B6FF0020687101E0FEF786FE002032BDD8
:1041D00080B5406810F07F4F00D00DE0FFF794FFEE
:1041E000002002BD80B5406810F07F4F00D003E092
:1041F000FFF79DFF002002BD6FF0020002BD00002E
:10420000581D0020F8B5052915461C4616D006296C
:1042100012D0092918BF112910D0122912D016293D
:1042200018BF17290CD01B2918BF1D290AD05229E5
:1042300018BFD22906D007E0072606E0022604E0D0
:10424000052602E0032600E001264FF6FF739D429B
:1042500003D100F05DFD851B02E0D22908BF0C35BB
:104260007719B8B200F064FD38B104B12580764208
:1042700031B2BDE8F44000F068BDF2BD80B500F099
:1042800078FD18B1BDE8024000F09EBD01BD08B444
:1042900000B501AB00F0C2FD5DF808FB014648B176
:1042A000B0FA80F18840C91CC1F58461090501EBB1
:1042B000D021400570470603B0B581EA030C0CF02D
:1042C000004C40F2FF7515EA11541DBF15EA135753
:1042D000AC42AF4239E0E41923EA455343F480137A
:1042E000C90241F0004141EA505EC7021100A7FB3C
:1042F000020200284FF00000EEFB01204FF0000109
:10430000E3FB072118BF42F0010240180021494198
:10431000E3FB0E01A4F580640F0302D2520040417A
:10432000494154F101046CDD470872F1004250F13B
:10433000000051EB0451A1F580115CBF41EA0C0172
:10434000B0BD4CEA05510020B0BD05EA1357AC42A0
:1043500014BFAF4241E050EA410E1CBF52EA430E87
:1043600002E061460020B0BD24423C441BD15FEA1C
:10437000070EF6D0090302BF01460020AEF1140E6D
:10438000B1FA81F7AEEB070401FA07FE0C37C7F16B
:10439000200100FA07F7C8404EEA000E23EA455311
:1043A00043F48013A2E733F00043B3FA83F704BF6A
:1043B000B2FA82FE77440B3FE41BB7F1200E2FBF09
:1043C00002FA0EF3BB40C7F1200E22FA0EFE38BFF0
:1043D00043EA0E03BA40641C82E750EA410E14BF60
:1043E00052EA430E6FF000014FF4001717EB430F32
:1043F0008ABF194617EB410FB5E74CEA055100207B
:10440000B0BDD4F10104B4F120070FDAC4F12007E4
:10441000520828BF42F0010210FA07F501FA07F727
:10442000E1BF2A43E0403843E1400FE0352C98DCFF
:10443000C7F1200452EA400220FA07F218BF42F006
:10444000010231FA07F0A1400A43002172F1004253
:1044500050F1000051EB0C01B0BD0603C1F30A534B
:1044600040F2FE329B1A14DDD3F120034FEAE172D1
:1044700008DDC90241EA505141F00040D84080189F
:104480005040704703F2E13010B1D24382F0004057
:104490007047002070470402F0B581B000F0F3FCD3
:1044A0001A490546087888B9012219480A70002679
:1044B00004785CB1DFF85C7006EB46008100781888
:1044C00079588A689047761CA642F5DB284601B0E9
:1044D000BDE8F04000F0E9BC30B50C4C237881B069
:1044E00000227BB10A4D2C78A0420BD209B90FF201
:1044F000340100EB40029200064B98189A58D3689A
:1045000098470246104601B030BD00006D4B0020B8
:104510007C1900006419000010B50368DC69A0472D
:1045200010BD000000000000FFFFFFFFFFFFFFFFC6
:1045300000000000000000000101010100C20100B4
:10454000030000000000000000F10103810704D017
:1045500010F8011B89B18107FAD10268B2F101316B
:10456000914311F0803F04BF50F8042FF6E710F894
:10457000011B11B110F8011BFBE7C01A70470000C6
:104580002021090326311820ABBEF9E77047280027
:10459000DFF8D80680687047DFF8D016084490F836
:1045A000A200704702460020022904D1012A06D148
:1045B00040F2EE207047012A08BF4FF47A7070472E
:1045C000DFF8A81691F8990020B1D1F8C4000028AE
:1045D00018BF004770472DE9F041DFF89416DFF867
:1045E000943684B00968A1FB0332520B42F210707A
:1045F00000FB121140F2AB24A14200D2FEE7DFF82B
:104600006C4694F89A00002840F081800121DFF880
:104610006866DFF86876DFF8685684F89A10307BB1
:1046200084F899007068C4F8C40001A800F081FC07
:10463000002102918DF80410039101AB00220FF2CA
:10464000A15104F10C0000F03FFC00230FF2D54211
:10465000322104F1300000F0F3FB00203860002329
:10466000DFF820262C2104F14C0000F0E9FBDFF8F4
:10467000180601786868C0F38151707B28B103295E
:1046800003D1012184F8911003E0032918BF022906
:1046900011D1386840F04000386000F0F4FBA168A8
:1046A00041F00401A16094F89D10491C84F89D100C
:1046B00000F0FBFB1BE0012919D1DFF8D065DFF822
:1046C000D075032000901C23D6F800C0DCF80480CD
:1046D0004FF0405200213846C04701200090384634
:1046E0003668776809234FF400720021B8472868BC
:1046F00040070CD400F0C7FBA16841F00101A160A4
:1047000094F89B10491C84F89B1000F0CEFB00200D
:1047100004B0BDE8F08130B581B0002408B11500C7
:1047200004D16FF00204204601B030BD8160C26048
:1047300003610146DFF8340500F03CFC204601B07F
:1047400030BD10B5044600F09EFBDFF820150A19B5
:1047500092F89B305B1E82F89B30DBB233B98A68DB
:10476000012303FA04F422EA04048C6000F09DFBA8
:10477000002010BDF0B581B0054600F084FB044672
:10478000DFF8E814481990F8A220521E80F8A22001
:10479000D2B27ABB0FF2245000EB850210F82550FC
:1047A0005688280617D5DFF8EC7439680A6A30464F
:1047B00090473A68916A3046884739680A6B3046B4
:1047C0009047DFF8D41401200860DFF8D0040168B6
:1047D0008907FCD507E0680612D501EB86010020A9
:1047E000D1F8B820904705F03F05152DBCBF2846ED
:1047F000FFF7C0FF204600F058FB002001B0F0BDDD
:10480000DFF8907439688A69304690473A68516B8E
:10481000304688470228F9D1E5E710B5044600F094
:1048200032FBDFF848148A680123A3401A438A60E8
:10483000214491F89B20521C81F89B2000F035FB0D
:10484000002010BD2DE9F041064600F01CFB044697
:10485000DFF81854A81990F8A2104A1C80F8A2207A
:1048600081BB0FF2584818F8260000F03F001428CA
:10487000D8BFFFF7E7FF08EB8600478818F8260047
:10488000010617D5DFF80C542968CA6938469047E5
:104890002A68516A384688472968CA6A3846904764
:1048A000DFF8F41301200860DFF8F00301688907DE
:1048B000FCD507E040060BD505EB87010120D1F8B8
:1048C000B8209047204600F0F0FA0020BDE8F081C3
:1048D000DFF8C05329684A69384690472A68516B07
:1048E000384688470128F9D1ECE72DE9F04F00263A
:1048F0000024012881B0A34618BF6FF0010955D1EB
:10490000DFF868A3DAF88C0001282DD10221CAF85B
:104910008C1000F0E0FB012000F065F95FEA00096F
:1049200028D100F035FC80469AF8B30008B14FF06A
:10493000010B9AF8B20008B14BF0020B9AF8B100E3
:1049400008B14BF0040BDFF84C53A96A0A68012048
:104950009047012804BF012400F05AFC9AF808008F
:10496000C10727D501262CE06FF00409484601B0A5
:10497000BDE8F08F0120CAF88C0000F0B7FB484674
:1049800001B0BDE8F08F00F043FC00F06BFC0820A4
:1049900000F029F906430120CAF88C00404600F0D7
:1049A000FFFB00F0A3FB0EB14FF0FF39484601B00A
:1049B000BDE8F08F296ABB488A6890470746042FF4
:1049C000F8D04FF0FF320021304600F067FC5EB9AE
:1049D000012F04D12A6AB348536801219847B2488D
:1049E000016841F00301016058462A68516988470F
:1049F0009AF8AD0020B12968CA6A4FF480609047E8
:104A00009AF8AC0020B12968CA6A4FF481609047D7
:104A1000A149A64A01200860002111600320CAF8BC
:104A20008C0029684A6B584690470128F9D19C4F61
:104A30003868042000F0D7F806469D490120086038
:104A4000002C3968A1D0A96A0A68904701289AD039
:104A500000F0ADFB01208AF890009AF8080081066A
:104A600093D4914880214167C16E41F08001C166B5
:104A70008BE730B581B0044600F005FA05462146C3
:104A80007A4800F0C1FA284601B0BDE8304000F095
:104A90000CBA10B50024022802D0032805D008E083
:104AA00000F08AFC0446204610BD00F063FD20465D
:104AB00010BDFEE7F0B581B000F0E5F96B490546A1
:104AC00091F89000012450B1704E71483768D7F8C2
:104AD0000CC0002301223C21E04700B900242846F5
:104AE00000F0E3F9204601B0F0BD70B582B000F0EF
:104AF000CAF9044600F067FB5C495F4A002081F870
:104B0000900002209568A8470646102000F06BF838
:104B1000012E04BF0320A847204602B0BDE8704024
:104B200000F0C3B92DE9F041544C82B065682068AB
:104B300020EA05010540680621602FD5534EF16B30
:104B40000A6804209047022818BF032826D10320B2
:104B500000901C23D6F800C04D4FDCF804804FF0C5
:104B6000405200213846C047012000903846366840
:104B7000776809234FF400720021B84700F083F9E9
:104B80003A4991F89D20521E81F89D20D2B21AB95F
:104B90008A6822F004028A6000F087F928061BD593
:104BA00000F071F94FEA000600F00DFB0028FBD081
:104BB0002E49314A002081F8900002209768B847BA
:104BC0008046102000F00FF8B8F1010F04BF032059
:104BD000B847304600F069F9A56002B0BDE8F08141
:104BE00070470020704730B505462048046881B002
:104BF0005CB1A068284205D02269E36800212846FC
:104C0000984728B92468002CF3D1002001B030BDAA
:104C10004FF0FF3001B030BD264901280CBF0720FE
:104C2000002008600020704700B5012881B018D12D
:104C300021490A6813689847012812D000F0B7FA92
:104C40000A48012180F89010007A81060BD40B48A5
:104C500080218160016841F080010160002001B085
:104C600000BD00F0D5FA002001B000BD9C2300205B
:104C70001C1400505917B7D19C180000902208400E
:104C8000B04F005029540000984B0020A4010010A0
:104C900000A00C40B801001028200860282008401F
:104CA0002C20094000400340242208408001044396
:104CB0000C40094000000460E00100108F0000007B
:104CC0008F0001008F0002008F00030090000001A0
:104CD0008F00010190000002900000038F0001048A
:104CE0008F0000058F0008048F0000048A00000672
:104CF000510000007F0001003F0004003F0002005F
:104D00003F0001007F0002008F0002048F000102BB
:104D100080B54FF6FE72904205D000F0C3FD010051
:104D200005D1172002BDBDE8014000F0C1BD02BDA4
:104D300080B5001D80B200F0C1FD28B1BDE804407F
:104D40006FF0030100F001B802BD38B504460D460E
:104D500000F0B6FD58B16D42611900F108039942A7
:104D600022BF80881818884201D3084632BD2046E9
:104D700032BD052923D006291BD0072918BF0929D0
:104D80001DD00B2918BF0D2919D00E2913D00F29BA
:104D90001CBF1129122912D0162918BF17290CD0AF
:104DA0001B2918BF1D290AD0522918BFD22906D0A5
:104DB00007E0C068704700687047806870474068C7
:104DC00070470020704728007CB5044610480168F1
:104DD0008847104A05461068002101E00146006836
:104DE00070B100F108039C4222BF86889B19A34240
:104DF000F4D3036800290CBF13600B6000F080FD42
:104E0000284602B0BDE8704003490A68104700BF59
:104E1000481D0020F04600204C1D002000F078BD09
:104E2000DFF800F0D5B60310DFF800F0F7B7031095
:104E3000DFF800F0BDA60310DFF800F07DB403102A
:104E4000F0B51C008DB005460E46174604D1002370
:104E500000F06AFD0DB0F0BD082330220021684645
:104E6000FFF7DEFF206805906B46606808903A46C1
:104E7000207AADF818003146284600F055FD0DB0F7
:104E8000F0BDFFF7D1BFFDF7D5BFFFF7D1BF00F0F1
:104E90006BBD00F073BDFFF7CFBF002101604FF085
:104EA000FF314160012101727047FDF7C7BF7047B4
:104EB000DFF800F02BB80310DFF800F0EDA80310C6
:104EC000DFF800F0B1B50310F0B51C0089B005465D
:104ED0000E46174603D10023FFF7EEFF12E008232A
:104EE000242200216846FDF7D1FFA06806906B469A
:104EF0002178ADF810103A46606805903146284692
:104F0000FFF7DAFF1048114A01681160284609B01E
:104F1000F0BDFFF7CDBFFFF7D3BF00F032BD00B546
:104F200081B000F045FD401E8041C043C00F01B07C
:104F300000BD00218160017041607047FDF7B2BF84
:104F4000FDF7B4BFFDF7AABF4C150000E8460020EE
:104F500010B50446FFF797FF002161602160BDE8AE
:104F60001040FFF7A2BF30B581B00546FFF78BFFB9
:104F70002C683CB121682960216800291ABF0022F1
:104F80004A606960FFF791FF204601B030BD70B5FF
:104F900004460D461646FFF776FF2E60716869607D
:104FA0007168002914BF0D6025607560BDE8704010
:104FB000FFF77BBF30B581B004460D46FFF763FFB6
:104FC00000212960616869606168002914BF0D6073
:104FD0002560656001B0BDE83040FFF766BF30B5C1
:104FE00081B004460D46FFF74EFF2168296000217D
:104FF00069602168002914BF4D606560256001B0BB
:10500000BDE83040FFF751BF30B581B004460D46D2
:10501000FFF739FF29686A6800290CBF62604A609F
:1050200069682A6800290CBF22600A6001B0BDE8E7
:105030003040FFF73ABF704730BF704770B500F09F
:105040000DF9304C206941688847FFF7A1FA054601
:1050500005F00C000C2838D0680721D400F0AEFC15
:10506000064601210120FFF79DFA2749096801FB47
:1050700006F2904214D2F020B0FBF1F0234C311A2A
:1050800004F10C00FDF70EFF04F10C00FDF70EFF1C
:105090000120FFF72AFC04F10C00FDF7FFFE16E0EB
:1050A000280712D421681A488A6890470428F9D042
:1050B000E90600D408B9012000E0002000F0DAF889
:1050C000144801210160006801E0FFF7B5FFBDE869
:1050D000704000F0C7B810B50F4CFDF7BBFE206064
:1050E0000E48006808B18047606010BD10B50C48DC
:1050F000094C016809B1606888472068BDE8104024
:10510000FDF7B0BED80100104C1500009C23002014
:10511000004003402C20094040450020BC13000003
:10512000C0130000DFF800F0E9A50310DFF800F07D
:1051300065B70310DFF800F063B8031000210160C9
:105140004160C1604FF0FF318160704770B514005D
:105150008AB005460E4604D1002200F04BFC0AB08E
:1051600070BD0823282200216846FFF7DFFF206872
:1051700004906A46606805903146E0680790A06830
:105180000690284600F036FC0AB070BDFFF7D2BF8B
:10519000FDF74CBE00F03ABC00F03EBCFFF7C2BFCA
:1051A000FDF750BE00F048BC25480168084710B51F
:1051B000294A13685C6801210120A047234824493B
:1051C0000068886010BD38B51E4CE16B0A6801208C
:1051D000904701281AD024681B48E5680023012263
:1051E0003C21A84798B1FFF7DFFF1848184B026829
:1051F000996818481C68DA60A4EB9404521A424378
:10520000120C1A60A24238BF22461A60012032BD39
:1052100038B5114C22685368002101209847216855
:105220000A680120904708B1FFF7BEFF0748084D04
:1052300000686860E06801688847286131BD000047
:1052400080000010A401001000A00C403020094094
:105250009C47002040420F00E0010010EFF3108057
:1052600072B67047EFF3108062B670470138FDD117
:105270007047704710B54349434C08604348016884
:1052800041F003010160202021688A69904740486D
:1052900001682168886BBDE8104000472DE9F8439C
:1052A000894605463B493A4E374C3B4F0020086043
:1052B0009046316822689169272088477969374884
:1052C00001407961F86D20F48070F8654FF48060DA
:1052D00021680A6B904721680A6B4FF48160904700
:1052E00021680A6B4FF4C06090472D490120086087
:1052F00024492C48C1F80090012101602A4908681E
:10530000820748BF002212D418F1010F14D1274A96
:10531000126842F21073B2FBF3F342F2107000FB1A
:10532000132240F2AB20824203D34FF04042CA60C6
:1053300004E01F48C86001E0C1F80C80306838689C
:105340008007FCD521684A6B072090470228F9D1D5
:1053500095B9216A174D8A68284690470428F8D0E5
:10536000012804D1226A5368032128469847074838
:1053700001688908890001602068816BBDE8F143FC
:10538000084700008C210840B80100102422084082
:105390002C2009400C40094028200840FFFFFEFE59
:1053A0002820086080010443100009401C140050AC
:1053B00008E7A4800040034030B5DFF8AC5495F80E
:1053C0009100002481B0002802BFDFF8A014887B80
:1053D00000280CD0FFF757FD95F89310002906BF61
:1053E000012285F893200124FFF75FFD14B100200E
:1053F00001B030BD0220FFF710FA0E20FFF722FAAD
:10540000DFF86C14086810B1012001B030BDDFF87E
:1054100064044022026042600120C86101B00020A3
:1054200085F8920030BD0000F0B5DFF84C1481B073
:1054300000200860DFF8304494F8920000283BD048
:10544000012845D1DFF834140D68DFF834144BF22D
:10545000F520454308682D0AC0F3814001280FD18B
:10546000DFF82064B06C01688847F16B8A68904768
:10547000F16BCA6890472F09C010474305EBE73529
:1054800094F8980018B1002184F8981006E0DFF82D
:10549000F803006820F07F402D186D08DFF8EC035A
:1054A00005602D0C456001218160DFF8C013887B09
:1054B00050B10221C4F8941000F068F80028FBD025
:1054C000401E012854D9FEE70620C4F89400F3E7F3
:1054D00002280DD1DFF8A4030568284600F031F951
:1054E000A5F2FF55022DEFD90420C4F89400E3E79C
:1054F0000328E1D1DFF884030068A16EA0F5C06045
:105500000029C4F8840048BF4942002848BF4042EF
:105510008142A8BF002028DADFF86853E06EDFF888
:10552000706380B2009008232F68D7F804C04FF44E
:105530007F4230213046E047206F80B20090122336
:105540002F68D7F804C04FF4F80204213046E04732
:10555000D4F8800080B2009030462D686E680A232F
:105560004FF440622021B047012084F88800ABE767
:1055700001B0F0BD00B581B000F008F80028FBD004
:10558000401E012801D801B000BDFEE72DE9F0431F
:10559000B54CD4F89400062881B000F2BD80DFE855
:1055A00000F00441505D73809C00BA4DBA4EB54F77
:1055B000DFF8DC820120286007230F20F0604FF421
:1055C000C07242F62A20306100210220009040463D
:1055D000D7F800C0DCF80490C8473F68D7F80CC083
:1055E00007234FF4C07200214046E04701202860A5
:1055F00028688107FCD50121F16194F89100002809
:105600001DBF0021296301200320C4F8940003205A
:1056100030600020686068688107FCD4002001B019
:10562000BDE8F083012084F892000220954C0090A0
:105630000423256896486E6870220021B047202018
:1056400045E00320C4F8940000219248416041687D
:105650008A07FCD4002001B0BDE8F083022084F862
:1056600092000020874C8A4D0090042326687768BA
:10567000702200212846B84724682846E568702330
:1056800070220021A84721E00520C4F894000021E1
:105690008048416041688A07FCD4002001B0BDE821
:1056A000F083032084F892000020764C784D00901F
:1056B000042326687768702200212846B8472468AA
:1056C0002846E568702370220021A847012000F0D9
:1056D00027F8012001B0BDE8F0836E480021016089
:1056E000416001688A07FCD441688A07FCD4002025
:1056F00061495F4A0860012111600E20FFF73AF806
:105700000220FFF71EF80020C4F8940084F89300EC
:1057100001B00220BDE8F083032001B0BDE8F083B2
:105720005E4901220A600A689307FCD508225A499B
:105730008861002008604F480260426001200860D4
:105740007047F0B55649484C81B0CA6AC2F3072287
:10575000E266B0F5C0600A68C2F384422267C96994
:10576000A066C1F38121C4F8801008BF84F88800C6
:1057700078D0A26F94F8881039B9E16E226F616712
:10578000C4F88400D4F88010E167D4F884000028BD
:105790004CBF6FF00101022100EB400008184110DE
:1057A00000EB917002EBA002E16E6167002A13DC4E
:1057B000E06F032805D10120153290421FDB012242
:1057C0001DE001200B329042A8BF0122491E48BFB4
:1057D00000216167032013E01E2A12DDE06F28B963
:1057E000153A1E2AC8BF1E22032009E00B3A1E2AC2
:1057F000C8BF1E22491C3F29C8BF3F216167002046
:10580000E067A26708231F4D606F214E80B20090B1
:105810004FF47F422F68D7F804C030213046E0476C
:105820000120009011232F68D7F804C04FF40032F4
:1058300004213046E047A06F80B2009012232F6809
:10584000D7F804C04FF4F80204213046E047E06F77
:1058500080B200900A232C6865684FF440622021D2
:105860003046A84701B0F0BD9C2300209C180000E2
:1058700004800C4038500C403C500C4008400C4018
:10588000B44F0050A4010010102009407C600C406F
:1058900000A00C4054600C4000400C4058600C408C
:1058A00004A00C4080B500F0E3F800B1C08A02BD4E
:1058B00001480088704700BFAC26002000F0F8B80F
:1058C00038B505460B48016888470B490C685CB140
:1058D00004F10802954221BF04F10801A288891849
:1058E000A94238BF2468F2D304490A689047204689
:1058F00032BD00BF481D0020F04600204C1D002096
:1059000002490A6852F8383F184700BFF84900209A
:105910000EB50023009302AB00F0D8F80EBDFEE7F1
:10592000DFF800F0AD9F0310F8B504460B480C4FAC
:105930000668F8690D4650F82500B04209D10948BB
:1059400000902046FFF7ECFFF86950F82500B042C0
:1059500001D10020F2BD2046F2BD00BFCC110000F5
:10596000D801002070210020102803D302491038EC
:10597000C1F8000F704700BF00E000E081604260A6
:10598000704770B5044600F00DFA0646A08A00255F
:10599000012808D1FDF776FA0546E068451BA068A6
:1059A000A84238BF0025304600F0FDF9284670BDFA
:1059B000808A7047DFF800F051B6031070B500F030
:1059C000F1F9094E0446B0680021FFF7F3FF0546E0
:1059D0007069451BB069A84238BF0025204600F019
:1059E000E2F9284670BD00BF10010020DFF800F08A
:1059F00065A4031010B50446034BFFF7F7FFA0683A
:105A000000B1204610BD00BF702100200148806811
:105A1000704700BF6C01002038B504460D4600F009
:105A2000CEF9616A0D43656200F0CAF92046BDE80F
:105A30003240FFF777BB704770B50D4615F1010F87
:105A4000044608BF052500F0BAF906460120A84023
:105A5000A061656129460548406900F0AEF9A06281
:105A60003046BDE8704000F0ABB900BF6C010020CB
:105A7000F0B5002100264FF6FF744FF6FD750A4A77
:105A80001778BE420EDA094F3B68342272431A443B
:105A9000A842578801D1A74203D1874218BF761C7C
:105AA000EDD111460846F0BD654B0020CC430020E7
:105AB00080B50E3080B200F0ABF928B1BDE80440EB
:105AC0006FF00801FFF741B902BD70472DE9F747B4
:105AD0008DB000241898ADF818000F98002800F039
:105AE000508110F8011BAB4F0F901D466FF0090855
:105AF0000A264FF0FF390EE00EAA20210DA800F073
:105B0000A7F9641C0098401E0090F5D50F990F98D6
:105B10000978421C0F92002900F02F81252905D019
:105B20000EAA0DA800F094F9641CEFE70F9810F886
:105B3000011B0F902D2907D101210F98ADF80610F8
:105B400010F8011B0F9002E00023ADF80630302959
:105B500006D1012004900F9810F8011B0F9001E06E
:105B60000023049300202A290090CDF808901CD12E
:105B70002968296051F8040B296000900F98009A59
:105B800010F8011B0F90002A13D50120ADF8060074
:105B90000098404200900CE0009A0F9806FB02111A
:105BA0003039009110F8011B0F90A1F130030A2B3E
:105BB000F2D32E2923D1002002900F9810F8011B58
:105BC0000F902A2917D12968296051F8040B296000
:105BD0000290002844BF002102910F9810F8011B89
:105BE0000F900CE0029806FB001130390F980291DB
:105BF00010F8011B0F90A1F130030A2BF2D3049887
:105C000008B1009A04926C2918BF4C2907D10120D1
:105C1000ADF804000F9810F8011B0F9002E000236C
:105C2000ADF8043008A80790002264290CA818BF1A
:105C30006929059003920ED1BDF818000128286843
:105C400028600168001D286043460298049A824239
:105C5000B8BF04901CE00A2375291FBF10237829C0
:105C600008236F2903D1BDF81800012806E0702928
:105C700025D1049328682860016811E0286828600D
:105C80000168001D2860049A02988242B8BF0490FF
:105C9000049A059800F0FEF807900599081A18E094
:105CA000001D286010230598082200F0F3F8401E1C
:105CB00007904021017007980599091A1FE0632990
:105CC00009D12968296051F8040B296007990870E7
:105CD0000120039030E0732913D12968296051F81D
:105CE000040B2960079000B907970798FEF72CFC72
:105CF0000299039011F1010F1ED081421CD2039131
:105D00001AE00F98411E0E980F91012814D902989D
:105D100010F1010F02D00E99884201D30E9800E0D5
:105D2000401CDFF874C0DCF800A002906B462A46E5
:105D30000FA90DA8D047041900990398091ABDF8B6
:105D40000600009150B905E00EAA20210DA800F030
:105D50007FF8641C0098401E0090F5D50398411E02
:105D6000039188B1079801780EAA0DA800F070F889
:105D70000798411C0791641CF0E70D9800B1017071
:105D8000204610B0BDE8F087BDF8060001287FF47A
:105D9000BDAEB7E6FC1D00009C160000DFF800F069
:105DA00021B4031000E005E0EFF31180202181F31E
:105DB0001188704780F311887047FFF7EFBFF3E752
:105DC000F8E70000F0E7F5E70000EDE7F2E70E493D
:105DD000C20744BF01220A60820744BF4FF48072A9
:105DE0000A60400744BF4FF4803008607047074A9C
:105DF000C30748BF1160830748BF5160400748BFD1
:105E000091607047000000000420094018200940FC
:105E100070B505460B4801688847064605F108003D
:105E200080B200F05DF8040005D00748A580016845
:105E300021600460083405490A68304690472046CE
:105E400070BD00BF481D0020F04600204C1D002002
:105E500010B50C461168022910D3491E1160016863
:105E600021B10C7001684A1C026010BD00F09FF95E
:105E700020B12046BDE8104000F097B910BD0A7867
:105E800002704A8842704A88120A82700979C17089
:105E900004207047F0B500240025002B44BF5B426E
:105EA000002902D54942521E2D25B1FBF3F60B4FB6
:105EB00003FB1611641C795C00F8011D31460029B2
:105EC000F3D19442BEBF302100F8011D641CF8DB01
:105ED000290018BF00F8015DF0BD00BF041E0000DE
:105EE00002490A6852F8343F184700BFF8490020B9
:105EF000DFF800F05DBF0310DFF800F0FF9B031038
:105F0000DFF800F029BC0310DFF800F0CDA9031082
:105F1000DFF800F099B70310DFF800F0D3B70310F3
:105F2000DFF800F073B80310DFF800F0C5B5031018
:105F3000DFF800F069BE0310DFF800F063A403107F
:105F4000DFF800F08DBF0310DFF800F0CDBE0310C6
:105F5000DFF800F0E1BE0310DFF800F08DBD0310A4
:105F6000DFF800F075BC0310DFF800F031BA031061
:105F7000DFF800F021BB03100C381F283ED8DFE803
:105F800000F0103D3D3D3D3D3D3D3D3D3D3D3D1520
:105F90003D3D3D1A3D3D1F243D3D3D293D3D3D2EAE
:105FA0003338DFF81803016808687047DFF80C23FE
:105FB000106840687047DFF804130868806870470D
:105FC000DFF8F8120868C0687047DFF8F012086858
:105FD00000697047DFF8E412086840697047DFF82D
:105FE000DC12086880697047DFF8D0120868C06961
:105FF0007047DFF8C8120868006A704700207047D1
:1060000000B5DFF8BC2213688BB00A2168469847B8
:106010000BB000BD00B581B000F070F9DFF8A4024C
:10602000DFF8A4220168914203D001B05DF804EBCF
:106030009AE001B000BD2DE9F04184B014460A6831
:1060400080461D46002326681778002002F1010CC7
:10605000242FC1F800C038D157780CF101024C2F21
:106060000A6006D156F8040BAA68414600F048F9C8
:1060700025E0462F0DD156F8041B0191414656F8F4
:10608000040B0290ADF800306846AA6800F066F98B
:1060900015E0532F19D156F8040BE861266023460A
:1060A000288B0090EA69A968D8F80000FFF70EFD78
:1060B000D8F8001011B10144C8F80010266800217A
:1060C000E96001232968091A2960662F07D1298B05
:1060D000002911BF361DF61D26F0070608361BB92C
:1060E000E9690F700121E960266004B0BDE8F08124
:1060F0004FF0FF309060704700B581B0FFF7F8FEB9
:10610000012818BFFFF7F8FE0FF21D00FFF7F8FE99
:10611000FFF7FAFEFFF7FCFEFFF7FEFE01B05DF8A9
:1061200004EBFFF7FDBE000000B581B0FCF77EFE7A
:10613000FCF790FE01B05DF804EB0320FFF7F4BE1E
:1061400010B504460320FFF7EFFE2046BDE81040DF
:10615000FFF7EEBEDFF87411C0680A68904204BF12
:106160000320FFF7E1BE7047FEE700B581B0FFF7FF
:10617000E3FEDFF85C01C06801B05DF804EBFEF7F8
:10618000D1BFDFF85011DFF85001DFF8502148612E
:10619000DFF84C01121A8A617047FFF7D1BEFFF792
:1061A000D3BEFFF7D5BE00F01FB900F023B900F051
:1061B00027B910B50C460022206000213120A080B4
:1061C0002046FFF7C9FE204610BD01B94549FFF73B
:1061D000C7BE10B588B00020019300900B4602AAFC
:1061E00000214148FFF7C0FE040008BF002003D093
:1061F00002A900F00FF9204608B010BD10B588B014
:10620000034600200191009002AA00213648FFF7C2
:10621000ABFE040008BF002003D002A900F0FAF88A
:10622000204608B010BD10B582B004460020009092
:106230004FF0FF3321682D4A2B48FFF799FE0022CB
:10624000226002B010BD10B50C4600222060002173
:106250002E20A0802046FFF77FFE204610BD81B093
:1062600001EB410200B9224800EB820001B0704707
:1062700010B58AB00020019300900B4602AA0021BD
:106280001C48FFF771FE040008BF002003D002A9DC
:1062900000F0CEF820460AB010BD10B582B004461A
:1062A000002000904FF0FF332168134A1148FFF798
:1062B0005FFE0022226002B010BD000040010020FD
:1062C000C4120000009003104A43534460110000C0
:1062D00010010020D8010020B04C0020B050002058
:1062E000B04C00202414000004140000C59F0100DD
:1062F00010220020A8140000799F010000F0A4B82B
:10630000F8B504460D46A088164600F0AFF9002EF9
:10631000074602D4F01B0A2806DB23680DA2F11BF6
:10632000284600F0DFF9C719A089012810D1A46818
:10633000002E06D42046FEF707F9401DF11B8142CE
:1063400006DB2346044AF11B284600F0CBF9C719A7
:106350003846F2BD25700000181E00002DE9F041FE
:10636000044647F6FF7082428CBF074697B28846C4
:1063700000268CB1208818B13A4600F077F986B231
:10638000B91B28D0208828B114A2404600F0AAF9F1
:106390008619B6B2A06808B930461DE065687DB1BF
:1063A0002846FEF7D1F8B91B401D89B2814207D3B8
:1063B0002B460B4AB91B404600F094F98619B6B239
:1063C000BF1B122F07D3A368064A3946404600F088
:1063D00089F916FA80F6B0B2BDE8F0813A200000E3
:1063E000401E0000481E000001480168084700BF29
:1063F0009016000001490A68104700BF941600007B
:1064000001480168084700BF98160000DFF800F057
:10641000FDAB031005490A68012343600021C160F8
:10642000024481601046FFF7F1BF00BFDC1300009B
:1064300010B5044608690349A0600A689047606087
:1064400010BD00BFEC14000010B57248046814F1D0
:10645000010F08BF002400F0B9F96F49002008605F
:106460006E490A68906C80476D48016821B16D4A99
:106470001068204600F01CF86B49002008606B494A
:106480006B480A686FF31B4202430A606949086857
:10649000C0F30130012806D10A686748024042F47F
:1064A000003008600A60654908680028FBD110BD0B
:1064B0002DE9F84F05466248624C41688A0704D4CA
:1064C0000268120C42F0F00222708068DFF84CA1E2
:1064D000DFF874B1009000F0BDF9DAF800200099FF
:1064E000536828469847594ADBF8000013881D0A6C
:1064F00000F0FF0185F0C00C6145554F58D08C4528
:10650000BF682CBFACF1010C0CF1010C4FEA0C255B
:1065100003F0FF0785F440452F431780ECE7300A6E
:1065200000F0F80040F478402082287800F07F00E6
:106530002870C6F30440297841F08001297000F0EA
:1065400057F9B606B6162878BA68810689168E42BB
:106550000DD0B142B4BF491C491E00F0400001F00B
:106560003F0210432870287840F0800028708E4247
:10657000E9D1B968B8683749C8F818903868DBF8C5
:106580001400000B00F03F0008704020E87543F64F
:10659000180031490880DAF8001000988A6890479E
:1065A000022000F09BF92D4901200860BDE8F18F21
:1065B000030B2B49020A03F00F0343EA0213820C78
:1065C000C00CCB7002F01F0200F0F0000A7040F423
:1065D00070406082DBF80460DFF88880224DD8F8D4
:1065E000180020F0100929F4F070C8F81800386875
:1065F000009901F04071B1F1807FA2D0D8F800007D
:1066000081078CD5F10801F0F80141F4784121822D
:106610008BE700001C13005084046042F00100105E
:1066200080012843800520438C21084048200340F6
:106630000000390128000940EFFFFCFC0C00684213
:10664000AC4F005056620840F813005030A00C4088
:106650002C2009400EB00C406AB00C4094046042FB
:10666000006008401000094005620840FEB50D4674
:106670001549164F14460A888242064607D2144A24
:106680001188814206D300F045F900B147683346CE
:106690003A4604E00F4A118831B933460E4A214682
:1066A000284600F01FF8FEBD002C48BF47F6FF74D7
:1066B000ADF804400021094B1C68029100956A4620
:1066C0000749A0470298FEBD5A3E0000201E000068
:1066D000D6270000641000002C1E0000A016000049
:1066E000D59F010008B478B505001ABF2C68002CAE
:1066F00000240E4605AB2046FFF70AF9864238BF54
:10670000701E14B129680144296072BC5DF808FB51
:106710002B480068000C00F00700062828BF4FF047
:10672000FF30704727490968C1F30F314BF64132FA
:106730004FF0FF30914208BF0420704710B5FFF7BB
:10674000F1FF1F490A68D30D04284FF0FF34C2F34C
:10675000406117D1120B02F00F02082A11D0092A4A
:106760000AD00F2A0ED1D80704D500290CBF0D245A
:106770000E2407E00B2405E000290CBF09240A249D
:1067800000E00C24204610BD0E480F4970B5056886
:106790000E682D0F06F0FF06802E28BF0026FFF79B
:1067A000C1FF04284FF0FF3407D115B1022D02D0EC
:1067B00003D20A2401E006F10B0460B270BD0000B0
:1067C0009412005018130050A010005080B5FFF72D
:1067D000A9FF042800D101BDFEE70A8802700988DC
:1067E000090A4170022070471628A8BF2038704758
:1067F000F8B500F01F00FFF7F7FFDFF8BC500446C4
:10680000287800F01F00FFF7EFFF844221D0DFF867
:10681000AC10DFF8AC300A6822F01002160603D57F
:1068200022F080060E601E689E682E78A042B4BFDB
:10683000401C401E06F0E00600F01F073E43844265
:106840002E70F1D19868100603D5986898680A6090
:106850001868F1BD10B5044604F04070B0F1807FB7
:1068600011D1DFF86000DFF86020802101744FF65D
:10687000D801118080220270DFF850000168C1F356
:106880000460FFF7B5FFDFF84810086882074FBFC4
:1068900044F040640020DFF83C100860DFF8380066
:1068A000C4F3C06181F001010160C4F3806181F033
:1068B0000101816010BD0000066208402800094007
:1068C0002C20094015620840666208408813005079
:1068D0001000094094042A430002204330B50A49BD
:1068E0000A4A09E0CC5C0D5C094B2344AC422CBF46
:1068F00013F8013C5B78136013685468A342FCD121
:106900008342EFD130BD00BF9C27000000600C40E7
:10691000A027000001460448006800281CBF028927
:106920008A42F9D1704700BFA026002080B5FDF74C
:1069300052FE0FF2140000F0ADF800B1FEE7BDE822
:10694000014000F0E8BC0000060880800708808055
:106950000D2007C00E2007C01400C0800240008038
:106960000300C08009400080084000800A40008089
:10697000FE00000070B5FEF70DFC05465FF0000656
:10698000DFF86C4825FA06F0C0070AD504F10800C4
:10699000F1B250F8210020B1026811001CBFF1B221
:1069A0009047761C2068F1B28842EBD270BDDFF8C8
:1069B0004408DFF844280168DFF840081160FEF75A
:1069C000EBBB2DE9F04182B00D00DFF83418ECB2DA
:1069D00001EB840144BF85F0204585F4C0450B6878
:1069E000064606EA0507DFF81C0885EA0302B343FA
:1069F000074032403B4306F4E020120EB0F5E02F92
