:10000000803F01204D2B0200A1C10310A1C10310AC
:10001000A1C10310A1C10310A1C10310A1C103100C
:10002000A1C10310A1C10310A1C10310A1C10310FC
:0C003000A1C10310A1C1031079C103108D
:1010000001000000000000000000000000000000DF
:10101000FFFFFFFF8809002004000000000000001F
:10102000000000001400000050150000180000002F
:1010300090100000F40800200400000000000000F0
:1010400000000000240000003C1400001800000014
:1010500021830000080000000100000001000000E2
:101060006815000000000000FFFFFFFF600900207E
:101070000400000000000000000000002800000044
:1010800028150000240000001800000000000000E7
:10109000BC120000A41000000BB8031089AE0310AE
:1010A00091B6031001AA031061AE0310F5B003104E
:1010B000320000003400000025002900000000007C
:1010C000D4080020FFFFFFFFA80900200400000053
:1010D000000000000000000038000000DC150000E7
:1010E00028000000010000007584000000000000DE
:1010F0007FBB031004000000401600000EF8000043
:10110000020000000800000036000000680900200E
:10111000B009002009000000FC08002001000000C8
:10112000FFFFFFFF980900200400000000000000FE
:101130000000000010000000A015000018000000D2
:10114000FFFFFFFF100A0020040000000000000065
:101150000000000054000000041600003C000000E5
:101160000000010030000000041000007F73000048
:101170002D00000000000000681100009011000028
:101180004DA20310B5A80310C1B7031009A50310A1
:1011900069AA031061B103103DB103102D000000D6
:1011A0000000000000000000180A0020FFFFFFFF01
:1011B0009009002004000000000000000000000072
:1011C000580000006C15000034000000A1C103109D
:1011D00001003200060000000000000020000000B6
:1011E0000100000099BF031028000000BC1200009D
:1011F00000120000FFB70310F9B60310B5B70310D3
:1012000011AD0310D1B00310ADB0031030000000D9
:10121000000000003C090020040000000000000065
:101220000000000010000000541400002C0000001A
:10123000000000000000030000000E003C00000061
:1012400000000000000000009BBF03100800000029
:1012500050160000FFFFFFFFA0090020040000005F
:1012600000000000000000001C000000B815000095
:1012700024000000EC110000EC0800200400000035
:1012800000000000000000000C000000C41300007B
:10129000180000000000000000000000080000002E
:1012A0000100000004000000000000000000000039
:1012B0000C1A0000240000000002000004100000CE
:1012C00000000F0079B803100C00000000000000BF
:1012D000CC08002004000000000000000000000016
:1012E000200000008C13000030000000241A0000D1
:1012F00001000000F35C000000000000000200009C
:1013000000002200010000007811000058090020B0
:1013100004000000000000000000000020000000A9
:1013200004150000240000003C1A00004C090020B5
:0813300020000000641600001B
:1013400099820000BB840000BF840000C3840000B9
:10135000C7840000CB840000CF8400002551010029
:10136000D5510100E1500100AB2F02008D2F02008A
:10137000AD510100B9510100DD2F020009520100F9
:101380004550010000000000000000003000000097
:101390000000000000000000B41300000400000082
:1013A0000000000001000000FFFFFFFFFF00000041
:1013B00001000000080000000000000025B5031037
:1013C000FD9603101800000000000000000000005F
:1013D000D41300000800000000000000100000000E
:1013E000BC120000F41300000B300200C5860000A0
:1013F00059870000F384000047850000D384000073
:1014000031000000E0130000340900200400000057
:101410000000000000000000200000002414000074
:10142000180000001800000000000000000000008C
:101430003414000008000000000000001800000044
:1014400000000000000000004C1400000800000034
:10145000000000002C000000000000000000000060
:1014600078140000040000000000000001000000EB
:10147000FFFFFFFFFFFFFFFF08000000000000006C
:1014800068110000981400006552010075520100B7
:10149000915201008552010091850000BB8500003A
:1014A000678500002E000000801400004409002021
:1014B0000400000000000000000000001400000014
:1014C000C81400001C0000001C0000000000000008
:1014D00000000000DC140000000000000800000014
:1014E0000000000001000000A748000007300200D3
:1014F000E3570000AB480000AF4800009B480000E5
:10150000B9480000240000000000000000000000B6
:101510002015000000000000000000000000000096
:10152000080000000000000024000000000000008F
:101530000000000044150000000000000000000052
:101540000000000008000000000000000A00000089
:1015500018000000000000000000000060150000FE
:101560000800000000000000B92600003400000060
:1015700000000000000000009815000000000000BE
:101580000000000001000000000000000100000059
:101590000000000000000000080000000000000043
:1015A000180000000000000000000000B01500005E
:1015B00008000000000000002400000000000000FF
:1015C00000000000D4150000000000000100000031
:1015D00000000000080000000000000028000000DB
:1015E0000000000000000000FC15000000000000EA
:1015F00000000000FFFFFFFF0000000008000000E7
:10160000000000003C00000000000000000000009E
:10161000381600000000000000000000010000007B
:1016200000000000000000000000000000000000BA
:1016300001000000000000000800000000000000A1
:10164000A38400009DAA0310E59503103DAD03108F
:101650000100000000000000000000000000010088
:101660000000010083BF031085B1031045A70310DC
:10167000C9B203108DA1031005A303108DAC031094
:1016800065B00310EDB50310215201009F5C00000E
:10169000537800000F3002005783000011840000CF
:1016A000EBC706EEC906F1880CF48A10F78D0AFA2A
:1016B0004D20FD5128005934015C38020D440311BE
:1016C0005404166C051E9400A01600000D070000BF
:1016D00081BE000051250000512500005125000069
:1016E0005125000049C2000067C2000051250000DA
:1016F00081C20000B1C20000B5C200000FC40000EA
:101700005125000027C4000089BF0000B9C20000B5
:10171000DDC20000FDC30000ADC400005125000083
:10172000512500005125000051250000E9BF0000AF
:101730001FC2000051250000C99300003B94000027
:10174000A59400000D9300001F930000299600004F
:101750002D96000081990000F39900005D9A000029
:10176000F99800000B990000E19A0000819B0000AD
:10177000632B02006F2B020025B503103DA8031058
:101780000205450303100A00C81D0020CC1D0020DF
:101790003A010000000000000000000038050020B1
:1017A000D80200200000000000000000D016000059
:1017B00018190000381700003819000078170000C9
:1017C00000000000D01D002000000000600200208A
:1017D000A8020020B8020020C8020020C81600009D
:1017E000FF0000000000000038190020E017000092
:1017F00001000000FF000000020000008C19002022
:10180000F417000001000000FF00000001000000CC
:10181000D819002008180000010000000000000096
:1018200000C20100FFFFFFFF301A0020800000000F
:10183000141B0000241A00201C18000001000000E6
:101840000080040000400000341B00009E260020A1
:101850004018000001000000FF0000000000000030
:1018600000000000F93800008B2B0000010101008E
:10187000FF00010000000000000000000010004018
:101880000600000015000000FF000000000000003E
:101890000302FFFF001D00202000000001030000E4
:1018A0000000000000B00040140000003400000000
:1018B000FF00000000000000FFFFFFFF201D0020D0
:1018C0002000000001030000000000005C1B00007D
:1018D000B01A00207C1800005C1B0000D81B002000
:1018E000A418000002000000080000009F2600204D
:1018F000E818000000000000000000000A18232A79
:10190000242A252A262A272A282A292A2A2A502A26
:1019100002000000FC180000F356010065570100AA
:1019200075570100E757010013300200193002001B
:101930004B580100AF580100F591000017920000CC
:1019400031920000854C0000174C0000234D000030
:10195000694D0000894D0000B14B0000394D000079
:10196000CB4C0000154E0000094C00003F4E00001B
:10197000334E0000214E00007D4C00007F4C0000E3
:1019800053500000834C0000814C0000F0FFF1FF39
:10199000F2FFF3FFF4FFF5FF020000008C190000D6
:1019A000576F726B2077697468000000536574206C
:1019B000436F6E6E2050485920507265666572659F
:1019C0006E63650031204D627073000032204D62FD
:1019D000707300003120262032204D6270730000A9
:1019E000436F6465640000003120262032204D6280
:1019F00070732C202620436F646564004175746FFA
:101A000020504859206368616E6765007B7374617C
:101A10007469632D696E7374616E63652D6E616D9B
:101A2000657D00007B656D7074792D696E737461DE
:101A30006E63652D6E616D657D0000007B756E6B5C
:101A40006E6F776E2D696E7374616E63652D6E6156
:101A50006D657D0096C298D84539A1F4A033EB2D71
:101A6000817D0377F240A463E5E6BCF847422CE1B0
:101A7000F2D1176BF551BF376840B6CBCE5E316BF4
:101A80005733CE2B169E0F7C4AEBE78E9B7F1AFEB8
:101A9000E242E34FFFFFFFFFFFFFFFFFFFFFFFFFFC
:101AA0000000000000000000000000000100000035
:101AB000FFFFFFFFFCFFFFFFFFFFFFFFFFFFFFFF39
:101AC0000000000000000000000000000100000015
:101AD000FFFFFFFF4B60D2273E3CCE3BF6B053CC1E
:101AE000B0061D65BC86987655BDEBB3E7933AAA60
:101AF000D835C65A512563FCC2CAB9F3849E17A7CC
:101B0000ADFAE6BCFFFFFFFFFFFFFFFF0000000094
:101B1000FFFFFFFF5DC600005FC60000DDC60000DE
:101B200005C7000099C7000035C800004DC8000077
:101B300053C80000A9C90000B1C90000B7C900001E
:101B4000E7C9000001CA00004FCA000067CA0000D0
:101B5000DBCA000019CB000021CB000075D30000C8
:101B600005D4000025D2000035D20000F1D50000D8
:101B700017D700001DD7000069D400005FD5000012
:101B800065D5000002000000E8570000286E756C63
:101B90006C290000303132333435363738396162E0
:101BA000636465660000000028272573272900006C
:101BB0007B6D6F64756C652325647D007B6D6F6440
:101BC000756C652D726F70653A25787D0000000098
:101BD000222573222C2000006C696E652025643A52
:101BE000200000000200000000000000FFFFFFFFD7
:101BF0000000000002000000E4570000F130020085
:101C00007588010000000000FB349B5F80000080AD
:101C100000100000000000009E60EE2DCE2DC22DB1
:101C2000540FEF2FEF0F975F9D170050A005800412
:101C3000407F00402801080F00080004FF034040D7
:101C4000202E0000030013001000210022003200AB
:101C500031004300400050005300620061007100F9
:101C600072005F0060005D005E005B005C00590078
:101C70005A005500560057005800CC00C3003C00E5
:101C800033000000010002000300000400081800F7
:101C9000080003001A000A002C0011003E00030097
:101CA000080018001A0011002C000A003E00004035
:101CB0000C00000088140900F905010000808B0069
:101CC0008000500F00001D0A900500000500000470
:101CD000207BC10000000F00277F7F0100800C00E7
:101CE000000098140900F905000000808B008000B6
:101CF000700F00001D129005000005000004207BFD
:101D0000C10000000F00267F7F0100400CA00C00E6
:101D100087030300CD4001050080EE0180007006BE
:101D200000001E09000556000C0000001450500071
:101D300000001F007F7F000004887F7F7F2C000051
:101D40000000000000009F004040202E030C90FD8A
:101D50003C7800000D720E720F7210725DA3E5A444
:101D6000D8673CB6D0B00071D0A010B11B726281B0
:101D70002010623930062000301601110114016C68
:101D8000C260CB60F2603C61C260CD60D9614E62DE
:101D9000C260D360F26064612012C36010121173DC
:101DA00012731373B1811000B09170B0A560B1C40B
:101DB000D46091C7BC78FBC102C340C5D86021C6BE
:101DC000AC78FBC502C360C42018136F236E1116D4
:101DD0001216D968EB948C9C7081001EC24430C0EE
:101DE000B092F0C1D09232C6C0C92018EF400312A1
:101DF000236E1216EC6800839099C26005B0917250
:101E000000C1F09128B120B113B111B1E8B0007157
:101E100028B1E8A030B210B9808C309911B1A284F9
:101E2000B484F3C0D1B0007112B002B011B1D1A02E
:101E300091722C7230B613B003B0E0B0007120B1D3
:101E40007081C09290814096007120B1C3924296F9
:101E5000007120B14496007120B1E0A030A633B6E5
:101E6000D3B0007113B1D3A030C0109920C0309905
:101E7000D1B0007111B1D1A0917203A002A0637220
:101E8000057306739173917230A2C0C71090C2603F
:101E90008D65BD65C465007110A9937310B94F8B32
:101EA0006F318F3D0F7213730000000074B031B2B8
:101EB0005DB30F97E5A444A064B0D067B1C2E567F5
:101EC000F322574500711F97A3C03399179135A28C
:101ED000007178B043C2D4673C4530C0F767C26038
:101EE0008D656078BE65F0C56869C465D5B015B10B
:101EF00031C0007190805022CE4574B010A9937308
:101F000010B90F72137331B2D5A05DB3408B203975
:101F10000097E5A444A064B0D06734B261C2E5671D
:101F2000F3228745007178B0A3C2D46740C0F76739
:101F3000C260B084A095709980890E10A08490959D
:101F4000709980890E1480C00E1880C00E185183BD
:101F5000813921396106311600111014006C1E31CF
:101F60001E318E318E392E9740823022B045D5B049
:101F7000007115B1D5A0A86100C1E0911078109949
:101F8000E7139A78E5B440C5109002B004B006B0EB
:101F90000070507850903090707860904090007051
:101FA00035B26CB011B089B0E5B4D1A0D0A03DB1CC
:101FB000FDB00070319A438A548A3331633D343125
:101FC000643D9396A49653B06B619089009311730E
:101FD00012731F7291727081C0929081409650C0AE
:101FE000F7675CC11DC37EC008C0E8B0007128B1AE
:101FF000E8A030B210B9808C309911B1D1B0007125
:10200000D1A034B6E1B002B012B003B013B021B128
:102010000071E1A034A630B613B1D3B020B1E0B066
:10202000A484F0C04F103F661439066AB484F0C02F
:102030004F103F6614390C6A948C40C04F103F66B5
:102040001439126A948C04222446DF813F66108280
:1020500010221F42196230C00FC03F66206A3162F1
:102060005DC31EC0DF813F66108210222C422462B5
:1020700030C00FC03F662D6A3162E1A030C01099B8
:1020800040C0309911B1D1B00071D1A0917203A0BC
:1020900002A02372C2601F063F318F14CF14F26F6B
:1020A000281048393206D214236F007120B1CE9225
:1020B0004396007060C0F76790890093657200DBFB
:1020C00060961DB300C1E091C0C02093907B5097F3
:1020D00000C1B1C3D2C7136F236E111612165F6A07
:1020E000A8677B67408230227046D5B0007115B179
:1020F000D5A0666270C0F76735B2407801800100F4
:10210000019010905078309050908078409060907E
:1021100020DF809372B0E5B4F0B33BB6207810991D
:1021200080C0F76793730CB14CB13DB1FDB00FB1F6
:102130004FB108B0007108A014B914A94CB110A98E
:102140001E79007110B94F89C080C022F147F0227A
:102150008C46FDA0107244A064B074B031B230B2AD
:1021600032720F7248A049A04AA009A000C230995B
:1021700011B1D1B00071D1A0808720221647E7B0FD
:10218000F0C127B10071B56A4FB0E5A41DA373B0CB
:10219000C0C020934BB041B090C0F7678381031E4D
:1021A000C2425B894089B0180C103C06203933319B
:1021B000031820C30318339910A93078109911B16E
:1021C00010B9D1B0F322FF460A838A395A396B8697
:1021D0003B315086803950390B00041200719080D9
:1021E0001022FF460183528663863ABA258B8531D9
:1021F0002531541CFC42F54AA114B214F95E1316A1
:10220000F962A118B218F95A131A019352966396FB
:10221000541027B1E26233B250B7D4789497C4789F
:10222000A497E0C060B7066BD1A02372A373F48AB1
:10223000A0D0149AF767E7A00372047205730673BF
:102240009172C260E5A4D0C03099FE1C1D47A0D693
:102250001F6390D60000809373B072B04BB0A07B28
:102260005097E7A011B1D1B0B3B100716FB04FB0CA
:102270004DB041B0C0C0209339BAF08A10310097F8
:1022800060B9937300CF376B1AB00AA0B0C0F7677C
:102290008381031E3C435B894089B01833310318A6
:1022A000E0780318339910A911B110B9F3226747E8
:1022B000A089A189101C4D43E7B027B150B7011286
:1022C0000071A0807022634327B1111E5D43111677
:1022D0005463A0899097B089A09760B7011290804D
:1022E00010225443E7A033B24DA050B7F478A4971E
:1022F00004799497E0C060B76F6BD1A02372C0C01F
:10230000F76703720472057306739172C2605CC151
:102310000DC00AC008C070C0AE84DBC2B76F996739
:10232000836B1B16B76F70C00AC09967896BBE8438
:102330001B16B76F70C00AC09967906B1B16B76FFA
:1023400070C00AC09967966B0070EF101F063F318E
:102350008F14CF14F26F2810483932062A001A3F22
:102360001A3F7A6E1E3900705CC10DC008C0E0C013
:10237000AE845BC2EF101F063F318F14CF14F26F93
:10238000281048393206BA47CACCC363121EBE476A
:102390003ACCC363221EC247CAC3C3633AC30022F6
:1023A000C743A610CC63B76F8A316A007A6E1B16DA
:1023B0001E39AE6B64B000708381031ED043007081
:1023C0003399179100715DA3237291739172037217
:1023D0000472637230C00090C0FF109005730673E2
:1023E00000705B894089B0182331031813183399A2
:1023F00010A911B110B9D1B0007014B914A94CB121
:1024000010A92E799562009AF0890022F847E0B968
:1024100000700000A5B601004DE701001DB60100E7
:10242000A1B00100016E0100AD100200590E0100C3
:1024300089DB000035650100E5120200010102019F
:102440000201010201020303040103010101010170
:102450000303020103000000000000000000000070
:102460000000000000000087BE83605ADB0B37606D
:1024700038A5F5AA9183886C0000000002000000D6
:10248000FFFFFFFF0000000002000000FFFFFFFF52
:10249000BDF90100FF0000000000000000616200C3
:1024A0009C240000010000000000D002EC0000218C
:1024B0005F0000000000000000000000AC240000ED
:1024C000A82400000000000046430000CA430000AA
:1024D000FE5000002E530000465400005603010039
:1024E00057030100B024000076570000AE570000EB
:1024F000FC0C00200C0802170D0101020909010162
:102500000602091818030101090903030503000065
:102510000000000002000000FFFFFFFF252627004B
:102520000318041806180518041800000102000317
:1025300002000103F401FA00960064004B0032002F
:102540001E0014000149086070470000F8020020D6
:1025500081B001218DF800109DF800000028FBD10A
:1025600001B070477047FF7F80B500F0B0F80FF200
:10257000F80000F0D9FC00B1FEE7BDE801404DE0F5
:1025800070B50D4600F040F8002600F042F8C6F1A4
:10259000070025FA00F202F00102092100F03BF8E1
:1025A000012200F037F8082001F022F8761CF0B282
:1025B0000828EADB00F02DF80122142100F02BF8A6
:1025C000BDE870404FF42F7001F012B818B50FF24B
:1025D0007C0085B0D0E90013CDE9001302A869465C
:1025E00000F0F2FD00F010F8012001F001F80122E6
:1025F000142100F010F84FF40C7000F0F9FF2046A1
:1026000000F033FF06B010BD04460022142100F094
:1026100067BF00220A21204600F062BF10B588B0D3
:10262000FFF7D4FF03A80FF22C01142200F0F4FFEF
:1026300003A9684600F0C8FD0446B921FFF7A0FFD2
:10264000204600F012FF08B010BD00001404C0A026
:10265000FE0000001404C0A00A0480A0090480A0A9
:1026600008400080FE000000060880800708808087
:102670000D2007C00E2007C01400C080024000805B
:102680000300C08009400080084000800A400080AC
:10269000FE000000DFF8CC0680687047024600208C
:1026A000022904D1012A06D140F2EE207047012A06
:1026B00008BF4FF47A707047DFF8A81691F89900B8
:1026C00020B1D1F8C400002818BF004770472DE999
:1026D000F041DFF89416DFF8943684B00968A1FB66
:1026E0000332520B42F2107000FB121140F2AB2485
:1026F000A14200D2FEE7DFF86C4694F89A00002869
:1027000040F081800121DFF86866DFF86876DFF845
:10271000685684F89A10307B84F899007068C4F881
:10272000C40001A801F00DF8002102918DF80410F9
:10273000039101AB00220FF2A15104F10C0000F053
:10274000CBFF00230FF2D542322104F1300001F01B
:102750001FF8002038600023DFF820262C2104F128
:102760004C0001F015F8DFF8180601786868C0F32E
:102770008151707B28B1032903D1012184F8911084
:1027800003E0032918BF022911D1386840F0400046
:10279000386001F020F8A16841F00401A16094F8CC
:1027A0009D10491C84F89D1001F027F81BE00129B9
:1027B00019D1DFF8D065DFF8D075032000901C2315
:1027C000D6F800C0DCF804804FF0405200213846B3
:1027D000C0470120009038463668776809234FF4D7
:1027E00000720021B847286840070CD400F0F3FFBE
:1027F000A16841F00101A16094F89B10491C84F884
:102800009B1000F0FAFF002004B0BDE8F08130B565
:1028100081B0002408B1150004D16FF002042046F5
:1028200001B030BD8160C26003610146DFF834054C
:1028300001F017F8204601B030BD10B5044600F095
:10284000CAFFDFF820150A1992F89B305B1E82F848
:102850009B30DBB233B98A68012303FA04F422EA1D
:1028600004048C6000F0C9FF002010BDF0B581B0F9
:10287000054600F0B0FF0446DFF8E814481990F868
:10288000A220521E80F8A220D2B27ABB0FF22450AE
:1028900000EB850210F825505688280617D5DFF87A
:1028A000EC7439680A6A304690473A68916A304653
:1028B000884739680A6B30469047DFF8D414012006
:1028C0000860DFF8D00401688907FCD507E06806D6
:1028D00012D501EB86010020D1F8B820904705F011
:1028E0003F05152DBCBF2846FFF7C0FF204600F06E
:1028F00084FF002001B0F0BDDFF8907439688A6968
:10290000304690473A68516B304688470228F9D1E3
:10291000E5E710B5044600F05EFFDFF848148A686A
:102920000123A3401A438A60214491F89B20521C42
:1029300081F89B2000F061FF002010BD2DE9F041DF
:10294000064600F048FF0446DFF81854A81990F82E
:10295000A2104A1C80F8A22081BB0FF2584818F838
:10296000260000F03F001428D8BFFFF7E7FF08EB70
:102970008600478818F82600010617D5DFF80C54A2
:102980002968CA69384690472A68516A3846884794
:102990002968CA6A38469047DFF8F41301200860B6
:1029A000DFF8F00301688907FCD507E040060BD586
:1029B00005EB87010120D1F8B8209047204600F0B0
:1029C0001CFF0020BDE8F081DFF8C05329684A6988
:1029D000384690472A68516B384688470128F9D114
:1029E000ECE72DE9F04F00260024012881B0A34632
:1029F00018BF6FF0010955D1DFF868A3DAF88C0031
:102A000001282DD10221CAF88C1000F0C2FF01204C
:102A100000F065F95FEA000928D101F01FF880464F
:102A20009AF8B30008B14FF0010B9AF8B20008B160
:102A30004BF0020B9AF8B10008B14BF0040BDFF831
:102A40004C53A96A0A6801209047012804BF012459
:102A500001F044F89AF80800C10727D501262CE0B8
:102A60006FF00409484601B0BDE8F08F0120CAF8B4
:102A70008C0000F099FF484601B0BDE8F08F01F0EE
:102A80002DF800F0B1FD082000F029F906430120DF
:102A9000CAF88C00404600F0E9FF00F085FF0EB157
:102AA0004FF0FF39484601B0BDE8F08F296ABB48B6
:102AB0008A6890470746042FF8D04FF0FF32002174
:102AC000304601F045F85EB9012F04D12A6AB348B7
:102AD000536801219847B248016841F00301016041
:102AE00058462A68516988479AF8AD0020B129688C
:102AF000CA6A4FF4806090479AF8AC0020B1296808
:102B0000CA6A4FF481609047A149A64A0120086033
:102B1000002111600320CAF88C0029684A6B5846CE
:102B200090470128F9D19C4F3868042000F0D7F86D
:102B300006469D4901200860002C3968A1D0A96A89
:102B40000A68904701289AD000F097FF01208AF880
:102B500090009AF80800810693D49148802141673B
:102B6000C16E41F08001C1668BE730B581B004468B
:102B700000F031FE054621467A4800F09CFE2846CA
:102B800001B0BDE8304000F038BE10B50024022886
:102B900002D0032805D008E001F068F8044620467A
:102BA00010BD01F041F9204610BDFEE7F0B581B03F
:102BB00000F011FE6B49054691F89000012450B1D8
:102BC000704E71483768D7F80CC0002301223C21B1
:102BD000E04700B90024284600F00FFE204601B06F
:102BE000F0BD70B582B000F0F6FD044600F051FF74
:102BF0005C495F4A002081F8900002209568A84750
:102C00000646102000F06BF8012E04BF0320A847F1
:102C1000204602B0BDE8704000F0EFBD2DE9F04164
:102C2000544C82B06568206820EA050105406806BA
:102C300021602FD5534EF16B0A680420904702287B
:102C400018BF032826D1032000901C23D6F800C00B
:102C50004D4FDCF804804FF0405200213846C04709
:102C60000120009038463668776809234FF40072D7
:102C70000021B84700F0AFFD3A4991F89D20521E5F
:102C800081F89D20D2B21AB98A6822F004028A60C3
:102C900000F0B3FD28061BD500F09DFD4FEA0006AD
:102CA00000F0F7FE0028FBD02E49314A002081F8C1
:102CB000900002209768B8478046102000F00FF877
:102CC000B8F1010F04BF0320B847304600F095FD6E
:102CD000A56002B0BDE8F08170470020704730B5B4
:102CE00005462048046881B05CB1A068284205D040
:102CF0002269E36800212846984728B92468002CF7
:102D0000F3D1002001B030BD4FF0FF3001B030BD35
:102D1000264901280CBF07200020086000207047CA
:102D200000B5012881B018D121490A681368984775
:102D3000012812D000F0A1FE0A48012180F890106D
:102D4000007A81060BD40B4880218160016841F034
:102D500080010160002001B000BD00F0BFFE002036
:102D600001B000BD980A00201C1400505917B7D1BB
:102D70006018000090220840B04F0050DD3C000079
:102D8000BB260020A401001000A00C40B8010010D8
:102D900028200860282008402C20094000400340DB
:102DA00024220840800104430C40094000000460D4
:102DB000E00100108F0000008F0001008F00020072
:102DC0008F000300900000018F00010190000002BD
:102DD000900000038F0001048F0000058F0008049D
:102DE0008F0000048A000006510000007F000100EF
:102DF0003F0004003F0002003F0001007F0002008E
:102E00008F0002048F00010270B500F029FE054614
:102E10005FF00006DFF8744725FA06F0C0070AD510
:102E200004F10800F1B250F8210020B1026811004D
:102E30001CBFF1B29047761C2068F1B28842EBD2F9
:102E400070BDDFF84C07DFF84C270168DFF8480752
:102E5000116000F007BE2DE9F04182B00D00DFF8EF
:102E60003C17ECB201EB840144BF85F0204585F4AA
:102E7000C0450B68064606EA0507DFF8240785EA21
:102E80000302B343074032403B4306F4E020120EF6
:102E9000B0F5E02F02F0010202D1DA0105D411E011
:102EA00016F4E02F08BF002A0CD003F4E020B0F5A0
:102EB000A02F04D0B0F5C02F04D1052000E00620DB
:102EC00060F31243DFF8DC760B603868E04010F006
:102ED000010809D1700207D504F18041A80D01F560
:102EE000083100F00100087030020DD500F073FCCD
:102EF0000122A24039682B024CBF134600239143A4
:102F00001943396000F079FCB8F1000F09D0700264
:102F100007D504F18044AD0D04F5083405F0010532
:102F2000257002B0BDE8F0812DE9F04F8BB0074667
:102F3000FFF7CDFBDFF87406DFF85046017801F0AB
:102F400021F900250E284FF0000918D8DFE800F01D
:102F5000080817171717171717171717081014004F
:102F600001F0FAF802280AD101206060012506E08C
:102F700003206060072502E0052060601F25DFF860
:102F80003006C168C1F38151012903D10068000EE8
:102F900081400D43DFF810160A68616802F07F0275
:102FA0005218521E2260002004F18803FF26401CA4
:102FB000824203F8016BFAD2CC46BE465FF00103B1
:102FC000DEF8000000F0FF08B8F1FE0F00F0D78037
:102FD00000F0FF06FF2E11D0424528BF8845C0F003
:102FE000EE8025FA00F6F60700F1E98003FA00F01A
:102FF00040EA090904F1880000F808C00CF1010C4E
:103000000EF1040EDCE70998DFF89085E840C00770
:103010004DD50A9899F8001050F82170FEB2002F93
:1030200044BFDFF89005474008EB8600DFF88815BD
:103030000368DFF888251A4039401143CA010DD5CD
:1030400001F4E022B2F5A02F03D0B2F5C02F02D0D8
:1030500004E0062200E0052262F3124101600098BC
:103060000068F04010F0010B06D1DFF85405B90DEF
:10307000801901F00101017000F0ADFB00990968B1
:103080000122B2403B024CBF134600239143009AF9
:103090001943116000F0B1FBBBF1000F2DD0DFF838
:1030A0002005BF0D861907F00107377025E0EEB245
:1030B00008EB8600DFF804150268114041F4C041B6
:1030C000016000980768F74017F0010704D1DFF8A6
:1030D000F00480190021017000F07DFB009A136854
:1030E0000121B14023EA0101116000F086FB27B104
:1030F000DFF8CC04861900213170E8B208EB8001BA
:1031000008688009800108600020CAF800006D1C72
:103110002068A8420AF1040A09F1010946D201A86F
:1031200000F063FBDFF89C54DFF89C2428780290C1
:1031300001AB102104F1A80000F02AFB04A800F064
:1031400063FC686806900021079104AADFF87C14EC
:1031500004F1C40000F060FCDFF87404DFF87424AC
:10316000016821F47C5141F4005101600120DFF835
:103170006814086010600BB00020BDE8F08F0920D3
:10318000FFF7DCFBC4F88470012104F1F80001F0C2
:1031900047F8DFF8103400930A97CDF8249008958B
:1031A00004F1880104F1080A002589460898E840DE
:1031B000C0077FF528AF0421CAF80010A7E7022056
:1031C0000BB0BDE8F08F00002DE9F04E81B00D4648
:1031D00001B4DFF8B89382B04FF0FF3109F1F80085
:1031E00001F054F8290040F08D800298DFF8B4A374
:1031F000002101600020029948602C4602998860F5
:103200000120002D009000F08480029E17E0FF282E
:1032100009D0D9F80020824279D309F1080252F886
:103220002000002873D1091D6CE000BF05F1804526
:10323000BF0D05F5083507F001072F70241D207814
:10324000FE286ED0FF28F9D009F1080141F820606E
:10325000009A716802FA00F0084370602768D9F894
:10326000001007F0FF008142E8D309F1080151F88E
:103270002000B042E2D1FDB2002F44BFDFF834039A
:103280004740DFF81803DFF83013DFF8302300EB96
:103290008500394003681A401143CA010ED501F474
:1032A000E022B2F5A02F03D0B2F5C02F02D005E086
:1032B000062201E05FF0050262F312410160DAF8D4
:1032C0000000E84010F0010B08D105F18041B80D75
:1032D00001F5083100F0010081F8000000F07BFAF0
:1032E000DAF80010009AAA403B024CBF13460023B4
:1032F00091431943CAF8001000F07FFABBF1000FA8
:1033000094D19BE70878FE287FF481AF6DE7002019
:10331000029009F1F80000F0C4FF029804B0BDE883
:10332000F08E0296F5E72DE9F047002882B00D46B1
:1033300000F09780426822FA05F1C90740F19180B8
:10334000012404FA05F18A434260A846DFF83C02F2
:10335000DFF85072DFF8449200EB880200219160A0
:1033600000EB080191F88810FF2925D109EB8501B0
:10337000DFF848020A68024042F4C0420A603E6830
:10338000EE4016F0010605D105F1804101F5083146
:103390000020087000F01FFA3968AC4021EA0404EC
:1033A0003C6000F02AFA002E51D005F1804505F569
:1033B0000835002028704AE0D0F8840050F82160D9
:1033C000F5B209EB8501002E0A68DFF8F00144BF71
:1033D00086F0204686F4C0460240DFF8DC0130402B
:1033E0000243D0010DD502F4E020B0F5A02F03D0A8
:1033F000B0F5C02F02D004E0062000E0052060F305
:1034000012420A603868E84010F0010A07D105F15D
:103410008041B00D01F5083100F00100087000F0A6
:10342000DAF9AC40396832024CBF22460022A1438F
:103430001143396000F0E1F9BAF1000F07D005F14E
:103440008045B60D05F5083506F001062E7009EB2E
:103450008801086880098001086002B00020BDE88A
:10346000F087022002B0BDE8F08710B5044660681E
:1034700058B1616891FAA1F0B0FA80F1C9B2204662
:10348000FFF751FF60680028F3D110BD0146DFF857
:103490004C010068C84000F00100704730B50D468F
:1034A000DFF8E81014460A68AA4281B004D301EBA1
:1034B00085018A68824202D0022001B030BD00F04E
:1034C0008AF9DFF8E0100A680123AB409A4304FA56
:1034D00005F515430D6000F090F9002001B030BDF6
:1034E00010B42A4B1C688C4204D303EB81039C6804
:1034F000844202D010BC02207047501E804101F16E
:103500008041C04301F50831C00F0870002010BC95
:10351000704710B10160002070470220704730B53D
:103520001A4C25680B46114601F0FF02954281B006
:1035300004D304EB82029468844202D0022001B0DA
:1035400030BD1846FFF787FC002001B030BD10B435
:103550000E4B1C688C4204D303EB81039C688442AD
:1035600002D010BC022070470C4800EB8100002AFA
:10357000016848BF0022890902F03F0242EA811235
:103580000260002010BC704700000000041F0020F3
:10359000E0200240E0200260C81F00200010084028
:1035A000007F077FD020024044130050BB2600203C
:1035B000A84F0050006000A0007F0767FF80389888
:1035C0000020024058180000432E0000092E000081
:1035D000003009402C0009400C400940C020024046
:1035E000EFF3108072B67047EFF3108062B6704749
:1035F0000138FDD17047704762B38B0708D0521E67
:1036000011F8013B00F8013B00F024808B07F6D154
:10361000830740F0208000BF103A07D330B4B1E8F0
:103620003810103AA0E83810F9D230BC530724BF44
:10363000B1E80810A0E8081044BF51F8043B40F876
:10364000043BD20724BF31F8022B20F8022B44BFE1
:103650000B7803707047121F17D35B0009D151F824
:10366000043B20F8023B1B0C121F20F8023BF6D251
:103670000BE051F8043B00F8013B1B0A20F8023B29
:103680001B0C121F00F8013BF3D238BF121D521E53
:1036900024BF11F8013B00F8013BF8D87047004007
:1036A000DFF800F011B70310DFF800F029AF0310C6
:1036B000DFF800F033B80310DFF800F099B503101D
:1036C000DFF800F02BB80310DFF800F0EDA80310CE
:1036D000DFF800F0B1B50310F0B51C0089B0054665
:1036E0000E46174603D10023FFF7EEFF12E0082332
:1036F000242200216846FFF7D3FFA06806906B469E
:103700002178ADF810103A46606805903146284699
:10371000FFF7DAFF1048114A01681160284609B026
:10372000F0BDFFF7CDBFFFF7D3BF00F0C1BD00B5BF
:1037300081B000F0D4FD401E8041C043C00F01B0F5
:1037400000BD00218160017041607047FFF7B0BF8C
:10375000FFF7B2BFFFF7A8BF4C150000C021002043
:10376000DFF800F0E1B60310DFF800F0AFB70310A8
:10377000DFF800F0D5B60310DFF800F0F7B703105C
:10378000DFF800F0BDA60310DFF800F07DB40310F1
:10379000F0B51C008DB005460E46174604D1002337
:1037A00000F0A4FD0DB0F0BD0823302200216846D2
:1037B000FFF7DEFF206805906B46606808903A4688
:1037C000207AADF818003146284600F08FFD0DB084
:1037D000F0BDFFF7D1BFFFF7C3BFFFF7D1BF00F0C8
:1037E000A5BD00F0ADBDFFF7CFBF002101604FF0D8
:1037F000FF314160012101727047FFF7B5BF10B57D
:103800000446FFF7E8FF002161602160BDE8104039
:10381000FFF7F3BF30B581B00546FFF7DCFF2C683A
:103820003CB121682960216800291ABF00224A6042
:103830006960FFF7E2FF204601B030BD70B5044675
:103840000D461646FFF7C7FF2E6071686960716804
:10385000002914BF0D6025607560BDE87040FFF75A
:10386000CCBF30B581B004460D46FFF7B4FF002150
:103870002960616869606168002914BF0D60256076
:10388000656001B0BDE83040FFF7B7BF30B581B02B
:1038900004460D46FFF79FFF2168296000216960FB
:1038A0002168002914BF4D606560256001B0BDE846
:1038B0003040FFF7A2BF30B581B004460D46FFF798
:1038C0008AFF29686A6800290CBF62604A606968DB
:1038D0002A6800290CBF22600A6001B0BDE83040B0
:1038E000FFF78BBFDFF800F03DB50310DFF800F005
:1038F0005DAC031030BF704770B5FFF771FE304C00
:10390000206941688847FEF7C5FE054605F00C00B2
:103910000C2838D0680721D400F01AFD0646012192
:103920000120FEF7BBFE2749096801FB06F2904221
:1039300014D2F020B0FBF1F0234C311A04F10C004A
:10394000FFF7B6FE04F10C00FFF7B6FE0120FFF70B
:1039500048F804F10C00FFF7A7FE16E0280712D480
:1039600021681A488A6890470428F9D0E90600D4EB
:1039700008B9012000E0002000F0D6F81448012129
:103980000160006801E0FFF7B5FFBDE87040FFF798
:103990002BBE10B50F4CFFF7A5FF20600E48006846
:1039A00008B18047606010BD10B50C48094C016833
:1039B00009B1606888472068BDE81040FFF796BFEE
:1039C000D80100104C150000980A00200040034068
:1039D0002C20094018200020BC130000C013000058
:1039E000DFF800F025B50310DFF800F03DA8031064
:1039F000DFF800F0E9A50310DFF800F065B7031069
:103A0000DFF800F063B80310002101604160C1607D
:103A10004FF0FF318160704770B514008AB00546E1
:103A20000E4604D1002200F0AFFC0AB070BD08239E
:103A3000282200216846FFF7DFFF206804906A46CD
:103A4000606805903146E0680790A06806902846B7
:103A500000F09AFC0AB070BDFFF7D2BFFFF7C0BFFD
:103A600000F09EBC00F0A2BCFFF7C2BFFFF7BCBFD6
:103A700000F0ACBC25480168084710B5294A136816
:103A80005C6801210120A047234824490068886020
:103A900010BD38B51E4CE16B0A6801209047012823
:103AA0001AD024681B48E568002301223C21A8475E
:103AB00098B1FFF7DFFF1848184B0268996818485B
:103AC0001C68DA60A4EB9404521A4243120C1A6088
:103AD000A24238BF22461A60012032BD38B5114CCF
:103AE0002268536800210120984721680A68012054
:103AF000904708B1FFF7BEFF0748084D00686860AF
:103B0000E06801688847286131BD0000800000102E
:103B1000A401001000A00C4030200940C421002066
:103B200040420F00E001001010B54349434C0860CB
:103B30004348016841F003010160202021688A693F
:103B40009047404801682168886BBDE810400047F5
:103B50002DE9F843894605463B493A4E374C3B4FE1
:103B600000200860904631682268916927208847C4
:103B70007969374801407961F86D20F48070F86503
:103B80004FF4806021680A6B904721680A6B4FF4FC
:103B90008160904721680A6B4FF4C06090472D49BF
:103BA0000120086024492C48C1F8009001210160DF
:103BB0002A490868820748BF002212D418F1010F71
:103BC00014D1274A126842F21073B2FBF3F342F2A7
:103BD000107000FB132240F2AB20824203D34FF05F
:103BE0004042CA6004E01F48C86001E0C1F80C8090
:103BF000306838688007FCD521684A6B07209047F9
:103C00000228F9D195B9216A174D8A68284690474C
:103C10000428F8D0012804D1226A536803212846D9
:103C20009847074801688908890001602068816B0E
:103C3000BDE8F143084700008C210840B80100109E
:103C4000242208402C2009400C400940282008402C
:103C5000FFFFFEFE28200860800104431000094099
:103C60001C14005008E7A4800040034030B5DFF882
:103C7000AC5495F89100002481B0002802BFDFF811
:103C8000A014887B00280CD0FFF7A5FD95F89310B1
:103C9000002906BF012285F893200124FFF7ADFD1E
:103CA00014B1002001B030BD0220FEF732FE0E201C
:103CB000FEF744FEDFF86C14086810B1012001B073
:103CC00030BDDFF864044022026042600120C86118
:103CD00001B0002085F8920030BD0000F0B5DFF89B
:103CE0004C1481B000200860DFF8304494F8920052
:103CF00000283BD0012845D1DFF834140D68DFF8E7
:103D000034144BF2F520454308682D0AC0F3814076
:103D100001280FD1DFF82064B06C01688847F16B8F
:103D20008A689047F16BCA6890472F09C0104743D3
:103D300005EBE73594F8980018B1002184F8981045
:103D400006E0DFF8F803006820F07F402D186D08CA
:103D5000DFF8EC0305602D0C456001218160DFF880
:103D6000C013887B50B10221C4F8941000F068F8A9
:103D70000028FBD0401E012854D9FEE70620C4F8D5
:103D80009400F3E702280DD1DFF8A4030568284664
:103D900000F031F9A5F2FF55022DEFD90420C4F847
:103DA0009400E3E70328E1D1DFF884030068A16E03
:103DB000A0F5C0600029C4F8840048BF494200282B
:103DC00048BF40428142A8BF002028DADFF868538C
:103DD000E06EDFF8706380B2009008232F68D7F898
:103DE00004C04FF47F4230213046E047206F80B25C
:103DF000009012232F68D7F804C04FF4F802042172
:103E00003046E047D4F8800080B2009030462D68FC
:103E10006E680A234FF440622021B047012084F8E5
:103E20008800ABE701B0F0BD00B581B000F008F844
:103E30000028FBD0401E012801D801B000BDFEE7DC
:103E40002DE9F043B54CD4F89400062881B000F277
:103E5000BD80DFE800F00441505D73809C00BA4DE6
:103E6000BA4EB54FDFF8DC820120286007230F200F
:103E7000F0604FF4C07242F62A2030610021022027
:103E800000904046D7F800C0DCF80490C8473F686F
:103E9000D7F80CC007234FF4C07200214046E0471A
:103EA0000120286028688107FCD50121F16194F880
:103EB000910000281DBF0021296301200320C4F8C0
:103EC0009400032030600020686068688107FCD49B
:103ED000002001B0BDE8F083012084F892000220A8
:103EE000954C00900423256896486E687022002146
:103EF000B047202045E00320C4F8940000219248F8
:103F0000416041688A07FCD4002001B0BDE8F0831D
:103F1000022084F892000020874C8A4D00900423F0
:103F200026687768702200212846B847246828460A
:103F3000E568702370220021A84721E00520C4F81D
:103F4000940000218048416041688A07FCD4002029
:103F500001B0BDE8F083032084F892000020764C85
:103F6000784D009004232668776870220021284647
:103F7000B84724682846E568702370220021A847C6
:103F8000012000F027F8012001B0BDE8F0836E4861
:103F900000210160416001688A07FCD441688A07FA
:103FA000FCD4002061495F4A0860012111600E20A5
:103FB000FEF75CFC0220FEF740FC0020C4F89400F1
:103FC00084F8930001B00220BDE8F083032001B023
:103FD000BDE8F0835E4901220A600A689307FCD5B8
:103FE00008225A498861002008604F4802604260F8
:103FF000012008607047F0B55649484C81B0CA6A44
:10400000C2F30722E266B0F5C0600A68C2F38442D8
:104010002267C969A066C1F38121C4F8801008BF76
:1040200084F8880078D0A26F94F8881039B9E16ECE
:10403000226F6167C4F88400D4F88010E167D4F877
:10404000840000284CBF6FF00101022100EB40000A
:104050000818411000EB917002EBA002E16E61675D
:10406000002A13DCE06F032805D1012015329042AD
:104070001FDB01221DE001200B329042A8BF01226C
:10408000491E48BF00216167032013E01E2A12DD8C
:10409000E06F28B9153A1E2AC8BF1E22032009E086
:1040A0000B3A1E2AC8BF1E22491C3F29C8BF3F2108
:1040B00061670020E067A26708231F4D606F214EF3
:1040C00080B200904FF47F422F68D7F804C03021AF
:1040D0003046E0470120009011232F68D7F804C034
:1040E0004FF4003204213046E047A06F80B20090C8
:1040F00012232F68D7F804C04FF4F8020421304689
:10410000E047E06F80B200900A232C6865684FF4A6
:10411000406220213046A84701B0F0BD980A002037
:104120006018000004800C4038500C403C500C409B
:1041300008400C40B44F0050A4010010102009406A
:104140007C600C4000A00C4054600C4000400C40CF
:1041500058600C4004A00C401D480068000C00F0A2
:104160000700062828BF4FF0FF307047194909683B
:10417000C1F30F314BF641324FF0FF30914208BF8F
:104180000420704710B5FFF7F1FF11490A68D30DFD
:1041900004284FF0FF34C2F3406117D1120B02F034
:1041A0000F02082A11D0092A0AD00F2A0ED1D807E7
:1041B00004D500290CBF0D240E2407E00B2405E0D4
:1041C00000290CBF09240A2400E00C24204610BD5D
:1041D000941200501813005080B5FFF7C7FF042851
:1041E00000D101BDFEE7C92ADFF800F059B703107E
:1041F000DFF800F05DA90310DFF800F001A803105C
:10420000DFF800F057B80310DFF800F05BB80310D8
:10421000DFF800F005900310DFF800F0D1990310EB
:1042200030B589B004460D46082324220021684693
:10423000FFF7DAFF01228DF8182029466A4620464A
:10424000FFF7D6FF204609B030BD10B58AB004464E
:104250000823242200216846FFF7C6FF01228DF8BB
:1042600018206946034A2046FFF7C6FF0AB010BD72
:1042700000000000AC08002000B581B00090684646
:10428000FFF7BEFF01B000BDFFF7BEBF00B581B0B4
:10429000FFF7BEFF00280CBF4FF0FF30002001B039
:1042A00000BDFFF7B9BF0000DFF800F025A903103B
:1042B00070B5044600F0AAF80646A08A0025012839
:1042C00008D1FFF7F1FF0546E068451BA068A8424A
:1042D00038BF0025304600F09AF8284670BD808A25
:1042E00070470000DFF800F0AD9F0310F8B50446FA
:1042F0000B480C4F0668F8690D4650F82500B0428F
:1043000009D1094800902046FFF7ECFFF86950F802
:104310002500B04201D10020F2BD2046F2BD00BF11
:10432000CC110000D8010020AC080020102803D3D5
:1043300002491038C1F8000F704700BF00E000E0EC
:104340008160426070470A05DFF800F051B6031043
:1043500070B500F05BF8094E0446B0680021FFF725
:10436000F3FF05467069451BB069A84238BF0025B8
:10437000204600F04CF8284670BD00BF1001002018
:10438000DFF800F065A4031010B50446034BFFF7F7
:10439000F7FFA06800B1204610BD00BFAC080020A8
:1043A00001488068704700BF6C01002038B50446A2
:1043B0000D4600F038F8616A0D43656200F034F88C
:1043C0002046BDE83240FFF713BB060370B50D462B
:1043D00015F1010F044608BF052500F024F8064634
:1043E0000120A840A061656129460548406900F0A8
:1043F00018F8A0623046BDE8704000F015B800BF64
:104400006C010020DFF800F021B4031000E005E0AB
:10441000EFF31180202181F31188704780F3118818
:104420007047FFF7EFBFF3E7F8E70000F0E7F5E7C5
:104430000000EDE7F2E70E49C20744BF01220A601F
:10444000820744BF4FF480720A60400744BF4FF4B4
:10445000803008607047074AC30748BF1160830770
:1044600048BF5160400748BF91607047000000009E
:1044700004200940182009403EB50446294D05F1A5
:10448000300105F13C00FEF79FFEA8600FF25101DC
:10449000FFF73FF8A868244A4FF4E021FFF73FF800
:1044A000A868224A4FF4E021FFF739F8A868204AAB
:1044B0004FF0C051FFF733F8A8681E4A4FF0C051C3
:1044C000FFF72DF80020019000900023C8220FF282
:1044D000450105F10C0000F03FF86C6037BD0000AD
:1044E00010B5104C002020700D20FEF7CFFF18B93A
:1044F000217841F0080121700E20FEF7C7FF18B99E
:10450000207840F01000207004F10C00BDE810404D
:1045100000F047B80348416800291CBF00780847ED
:1045200070470000FC0200200D0005800E00058091
:104530000D0000100E000010DFF800F0159E0310B3
:10454000DFF800F0FDAB0310DFF800F0EDB403106E
:10455000DFF800F0D1B403102DE9F04389B08046B4
:10456000894617461D46109C119E082324220021CF
:104570006846FFF795F8394906964FF47A700A684D
:10458000B0FBF2F0454305954743ADF810406B464C
:104590003A4649464046FFF797F8404609B0BDE81D
:1045A000F083FFF789B880B5FFF799FE00B10120CD
:1045B000C0B202BDFFF778B810B504460021FFF77E
:1045C000BFFF204610BD70B505460C4616460C20B0
:1045D00000F054FB01000BD08E602846FFF7B4FFBB
:1045E00024B14FF080412046FFF7A6FF012070BDA7
:1045F000304600F044FB002070BD10B50446FFF7C4
:10460000A7FFA04204D0846800F039FB204610BD0B
:10461000002010BD78B585B0044668460FF244010D
:104620001422FEF7F9FF0E4830250570831C78250B
:104630004570A21D062112F8015D2D09491E1DF8C5
:10464000056003F8016B167806F00F061DF806509A
:1046500003F8015BEFD1197006B070BD4C15000076
:10466000081E002030313233343536373839414274
:104670004344454600000000DFF800F071B7031026
:10468000DFF800F005AB0310DFF800F0EDA1031038
:10469000DFF800F081B60310DFF800F0F9900310A6
:1046A000DFF800F0C5A7031020B108233C22002149
:1046B000FFF7E2BF704780B5FFF792F9ADF8000051
:1046C000FFF74EF8ADF80200009802BD01B5BDF845
:1046D0000200FFF749F8BDF80000BDE80240FFF70F
:1046E00083B938B5DFF8D449207801282DD00121CD
:1046F0002170DFF8CC29DFF8CC1989088900521A1B
:10470000A26161610A4602E0002342F8043BA3690A
:104710005D18AA42F8D39B0801EB8302002042F8FF
:10472000040CE8200860A06980088000EC38C1F81B
:10473000E80001F1E800A060002000F007F8E06068
:104740006069A060A069001F206131BDF8B5002438
:104750000026051D15F003001CBF291D0D1AFFF7CB
:10476000AAFFDFF8582901465160112D34BF936824
:10477000D3681868002803D580F00040002619E0AF
:10478000370013D02768D3F800C06744AF422760D2
:1047900010D33846ECB1401B042811D3605145F0CA
:1047A000004020601069451B156111E0A84214D239
:1047B00001261C46034418680028DBD1002408E0C9
:1047C000136920681B1A1361206840F000402060C4
:1047D000241D00F051FA2046F2BD1C46DAE710B560
:1047E0000446FFF768FFDFF8D418486054F8042C3B
:1047F00022F0004244F8042C0B69D2180A61221FEF
:104800008B689A4238BF8A60BDE810405EE72DE9A8
:10481000FC41FFF750FFDFF8A418CA684860002485
:104820000025002600270AE00E460125144605E073
:104830002B00F9D02368CB1823608E190A44116825
:10484000B046BE4238BFB846002905D0F0D581F049
:10485000004100254746F1E7FFF738FF4046BDE835
:10486000F68110B50446DFF85408816921600069BB
:104870006060FFF7CCFF09282CBF08380020A0603B
:1048800010BDDFF838180A69121A40F22D139A4247
:1048900028BFFFF75BBF0020704780B5FFF721FFFF
:1048A0004BF6BE2002BD084650E7084697E702B522
:1048B0006846FFF7D6FF01BD0120704738B50446B2
:1048C000FFF7F9FE00220C23DFF8FC175343CD1845
:1048D000A96C21B18C4206D0521C032AF3D3FFF7F6
:1048E000F5FE002032BDFFF7F1FE05F1480032BDB4
:1048F0007CB50546FFF7DFFE044600210C22DFF8F9
:10490000C8074A438618B06C48B1854210D0491C8C
:104910000329F3D32046FFF7D9FE002076BD30658A
:10492000B5640021FFF7ACFEF06408B900F0E4FBC9
:104930002046FFF7CBFE06F1480076BD38B50446A9
:10494000FFF7B9FE0025DFF880270C216943515A93
:1049500021B18C4206D06D1C062DF6D3FFF7B6FEB2
:10496000FF2032BD1FE310B504462088FFF7E6FFA5
:10497000FF2802D14FF0FF3010BD0C21DFF848278F
:1049800048431044816811B96FF0010010BD204602
:10499000BDE81040084702460FF25070104710B5AE
:1049A00000200C21DFF82027002401FB00F3134432
:1049B000401C03289C641C65F7D30020002301FBE6
:1049C00000F4401C13530628F9D3BDE8104088E6D4
:1049D0002DE9F8478FB081468846FEF783FF0546EC
:1049E0000027DFF8E86647451FD26846FFF75CFE00
:1049F00009EB0710416806918168089169460268D1
:104A000004920022C06805903046FFF73DFE040086
:104A100011D0FFF750FE82462046FFF769FF50B1E4
:104A20005046FFF753FE7F1CDDE72846FEF75EFF8A
:104A300010B0BDE8F08700F05FFB00BFF8B5684636
:104A4000052141604FF480518160DFF88426DFF852
:104A500084160091C2600121FFF7BAFF05B000BDC6
:104A600038B504460D46FFF726FE002145F80C1C1C
:104A7000226812B9256006E00A4652F80C1C00298B
:104A8000FAD142F80C5CBDE832401FE680B5FFF772
:104A9000FFFDFFF713FF10B96FF0040002BD81683E
:104AA00009B9022002BD4068AFE0062881B00ADAE9
:104AB0000C22DFF814365043185A00281CBF4FF65A
:104AC000F873984202D14FF0FF3001E008800020D7
:104AD00001B0704730B5DFF800562A680C464FF435
:104AE0007A71A1FB0001002300F00AFB0023994228
:104AF0004FF0004201D8904202D36FF0020030BD67
:104B00002060002030BD014688684968084770B5BC
:104B100005460E46FFF7BCFDFFF7EAFE040009D08C
:104B2000FFF7C9FD0146002200F09FF820B1521C9A
:104B3000062AF9D300F0E0FA4FF6F87018805C60AE
:104B4000002098602A706068306000F095F80020BE
:104B500070BD0C3843E670B5044615461E4608463F
:104B6000FFF7ECFE0146FF2902D14FF0FF3070BD88
:104B700033462A462046BDE8704083E07CB50546B2
:104B8000164600F0A2F8040010D128886946C0B289
:104B9000FFF78BFF28B13068FFF7DBFF6FF00500F0
:104BA00076BDBDF800002880FFF770FF204676BD77
:104BB00038B50546FFF76CFDFFF780FE044600F0B0
:104BC000B7FB002818BF012800D014B96FF004000B
:104BD00032BD65B900200090009B60684FF0004234
:104BE0000021FFF759FD401E8041C00F32BD15F175
:104BF000010F08BF4FF0FF30EDD069462846FFF7A0
:104C000069FF0028E8D032BD80B54FF00041FFF7C2
:104C100093FC002002BD2DE9F843054600F0A0F901
:104C2000FFF766FE04006FF002091CD0FFF743FD9A
:104C30000146002200F019F840B1854211D0521C03
:104C4000062AF7D300F058FABDE8F2831D805C60B5
:104C50009E603A706068C8F8000000F00DF800200F
:104C6000F2E700F009F84846EEE70C23DFF85804B5
:104C70005343034418887047084627E566E5AEE5C8
:104C8000FFE5EEE52DE9F8430D462F46062FBCBFA4
:104C900004460628164699466FF0020806DAFFF722
:104CA0000AFD00F003FA19B9FFF710FD40460AE0CB
:104CB000FFF70CFD00F0F0F9786840684FF0004114
:104CC000FFF73AFC0020BDE8F2832DE9F0410646EB
:104CD0000F469046FFF7DCFCFFF7F0FD050008BF2C
:104CE0006FF004001BD0FFF7E6FCA968002441B177
:104CF0000C46A4F10C010A68AA6000220A60FF2297
:104D00008A72FFF7E3FC0CB9022008E0A4F10C0062
:104D10000179317040793870C8F800400020BDE852
:104D2000F08182B001218DF800109DF8000000286C
:104D3000FBD100F0E1F900BFFFF7B6BA10B5DFF81C
:104D4000980302686FF00044A4FB020100234FF4B3
:104D50007A7200F0D5F9002399424FF0004201D851
:104D6000904200D3204610BD7CB50C4615461E4629
:104D70006946FFF7AFFE30B9009833462A46214610
:104D800000F002F8002076BD2DE9F0431D4689B001
:104D90002C6880460E4617462CBB0C20FFF7D6FC2D
:104DA00004006FF0030918D008232422002168466C
:104DB000FEF776FC0020ADF8100005900694002365
:104DC0006A464146DFF81403FFF76AFC206030B9F9
:104DD000FFF7A7FF2046FFF702FD484617E0666091
:104DE000A7602C600BE0DFF8F8623068804705466A
:104DF0002068FEF759FCA76028467168884720683C
:104E00004146FEF755FC2068FEF756FC002009B02D
:104E1000BDE8F08300281CBF0068FEF745BC704762
:104E2000E0B58DF80400684600F0B6FA9DF805007C
:104E30000EBDE0B50190684600F0E4FA0EBDE0B5A5
:104E40000190684600F0E8FA0EBD2DE9F84384B001
:104E5000044600F085F8FFF731FD0546002002907A
:104E600000F066FA002818BF012800D015B96FF0CD
:104E7000040072E044B900200190FFF715FA814662
:104E800001980124814425E014F1010F08BF4FF07F
:104E9000FF30F1D001A92046FFF71CFE0028ECD01E
:104EA0005BE0039902A8FFF7DBFD68684FF0005153
:104EB000FFF742FB0199012411F1010F0AD008000C
:104EC00008D0FFF7F1F9B9EB000031D00199814228
:104ED0002ED30190019B68684FF000520021FFF72C
:104EE000DBFB28B303AA69460DF10100FFF7EDFED5
:104EF0000400DFD19DF801000DF10201FFF7D5FD9F
:104F00000028CED1039A9DF80010BDF80200B047EA
:104F10000028C6D017B1BDF802003880B8F1000FE4
:104F20001CBF9DF8001088F800100C9803990160D0
:104F3000FFF7ACFD029EFFF7BEFB014656B13246BD
:104F400000E0024652F80C0C0028FAD1A86842F89A
:104F50000C0CAE60FFF790FE204605B0BDE8F08374
:104F60000E4617469846FFF793BB38B5FFF790FB00
:104F7000044600F0DDF9002818BF012811D0FFF722
:104F80009AFB0025504A0C236B43D15A39B1D118F2
:104F90004B681968A14206D06D1C062DF3D3FFF7AC
:104FA00095FBFF2032BDFFF791FBE8B232BDE0B5C3
:104FB000ADF800008DF8061000204A490A68ADF8E7
:104FC00002006846904710B99DF807000EBDFF200B
:104FD0000EBD1078422801D1012070470020704793
:104FE0000CB478B504460E4687B000F0A1F90CADBC
:104FF000002814BF0128FFF794FE1420ADF810001C
:105000000021FF2002918DF8120006960595FFF70A
:10501000ACFF05AB03222146FFF79DFD002001A94F
:1050200001900091002300222F4941F28830FFF7C0
:105030000CFF012805D020B9019820B1FFF789FDA8
:1050400001E0FFF76EFE0598006808B070BC5DF8DF
:105050000CFB2DE9F8430D462F46062FBCBF044636
:105060000628164699466FF0020806DAFFF723FB7A
:1050700000F01CF819B9FFF729FB40460AE0FFF7DA
:1050800025FB00F009F8786840684FF00051FFF701
:1050900053FA0020BDE8F283A9F1080004704570BE
:1050A0008670494678680830FFF7DABC0C21064A5A
:1050B00011FB07F7D719796870470000AC1D002075
:1050C0007F3B0120EF260020401D00209749000073
:1050D00054050020C91101004C150000074B0000C9
:1050E0002C05002034050020D34F00006749000044
:1050F000B7460000CD460000012000F09DB9060330
:10510000B3BBD9B1B2F5803F7DD2022A1ED98C46FD
:10511000B1FBF2F102FB11C31B0443EA1043B3FBE2
:10512000F2FC02FB1C3380B240EA0343B3FBF2F013
:1051300002FB103240EA0C4000237047022A05D9D6
:105140008446B0FBF2F002FB10C270474AB105D1B1
:1051500000F0010249085FEA300070470022002396
:10516000704700F06FB90B0002000021002070476B
:10517000904271EB030CF6D3B3F5803F2FD2F0B51C
:10518000B3FA83F7B1FA81F4A7F10F0E3D1B534038
:10519000CEF1200602FA0EF2F3415340B5F10F07AB
:1051A00046D80F3C2C444140C4F12006A040F141B8
:1051B0004140B1FBF3F603FB1611A2FB0645001BB1
:1051C000A94102D2761E8018594180EA010221FAD3
:1051D0000EF362FA0EF200215A403046F0BD30B4B0
:1051E000B1FBF3FC03FB1C11A2FB0C45001BA94106
:1051F00003D2ACF1010C8018594130BC02460B4679
:10520000604600217047B2F1807F65D3F0B5B2FAF5
:1052100082F7B1FA81F4C7F10F063D1B22FA06F3BB
:1052200007F1110EF24120355A40B5F10F07B8D9F8
:105230004140C4F12006A040F1414140B1FBF3FCE4
:1052400003FB1C11A2FB0C45001BA94103D2BCF1BE
:10525000010C801859410F2F12D30F3FC90341EAA7
:105260005041B1FBF3F603FB1611A2FB0645D4EB4C
:10527000C030A94102D2761E8018594146EACC3C82
:1052800007B34140C7F12006B840F1414140B1FBAE
:10529000F3F603FB1611A2FB0645001BA94102D23F
:1052A000761E8018594180EA010221FA0EF3C7F1F7
:1052B000200462FA0EF20CFA07F05A402CFA04F1BC
:1052C0003043F0BD80EA010221FA0EF3002162FAB8
:1052D0000EF260465A40F0BD8C46B1FBF2F102FB83
:1052E00011C31B0243EA1063B3FBF2FC02FB1C3345
:1052F0001B024CEA002043EA1063B3FBF2FC02FB02
:105300001C331B024CEA002043EA1063B3FBF2FC9F
:1053100002FB1C331B024CEA002043EA1063B3FB80
:10532000F2FC02FB1C324CEA00200023704704020E
:105330000148007D704700BF4801002038B5044691
:10534000012501E0FDF7E5FAB4FA84F0C0B22028A7
:1053500006D000F019F8F5DB401FFDF7EFFAF3E790
:1053600031BD38B50446012501E0FDF766FAB4FA0F
:1053700084F0C0B2202806D000F006F8F5DB401F0C
:10538000FDF774FAF3E731BDC0F11F00C0B205FAB2
:1053900000F14C400528704738B50546012068717A
:1053A000244C2879A8B1FFF786F905462078FF2814
:1053B00005D12846FFF78AF96FF0060032BD401C80
:1053C0002070C0B2012804BF6068FFF7B7FF28460D
:1053D00014E0FFF770F9217821B9FFF777F96FF042
:1053E000070032BD491E2170C9B239B9FFF76EF905
:1053F0006068FFF7B6FF0020687101E0FFF766F90B
:10540000002032BD80B5406810F07F4F00D00DE025
:10541000FFF794FF002002BD80B5406810F07F4F79
:1054200000D003E0FFF79DFF002002BD6FF00200F7
:1054300002BD00003C050020202109032631182070
:10544000ABBEF9E77047000010B50FF2180403E097
:1054500011F8013B5840205C13465A1E002BF7D12F
:1054600010BD00000097B92EE5725CCB5DCAE473F5
:10547000B82F0196BA2D03945FC8E671E7705EC934
:105480000295BB2CE3745ACD0691BF28BE29079024
:105490005BCCE27559CEE077BC2B05920493BD2A14
:1054A000E17658CF51C6E87FB4230D9A0C9BB52204
:1054B000E97E50C7EB7C52C50E99B720B6210F98F4
:1054C00053C4EA7DB2250B9C57C0EE79EF7856C1E4
:1054D0000A9DB324089FB126ED7A54C355C2EC7BD4
:1054E000B027099EA2351B8C47D0FE69FF6846D1C4
:1054F0001A8DA334188FA136FD6A44D345D2FC6BB4
:10550000A037198E41D6F86FA4331D8A1C8BA532A3
:10551000F96E40D7FB6C42D51E89A730A6311F8893
:1055200043D4FA6DF3644ADD1681AF38AE39178083
:105530004BDCF26549DEF067AC3B15821483AD3A73
:10554000F16648DF1087A93EF5624CDB4DDAF46363
:10555000A83F1186AA3D13844FD8F661F7604ED953
:105560001285AB3CE0B50FF2FC107B4A0190102194
:105570000091132379491020FFF732FDC0B20EBD10
:105580002DE9FC42002708280D469146744E00F292
:105590007780DFE800F0050C1824303C48546A009E
:1055A000082D6BD10822494606F1080063E0152951
:1055B00064DA152106F1100000F0DAF82A464946AF
:1055C00006F1100057E0152958DA152106F12800D8
:1055D00000F0CEF82A46494606F128004BE015298E
:1055E0004CDA152106F1400000F0C2F82A4649467F
:1055F00006F140003FE0152940DA152106F1580078
:1056000000F0B6F82A46494606F1580033E015295D
:1056100034DA152106F1700000F0AAF82A4649464E
:1056200006F1700027E0152928DA06F18804152113
:10563000204600F09DF82A46494620461BE02846B1
:10564000FFF71CFB04000ED0706806F1A001884231
:1056500018BFFFF714FB2A4649462046FDF7CCFF4A
:10566000746035700DE013270BE0072D06D107227B
:10567000494606F1B000FDF7BFFF02E0182700E041
:1056800002273846BDE8F6822DE9FC4792464A6873
:10569000177852780A9CDDF82C8007EB02271D460C
:1056A0000026BFB242F62322A1462D4BBF1A03EBC0
:1056B0000900A44607D07F1E052F12D9BF1F21D095
:1056C000263F2FD042E0BCF1080F2ED8CCF1080CB9
:1056D000E04534BF4446C4F108042C8000F10801C1
:1056E0002FE0CF68384600F047F880B248451CDB11
:1056F000A0EB09018845B4BF4446041B2C8007EB8E
:1057000009011EE01878014661450ED3A0EB09009F
:105710008045B4BF44460C1B2C8058682A8800EB97
:1057200009010FE0BCF1080F01D3072610E0CCF10E
:10573000070CE04534BF4446C4F107042C8000F157
:10574000B0012A885046FDF757FF01E02E800A2657
:105750003046BDE8F6870000FC030020D1060100BA
:1057600044030020895600000000000000000000F3
:10577000002200F01DB8280000F10103810704D0C9
:1057800010F8011B89B18107FAD10268B2F1013129
:10579000914311F0803F04BF50F8042FF6E710F852
:1057A000011B11B110F8011BFBE7C01A704728005C
:1057B00000B500BF130096469446103928BFA0E8F4
:1057C0000C50FAD85FEA417C28BF0CC048BF40F8B3
:1057D000042BC90728BF20F8022B48BF00F8012B73
:1057E00000BD7047001800000118000000280000EC
:1057F0000128000003280000012900000229000000
:10580000002A0000012A0000042A000038B54FF6E3
:10581000FF74A0420DD10020874A137898420EDA17
:1058200021F8204001EB80050023401CAB70C0B282
:10583000F3E700F0ABF810B104800021817031BDB6
:105840002DE9F04F0024002818BF002985B003D0AF
:1058500013B1109F3D0001D102203BE00E9D0F9E31
:105860000491A14683468DF808200393ADF8385083
:1058700029E05FFA89FA3BF82A004FF6FF71884267
:105880001EBF0BEB8A05A87800281AD0049ABDF831
:105890003810039800F029F85FEA000811D0A878C2
:1058A000C10705D500F019F8012100F081F8044383
:1058B000A878810705D500F010F8022100F078F8EB
:1058C000044309F101095C4800785FFA89F18142DB
:1058D000CFD3E0B205B0BDE8F08F019700969DF8F8
:1058E00008203BF82A004346704730B503460024A1
:1058F00000E0641CA0B2884205D203EB0010C5682A
:105900009542F6D130BD002030BDF8B5044606986A
:105910000D460026F0B9022B1AD11178527807985B
:1059200001EB0227C043B9B201420FD1E868016818
:10593000204600F012F8B9B288420CD0E86801683D
:10594000BAB2204600F00FF8064604E0802602E0D6
:105950000D2600E00B263046F2BD80B500F016F8AB
:1059600000B1807802BD70B504460D46164600F0C1
:105970000DF840B929464FF6FF7000F007F808B956
:10598000112070BD04808670002070BD30B52A4B98
:105990001B78002200E0521CD4B29C4206D231F89F
:1059A00024508542F7D101EB840030BD002030BD8A
:1059B0002DE9F04186B00E4614461F46804603ABE3
:1059C0004FF6FF721B2100F03DF8059070B3BDF853
:1059D0000C200192FF210023029100930246DDF882
:1059E00034C00DF1120339464046E0470546B0B9D0
:1059F0007889ADF81000F10704D5009404AB424655
:105A00000E4908E00C995020FFF7D1FA019000945C
:105A100004AB42460A491020FFF7E2FA0546E8B215
:105A200028B11B2104A800F049F800E01525E8B2D0
:105A300006B0BDE8F0810000AA260020692C020013
:105A4000CD2B0200F8B5052915461C4616D00629AF
:105A500012D0092918BF112910D0122912D01629E5
:105A600018BF17290CD01B2918BF1D290AD052298D
:105A700018BFD22906D007E0072606E0022604E078
:105A8000052602E0032600E001264FF6FF739D4243
:105A900003D100F01CF8851B02E0D22908BF0C35A9
:105AA0007719B8B200F023F838B104B125807642F6
:105AB00031B2BDE8F44000F027B8F2BD80B500F087
:105AC00037F818B1BDE8024000F05CB801BD80B500
:105AD0004FF6FE72904205D000F07EF8010005D12D
:105AE000172002BDBDE8014000F07CB802BD80B5C2
:105AF000001D80B200F07CF828B1BDE804406FF0D2
:105B0000030100F001B802BD38B504460D4600F0AF
:105B100071F858B16D42611900F10803994222BF32
:105B200080881818884201D3084632BD204632BD0D
:105B3000052923D006291BD0072918BF09291DD004
:105B40000B2918BF0D2919D00E2913D00F291CBFFE
:105B50001129122912D0162918BF17290CD01B2978
:105B600018BF1D290AD0522918BFD22906D007E034
:105B7000C068704700687047806870474068704729
:105B8000002070477CB50446104801688847104AD9
:105B900005461068002101E00146006870B100F17F
:105BA00008039C4222BF86889B19A342F4D3036852
:105BB00000290CBF13600B6000F03CF8284602B0CF
:105BC000BDE8704003490A68104700BF2C0500205B
:105BD000102200203005002080B500F033F800B11D
:105BE000C08A02BD01480088704700BF640D0020D4
:105BF00000F048B838B505460B48016888470B499E
:105C00000C685CB104F10802954221BF04F108015F
:105C1000A2888918A94238BF2468F2D304490A68C7
:105C20009047204632BD00BF2C05002010220020E6
:105C30003005002002490A6852F8383F184700BF73
:105C40002C250020F0B5002100264FF6FF744FF6FA
:105C5000FD750A4A1778BE420EDA094F3B683422B6
:105C600072431A44A842578801D1A74203D1874200
:105C700018BF761CEDD111460846F0BDAA260020BB
:105C80005C20002080B50E3080B200F009F828B109
:105C9000BDE804406FF00801FFF736BF02BD704752
:105CA00070B505460B4801688847064605F10800AF
:105CB00080B200F015F8040005D00748A5800168FF
:105CC00021600460083405490A6830469047204640
:105CD00070BD00BF2C0500201022002030050020E0
:105CE00002490A6852F8343F184700BF2C250020AB
:105CF0007047FEE7DFF800F021B6031070B5404CA6
:105D00000FF249003F4DFCF71DFCFCF72DFC23680A
:105D10001E68012201212846B04722683A4C536888
:105D20000121284698473948E26801681160FFF769
:105D300005F8E1684860FEF732FEFEF77FFE00F0EE
:105D4000CBF8FFF7D7FF002070BD00007CB5304EC8
:105D5000326804460D462AB900214FF0FF3001F0A9
:105D6000C9FA3060002230680FF2B003002101F060
:105D7000F5FAA41E30680FF2B403052C39D8DFE819
:105D800004F00F38031B213200F044F80FF2A8038F
:105D9000306802B0BDE870400022022101F0DEBA96
:105DA000012D04D100F036F80FF2A003F0E700F067
:105DB00031F80FF2B003EBE700F02CF830680FF287
:105DC000B80304E000F026F830680FF2BC030022AC
:105DD000022101F0C3FA01218DF800109DF80000A6
:105DE0000028FBD173BD00F015F830680FF2AC034A
:105DF000EDE700F00FF830680FF2B403E7E70000BA
:105E0000D801001000400340540500204C1500004C
:105E1000580700200022002101F0A0BA3E3E3E5368
:105E20005441434B20415353455254002A2A2A459A
:105E300052524F522A2A2A003E3E204F5554204F9C
:105E400046204D454D4F5259210000003E3E20490D
:105E50004E5445524E414C204657204552524F52C7
:105E6000210000003E3E20494E5445524E414C20F8
:105E70004552524F522100003E3E204943414C4C76
:105E80002041424F525421003E3E204943414C4C58
:105E90002054494D454F5554210000003E3E2057A7
:105EA000524F4E47204150492043414C4C21000065
:105EB0003E3E2044454641554C54205350494E4C9B
:105EC0004F434B2100000000DFF800F0B5A30310A2
:105ED000DFF800F0ADB6031000B58FB008233C2208
:105EE00000216846FEF7C8FBDFF8800C00F1500186
:105EF00007914FF4806201210892069100236A46BF
:105F00000FF23D21FFF7E0FF0FB000BD7FB5DFF8D6
:105F1000604CDFF86C5D05F138012046FEF7F7FDB7
:105F200005F14800FEF748FBE863002105F1440055
:105F300001900091002341F288320FF6A121DFF891
:105F4000346C05F15400FEF707FB05F1AC0000903E
:105F500015230022DFF8201C00F01CFE0223002283
:105F6000DFF8181C00F0EBFC01208DF80700012180
:105F700000208DF805008DF806100DF107008DF852
:105F80000410009001234FF4806200F0D5F80DF169
:105F900006000090012340F2024200F0CDF80DF11E
:105FA00005000090012340F2034200F0C5F801A86B
:105FB0000090012340F2064200F0BEF84FF0FF329D
:105FC000DFF8BC1B00F0E4FA4FF0FF32DFF8B41B3F
:105FD00000F0DEFAFFF7C6FA4FF0FF3001F0D0F91B
:105FE00001208DF8030003200FF210128DF801003C
:105FF0000221D2E900368DF8021001A80421C0E97F
:1060000000368DF800100DF103020121002001F08F
:10601000DFF90DF102020121012001F0D9F90DF1A2
:1060200001020121022001F0D3F900F0BEFA01AA19
:106030000521042001F0CCF905F1D40001F0C1F9EB
:1060400005F1CC02DFF8781C00F0A2FA00F070F83D
:106050000246DFF8701C00F09BFA00F069F8024677
:10606000DFF8641C00F094FA40F64803FB22DFF8E6
:106070005C1C00F064FCDFF8581C00F05CFC0FF6C0
:106080002520FEF7F9F94FF6FD7000F06FFE21783C
:10609000DFF8D04C00F04DF800210222019100926F
:1060A00003460422DFF8A01C00F074FD30212846CE
:1060B000FFF75EFB4FF6FF702880288300214FF02A
:1060C000FF3001F017F968636FF078420FF2340087
:1060D00020600021204601F0A7FA686BDFF8883CB9
:1060E0000222214601F040FADFF8E00C0FF228030B
:1060F0000178686B002201F031F97FBD01020304D1
:106100000500000053696D706C6520506572697000
:10611000686572616C0000003D3D3D3D3D3D3D3D8B
:106120003D3D3D3D3D3D3D3D3D3D3D3D0000000093
:1061300021785020FEF73BBF31461020FEF750BFBC
:106140007CB5FFF7E3FEDFF8285ADFF8346BB06B5D
:106150004FF0FF334FF040420021FEF79DFA04005C
:10616000F5D00020019001AA69460DF10200FEF76A
:1061700005FDC8B9BDF802100120102902BF9DF825
:10618000002029788A4208D101990A884FF6FF73C6
:106190009A421CBF084600F019F8019900291EBF59
:1061A00000280846FEF7D5FC6000D0D5F06BFFF75D
:1061B0008FFE0028CBD1F06BFEF71FFA0400F5D05C
:1061C00000F0C8F82046FEF75AFDEFE738B5DFF8D3
:1061D000FC1B0C780546DFF8A80A2A78406B611C86
:1061E000912A1CD0B02A05D0D02A61D1284600F0CF
:1061F000E1F95DE02A797E2A03D12A7A0FF2B4030D
:1062000004E07F2A05D12A890FF2B803009200F03A
:10621000C8F9297905F10800FFF750FC48E06A78D1
:106220000E2A06D00F2A0DD0102A06D03E2A20D0E2
:106230003EE0284600F012FE3AE000210820FFF779
:1062400085FD35E0AA8842F23204A24230D1AA7814
:106250001A2A04D10FF27C0300F074FB06E00092CE
:10626000C9B20FF2A003002201F078F829462046B7
:106270001CE0AB780C2B1BD1EA7822B10FF2A403FF
:1062800000F060FB10E0E979012908BFA0A104D06B
:1062900002290CBF9FA10FF2A0010091A41C0FF2D4
:1062A000A003E1B201F05AF829460C2000F0C4FE28
:1062B000012032BD46432056696F6C617465643AB3
:1062C000202564004D54552053697A653A20256491
:1062D00000000000504859204368616E67652066E1
:1062E00061696C7572652C207065657220646F65DC
:1062F00073206E6F7420737570706F727420746881
:1063000069730000504859205570646174652053CA
:106310007461747573204576656E743A2030782503
:1063200078000000504859204368616E6765206618
:1063300061696C7572650000434F4445440000007C
:10634000504859205570646174656420746F20252D
:1063500073000000FEB5DFF82869DFF8705A0446C4
:106360002178706B491E08292FD8DFE801F005233A
:1063700039608DA2AAADB3006268107870B10228AE
:1063800023D101A901F060F89DF80410706B0FF2A1
:106390008813009100222978491C6BE001A901F0C3
:1063A00053F89DF8040029780FF278130090491CE7
:1063B000706B5EE060680078010707D50D20FDF77F
:1063C00065F8002801D101F04BF99CE0C006FCD52E
:1063D0000E20FDF75BF8002801D101F05DF992E095
:1063E000666829783268091D012A11D0022A09D06D
:1063F000102A14D172685388019312780FF2301367
:1064000000920AE07268137800930FF2481304E0D8
:106410007268137800930FF2501300F0C2F83068DE
:10642000B0F1004F6FD07068FEF729FC6BE0636835
:106430001A7929781B78C91C032B64D8DFE803F08C
:106440001D120A0212B90FF2341319E000920FF272
:10645000CC530EE012B90FF2DC5311E000920FF2B0
:10646000E85306E012B90FF2F85309E000920FF278
:106470000063002200F0AEFA45E00FF2086300224C
:10648000C9B200F06BFF3EE06168DFF8347C8E1D1E
:10649000F17831B129780FF2FC530097C91C00F054
:1064A00080F8009700233288DFF8181C00F072FB98
:1064B00029E06946022000F0C7FF20BB00F075F814
:1064C00021E000F062FA1EE06068B0F8010000F020
:1064D0007FFCF7BD6568688800F038FC022807DBA0
:1064E00000F052FB9DF80020521C8DF80020F9E7C7
:1064F000182148433044C27D012A04D16A88DFF85C
:106500008C1C00F045F8606808B1FEF7B8FBF7BDD9
:10651000314D0000324D00004368617220333A2053
:10652000256400004368617220313A202564000030
:106530004164762053657420256420646973616228
:106540006C656420616674657220636F6E6E2025D1
:106550006400000041647620536574202564204463
:10656000697361626C6564004164762053657420D0
:10657000256420456E61626C65640000426F6E6444
:106580002073617665207375636365737300000023
:106590001020FEF725BDCDF800905B463178606B8A
:1065A000891C0022C9B200F0D9BE6A46012103202D
:1065B00000F00EBF2DE9F84F054692B0A878DFF83D
:1065C000D0ABDFF8D01BDFF8D07BDFF898870FF671
:1065D0002C4BDFF8AC46DFF8F46760B1052800F01B
:1065E000C780062800F0FF80072800F06681112888
:1065F00000F041818DE16878002840F09281A9790E
:10660000DFF8989B8DF8081002A8E979417002AA7A
:10661000297A817000210171C170E97AC171A97A6A
:1066200081710821687A8DF80D000020FEF7A8FF1F
:106630003178606B0FF6AC33491C00F083F90BA87E
:106640000FF678411C22FCF7E7FF00970BAB0FF227
:106650004D524946FFF771FDC0B220B100F094FAE7
:1066600000F0F6FBFCE7381D072101900091DFF8F0
:10667000308B3A78002300F08CFAC0B220B100F0E1
:1066800083FA00F0E5FBFCE700F04EF93A7800F001
:1066900080FAC0B220B100F077FA00F0D9FBFCE735
:1066A000DFF800BB3A78922300F048F900F056F981
:1066B000C0B220B100F068FA00F0CAFBFCE704A801
:1066C0000FF614411C22FCF7A7FF781C009004ABC6
:1066D0000FF2C9424946FFF730FDC0B220B100F0C9
:1066E00053FA00F0B5FBFCE7381D0721019000913B
:1066F000002300F04DFAC0B220B100F045FA00F0DE
:10670000A7FBFCE700F010F900F042FAC0B220B19C
:1067100000F03AFA00F09CFBFCE792237A7800F054
:106720000DF900F013F9C0B220B100F02DFA00F01D
:106730008FFBFCE7A81DFDF76DFF0190B6A0009050
:1067400000223178606B0FF6A823891D00F042F912
:1067500000F01BF9B81C012101900091002340F6C4
:10676000B8320FF2792104F17800FDF7F5FED8E098
:1067700000F0E1F85FFA80F9FFF70DFF6878B0B933
:10678000688900F0A7FA281DFDF744FF0090002259
:106790003178606B0FF6742300F01BF900220121A1
:1067A000404600F041FF04F15400FDF7FAFEB9F154
:1067B000010F07DC00F0D2F800207A780090002367
:1067C00051460DE000200090DFF8DC497A78002384
:1067D000214600F0DFF900203A780090002321469E
:1067E00000F0D8F99DE000F0A6F831780FF62C23E0
:1067F0005FFA80F9491C606B00F0A4F8FFF7CBFE4C
:10680000B5F804B0584600F0A1FA02281FD01821AC
:106810004843009004F10800009945588DB128467E
:10682000FDF7C1FE10B12846FDF7C4FE2846FCF76F
:1068300047FF2846FEF723FA0099201D4058FEF72F
:106840001EFA584600F0C1FB584600F08FFAB9F125
:10685000000F08D104F15400FDF7ACFE0122002125
:10686000404600F0E1FE00F079F800F06FF8317872
:106870000022C91C51E0A888ADF80000A97B8DF862
:106880000A10688978B9E988ADF8021001212889D1
:10689000ADF804006889ADF80600A889ADF80800D5
:1068A0008DF80B1002E000208DF80B006A46DFF82F
:1068B000FC181020FEF794FB33E0AA88DFF8F018EC
:1068C00002AB1020FEF78CFBE87800280DF10A00DF
:1068D00005D1FDF79FFE00900FF6581306E0FDF777
:1068E00099FE01900FF66413A87800900022317889
:1068F000606B891C00F06EF804F1A400FCF78AFFBD
:1069000004000ED0208900F063FA2046FEF7B7F9A4
:1069100007E031788A1CD2B2491C606BC9B200F022
:1069200015FD13B0BDE8F08F07F10C001B2101909D
:106930000091012370471020FEF752BB59461020EA
:10694000FEF74EBB0022C9B200F008BD0020009047
:1069500000237A7851461020FEF742BB00200090B9
:1069600000233A7851461020FEF73ABB38B5054669
:106970000120FEF783F9040006D02570214601208E
:1069800000F067F900B19CE031BD7CB5002000F05B
:1069900011FFBB4D05F1C40604460622314600F046
:1069A00021FFA8B12046FDF735FE00900022DFF858
:1069B0001C040FF6BC030178686BC91D00F00AF8CF
:1069C0002146304602B0BDE870400622FCF714BEF6
:1069D00073BD491CC9B200F0C1BC000080B501788C
:1069E000DFF8D027062906D102F15400FDF7D9FDC2
:1069F000002106200CE0072906D102F17800FDF7FE
:106A0000D0FD0021072003E0082904D10146082019
:106A1000BDE804401DE101BD49440000426F6E64C1
:106A20002073617665206661696C65643A2025642F
:106A300000000000456E6372797074696F6E207398
:106A40007563636573730000456E63727970746972
:106A50006F6E206661696C65643A202564000000F1
:106A600050616972696E6720737563636573730043
:106A700050616972696E67206661696C3A202564AD
:106A80000000000050616972696E67207374617262
:106A90007465640050617373636F64653A202564A4
:106AA0000000000038B505460120FEF7E7F80400B5
